{
	"Q1.sol": {
		"Student": {
			"abi": [
				{
					"inputs": [
						{
							"internalType": "string",
							"name": "_studentName",
							"type": "string"
						},
						{
							"internalType": "string",
							"name": "_regdNo",
							"type": "string"
						},
						{
							"internalType": "string",
							"name": "_electiveSubject",
							"type": "string"
						},
						{
							"internalType": "uint256",
							"name": "_avgMarks",
							"type": "uint256"
						},
						{
							"internalType": "string",
							"name": "_deptName",
							"type": "string"
						},
						{
							"internalType": "string",
							"name": "_deptHead",
							"type": "string"
						}
					],
					"name": "getData",
					"outputs": [],
					"stateMutability": "nonpayable",
					"type": "function"
				},
				{
					"inputs": [],
					"name": "getDepartmentDetails",
					"outputs": [
						{
							"internalType": "string",
							"name": "",
							"type": "string"
						},
						{
							"internalType": "string",
							"name": "",
							"type": "string"
						}
					],
					"stateMutability": "pure",
					"type": "function"
				},
				{
					"inputs": [],
					"name": "getHostelDetails",
					"outputs": [
						{
							"internalType": "string",
							"name": "",
							"type": "string"
						},
						{
							"internalType": "string",
							"name": "",
							"type": "string"
						},
						{
							"internalType": "uint256",
							"name": "",
							"type": "uint256"
						}
					],
					"stateMutability": "view",
					"type": "function"
				},
				{
					"inputs": [],
					"name": "hostelLocation",
					"outputs": [
						{
							"internalType": "string",
							"name": "",
							"type": "string"
						}
					],
					"stateMutability": "view",
					"type": "function"
				},
				{
					"inputs": [],
					"name": "hostelName",
					"outputs": [
						{
							"internalType": "string",
							"name": "",
							"type": "string"
						}
					],
					"stateMutability": "view",
					"type": "function"
				},
				{
					"inputs": [],
					"name": "numberOfRooms",
					"outputs": [
						{
							"internalType": "uint256",
							"name": "",
							"type": "uint256"
						}
					],
					"stateMutability": "view",
					"type": "function"
				},
				{
					"inputs": [
						{
							"internalType": "string",
							"name": "_regdNo",
							"type": "string"
						}
					],
					"name": "printData",
					"outputs": [
						{
							"internalType": "string",
							"name": "",
							"type": "string"
						}
					],
					"stateMutability": "view",
					"type": "function"
				},
				{
					"inputs": [],
					"name": "printDepartmentDetails",
					"outputs": [
						{
							"internalType": "string",
							"name": "",
							"type": "string"
						}
					],
					"stateMutability": "pure",
					"type": "function"
				},
				{
					"inputs": [],
					"name": "printHostelDetails",
					"outputs": [
						{
							"internalType": "string",
							"name": "",
							"type": "string"
						}
					],
					"stateMutability": "view",
					"type": "function"
				},
				{
					"inputs": [
						{
							"internalType": "string",
							"name": "_name",
							"type": "string"
						},
						{
							"internalType": "string",
							"name": "_location",
							"type": "string"
						},
						{
							"internalType": "uint256",
							"name": "_rooms",
							"type": "uint256"
						}
					],
					"name": "setHostelDetails",
					"outputs": [],
					"stateMutability": "nonpayable",
					"type": "function"
				}
			],
			"devdoc": {
				"kind": "dev",
				"methods": {},
				"version": 1
			},
			"evm": {
				"assembly": "    /* \"Q1.sol\":1494:3117  contract Student is Hostel, Department {... */\n  mstore(0x40, 0x80)\n  callvalue\n  dup1\n  iszero\n  tag_1\n  jumpi\n  0x00\n  dup1\n  revert\ntag_1:\n  pop\n  dataSize(sub_0)\n  dup1\n  dataOffset(sub_0)\n  0x00\n  codecopy\n  0x00\n  return\nstop\n\nsub_0: assembly {\n        /* \"Q1.sol\":1494:3117  contract Student is Hostel, Department {... */\n      mstore(0x40, 0x80)\n      callvalue\n      dup1\n      iszero\n      tag_1\n      jumpi\n      0x00\n      dup1\n      revert\n    tag_1:\n      pop\n      jumpi(tag_2, lt(calldatasize, 0x04))\n      shr(0xe0, calldataload(0x00))\n      dup1\n      0x9b5cb960\n      gt\n      tag_13\n      jumpi\n      dup1\n      0x9b5cb960\n      eq\n      tag_8\n      jumpi\n      dup1\n      0x9d8c8315\n      eq\n      tag_9\n      jumpi\n      dup1\n      0xcb9cb0c2\n      eq\n      tag_10\n      jumpi\n      dup1\n      0xceb63c76\n      eq\n      tag_11\n      jumpi\n      dup1\n      0xf8fd1948\n      eq\n      tag_12\n      jumpi\n      jump(tag_2)\n    tag_13:\n      dup1\n      0x11ebae41\n      eq\n      tag_3\n      jumpi\n      dup1\n      0x2224b6a9\n      eq\n      tag_4\n      jumpi\n      dup1\n      0x4cc4ce5d\n      eq\n      tag_5\n      jumpi\n      dup1\n      0x5e1b609c\n      eq\n      tag_6\n      jumpi\n      dup1\n      0x99d568b3\n      eq\n      tag_7\n      jumpi\n    tag_2:\n      0x00\n      dup1\n      revert\n        /* \"Q1.sol\":312:340  string public hostelLocation */\n    tag_3:\n      tag_14\n      tag_15\n      jump\t// in\n    tag_14:\n      mload(0x40)\n      tag_16\n      swap2\n      swap1\n      tag_17\n      jump\t// in\n    tag_16:\n      mload(0x40)\n      dup1\n      swap2\n      sub\n      swap1\n      return\n        /* \"Q1.sol\":381:580  function setHostelDetails(string memory _name, string memory _location, uint _rooms) public {... */\n    tag_4:\n      tag_18\n      0x04\n      dup1\n      calldatasize\n      sub\n      dup2\n      add\n      swap1\n      tag_19\n      swap2\n      swap1\n      tag_20\n      jump\t// in\n    tag_19:\n      tag_21\n      jump\t// in\n    tag_18:\n      stop\n        /* \"Q1.sol\":2954:3114  function printDepartmentDetails() external pure override returns (string memory) {... */\n    tag_5:\n      tag_22\n      tag_23\n      jump\t// in\n    tag_22:\n      mload(0x40)\n      tag_24\n      swap2\n      swap1\n      tag_17\n      jump\t// in\n    tag_24:\n      mload(0x40)\n      dup1\n      swap2\n      sub\n      swap1\n      return\n        /* \"Q1.sol\":2159:2728  function printData(string memory _regdNo) public view returns (string memory) {... */\n    tag_6:\n      tag_25\n      0x04\n      dup1\n      calldatasize\n      sub\n      dup2\n      add\n      swap1\n      tag_26\n      swap2\n      swap1\n      tag_27\n      jump\t// in\n    tag_26:\n      tag_28\n      jump\t// in\n    tag_25:\n      mload(0x40)\n      tag_29\n      swap2\n      swap1\n      tag_17\n      jump\t// in\n    tag_29:\n      mload(0x40)\n      dup1\n      swap2\n      sub\n      swap1\n      return\n        /* \"Q1.sol\":347:372  uint public numberOfRooms */\n    tag_7:\n      tag_30\n      tag_31\n      jump\t// in\n    tag_30:\n      mload(0x40)\n      tag_32\n      swap2\n      swap1\n      tag_33\n      jump\t// in\n    tag_32:\n      mload(0x40)\n      dup1\n      swap2\n      sub\n      swap1\n      return\n        /* \"Q1.sol\":1793:2151  function getData(... */\n    tag_8:\n      tag_34\n      0x04\n      dup1\n      calldatasize\n      sub\n      dup2\n      add\n      swap1\n      tag_35\n      swap2\n      swap1\n      tag_36\n      jump\t// in\n    tag_35:\n      tag_37\n      jump\t// in\n    tag_34:\n      stop\n        /* \"Q1.sol\":588:742  function getHostelDetails() public view returns (string memory, string memory, uint) {... */\n    tag_9:\n      tag_38\n      tag_39\n      jump\t// in\n    tag_38:\n      mload(0x40)\n      tag_40\n      swap4\n      swap3\n      swap2\n      swap1\n      tag_41\n      jump\t// in\n    tag_40:\n      mload(0x40)\n      dup1\n      swap2\n      sub\n      swap1\n      return\n        /* \"Q1.sol\":281:305  string public hostelName */\n    tag_10:\n      tag_42\n      tag_43\n      jump\t// in\n    tag_42:\n      mload(0x40)\n      tag_44\n      swap2\n      swap1\n      tag_17\n      jump\t// in\n    tag_44:\n      mload(0x40)\n      dup1\n      swap2\n      sub\n      swap1\n      return\n        /* \"Q1.sol\":2736:2946  function getDepartmentDetails() external pure override returns (string memory, string memory) {... */\n    tag_11:\n      tag_45\n      tag_46\n      jump\t// in\n    tag_45:\n      mload(0x40)\n      tag_47\n      swap3\n      swap2\n      swap1\n      tag_48\n      jump\t// in\n    tag_47:\n      mload(0x40)\n      dup1\n      swap2\n      sub\n      swap1\n      return\n        /* \"Q1.sol\":750:965  function printHostelDetails() public view returns (string memory) {... */\n    tag_12:\n      tag_49\n      tag_50\n      jump\t// in\n    tag_49:\n      mload(0x40)\n      tag_51\n      swap2\n      swap1\n      tag_17\n      jump\t// in\n    tag_51:\n      mload(0x40)\n      dup1\n      swap2\n      sub\n      swap1\n      return\n        /* \"Q1.sol\":312:340  string public hostelLocation */\n    tag_15:\n      0x01\n      dup1\n      sload\n      tag_52\n      swap1\n      tag_53\n      jump\t// in\n    tag_52:\n      dup1\n      0x1f\n      add\n      0x20\n      dup1\n      swap2\n      div\n      mul\n      0x20\n      add\n      mload(0x40)\n      swap1\n      dup2\n      add\n      0x40\n      mstore\n      dup1\n      swap3\n      swap2\n      swap1\n      dup2\n      dup2\n      mstore\n      0x20\n      add\n      dup3\n      dup1\n      sload\n      tag_54\n      swap1\n      tag_53\n      jump\t// in\n    tag_54:\n      dup1\n      iszero\n      tag_55\n      jumpi\n      dup1\n      0x1f\n      lt\n      tag_56\n      jumpi\n      0x0100\n      dup1\n      dup4\n      sload\n      div\n      mul\n      dup4\n      mstore\n      swap2\n      0x20\n      add\n      swap2\n      jump(tag_55)\n    tag_56:\n      dup3\n      add\n      swap2\n      swap1\n      0x00\n      mstore\n      keccak256(0x00, 0x20)\n      swap1\n    tag_57:\n      dup2\n      sload\n      dup2\n      mstore\n      swap1\n      0x01\n      add\n      swap1\n      0x20\n      add\n      dup1\n      dup4\n      gt\n      tag_57\n      jumpi\n      dup3\n      swap1\n      sub\n      0x1f\n      and\n      dup3\n      add\n      swap2\n    tag_55:\n      pop\n      pop\n      pop\n      pop\n      pop\n      dup2\n      jump\t// out\n        /* \"Q1.sol\":381:580  function setHostelDetails(string memory _name, string memory _location, uint _rooms) public {... */\n    tag_21:\n        /* \"Q1.sol\":497:502  _name */\n      dup3\n        /* \"Q1.sol\":484:494  hostelName */\n      0x00\n        /* \"Q1.sol\":484:502  hostelName = _name */\n      swap1\n      dup2\n      tag_59\n      swap2\n      swap1\n      tag_60\n      jump\t// in\n    tag_59:\n      pop\n        /* \"Q1.sol\":530:539  _location */\n      dup2\n        /* \"Q1.sol\":513:527  hostelLocation */\n      0x01\n        /* \"Q1.sol\":513:539  hostelLocation = _location */\n      swap1\n      dup2\n      tag_61\n      swap2\n      swap1\n      tag_60\n      jump\t// in\n    tag_61:\n      pop\n        /* \"Q1.sol\":566:572  _rooms */\n      dup1\n        /* \"Q1.sol\":550:563  numberOfRooms */\n      0x02\n        /* \"Q1.sol\":550:572  numberOfRooms = _rooms */\n      dup2\n      swap1\n      sstore\n      pop\n        /* \"Q1.sol\":381:580  function setHostelDetails(string memory _name, string memory _location, uint _rooms) public {... */\n      pop\n      pop\n      pop\n      jump\t// out\n        /* \"Q1.sol\":2954:3114  function printDepartmentDetails() external pure override returns (string memory) {... */\n    tag_23:\n        /* \"Q1.sol\":3020:3033  string memory */\n      0x60\n        /* \"Q1.sol\":3046:3106  return \"Implemented in printData() based on student record.\" */\n      mload(0x40)\n      dup1\n      0x60\n      add\n      0x40\n      mstore\n      dup1\n      0x33\n      dup2\n      mstore\n      0x20\n      add\n      data_ff4cb236e49a03b17175fae44f3b5b0074224bc7aaa6e7259a6c8f86f5cbfe11\n      0x33\n      swap2\n      codecopy\n      swap1\n      pop\n        /* \"Q1.sol\":2954:3114  function printDepartmentDetails() external pure override returns (string memory) {... */\n      swap1\n      jump\t// out\n        /* \"Q1.sol\":2159:2728  function printData(string memory _regdNo) public view returns (string memory) {... */\n    tag_28:\n        /* \"Q1.sol\":2222:2235  string memory */\n      0x60\n        /* \"Q1.sol\":2248:2268  StudentData memory s */\n      0x00\n        /* \"Q1.sol\":2271:2279  students */\n      0x03\n        /* \"Q1.sol\":2280:2287  _regdNo */\n      dup4\n        /* \"Q1.sol\":2271:2288  students[_regdNo] */\n      mload(0x40)\n      tag_64\n      swap2\n      swap1\n      tag_65\n      jump\t// in\n    tag_64:\n      swap1\n      dup2\n      mstore\n      0x20\n      add\n      mload(0x40)\n      dup1\n      swap2\n      sub\n      swap1\n      keccak256\n        /* \"Q1.sol\":2248:2288  StudentData memory s = students[_regdNo] */\n      mload(0x40)\n      dup1\n      0xc0\n      add\n      0x40\n      mstore\n      swap1\n      dup2\n      0x00\n      dup3\n      add\n      dup1\n      sload\n      tag_66\n      swap1\n      tag_53\n      jump\t// in\n    tag_66:\n      dup1\n      0x1f\n      add\n      0x20\n      dup1\n      swap2\n      div\n      mul\n      0x20\n      add\n      mload(0x40)\n      swap1\n      dup2\n      add\n      0x40\n      mstore\n      dup1\n      swap3\n      swap2\n      swap1\n      dup2\n      dup2\n      mstore\n      0x20\n      add\n      dup3\n      dup1\n      sload\n      tag_67\n      swap1\n      tag_53\n      jump\t// in\n    tag_67:\n      dup1\n      iszero\n      tag_68\n      jumpi\n      dup1\n      0x1f\n      lt\n      tag_69\n      jumpi\n      0x0100\n      dup1\n      dup4\n      sload\n      div\n      mul\n      dup4\n      mstore\n      swap2\n      0x20\n      add\n      swap2\n      jump(tag_68)\n    tag_69:\n      dup3\n      add\n      swap2\n      swap1\n      0x00\n      mstore\n      keccak256(0x00, 0x20)\n      swap1\n    tag_70:\n      dup2\n      sload\n      dup2\n      mstore\n      swap1\n      0x01\n      add\n      swap1\n      0x20\n      add\n      dup1\n      dup4\n      gt\n      tag_70\n      jumpi\n      dup3\n      swap1\n      sub\n      0x1f\n      and\n      dup3\n      add\n      swap2\n    tag_68:\n      pop\n      pop\n      pop\n      pop\n      pop\n      dup2\n      mstore\n      0x20\n      add\n      0x01\n      dup3\n      add\n      dup1\n      sload\n      tag_71\n      swap1\n      tag_53\n      jump\t// in\n    tag_71:\n      dup1\n      0x1f\n      add\n      0x20\n      dup1\n      swap2\n      div\n      mul\n      0x20\n      add\n      mload(0x40)\n      swap1\n      dup2\n      add\n      0x40\n      mstore\n      dup1\n      swap3\n      swap2\n      swap1\n      dup2\n      dup2\n      mstore\n      0x20\n      add\n      dup3\n      dup1\n      sload\n      tag_72\n      swap1\n      tag_53\n      jump\t// in\n    tag_72:\n      dup1\n      iszero\n      tag_73\n      jumpi\n      dup1\n      0x1f\n      lt\n      tag_74\n      jumpi\n      0x0100\n      dup1\n      dup4\n      sload\n      div\n      mul\n      dup4\n      mstore\n      swap2\n      0x20\n      add\n      swap2\n      jump(tag_73)\n    tag_74:\n      dup3\n      add\n      swap2\n      swap1\n      0x00\n      mstore\n      keccak256(0x00, 0x20)\n      swap1\n    tag_75:\n      dup2\n      sload\n      dup2\n      mstore\n      swap1\n      0x01\n      add\n      swap1\n      0x20\n      add\n      dup1\n      dup4\n      gt\n      tag_75\n      jumpi\n      dup3\n      swap1\n      sub\n      0x1f\n      and\n      dup3\n      add\n      swap2\n    tag_73:\n      pop\n      pop\n      pop\n      pop\n      pop\n      dup2\n      mstore\n      0x20\n      add\n      0x02\n      dup3\n      add\n      dup1\n      sload\n      tag_76\n      swap1\n      tag_53\n      jump\t// in\n    tag_76:\n      dup1\n      0x1f\n      add\n      0x20\n      dup1\n      swap2\n      div\n      mul\n      0x20\n      add\n      mload(0x40)\n      swap1\n      dup2\n      add\n      0x40\n      mstore\n      dup1\n      swap3\n      swap2\n      swap1\n      dup2\n      dup2\n      mstore\n      0x20\n      add\n      dup3\n      dup1\n      sload\n      tag_77\n      swap1\n      tag_53\n      jump\t// in\n    tag_77:\n      dup1\n      iszero\n      tag_78\n      jumpi\n      dup1\n      0x1f\n      lt\n      tag_79\n      jumpi\n      0x0100\n      dup1\n      dup4\n      sload\n      div\n      mul\n      dup4\n      mstore\n      swap2\n      0x20\n      add\n      swap2\n      jump(tag_78)\n    tag_79:\n      dup3\n      add\n      swap2\n      swap1\n      0x00\n      mstore\n      keccak256(0x00, 0x20)\n      swap1\n    tag_80:\n      dup2\n      sload\n      dup2\n      mstore\n      swap1\n      0x01\n      add\n      swap1\n      0x20\n      add\n      dup1\n      dup4\n      gt\n      tag_80\n      jumpi\n      dup3\n      swap1\n      sub\n      0x1f\n      and\n      dup3\n      add\n      swap2\n    tag_78:\n      pop\n      pop\n      pop\n      pop\n      pop\n      dup2\n      mstore\n      0x20\n      add\n      0x03\n      dup3\n      add\n      sload\n      dup2\n      mstore\n      0x20\n      add\n      0x04\n      dup3\n      add\n      dup1\n      sload\n      tag_81\n      swap1\n      tag_53\n      jump\t// in\n    tag_81:\n      dup1\n      0x1f\n      add\n      0x20\n      dup1\n      swap2\n      div\n      mul\n      0x20\n      add\n      mload(0x40)\n      swap1\n      dup2\n      add\n      0x40\n      mstore\n      dup1\n      swap3\n      swap2\n      swap1\n      dup2\n      dup2\n      mstore\n      0x20\n      add\n      dup3\n      dup1\n      sload\n      tag_82\n      swap1\n      tag_53\n      jump\t// in\n    tag_82:\n      dup1\n      iszero\n      tag_83\n      jumpi\n      dup1\n      0x1f\n      lt\n      tag_84\n      jumpi\n      0x0100\n      dup1\n      dup4\n      sload\n      div\n      mul\n      dup4\n      mstore\n      swap2\n      0x20\n      add\n      swap2\n      jump(tag_83)\n    tag_84:\n      dup3\n      add\n      swap2\n      swap1\n      0x00\n      mstore\n      keccak256(0x00, 0x20)\n      swap1\n    tag_85:\n      dup2\n      sload\n      dup2\n      mstore\n      swap1\n      0x01\n      add\n      swap1\n      0x20\n      add\n      dup1\n      dup4\n      gt\n      tag_85\n      jumpi\n      dup3\n      swap1\n      sub\n      0x1f\n      and\n      dup3\n      add\n      swap2\n    tag_83:\n      pop\n      pop\n      pop\n      pop\n      pop\n      dup2\n      mstore\n      0x20\n      add\n      0x05\n      dup3\n      add\n      dup1\n      sload\n      tag_86\n      swap1\n      tag_53\n      jump\t// in\n    tag_86:\n      dup1\n      0x1f\n      add\n      0x20\n      dup1\n      swap2\n      div\n      mul\n      0x20\n      add\n      mload(0x40)\n      swap1\n      dup2\n      add\n      0x40\n      mstore\n      dup1\n      swap3\n      swap2\n      swap1\n      dup2\n      dup2\n      mstore\n      0x20\n      add\n      dup3\n      dup1\n      sload\n      tag_87\n      swap1\n      tag_53\n      jump\t// in\n    tag_87:\n      dup1\n      iszero\n      tag_88\n      jumpi\n      dup1\n      0x1f\n      lt\n      tag_89\n      jumpi\n      0x0100\n      dup1\n      dup4\n      sload\n      div\n      mul\n      dup4\n      mstore\n      swap2\n      0x20\n      add\n      swap2\n      jump(tag_88)\n    tag_89:\n      dup3\n      add\n      swap2\n      swap1\n      0x00\n      mstore\n      keccak256(0x00, 0x20)\n      swap1\n    tag_90:\n      dup2\n      sload\n      dup2\n      mstore\n      swap1\n      0x01\n      add\n      swap1\n      0x20\n      add\n      dup1\n      dup4\n      gt\n      tag_90\n      jumpi\n      dup3\n      swap1\n      sub\n      0x1f\n      and\n      dup3\n      add\n      swap2\n    tag_88:\n      pop\n      pop\n      pop\n      pop\n      pop\n      dup2\n      mstore\n      pop\n      pop\n      swap1\n      pop\n        /* \"Q1.sol\":2329:2330  0 */\n      0x00\n        /* \"Q1.sol\":2309:2310  s */\n      dup2\n        /* \"Q1.sol\":2309:2317  s.regdNo */\n      0x20\n      add\n      mload\n        /* \"Q1.sol\":2303:2325  bytes(s.regdNo).length */\n      mload\n        /* \"Q1.sol\":2303:2330  bytes(s.regdNo).length == 0 */\n      sub\n        /* \"Q1.sol\":2299:2358  if (bytes(s.regdNo).length == 0) return \"Student not found\" */\n      tag_91\n      jumpi\n        /* \"Q1.sol\":2332:2358  return \"Student not found\" */\n      mload(0x40)\n      dup1\n      0x40\n      add\n      0x40\n      mstore\n      dup1\n      0x11\n      dup2\n      mstore\n      0x20\n      add\n      0x53747564656e74206e6f7420666f756e64000000000000000000000000000000\n      dup2\n      mstore\n      pop\n      swap2\n      pop\n      pop\n      jump(tag_63)\n        /* \"Q1.sol\":2299:2358  if (bytes(s.regdNo).length == 0) return \"Student not found\" */\n    tag_91:\n        /* \"Q1.sol\":2444:2445  s */\n      dup1\n        /* \"Q1.sol\":2444:2457  s.studentName */\n      0x00\n      add\n      mload\n        /* \"Q1.sol\":2491:2492  s */\n      dup2\n        /* \"Q1.sol\":2491:2499  s.regdNo */\n      0x20\n      add\n      mload\n        /* \"Q1.sol\":2534:2535  s */\n      dup3\n        /* \"Q1.sol\":2534:2551  s.electiveSubject */\n      0x40\n      add\n      mload\n        /* \"Q1.sol\":2587:2607  uint2str(s.avgMarks) */\n      tag_92\n        /* \"Q1.sol\":2596:2597  s */\n      dup5\n        /* \"Q1.sol\":2596:2606  s.avgMarks */\n      0x60\n      add\n      mload\n        /* \"Q1.sol\":2587:2595  uint2str */\n      tag_93\n        /* \"Q1.sol\":2587:2607  uint2str(s.avgMarks) */\n      jump\t// in\n    tag_92:\n        /* \"Q1.sol\":2638:2639  s */\n      dup5\n        /* \"Q1.sol\":2638:2648  s.deptName */\n      0x80\n      add\n      mload\n        /* \"Q1.sol\":2684:2685  s */\n      dup6\n        /* \"Q1.sol\":2684:2694  s.deptHead */\n      0xa0\n      add\n      mload\n        /* \"Q1.sol\":2399:2709  abi.encodePacked(... */\n      add(0x20, mload(0x40))\n      tag_94\n      swap7\n      swap6\n      swap5\n      swap4\n      swap3\n      swap2\n      swap1\n      tag_95\n      jump\t// in\n    tag_94:\n      mload(0x40)\n      0x20\n      dup2\n      dup4\n      sub\n      sub\n      dup2\n      mstore\n      swap1\n      0x40\n      mstore\n        /* \"Q1.sol\":2371:2720  return string(... */\n      swap2\n      pop\n      pop\n        /* \"Q1.sol\":2159:2728  function printData(string memory _regdNo) public view returns (string memory) {... */\n    tag_63:\n      swap2\n      swap1\n      pop\n      jump\t// out\n        /* \"Q1.sol\":347:372  uint public numberOfRooms */\n    tag_31:\n      sload(0x02)\n      dup2\n      jump\t// out\n        /* \"Q1.sol\":1793:2151  function getData(... */\n    tag_37:\n        /* \"Q1.sol\":2058:2143  StudentData(_studentName, _regdNo, _electiveSubject, _avgMarks, _deptName, _deptHead) */\n      mload(0x40)\n      dup1\n      0xc0\n      add\n      0x40\n      mstore\n      dup1\n        /* \"Q1.sol\":2070:2082  _studentName */\n      dup8\n        /* \"Q1.sol\":2058:2143  StudentData(_studentName, _regdNo, _electiveSubject, _avgMarks, _deptName, _deptHead) */\n      dup2\n      mstore\n      0x20\n      add\n        /* \"Q1.sol\":2084:2091  _regdNo */\n      dup7\n        /* \"Q1.sol\":2058:2143  StudentData(_studentName, _regdNo, _electiveSubject, _avgMarks, _deptName, _deptHead) */\n      dup2\n      mstore\n      0x20\n      add\n        /* \"Q1.sol\":2093:2109  _electiveSubject */\n      dup6\n        /* \"Q1.sol\":2058:2143  StudentData(_studentName, _regdNo, _electiveSubject, _avgMarks, _deptName, _deptHead) */\n      dup2\n      mstore\n      0x20\n      add\n        /* \"Q1.sol\":2111:2120  _avgMarks */\n      dup5\n        /* \"Q1.sol\":2058:2143  StudentData(_studentName, _regdNo, _electiveSubject, _avgMarks, _deptName, _deptHead) */\n      dup2\n      mstore\n      0x20\n      add\n        /* \"Q1.sol\":2122:2131  _deptName */\n      dup4\n        /* \"Q1.sol\":2058:2143  StudentData(_studentName, _regdNo, _electiveSubject, _avgMarks, _deptName, _deptHead) */\n      dup2\n      mstore\n      0x20\n      add\n        /* \"Q1.sol\":2133:2142  _deptHead */\n      dup3\n        /* \"Q1.sol\":2058:2143  StudentData(_studentName, _regdNo, _electiveSubject, _avgMarks, _deptName, _deptHead) */\n      dup2\n      mstore\n      pop\n        /* \"Q1.sol\":2038:2046  students */\n      0x03\n        /* \"Q1.sol\":2047:2054  _regdNo */\n      dup7\n        /* \"Q1.sol\":2038:2055  students[_regdNo] */\n      mload(0x40)\n      tag_97\n      swap2\n      swap1\n      tag_65\n      jump\t// in\n    tag_97:\n      swap1\n      dup2\n      mstore\n      0x20\n      add\n      mload(0x40)\n      dup1\n      swap2\n      sub\n      swap1\n      keccak256\n        /* \"Q1.sol\":2038:2143  students[_regdNo] = StudentData(_studentName, _regdNo, _electiveSubject, _avgMarks, _deptName, _deptHead) */\n      0x00\n      dup3\n      add\n      mload\n      dup2\n      0x00\n      add\n      swap1\n      dup2\n      tag_98\n      swap2\n      swap1\n      tag_60\n      jump\t// in\n    tag_98:\n      pop\n      0x20\n      dup3\n      add\n      mload\n      dup2\n      0x01\n      add\n      swap1\n      dup2\n      tag_99\n      swap2\n      swap1\n      tag_60\n      jump\t// in\n    tag_99:\n      pop\n      0x40\n      dup3\n      add\n      mload\n      dup2\n      0x02\n      add\n      swap1\n      dup2\n      tag_100\n      swap2\n      swap1\n      tag_60\n      jump\t// in\n    tag_100:\n      pop\n      0x60\n      dup3\n      add\n      mload\n      dup2\n      0x03\n      add\n      sstore\n      0x80\n      dup3\n      add\n      mload\n      dup2\n      0x04\n      add\n      swap1\n      dup2\n      tag_101\n      swap2\n      swap1\n      tag_60\n      jump\t// in\n    tag_101:\n      pop\n      0xa0\n      dup3\n      add\n      mload\n      dup2\n      0x05\n      add\n      swap1\n      dup2\n      tag_102\n      swap2\n      swap1\n      tag_60\n      jump\t// in\n    tag_102:\n      pop\n      swap1\n      pop\n      pop\n        /* \"Q1.sol\":1793:2151  function getData(... */\n      pop\n      pop\n      pop\n      pop\n      pop\n      pop\n      jump\t// out\n        /* \"Q1.sol\":588:742  function getHostelDetails() public view returns (string memory, string memory, uint) {... */\n    tag_39:\n        /* \"Q1.sol\":637:650  string memory */\n      0x60\n        /* \"Q1.sol\":652:665  string memory */\n      dup1\n        /* \"Q1.sol\":667:671  uint */\n      0x00\n        /* \"Q1.sol\":692:702  hostelName */\n      dup1\n        /* \"Q1.sol\":704:718  hostelLocation */\n      0x01\n        /* \"Q1.sol\":720:733  numberOfRooms */\n      sload(0x02)\n        /* \"Q1.sol\":684:734  return (hostelName, hostelLocation, numberOfRooms) */\n      dup3\n      dup1\n      sload\n      tag_104\n      swap1\n      tag_53\n      jump\t// in\n    tag_104:\n      dup1\n      0x1f\n      add\n      0x20\n      dup1\n      swap2\n      div\n      mul\n      0x20\n      add\n      mload(0x40)\n      swap1\n      dup2\n      add\n      0x40\n      mstore\n      dup1\n      swap3\n      swap2\n      swap1\n      dup2\n      dup2\n      mstore\n      0x20\n      add\n      dup3\n      dup1\n      sload\n      tag_105\n      swap1\n      tag_53\n      jump\t// in\n    tag_105:\n      dup1\n      iszero\n      tag_106\n      jumpi\n      dup1\n      0x1f\n      lt\n      tag_107\n      jumpi\n      0x0100\n      dup1\n      dup4\n      sload\n      div\n      mul\n      dup4\n      mstore\n      swap2\n      0x20\n      add\n      swap2\n      jump(tag_106)\n    tag_107:\n      dup3\n      add\n      swap2\n      swap1\n      0x00\n      mstore\n      keccak256(0x00, 0x20)\n      swap1\n    tag_108:\n      dup2\n      sload\n      dup2\n      mstore\n      swap1\n      0x01\n      add\n      swap1\n      0x20\n      add\n      dup1\n      dup4\n      gt\n      tag_108\n      jumpi\n      dup3\n      swap1\n      sub\n      0x1f\n      and\n      dup3\n      add\n      swap2\n    tag_106:\n      pop\n      pop\n      pop\n      pop\n      pop\n      swap3\n      pop\n      dup2\n      dup1\n      sload\n      tag_109\n      swap1\n      tag_53\n      jump\t// in\n    tag_109:\n      dup1\n      0x1f\n      add\n      0x20\n      dup1\n      swap2\n      div\n      mul\n      0x20\n      add\n      mload(0x40)\n      swap1\n      dup2\n      add\n      0x40\n      mstore\n      dup1\n      swap3\n      swap2\n      swap1\n      dup2\n      dup2\n      mstore\n      0x20\n      add\n      dup3\n      dup1\n      sload\n      tag_110\n      swap1\n      tag_53\n      jump\t// in\n    tag_110:\n      dup1\n      iszero\n      tag_111\n      jumpi\n      dup1\n      0x1f\n      lt\n      tag_112\n      jumpi\n      0x0100\n      dup1\n      dup4\n      sload\n      div\n      mul\n      dup4\n      mstore\n      swap2\n      0x20\n      add\n      swap2\n      jump(tag_111)\n    tag_112:\n      dup3\n      add\n      swap2\n      swap1\n      0x00\n      mstore\n      keccak256(0x00, 0x20)\n      swap1\n    tag_113:\n      dup2\n      sload\n      dup2\n      mstore\n      swap1\n      0x01\n      add\n      swap1\n      0x20\n      add\n      dup1\n      dup4\n      gt\n      tag_113\n      jumpi\n      dup3\n      swap1\n      sub\n      0x1f\n      and\n      dup3\n      add\n      swap2\n    tag_111:\n      pop\n      pop\n      pop\n      pop\n      pop\n      swap2\n      pop\n      swap3\n      pop\n      swap3\n      pop\n      swap3\n      pop\n        /* \"Q1.sol\":588:742  function getHostelDetails() public view returns (string memory, string memory, uint) {... */\n      swap1\n      swap2\n      swap3\n      jump\t// out\n        /* \"Q1.sol\":281:305  string public hostelName */\n    tag_43:\n      0x00\n      dup1\n      sload\n      tag_114\n      swap1\n      tag_53\n      jump\t// in\n    tag_114:\n      dup1\n      0x1f\n      add\n      0x20\n      dup1\n      swap2\n      div\n      mul\n      0x20\n      add\n      mload(0x40)\n      swap1\n      dup2\n      add\n      0x40\n      mstore\n      dup1\n      swap3\n      swap2\n      swap1\n      dup2\n      dup2\n      mstore\n      0x20\n      add\n      dup3\n      dup1\n      sload\n      tag_115\n      swap1\n      tag_53\n      jump\t// in\n    tag_115:\n      dup1\n      iszero\n      tag_116\n      jumpi\n      dup1\n      0x1f\n      lt\n      tag_117\n      jumpi\n      0x0100\n      dup1\n      dup4\n      sload\n      div\n      mul\n      dup4\n      mstore\n      swap2\n      0x20\n      add\n      swap2\n      jump(tag_116)\n    tag_117:\n      dup3\n      add\n      swap2\n      swap1\n      0x00\n      mstore\n      keccak256(0x00, 0x20)\n      swap1\n    tag_118:\n      dup2\n      sload\n      dup2\n      mstore\n      swap1\n      0x01\n      add\n      swap1\n      0x20\n      add\n      dup1\n      dup4\n      gt\n      tag_118\n      jumpi\n      dup3\n      swap1\n      sub\n      0x1f\n      and\n      dup3\n      add\n      swap2\n    tag_116:\n      pop\n      pop\n      pop\n      pop\n      pop\n      dup2\n      jump\t// out\n        /* \"Q1.sol\":2736:2946  function getDepartmentDetails() external pure override returns (string memory, string memory) {... */\n    tag_46:\n        /* \"Q1.sol\":2800:2813  string memory */\n      0x60\n        /* \"Q1.sol\":2815:2828  string memory */\n      dup1\n        /* \"Q1.sol\":2923:2938  return (\"\", \"\") */\n      mload(0x40)\n      dup1\n      0x20\n      add\n      0x40\n      mstore\n      dup1\n      0x00\n      dup2\n      mstore\n      pop\n      mload(0x40)\n      dup1\n      0x20\n      add\n      0x40\n      mstore\n      dup1\n      0x00\n      dup2\n      mstore\n      pop\n      swap2\n      pop\n      swap2\n      pop\n        /* \"Q1.sol\":2736:2946  function getDepartmentDetails() external pure override returns (string memory, string memory) {... */\n      swap1\n      swap2\n      jump\t// out\n        /* \"Q1.sol\":750:965  function printHostelDetails() public view returns (string memory) {... */\n    tag_50:\n        /* \"Q1.sol\":801:814  string memory */\n      0x60\n        /* \"Q1.sol\":875:885  hostelName */\n      0x00\n        /* \"Q1.sol\":903:917  hostelLocation */\n      0x01\n        /* \"Q1.sol\":932:955  uint2str(numberOfRooms) */\n      tag_121\n        /* \"Q1.sol\":941:954  numberOfRooms */\n      sload(0x02)\n        /* \"Q1.sol\":932:940  uint2str */\n      tag_93\n        /* \"Q1.sol\":932:955  uint2str(numberOfRooms) */\n      jump\t// in\n    tag_121:\n        /* \"Q1.sol\":841:956  abi.encodePacked(\"Hostel Name: \", hostelName, \", Location: \", hostelLocation, \", Rooms: \", uint2str(numberOfRooms)) */\n      add(0x20, mload(0x40))\n      tag_122\n      swap4\n      swap3\n      swap2\n      swap1\n      tag_123\n      jump\t// in\n    tag_122:\n      mload(0x40)\n      0x20\n      dup2\n      dup4\n      sub\n      sub\n      dup2\n      mstore\n      swap1\n      0x40\n      mstore\n        /* \"Q1.sol\":827:957  return string(abi.encodePacked(\"Hostel Name: \", hostelName, \", Location: \", hostelLocation, \", Rooms: \", uint2str(numberOfRooms))) */\n      swap1\n      pop\n        /* \"Q1.sol\":750:965  function printHostelDetails() public view returns (string memory) {... */\n      swap1\n      jump\t// out\n        /* \"Q1.sol\":973:1487  function uint2str(uint _i) internal pure returns (string memory _uintAsString) {... */\n    tag_93:\n        /* \"Q1.sol\":1023:1050  string memory _uintAsString */\n      0x60\n        /* \"Q1.sol\":1073:1074  0 */\n      0x00\n        /* \"Q1.sol\":1067:1069  _i */\n      dup3\n        /* \"Q1.sol\":1067:1074  _i == 0 */\n      sub\n        /* \"Q1.sol\":1063:1086  if (_i == 0) return \"0\" */\n      tag_125\n      jumpi\n        /* \"Q1.sol\":1076:1086  return \"0\" */\n      mload(0x40)\n      dup1\n      0x40\n      add\n      0x40\n      mstore\n      dup1\n      0x01\n      dup2\n      mstore\n      0x20\n      add\n      0x3000000000000000000000000000000000000000000000000000000000000000\n      dup2\n      mstore\n      pop\n      swap1\n      pop\n      jump(tag_124)\n        /* \"Q1.sol\":1063:1086  if (_i == 0) return \"0\" */\n    tag_125:\n        /* \"Q1.sol\":1097:1103  uint j */\n      0x00\n        /* \"Q1.sol\":1106:1108  _i */\n      dup3\n        /* \"Q1.sol\":1097:1108  uint j = _i */\n      swap1\n      pop\n        /* \"Q1.sol\":1119:1127  uint len */\n      0x00\n        /* \"Q1.sol\":1138:1172  while (j != 0) { len++; j /= 10; } */\n    tag_126:\n        /* \"Q1.sol\":1150:1151  0 */\n      0x00\n        /* \"Q1.sol\":1145:1146  j */\n      dup3\n        /* \"Q1.sol\":1145:1151  j != 0 */\n      eq\n        /* \"Q1.sol\":1138:1172  while (j != 0) { len++; j /= 10; } */\n      tag_127\n      jumpi\n        /* \"Q1.sol\":1155:1160  len++ */\n      dup1\n      dup1\n      tag_128\n      swap1\n      tag_129\n      jump\t// in\n    tag_128:\n      swap2\n      pop\n      pop\n        /* \"Q1.sol\":1167:1169  10 */\n      0x0a\n        /* \"Q1.sol\":1162:1169  j /= 10 */\n      dup3\n      tag_130\n      swap2\n      swap1\n      tag_131\n      jump\t// in\n    tag_130:\n      swap2\n      pop\n        /* \"Q1.sol\":1138:1172  while (j != 0) { len++; j /= 10; } */\n      jump(tag_126)\n    tag_127:\n        /* \"Q1.sol\":1182:1199  bytes memory bstr */\n      0x00\n        /* \"Q1.sol\":1212:1215  len */\n      dup2\n        /* \"Q1.sol\":1202:1216  new bytes(len) */\n      0xffffffffffffffff\n      dup2\n      gt\n      iszero\n      tag_132\n      jumpi\n      tag_133\n      tag_134\n      jump\t// in\n    tag_133:\n    tag_132:\n      mload(0x40)\n      swap1\n      dup1\n      dup3\n      mstore\n      dup1\n      0x1f\n      add\n      not(0x1f)\n      and\n      0x20\n      add\n      dup3\n      add\n      0x40\n      mstore\n      dup1\n      iszero\n      tag_135\n      jumpi\n      dup2\n      0x20\n      add\n      0x01\n      dup3\n      mul\n      dup1\n      calldatasize\n      dup4\n      calldatacopy\n      dup1\n      dup3\n      add\n      swap2\n      pop\n      pop\n      swap1\n      pop\n    tag_135:\n      pop\n        /* \"Q1.sol\":1182:1216  bytes memory bstr = new bytes(len) */\n      swap1\n      pop\n        /* \"Q1.sol\":1227:1233  uint k */\n      0x00\n        /* \"Q1.sol\":1236:1239  len */\n      dup3\n        /* \"Q1.sol\":1227:1239  uint k = len */\n      swap1\n      pop\n        /* \"Q1.sol\":1250:1450  while (_i != 0) {... */\n    tag_136:\n        /* \"Q1.sol\":1263:1264  0 */\n      0x00\n        /* \"Q1.sol\":1257:1259  _i */\n      dup7\n        /* \"Q1.sol\":1257:1264  _i != 0 */\n      eq\n        /* \"Q1.sol\":1250:1450  while (_i != 0) {... */\n      tag_137\n      jumpi\n        /* \"Q1.sol\":1289:1290  1 */\n      0x01\n        /* \"Q1.sol\":1285:1286  k */\n      dup2\n        /* \"Q1.sol\":1285:1290  k - 1 */\n      tag_138\n      swap2\n      swap1\n      tag_139\n      jump\t// in\n    tag_138:\n        /* \"Q1.sol\":1281:1290  k = k - 1 */\n      swap1\n      pop\n        /* \"Q1.sol\":1305:1315  uint8 temp */\n      0x00\n        /* \"Q1.sol\":1345:1347  10 */\n      0x0a\n        /* \"Q1.sol\":1340:1342  10 */\n      dup1\n        /* \"Q1.sol\":1335:1337  _i */\n      dup9\n        /* \"Q1.sol\":1335:1342  _i / 10 */\n      tag_140\n      swap2\n      swap1\n      tag_131\n      jump\t// in\n    tag_140:\n        /* \"Q1.sol\":1335:1347  _i / 10 * 10 */\n      tag_141\n      swap2\n      swap1\n      tag_142\n      jump\t// in\n    tag_141:\n        /* \"Q1.sol\":1330:1332  _i */\n      dup8\n        /* \"Q1.sol\":1330:1347  _i - _i / 10 * 10 */\n      tag_143\n      swap2\n      swap1\n      tag_139\n      jump\t// in\n    tag_143:\n        /* \"Q1.sol\":1319:1321  48 */\n      0x30\n        /* \"Q1.sol\":1319:1348  48 + uint8(_i - _i / 10 * 10) */\n      tag_144\n      swap2\n      swap1\n      tag_145\n      jump\t// in\n    tag_144:\n        /* \"Q1.sol\":1305:1349  uint8 temp = (48 + uint8(_i - _i / 10 * 10)) */\n      swap1\n      pop\n        /* \"Q1.sol\":1364:1373  bytes1 b1 */\n      0x00\n        /* \"Q1.sol\":1383:1387  temp */\n      dup2\n        /* \"Q1.sol\":1376:1388  bytes1(temp) */\n      0xf8\n      shl\n        /* \"Q1.sol\":1364:1388  bytes1 b1 = bytes1(temp) */\n      swap1\n      pop\n        /* \"Q1.sol\":1413:1415  b1 */\n      dup1\n        /* \"Q1.sol\":1403:1407  bstr */\n      dup5\n        /* \"Q1.sol\":1408:1409  k */\n      dup5\n        /* \"Q1.sol\":1403:1410  bstr[k] */\n      dup2\n      mload\n      dup2\n      lt\n      tag_146\n      jumpi\n      tag_147\n      tag_148\n      jump\t// in\n    tag_147:\n    tag_146:\n      0x20\n      add\n      add\n        /* \"Q1.sol\":1403:1415  bstr[k] = b1 */\n      swap1\n      not(0xffffffffffffffffffffffffffffffffffffffffffffffffffffffffffffff)\n      and\n      swap1\n      dup2\n      0x00\n      byte\n      swap1\n      mstore8\n      pop\n        /* \"Q1.sol\":1436:1438  10 */\n      0x0a\n        /* \"Q1.sol\":1430:1438  _i /= 10 */\n      dup9\n      tag_149\n      swap2\n      swap1\n      tag_131\n      jump\t// in\n    tag_149:\n      swap8\n      pop\n        /* \"Q1.sol\":1266:1450  {... */\n      pop\n      pop\n        /* \"Q1.sol\":1250:1450  while (_i != 0) {... */\n      jump(tag_136)\n    tag_137:\n        /* \"Q1.sol\":1474:1478  bstr */\n      dup2\n        /* \"Q1.sol\":1460:1479  return string(bstr) */\n      swap5\n      pop\n      pop\n      pop\n      pop\n      pop\n        /* \"Q1.sol\":973:1487  function uint2str(uint _i) internal pure returns (string memory _uintAsString) {... */\n    tag_124:\n      swap2\n      swap1\n      pop\n      jump\t// out\n        /* \"#utility.yul\":7:106   */\n    tag_150:\n        /* \"#utility.yul\":59:65   */\n      0x00\n        /* \"#utility.yul\":93:98   */\n      dup2\n        /* \"#utility.yul\":87:99   */\n      mload\n        /* \"#utility.yul\":77:99   */\n      swap1\n      pop\n        /* \"#utility.yul\":7:106   */\n      swap2\n      swap1\n      pop\n      jump\t// out\n        /* \"#utility.yul\":112:281   */\n    tag_151:\n        /* \"#utility.yul\":196:207   */\n      0x00\n        /* \"#utility.yul\":230:236   */\n      dup3\n        /* \"#utility.yul\":225:228   */\n      dup3\n        /* \"#utility.yul\":218:237   */\n      mstore\n        /* \"#utility.yul\":270:274   */\n      0x20\n        /* \"#utility.yul\":265:268   */\n      dup3\n        /* \"#utility.yul\":261:275   */\n      add\n        /* \"#utility.yul\":246:275   */\n      swap1\n      pop\n        /* \"#utility.yul\":112:281   */\n      swap3\n      swap2\n      pop\n      pop\n      jump\t// out\n        /* \"#utility.yul\":287:426   */\n    tag_152:\n        /* \"#utility.yul\":376:382   */\n      dup3\n        /* \"#utility.yul\":371:374   */\n      dup2\n        /* \"#utility.yul\":366:369   */\n      dup4\n        /* \"#utility.yul\":360:383   */\n      mcopy\n        /* \"#utility.yul\":417:418   */\n      0x00\n        /* \"#utility.yul\":408:414   */\n      dup4\n        /* \"#utility.yul\":403:406   */\n      dup4\n        /* \"#utility.yul\":399:415   */\n      add\n        /* \"#utility.yul\":392:419   */\n      mstore\n        /* \"#utility.yul\":287:426   */\n      pop\n      pop\n      pop\n      jump\t// out\n        /* \"#utility.yul\":432:534   */\n    tag_153:\n        /* \"#utility.yul\":473:479   */\n      0x00\n        /* \"#utility.yul\":524:526   */\n      0x1f\n        /* \"#utility.yul\":520:527   */\n      not\n        /* \"#utility.yul\":515:517   */\n      0x1f\n        /* \"#utility.yul\":508:513   */\n      dup4\n        /* \"#utility.yul\":504:518   */\n      add\n        /* \"#utility.yul\":500:528   */\n      and\n        /* \"#utility.yul\":490:528   */\n      swap1\n      pop\n        /* \"#utility.yul\":432:534   */\n      swap2\n      swap1\n      pop\n      jump\t// out\n        /* \"#utility.yul\":540:917   */\n    tag_154:\n        /* \"#utility.yul\":628:631   */\n      0x00\n        /* \"#utility.yul\":656:695   */\n      tag_216\n        /* \"#utility.yul\":689:694   */\n      dup3\n        /* \"#utility.yul\":656:695   */\n      tag_150\n      jump\t// in\n    tag_216:\n        /* \"#utility.yul\":711:782   */\n      tag_217\n        /* \"#utility.yul\":775:781   */\n      dup2\n        /* \"#utility.yul\":770:773   */\n      dup6\n        /* \"#utility.yul\":711:782   */\n      tag_151\n      jump\t// in\n    tag_217:\n        /* \"#utility.yul\":704:782   */\n      swap4\n      pop\n        /* \"#utility.yul\":791:856   */\n      tag_218\n        /* \"#utility.yul\":849:855   */\n      dup2\n        /* \"#utility.yul\":844:847   */\n      dup6\n        /* \"#utility.yul\":837:841   */\n      0x20\n        /* \"#utility.yul\":830:835   */\n      dup7\n        /* \"#utility.yul\":826:842   */\n      add\n        /* \"#utility.yul\":791:856   */\n      tag_152\n      jump\t// in\n    tag_218:\n        /* \"#utility.yul\":881:910   */\n      tag_219\n        /* \"#utility.yul\":903:909   */\n      dup2\n        /* \"#utility.yul\":881:910   */\n      tag_153\n      jump\t// in\n    tag_219:\n        /* \"#utility.yul\":876:879   */\n      dup5\n        /* \"#utility.yul\":872:911   */\n      add\n        /* \"#utility.yul\":865:911   */\n      swap2\n      pop\n        /* \"#utility.yul\":632:917   */\n      pop\n        /* \"#utility.yul\":540:917   */\n      swap3\n      swap2\n      pop\n      pop\n      jump\t// out\n        /* \"#utility.yul\":923:1236   */\n    tag_17:\n        /* \"#utility.yul\":1036:1040   */\n      0x00\n        /* \"#utility.yul\":1074:1076   */\n      0x20\n        /* \"#utility.yul\":1063:1072   */\n      dup3\n        /* \"#utility.yul\":1059:1077   */\n      add\n        /* \"#utility.yul\":1051:1077   */\n      swap1\n      pop\n        /* \"#utility.yul\":1123:1132   */\n      dup2\n        /* \"#utility.yul\":1117:1121   */\n      dup2\n        /* \"#utility.yul\":1113:1133   */\n      sub\n        /* \"#utility.yul\":1109:1110   */\n      0x00\n        /* \"#utility.yul\":1098:1107   */\n      dup4\n        /* \"#utility.yul\":1094:1111   */\n      add\n        /* \"#utility.yul\":1087:1134   */\n      mstore\n        /* \"#utility.yul\":1151:1229   */\n      tag_221\n        /* \"#utility.yul\":1224:1228   */\n      dup2\n        /* \"#utility.yul\":1215:1221   */\n      dup5\n        /* \"#utility.yul\":1151:1229   */\n      tag_154\n      jump\t// in\n    tag_221:\n        /* \"#utility.yul\":1143:1229   */\n      swap1\n      pop\n        /* \"#utility.yul\":923:1236   */\n      swap3\n      swap2\n      pop\n      pop\n      jump\t// out\n        /* \"#utility.yul\":1242:1317   */\n    tag_155:\n        /* \"#utility.yul\":1275:1281   */\n      0x00\n        /* \"#utility.yul\":1308:1310   */\n      0x40\n        /* \"#utility.yul\":1302:1311   */\n      mload\n        /* \"#utility.yul\":1292:1311   */\n      swap1\n      pop\n        /* \"#utility.yul\":1242:1317   */\n      swap1\n      jump\t// out\n        /* \"#utility.yul\":1323:1440   */\n    tag_156:\n        /* \"#utility.yul\":1432:1433   */\n      0x00\n        /* \"#utility.yul\":1429:1430   */\n      dup1\n        /* \"#utility.yul\":1422:1434   */\n      revert\n        /* \"#utility.yul\":1446:1563   */\n    tag_157:\n        /* \"#utility.yul\":1555:1556   */\n      0x00\n        /* \"#utility.yul\":1552:1553   */\n      dup1\n        /* \"#utility.yul\":1545:1557   */\n      revert\n        /* \"#utility.yul\":1569:1686   */\n    tag_158:\n        /* \"#utility.yul\":1678:1679   */\n      0x00\n        /* \"#utility.yul\":1675:1676   */\n      dup1\n        /* \"#utility.yul\":1668:1680   */\n      revert\n        /* \"#utility.yul\":1692:1809   */\n    tag_159:\n        /* \"#utility.yul\":1801:1802   */\n      0x00\n        /* \"#utility.yul\":1798:1799   */\n      dup1\n        /* \"#utility.yul\":1791:1803   */\n      revert\n        /* \"#utility.yul\":1815:1995   */\n    tag_134:\n        /* \"#utility.yul\":1863:1940   */\n      0x4e487b7100000000000000000000000000000000000000000000000000000000\n        /* \"#utility.yul\":1860:1861   */\n      0x00\n        /* \"#utility.yul\":1853:1941   */\n      mstore\n        /* \"#utility.yul\":1960:1964   */\n      0x41\n        /* \"#utility.yul\":1957:1958   */\n      0x04\n        /* \"#utility.yul\":1950:1965   */\n      mstore\n        /* \"#utility.yul\":1984:1988   */\n      0x24\n        /* \"#utility.yul\":1981:1982   */\n      0x00\n        /* \"#utility.yul\":1974:1989   */\n      revert\n        /* \"#utility.yul\":2001:2282   */\n    tag_160:\n        /* \"#utility.yul\":2084:2111   */\n      tag_229\n        /* \"#utility.yul\":2106:2110   */\n      dup3\n        /* \"#utility.yul\":2084:2111   */\n      tag_153\n      jump\t// in\n    tag_229:\n        /* \"#utility.yul\":2076:2082   */\n      dup2\n        /* \"#utility.yul\":2072:2112   */\n      add\n        /* \"#utility.yul\":2214:2220   */\n      dup2\n        /* \"#utility.yul\":2202:2212   */\n      dup2\n        /* \"#utility.yul\":2199:2221   */\n      lt\n        /* \"#utility.yul\":2178:2196   */\n      0xffffffffffffffff\n        /* \"#utility.yul\":2166:2176   */\n      dup3\n        /* \"#utility.yul\":2163:2197   */\n      gt\n        /* \"#utility.yul\":2160:2222   */\n      or\n        /* \"#utility.yul\":2157:2245   */\n      iszero\n      tag_230\n      jumpi\n        /* \"#utility.yul\":2225:2243   */\n      tag_231\n      tag_134\n      jump\t// in\n    tag_231:\n        /* \"#utility.yul\":2157:2245   */\n    tag_230:\n        /* \"#utility.yul\":2265:2275   */\n      dup1\n        /* \"#utility.yul\":2261:2263   */\n      0x40\n        /* \"#utility.yul\":2254:2276   */\n      mstore\n        /* \"#utility.yul\":2044:2282   */\n      pop\n        /* \"#utility.yul\":2001:2282   */\n      pop\n      pop\n      jump\t// out\n        /* \"#utility.yul\":2288:2417   */\n    tag_161:\n        /* \"#utility.yul\":2322:2328   */\n      0x00\n        /* \"#utility.yul\":2349:2369   */\n      tag_233\n      tag_155\n      jump\t// in\n    tag_233:\n        /* \"#utility.yul\":2339:2369   */\n      swap1\n      pop\n        /* \"#utility.yul\":2378:2411   */\n      tag_234\n        /* \"#utility.yul\":2406:2410   */\n      dup3\n        /* \"#utility.yul\":2398:2404   */\n      dup3\n        /* \"#utility.yul\":2378:2411   */\n      tag_160\n      jump\t// in\n    tag_234:\n        /* \"#utility.yul\":2288:2417   */\n      swap2\n      swap1\n      pop\n      jump\t// out\n        /* \"#utility.yul\":2423:2731   */\n    tag_162:\n        /* \"#utility.yul\":2485:2489   */\n      0x00\n        /* \"#utility.yul\":2575:2593   */\n      0xffffffffffffffff\n        /* \"#utility.yul\":2567:2573   */\n      dup3\n        /* \"#utility.yul\":2564:2594   */\n      gt\n        /* \"#utility.yul\":2561:2617   */\n      iszero\n      tag_236\n      jumpi\n        /* \"#utility.yul\":2597:2615   */\n      tag_237\n      tag_134\n      jump\t// in\n    tag_237:\n        /* \"#utility.yul\":2561:2617   */\n    tag_236:\n        /* \"#utility.yul\":2635:2664   */\n      tag_238\n        /* \"#utility.yul\":2657:2663   */\n      dup3\n        /* \"#utility.yul\":2635:2664   */\n      tag_153\n      jump\t// in\n    tag_238:\n        /* \"#utility.yul\":2627:2664   */\n      swap1\n      pop\n        /* \"#utility.yul\":2719:2723   */\n      0x20\n        /* \"#utility.yul\":2713:2717   */\n      dup2\n        /* \"#utility.yul\":2709:2724   */\n      add\n        /* \"#utility.yul\":2701:2724   */\n      swap1\n      pop\n        /* \"#utility.yul\":2423:2731   */\n      swap2\n      swap1\n      pop\n      jump\t// out\n        /* \"#utility.yul\":2737:2885   */\n    tag_163:\n        /* \"#utility.yul\":2835:2841   */\n      dup3\n        /* \"#utility.yul\":2830:2833   */\n      dup2\n        /* \"#utility.yul\":2825:2828   */\n      dup4\n        /* \"#utility.yul\":2812:2842   */\n      calldatacopy\n        /* \"#utility.yul\":2876:2877   */\n      0x00\n        /* \"#utility.yul\":2867:2873   */\n      dup4\n        /* \"#utility.yul\":2862:2865   */\n      dup4\n        /* \"#utility.yul\":2858:2874   */\n      add\n        /* \"#utility.yul\":2851:2878   */\n      mstore\n        /* \"#utility.yul\":2737:2885   */\n      pop\n      pop\n      pop\n      jump\t// out\n        /* \"#utility.yul\":2891:3316   */\n    tag_164:\n        /* \"#utility.yul\":2969:2974   */\n      0x00\n        /* \"#utility.yul\":2994:3060   */\n      tag_241\n        /* \"#utility.yul\":3010:3059   */\n      tag_242\n        /* \"#utility.yul\":3052:3058   */\n      dup5\n        /* \"#utility.yul\":3010:3059   */\n      tag_162\n      jump\t// in\n    tag_242:\n        /* \"#utility.yul\":2994:3060   */\n      tag_161\n      jump\t// in\n    tag_241:\n        /* \"#utility.yul\":2985:3060   */\n      swap1\n      pop\n        /* \"#utility.yul\":3083:3089   */\n      dup3\n        /* \"#utility.yul\":3076:3081   */\n      dup2\n        /* \"#utility.yul\":3069:3090   */\n      mstore\n        /* \"#utility.yul\":3121:3125   */\n      0x20\n        /* \"#utility.yul\":3114:3119   */\n      dup2\n        /* \"#utility.yul\":3110:3126   */\n      add\n        /* \"#utility.yul\":3159:3162   */\n      dup5\n        /* \"#utility.yul\":3150:3156   */\n      dup5\n        /* \"#utility.yul\":3145:3148   */\n      dup5\n        /* \"#utility.yul\":3141:3157   */\n      add\n        /* \"#utility.yul\":3138:3163   */\n      gt\n        /* \"#utility.yul\":3135:3247   */\n      iszero\n      tag_243\n      jumpi\n        /* \"#utility.yul\":3166:3245   */\n      tag_244\n      tag_159\n      jump\t// in\n    tag_244:\n        /* \"#utility.yul\":3135:3247   */\n    tag_243:\n        /* \"#utility.yul\":3256:3310   */\n      tag_245\n        /* \"#utility.yul\":3303:3309   */\n      dup5\n        /* \"#utility.yul\":3298:3301   */\n      dup3\n        /* \"#utility.yul\":3293:3296   */\n      dup6\n        /* \"#utility.yul\":3256:3310   */\n      tag_163\n      jump\t// in\n    tag_245:\n        /* \"#utility.yul\":2975:3316   */\n      pop\n        /* \"#utility.yul\":2891:3316   */\n      swap4\n      swap3\n      pop\n      pop\n      pop\n      jump\t// out\n        /* \"#utility.yul\":3336:3676   */\n    tag_165:\n        /* \"#utility.yul\":3392:3397   */\n      0x00\n        /* \"#utility.yul\":3441:3444   */\n      dup3\n        /* \"#utility.yul\":3434:3438   */\n      0x1f\n        /* \"#utility.yul\":3426:3432   */\n      dup4\n        /* \"#utility.yul\":3422:3439   */\n      add\n        /* \"#utility.yul\":3418:3445   */\n      slt\n        /* \"#utility.yul\":3408:3530   */\n      tag_247\n      jumpi\n        /* \"#utility.yul\":3449:3528   */\n      tag_248\n      tag_158\n      jump\t// in\n    tag_248:\n        /* \"#utility.yul\":3408:3530   */\n    tag_247:\n        /* \"#utility.yul\":3566:3572   */\n      dup2\n        /* \"#utility.yul\":3553:3573   */\n      calldataload\n        /* \"#utility.yul\":3591:3670   */\n      tag_249\n        /* \"#utility.yul\":3666:3669   */\n      dup5\n        /* \"#utility.yul\":3658:3664   */\n      dup3\n        /* \"#utility.yul\":3651:3655   */\n      0x20\n        /* \"#utility.yul\":3643:3649   */\n      dup7\n        /* \"#utility.yul\":3639:3656   */\n      add\n        /* \"#utility.yul\":3591:3670   */\n      tag_164\n      jump\t// in\n    tag_249:\n        /* \"#utility.yul\":3582:3670   */\n      swap2\n      pop\n        /* \"#utility.yul\":3398:3676   */\n      pop\n        /* \"#utility.yul\":3336:3676   */\n      swap3\n      swap2\n      pop\n      pop\n      jump\t// out\n        /* \"#utility.yul\":3682:3759   */\n    tag_166:\n        /* \"#utility.yul\":3719:3726   */\n      0x00\n        /* \"#utility.yul\":3748:3753   */\n      dup2\n        /* \"#utility.yul\":3737:3753   */\n      swap1\n      pop\n        /* \"#utility.yul\":3682:3759   */\n      swap2\n      swap1\n      pop\n      jump\t// out\n        /* \"#utility.yul\":3765:3887   */\n    tag_167:\n        /* \"#utility.yul\":3838:3862   */\n      tag_252\n        /* \"#utility.yul\":3856:3861   */\n      dup2\n        /* \"#utility.yul\":3838:3862   */\n      tag_166\n      jump\t// in\n    tag_252:\n        /* \"#utility.yul\":3831:3836   */\n      dup2\n        /* \"#utility.yul\":3828:3863   */\n      eq\n        /* \"#utility.yul\":3818:3881   */\n      tag_253\n      jumpi\n        /* \"#utility.yul\":3877:3878   */\n      0x00\n        /* \"#utility.yul\":3874:3875   */\n      dup1\n        /* \"#utility.yul\":3867:3879   */\n      revert\n        /* \"#utility.yul\":3818:3881   */\n    tag_253:\n        /* \"#utility.yul\":3765:3887   */\n      pop\n      jump\t// out\n        /* \"#utility.yul\":3893:4032   */\n    tag_168:\n        /* \"#utility.yul\":3939:3944   */\n      0x00\n        /* \"#utility.yul\":3977:3983   */\n      dup2\n        /* \"#utility.yul\":3964:3984   */\n      calldataload\n        /* \"#utility.yul\":3955:3984   */\n      swap1\n      pop\n        /* \"#utility.yul\":3993:4026   */\n      tag_255\n        /* \"#utility.yul\":4020:4025   */\n      dup2\n        /* \"#utility.yul\":3993:4026   */\n      tag_167\n      jump\t// in\n    tag_255:\n        /* \"#utility.yul\":3893:4032   */\n      swap3\n      swap2\n      pop\n      pop\n      jump\t// out\n        /* \"#utility.yul\":4038:5017   */\n    tag_20:\n        /* \"#utility.yul\":4135:4141   */\n      0x00\n        /* \"#utility.yul\":4143:4149   */\n      dup1\n        /* \"#utility.yul\":4151:4157   */\n      0x00\n        /* \"#utility.yul\":4200:4202   */\n      0x60\n        /* \"#utility.yul\":4188:4197   */\n      dup5\n        /* \"#utility.yul\":4179:4186   */\n      dup7\n        /* \"#utility.yul\":4175:4198   */\n      sub\n        /* \"#utility.yul\":4171:4203   */\n      slt\n        /* \"#utility.yul\":4168:4287   */\n      iszero\n      tag_257\n      jumpi\n        /* \"#utility.yul\":4206:4285   */\n      tag_258\n      tag_156\n      jump\t// in\n    tag_258:\n        /* \"#utility.yul\":4168:4287   */\n    tag_257:\n        /* \"#utility.yul\":4354:4355   */\n      0x00\n        /* \"#utility.yul\":4343:4352   */\n      dup5\n        /* \"#utility.yul\":4339:4356   */\n      add\n        /* \"#utility.yul\":4326:4357   */\n      calldataload\n        /* \"#utility.yul\":4384:4402   */\n      0xffffffffffffffff\n        /* \"#utility.yul\":4376:4382   */\n      dup2\n        /* \"#utility.yul\":4373:4403   */\n      gt\n        /* \"#utility.yul\":4370:4487   */\n      iszero\n      tag_259\n      jumpi\n        /* \"#utility.yul\":4406:4485   */\n      tag_260\n      tag_157\n      jump\t// in\n    tag_260:\n        /* \"#utility.yul\":4370:4487   */\n    tag_259:\n        /* \"#utility.yul\":4511:4574   */\n      tag_261\n        /* \"#utility.yul\":4566:4573   */\n      dup7\n        /* \"#utility.yul\":4557:4563   */\n      dup3\n        /* \"#utility.yul\":4546:4555   */\n      dup8\n        /* \"#utility.yul\":4542:4564   */\n      add\n        /* \"#utility.yul\":4511:4574   */\n      tag_165\n      jump\t// in\n    tag_261:\n        /* \"#utility.yul\":4501:4574   */\n      swap4\n      pop\n        /* \"#utility.yul\":4297:4584   */\n      pop\n        /* \"#utility.yul\":4651:4653   */\n      0x20\n        /* \"#utility.yul\":4640:4649   */\n      dup5\n        /* \"#utility.yul\":4636:4654   */\n      add\n        /* \"#utility.yul\":4623:4655   */\n      calldataload\n        /* \"#utility.yul\":4682:4700   */\n      0xffffffffffffffff\n        /* \"#utility.yul\":4674:4680   */\n      dup2\n        /* \"#utility.yul\":4671:4701   */\n      gt\n        /* \"#utility.yul\":4668:4785   */\n      iszero\n      tag_262\n      jumpi\n        /* \"#utility.yul\":4704:4783   */\n      tag_263\n      tag_157\n      jump\t// in\n    tag_263:\n        /* \"#utility.yul\":4668:4785   */\n    tag_262:\n        /* \"#utility.yul\":4809:4872   */\n      tag_264\n        /* \"#utility.yul\":4864:4871   */\n      dup7\n        /* \"#utility.yul\":4855:4861   */\n      dup3\n        /* \"#utility.yul\":4844:4853   */\n      dup8\n        /* \"#utility.yul\":4840:4862   */\n      add\n        /* \"#utility.yul\":4809:4872   */\n      tag_165\n      jump\t// in\n    tag_264:\n        /* \"#utility.yul\":4799:4872   */\n      swap3\n      pop\n        /* \"#utility.yul\":4594:4882   */\n      pop\n        /* \"#utility.yul\":4921:4923   */\n      0x40\n        /* \"#utility.yul\":4947:5000   */\n      tag_265\n        /* \"#utility.yul\":4992:4999   */\n      dup7\n        /* \"#utility.yul\":4983:4989   */\n      dup3\n        /* \"#utility.yul\":4972:4981   */\n      dup8\n        /* \"#utility.yul\":4968:4990   */\n      add\n        /* \"#utility.yul\":4947:5000   */\n      tag_168\n      jump\t// in\n    tag_265:\n        /* \"#utility.yul\":4937:5000   */\n      swap2\n      pop\n        /* \"#utility.yul\":4892:5010   */\n      pop\n        /* \"#utility.yul\":4038:5017   */\n      swap3\n      pop\n      swap3\n      pop\n      swap3\n      jump\t// out\n        /* \"#utility.yul\":5023:5532   */\n    tag_27:\n        /* \"#utility.yul\":5092:5098   */\n      0x00\n        /* \"#utility.yul\":5141:5143   */\n      0x20\n        /* \"#utility.yul\":5129:5138   */\n      dup3\n        /* \"#utility.yul\":5120:5127   */\n      dup5\n        /* \"#utility.yul\":5116:5139   */\n      sub\n        /* \"#utility.yul\":5112:5144   */\n      slt\n        /* \"#utility.yul\":5109:5228   */\n      iszero\n      tag_267\n      jumpi\n        /* \"#utility.yul\":5147:5226   */\n      tag_268\n      tag_156\n      jump\t// in\n    tag_268:\n        /* \"#utility.yul\":5109:5228   */\n    tag_267:\n        /* \"#utility.yul\":5295:5296   */\n      0x00\n        /* \"#utility.yul\":5284:5293   */\n      dup3\n        /* \"#utility.yul\":5280:5297   */\n      add\n        /* \"#utility.yul\":5267:5298   */\n      calldataload\n        /* \"#utility.yul\":5325:5343   */\n      0xffffffffffffffff\n        /* \"#utility.yul\":5317:5323   */\n      dup2\n        /* \"#utility.yul\":5314:5344   */\n      gt\n        /* \"#utility.yul\":5311:5428   */\n      iszero\n      tag_269\n      jumpi\n        /* \"#utility.yul\":5347:5426   */\n      tag_270\n      tag_157\n      jump\t// in\n    tag_270:\n        /* \"#utility.yul\":5311:5428   */\n    tag_269:\n        /* \"#utility.yul\":5452:5515   */\n      tag_271\n        /* \"#utility.yul\":5507:5514   */\n      dup5\n        /* \"#utility.yul\":5498:5504   */\n      dup3\n        /* \"#utility.yul\":5487:5496   */\n      dup6\n        /* \"#utility.yul\":5483:5505   */\n      add\n        /* \"#utility.yul\":5452:5515   */\n      tag_165\n      jump\t// in\n    tag_271:\n        /* \"#utility.yul\":5442:5515   */\n      swap2\n      pop\n        /* \"#utility.yul\":5238:5525   */\n      pop\n        /* \"#utility.yul\":5023:5532   */\n      swap3\n      swap2\n      pop\n      pop\n      jump\t// out\n        /* \"#utility.yul\":5538:5656   */\n    tag_169:\n        /* \"#utility.yul\":5625:5649   */\n      tag_273\n        /* \"#utility.yul\":5643:5648   */\n      dup2\n        /* \"#utility.yul\":5625:5649   */\n      tag_166\n      jump\t// in\n    tag_273:\n        /* \"#utility.yul\":5620:5623   */\n      dup3\n        /* \"#utility.yul\":5613:5650   */\n      mstore\n        /* \"#utility.yul\":5538:5656   */\n      pop\n      pop\n      jump\t// out\n        /* \"#utility.yul\":5662:5884   */\n    tag_33:\n        /* \"#utility.yul\":5755:5759   */\n      0x00\n        /* \"#utility.yul\":5793:5795   */\n      0x20\n        /* \"#utility.yul\":5782:5791   */\n      dup3\n        /* \"#utility.yul\":5778:5796   */\n      add\n        /* \"#utility.yul\":5770:5796   */\n      swap1\n      pop\n        /* \"#utility.yul\":5806:5877   */\n      tag_275\n        /* \"#utility.yul\":5874:5875   */\n      0x00\n        /* \"#utility.yul\":5863:5872   */\n      dup4\n        /* \"#utility.yul\":5859:5876   */\n      add\n        /* \"#utility.yul\":5850:5856   */\n      dup5\n        /* \"#utility.yul\":5806:5877   */\n      tag_169\n      jump\t// in\n    tag_275:\n        /* \"#utility.yul\":5662:5884   */\n      swap3\n      swap2\n      pop\n      pop\n      jump\t// out\n        /* \"#utility.yul\":5890:7847   */\n    tag_36:\n        /* \"#utility.yul\":6044:6050   */\n      0x00\n        /* \"#utility.yul\":6052:6058   */\n      dup1\n        /* \"#utility.yul\":6060:6066   */\n      0x00\n        /* \"#utility.yul\":6068:6074   */\n      dup1\n        /* \"#utility.yul\":6076:6082   */\n      0x00\n        /* \"#utility.yul\":6084:6090   */\n      dup1\n        /* \"#utility.yul\":6133:6136   */\n      0xc0\n        /* \"#utility.yul\":6121:6130   */\n      dup8\n        /* \"#utility.yul\":6112:6119   */\n      dup10\n        /* \"#utility.yul\":6108:6131   */\n      sub\n        /* \"#utility.yul\":6104:6137   */\n      slt\n        /* \"#utility.yul\":6101:6221   */\n      iszero\n      tag_277\n      jumpi\n        /* \"#utility.yul\":6140:6219   */\n      tag_278\n      tag_156\n      jump\t// in\n    tag_278:\n        /* \"#utility.yul\":6101:6221   */\n    tag_277:\n        /* \"#utility.yul\":6288:6289   */\n      0x00\n        /* \"#utility.yul\":6277:6286   */\n      dup8\n        /* \"#utility.yul\":6273:6290   */\n      add\n        /* \"#utility.yul\":6260:6291   */\n      calldataload\n        /* \"#utility.yul\":6318:6336   */\n      0xffffffffffffffff\n        /* \"#utility.yul\":6310:6316   */\n      dup2\n        /* \"#utility.yul\":6307:6337   */\n      gt\n        /* \"#utility.yul\":6304:6421   */\n      iszero\n      tag_279\n      jumpi\n        /* \"#utility.yul\":6340:6419   */\n      tag_280\n      tag_157\n      jump\t// in\n    tag_280:\n        /* \"#utility.yul\":6304:6421   */\n    tag_279:\n        /* \"#utility.yul\":6445:6508   */\n      tag_281\n        /* \"#utility.yul\":6500:6507   */\n      dup10\n        /* \"#utility.yul\":6491:6497   */\n      dup3\n        /* \"#utility.yul\":6480:6489   */\n      dup11\n        /* \"#utility.yul\":6476:6498   */\n      add\n        /* \"#utility.yul\":6445:6508   */\n      tag_165\n      jump\t// in\n    tag_281:\n        /* \"#utility.yul\":6435:6508   */\n      swap7\n      pop\n        /* \"#utility.yul\":6231:6518   */\n      pop\n        /* \"#utility.yul\":6585:6587   */\n      0x20\n        /* \"#utility.yul\":6574:6583   */\n      dup8\n        /* \"#utility.yul\":6570:6588   */\n      add\n        /* \"#utility.yul\":6557:6589   */\n      calldataload\n        /* \"#utility.yul\":6616:6634   */\n      0xffffffffffffffff\n        /* \"#utility.yul\":6608:6614   */\n      dup2\n        /* \"#utility.yul\":6605:6635   */\n      gt\n        /* \"#utility.yul\":6602:6719   */\n      iszero\n      tag_282\n      jumpi\n        /* \"#utility.yul\":6638:6717   */\n      tag_283\n      tag_157\n      jump\t// in\n    tag_283:\n        /* \"#utility.yul\":6602:6719   */\n    tag_282:\n        /* \"#utility.yul\":6743:6806   */\n      tag_284\n        /* \"#utility.yul\":6798:6805   */\n      dup10\n        /* \"#utility.yul\":6789:6795   */\n      dup3\n        /* \"#utility.yul\":6778:6787   */\n      dup11\n        /* \"#utility.yul\":6774:6796   */\n      add\n        /* \"#utility.yul\":6743:6806   */\n      tag_165\n      jump\t// in\n    tag_284:\n        /* \"#utility.yul\":6733:6806   */\n      swap6\n      pop\n        /* \"#utility.yul\":6528:6816   */\n      pop\n        /* \"#utility.yul\":6883:6885   */\n      0x40\n        /* \"#utility.yul\":6872:6881   */\n      dup8\n        /* \"#utility.yul\":6868:6886   */\n      add\n        /* \"#utility.yul\":6855:6887   */\n      calldataload\n        /* \"#utility.yul\":6914:6932   */\n      0xffffffffffffffff\n        /* \"#utility.yul\":6906:6912   */\n      dup2\n        /* \"#utility.yul\":6903:6933   */\n      gt\n        /* \"#utility.yul\":6900:7017   */\n      iszero\n      tag_285\n      jumpi\n        /* \"#utility.yul\":6936:7015   */\n      tag_286\n      tag_157\n      jump\t// in\n    tag_286:\n        /* \"#utility.yul\":6900:7017   */\n    tag_285:\n        /* \"#utility.yul\":7041:7104   */\n      tag_287\n        /* \"#utility.yul\":7096:7103   */\n      dup10\n        /* \"#utility.yul\":7087:7093   */\n      dup3\n        /* \"#utility.yul\":7076:7085   */\n      dup11\n        /* \"#utility.yul\":7072:7094   */\n      add\n        /* \"#utility.yul\":7041:7104   */\n      tag_165\n      jump\t// in\n    tag_287:\n        /* \"#utility.yul\":7031:7104   */\n      swap5\n      pop\n        /* \"#utility.yul\":6826:7114   */\n      pop\n        /* \"#utility.yul\":7153:7155   */\n      0x60\n        /* \"#utility.yul\":7179:7232   */\n      tag_288\n        /* \"#utility.yul\":7224:7231   */\n      dup10\n        /* \"#utility.yul\":7215:7221   */\n      dup3\n        /* \"#utility.yul\":7204:7213   */\n      dup11\n        /* \"#utility.yul\":7200:7222   */\n      add\n        /* \"#utility.yul\":7179:7232   */\n      tag_168\n      jump\t// in\n    tag_288:\n        /* \"#utility.yul\":7169:7232   */\n      swap4\n      pop\n        /* \"#utility.yul\":7124:7242   */\n      pop\n        /* \"#utility.yul\":7309:7312   */\n      0x80\n        /* \"#utility.yul\":7298:7307   */\n      dup8\n        /* \"#utility.yul\":7294:7313   */\n      add\n        /* \"#utility.yul\":7281:7314   */\n      calldataload\n        /* \"#utility.yul\":7341:7359   */\n      0xffffffffffffffff\n        /* \"#utility.yul\":7333:7339   */\n      dup2\n        /* \"#utility.yul\":7330:7360   */\n      gt\n        /* \"#utility.yul\":7327:7444   */\n      iszero\n      tag_289\n      jumpi\n        /* \"#utility.yul\":7363:7442   */\n      tag_290\n      tag_157\n      jump\t// in\n    tag_290:\n        /* \"#utility.yul\":7327:7444   */\n    tag_289:\n        /* \"#utility.yul\":7468:7531   */\n      tag_291\n        /* \"#utility.yul\":7523:7530   */\n      dup10\n        /* \"#utility.yul\":7514:7520   */\n      dup3\n        /* \"#utility.yul\":7503:7512   */\n      dup11\n        /* \"#utility.yul\":7499:7521   */\n      add\n        /* \"#utility.yul\":7468:7531   */\n      tag_165\n      jump\t// in\n    tag_291:\n        /* \"#utility.yul\":7458:7531   */\n      swap3\n      pop\n        /* \"#utility.yul\":7252:7541   */\n      pop\n        /* \"#utility.yul\":7608:7611   */\n      0xa0\n        /* \"#utility.yul\":7597:7606   */\n      dup8\n        /* \"#utility.yul\":7593:7612   */\n      add\n        /* \"#utility.yul\":7580:7613   */\n      calldataload\n        /* \"#utility.yul\":7640:7658   */\n      0xffffffffffffffff\n        /* \"#utility.yul\":7632:7638   */\n      dup2\n        /* \"#utility.yul\":7629:7659   */\n      gt\n        /* \"#utility.yul\":7626:7743   */\n      iszero\n      tag_292\n      jumpi\n        /* \"#utility.yul\":7662:7741   */\n      tag_293\n      tag_157\n      jump\t// in\n    tag_293:\n        /* \"#utility.yul\":7626:7743   */\n    tag_292:\n        /* \"#utility.yul\":7767:7830   */\n      tag_294\n        /* \"#utility.yul\":7822:7829   */\n      dup10\n        /* \"#utility.yul\":7813:7819   */\n      dup3\n        /* \"#utility.yul\":7802:7811   */\n      dup11\n        /* \"#utility.yul\":7798:7820   */\n      add\n        /* \"#utility.yul\":7767:7830   */\n      tag_165\n      jump\t// in\n    tag_294:\n        /* \"#utility.yul\":7757:7830   */\n      swap2\n      pop\n        /* \"#utility.yul\":7551:7840   */\n      pop\n        /* \"#utility.yul\":5890:7847   */\n      swap3\n      swap6\n      pop\n      swap3\n      swap6\n      pop\n      swap3\n      swap6\n      jump\t// out\n        /* \"#utility.yul\":7853:8477   */\n    tag_41:\n        /* \"#utility.yul\":8042:8046   */\n      0x00\n        /* \"#utility.yul\":8080:8082   */\n      0x60\n        /* \"#utility.yul\":8069:8078   */\n      dup3\n        /* \"#utility.yul\":8065:8083   */\n      add\n        /* \"#utility.yul\":8057:8083   */\n      swap1\n      pop\n        /* \"#utility.yul\":8129:8138   */\n      dup2\n        /* \"#utility.yul\":8123:8127   */\n      dup2\n        /* \"#utility.yul\":8119:8139   */\n      sub\n        /* \"#utility.yul\":8115:8116   */\n      0x00\n        /* \"#utility.yul\":8104:8113   */\n      dup4\n        /* \"#utility.yul\":8100:8117   */\n      add\n        /* \"#utility.yul\":8093:8140   */\n      mstore\n        /* \"#utility.yul\":8157:8235   */\n      tag_296\n        /* \"#utility.yul\":8230:8234   */\n      dup2\n        /* \"#utility.yul\":8221:8227   */\n      dup7\n        /* \"#utility.yul\":8157:8235   */\n      tag_154\n      jump\t// in\n    tag_296:\n        /* \"#utility.yul\":8149:8235   */\n      swap1\n      pop\n        /* \"#utility.yul\":8282:8291   */\n      dup2\n        /* \"#utility.yul\":8276:8280   */\n      dup2\n        /* \"#utility.yul\":8272:8292   */\n      sub\n        /* \"#utility.yul\":8267:8269   */\n      0x20\n        /* \"#utility.yul\":8256:8265   */\n      dup4\n        /* \"#utility.yul\":8252:8270   */\n      add\n        /* \"#utility.yul\":8245:8293   */\n      mstore\n        /* \"#utility.yul\":8310:8388   */\n      tag_297\n        /* \"#utility.yul\":8383:8387   */\n      dup2\n        /* \"#utility.yul\":8374:8380   */\n      dup6\n        /* \"#utility.yul\":8310:8388   */\n      tag_154\n      jump\t// in\n    tag_297:\n        /* \"#utility.yul\":8302:8388   */\n      swap1\n      pop\n        /* \"#utility.yul\":8398:8470   */\n      tag_298\n        /* \"#utility.yul\":8466:8468   */\n      0x40\n        /* \"#utility.yul\":8455:8464   */\n      dup4\n        /* \"#utility.yul\":8451:8469   */\n      add\n        /* \"#utility.yul\":8442:8448   */\n      dup5\n        /* \"#utility.yul\":8398:8470   */\n      tag_169\n      jump\t// in\n    tag_298:\n        /* \"#utility.yul\":7853:8477   */\n      swap5\n      swap4\n      pop\n      pop\n      pop\n      pop\n      jump\t// out\n        /* \"#utility.yul\":8483:8997   */\n    tag_48:\n        /* \"#utility.yul\":8644:8648   */\n      0x00\n        /* \"#utility.yul\":8682:8684   */\n      0x40\n        /* \"#utility.yul\":8671:8680   */\n      dup3\n        /* \"#utility.yul\":8667:8685   */\n      add\n        /* \"#utility.yul\":8659:8685   */\n      swap1\n      pop\n        /* \"#utility.yul\":8731:8740   */\n      dup2\n        /* \"#utility.yul\":8725:8729   */\n      dup2\n        /* \"#utility.yul\":8721:8741   */\n      sub\n        /* \"#utility.yul\":8717:8718   */\n      0x00\n        /* \"#utility.yul\":8706:8715   */\n      dup4\n        /* \"#utility.yul\":8702:8719   */\n      add\n        /* \"#utility.yul\":8695:8742   */\n      mstore\n        /* \"#utility.yul\":8759:8837   */\n      tag_300\n        /* \"#utility.yul\":8832:8836   */\n      dup2\n        /* \"#utility.yul\":8823:8829   */\n      dup6\n        /* \"#utility.yul\":8759:8837   */\n      tag_154\n      jump\t// in\n    tag_300:\n        /* \"#utility.yul\":8751:8837   */\n      swap1\n      pop\n        /* \"#utility.yul\":8884:8893   */\n      dup2\n        /* \"#utility.yul\":8878:8882   */\n      dup2\n        /* \"#utility.yul\":8874:8894   */\n      sub\n        /* \"#utility.yul\":8869:8871   */\n      0x20\n        /* \"#utility.yul\":8858:8867   */\n      dup4\n        /* \"#utility.yul\":8854:8872   */\n      add\n        /* \"#utility.yul\":8847:8895   */\n      mstore\n        /* \"#utility.yul\":8912:8990   */\n      tag_301\n        /* \"#utility.yul\":8985:8989   */\n      dup2\n        /* \"#utility.yul\":8976:8982   */\n      dup5\n        /* \"#utility.yul\":8912:8990   */\n      tag_154\n      jump\t// in\n    tag_301:\n        /* \"#utility.yul\":8904:8990   */\n      swap1\n      pop\n        /* \"#utility.yul\":8483:8997   */\n      swap4\n      swap3\n      pop\n      pop\n      pop\n      jump\t// out\n        /* \"#utility.yul\":9003:9183   */\n    tag_170:\n        /* \"#utility.yul\":9051:9128   */\n      0x4e487b7100000000000000000000000000000000000000000000000000000000\n        /* \"#utility.yul\":9048:9049   */\n      0x00\n        /* \"#utility.yul\":9041:9129   */\n      mstore\n        /* \"#utility.yul\":9148:9152   */\n      0x22\n        /* \"#utility.yul\":9145:9146   */\n      0x04\n        /* \"#utility.yul\":9138:9153   */\n      mstore\n        /* \"#utility.yul\":9172:9176   */\n      0x24\n        /* \"#utility.yul\":9169:9170   */\n      0x00\n        /* \"#utility.yul\":9162:9177   */\n      revert\n        /* \"#utility.yul\":9189:9509   */\n    tag_53:\n        /* \"#utility.yul\":9233:9239   */\n      0x00\n        /* \"#utility.yul\":9270:9271   */\n      0x02\n        /* \"#utility.yul\":9264:9268   */\n      dup3\n        /* \"#utility.yul\":9260:9272   */\n      div\n        /* \"#utility.yul\":9250:9272   */\n      swap1\n      pop\n        /* \"#utility.yul\":9317:9318   */\n      0x01\n        /* \"#utility.yul\":9311:9315   */\n      dup3\n        /* \"#utility.yul\":9307:9319   */\n      and\n        /* \"#utility.yul\":9338:9356   */\n      dup1\n        /* \"#utility.yul\":9328:9409   */\n      tag_304\n      jumpi\n        /* \"#utility.yul\":9394:9398   */\n      0x7f\n        /* \"#utility.yul\":9386:9392   */\n      dup3\n        /* \"#utility.yul\":9382:9399   */\n      and\n        /* \"#utility.yul\":9372:9399   */\n      swap2\n      pop\n        /* \"#utility.yul\":9328:9409   */\n    tag_304:\n        /* \"#utility.yul\":9456:9458   */\n      0x20\n        /* \"#utility.yul\":9448:9454   */\n      dup3\n        /* \"#utility.yul\":9445:9459   */\n      lt\n        /* \"#utility.yul\":9425:9443   */\n      dup2\n        /* \"#utility.yul\":9422:9460   */\n      sub\n        /* \"#utility.yul\":9419:9503   */\n      tag_305\n      jumpi\n        /* \"#utility.yul\":9475:9493   */\n      tag_306\n      tag_170\n      jump\t// in\n    tag_306:\n        /* \"#utility.yul\":9419:9503   */\n    tag_305:\n        /* \"#utility.yul\":9240:9509   */\n      pop\n        /* \"#utility.yul\":9189:9509   */\n      swap2\n      swap1\n      pop\n      jump\t// out\n        /* \"#utility.yul\":9515:9656   */\n    tag_171:\n        /* \"#utility.yul\":9564:9568   */\n      0x00\n        /* \"#utility.yul\":9587:9590   */\n      dup2\n        /* \"#utility.yul\":9579:9590   */\n      swap1\n      pop\n        /* \"#utility.yul\":9610:9613   */\n      dup2\n        /* \"#utility.yul\":9607:9608   */\n      0x00\n        /* \"#utility.yul\":9600:9614   */\n      mstore\n        /* \"#utility.yul\":9644:9648   */\n      0x20\n        /* \"#utility.yul\":9641:9642   */\n      0x00\n        /* \"#utility.yul\":9631:9649   */\n      keccak256\n        /* \"#utility.yul\":9623:9649   */\n      swap1\n      pop\n        /* \"#utility.yul\":9515:9656   */\n      swap2\n      swap1\n      pop\n      jump\t// out\n        /* \"#utility.yul\":9662:9755   */\n    tag_172:\n        /* \"#utility.yul\":9699:9705   */\n      0x00\n        /* \"#utility.yul\":9746:9748   */\n      0x20\n        /* \"#utility.yul\":9741:9743   */\n      0x1f\n        /* \"#utility.yul\":9734:9739   */\n      dup4\n        /* \"#utility.yul\":9730:9744   */\n      add\n        /* \"#utility.yul\":9726:9749   */\n      div\n        /* \"#utility.yul\":9716:9749   */\n      swap1\n      pop\n        /* \"#utility.yul\":9662:9755   */\n      swap2\n      swap1\n      pop\n      jump\t// out\n        /* \"#utility.yul\":9761:9868   */\n    tag_173:\n        /* \"#utility.yul\":9805:9813   */\n      0x00\n        /* \"#utility.yul\":9855:9860   */\n      dup3\n        /* \"#utility.yul\":9849:9853   */\n      dup3\n        /* \"#utility.yul\":9845:9861   */\n      shl\n        /* \"#utility.yul\":9824:9861   */\n      swap1\n      pop\n        /* \"#utility.yul\":9761:9868   */\n      swap3\n      swap2\n      pop\n      pop\n      jump\t// out\n        /* \"#utility.yul\":9874:10267   */\n    tag_174:\n        /* \"#utility.yul\":9943:9949   */\n      0x00\n        /* \"#utility.yul\":9993:9994   */\n      0x08\n        /* \"#utility.yul\":9981:9991   */\n      dup4\n        /* \"#utility.yul\":9977:9995   */\n      mul\n        /* \"#utility.yul\":10016:10113   */\n      tag_311\n        /* \"#utility.yul\":10046:10112   */\n      0xffffffffffffffffffffffffffffffffffffffffffffffffffffffffffffffff\n        /* \"#utility.yul\":10035:10044   */\n      dup3\n        /* \"#utility.yul\":10016:10113   */\n      tag_173\n      jump\t// in\n    tag_311:\n        /* \"#utility.yul\":10134:10173   */\n      tag_312\n        /* \"#utility.yul\":10164:10172   */\n      dup7\n        /* \"#utility.yul\":10153:10162   */\n      dup4\n        /* \"#utility.yul\":10134:10173   */\n      tag_173\n      jump\t// in\n    tag_312:\n        /* \"#utility.yul\":10122:10173   */\n      swap6\n      pop\n        /* \"#utility.yul\":10206:10210   */\n      dup1\n        /* \"#utility.yul\":10202:10211   */\n      not\n        /* \"#utility.yul\":10195:10200   */\n      dup5\n        /* \"#utility.yul\":10191:10212   */\n      and\n        /* \"#utility.yul\":10182:10212   */\n      swap4\n      pop\n        /* \"#utility.yul\":10255:10259   */\n      dup1\n        /* \"#utility.yul\":10245:10253   */\n      dup7\n        /* \"#utility.yul\":10241:10260   */\n      and\n        /* \"#utility.yul\":10234:10239   */\n      dup5\n        /* \"#utility.yul\":10231:10261   */\n      or\n        /* \"#utility.yul\":10221:10261   */\n      swap3\n      pop\n        /* \"#utility.yul\":9950:10267   */\n      pop\n      pop\n        /* \"#utility.yul\":9874:10267   */\n      swap4\n      swap3\n      pop\n      pop\n      pop\n      jump\t// out\n        /* \"#utility.yul\":10273:10333   */\n    tag_175:\n        /* \"#utility.yul\":10301:10304   */\n      0x00\n        /* \"#utility.yul\":10322:10327   */\n      dup2\n        /* \"#utility.yul\":10315:10327   */\n      swap1\n      pop\n        /* \"#utility.yul\":10273:10333   */\n      swap2\n      swap1\n      pop\n      jump\t// out\n        /* \"#utility.yul\":10339:10481   */\n    tag_176:\n        /* \"#utility.yul\":10389:10398   */\n      0x00\n        /* \"#utility.yul\":10422:10475   */\n      tag_315\n        /* \"#utility.yul\":10440:10474   */\n      tag_316\n        /* \"#utility.yul\":10449:10473   */\n      tag_317\n        /* \"#utility.yul\":10467:10472   */\n      dup5\n        /* \"#utility.yul\":10449:10473   */\n      tag_166\n      jump\t// in\n    tag_317:\n        /* \"#utility.yul\":10440:10474   */\n      tag_175\n      jump\t// in\n    tag_316:\n        /* \"#utility.yul\":10422:10475   */\n      tag_166\n      jump\t// in\n    tag_315:\n        /* \"#utility.yul\":10409:10475   */\n      swap1\n      pop\n        /* \"#utility.yul\":10339:10481   */\n      swap2\n      swap1\n      pop\n      jump\t// out\n        /* \"#utility.yul\":10487:10562   */\n    tag_177:\n        /* \"#utility.yul\":10530:10533   */\n      0x00\n        /* \"#utility.yul\":10551:10556   */\n      dup2\n        /* \"#utility.yul\":10544:10556   */\n      swap1\n      pop\n        /* \"#utility.yul\":10487:10562   */\n      swap2\n      swap1\n      pop\n      jump\t// out\n        /* \"#utility.yul\":10568:10837   */\n    tag_178:\n        /* \"#utility.yul\":10678:10717   */\n      tag_320\n        /* \"#utility.yul\":10709:10716   */\n      dup4\n        /* \"#utility.yul\":10678:10717   */\n      tag_176\n      jump\t// in\n    tag_320:\n        /* \"#utility.yul\":10739:10830   */\n      tag_321\n        /* \"#utility.yul\":10788:10829   */\n      tag_322\n        /* \"#utility.yul\":10812:10828   */\n      dup3\n        /* \"#utility.yul\":10788:10829   */\n      tag_177\n      jump\t// in\n    tag_322:\n        /* \"#utility.yul\":10780:10786   */\n      dup5\n        /* \"#utility.yul\":10773:10777   */\n      dup5\n        /* \"#utility.yul\":10767:10778   */\n      sload\n        /* \"#utility.yul\":10739:10830   */\n      tag_174\n      jump\t// in\n    tag_321:\n        /* \"#utility.yul\":10733:10737   */\n      dup3\n        /* \"#utility.yul\":10726:10831   */\n      sstore\n        /* \"#utility.yul\":10644:10837   */\n      pop\n        /* \"#utility.yul\":10568:10837   */\n      pop\n      pop\n      pop\n      jump\t// out\n        /* \"#utility.yul\":10843:10916   */\n    tag_179:\n        /* \"#utility.yul\":10888:10891   */\n      0x00\n        /* \"#utility.yul\":10843:10916   */\n      swap1\n      jump\t// out\n        /* \"#utility.yul\":10922:11111   */\n    tag_180:\n        /* \"#utility.yul\":10999:11031   */\n      tag_325\n      tag_179\n      jump\t// in\n    tag_325:\n        /* \"#utility.yul\":11040:11105   */\n      tag_326\n        /* \"#utility.yul\":11098:11104   */\n      dup2\n        /* \"#utility.yul\":11090:11096   */\n      dup5\n        /* \"#utility.yul\":11084:11088   */\n      dup5\n        /* \"#utility.yul\":11040:11105   */\n      tag_178\n      jump\t// in\n    tag_326:\n        /* \"#utility.yul\":10975:11111   */\n      pop\n        /* \"#utility.yul\":10922:11111   */\n      pop\n      pop\n      jump\t// out\n        /* \"#utility.yul\":11117:11303   */\n    tag_181:\n        /* \"#utility.yul\":11177:11297   */\n    tag_328:\n        /* \"#utility.yul\":11194:11197   */\n      dup2\n        /* \"#utility.yul\":11187:11192   */\n      dup2\n        /* \"#utility.yul\":11184:11198   */\n      lt\n        /* \"#utility.yul\":11177:11297   */\n      iszero\n      tag_330\n      jumpi\n        /* \"#utility.yul\":11248:11287   */\n      tag_331\n        /* \"#utility.yul\":11285:11286   */\n      0x00\n        /* \"#utility.yul\":11278:11283   */\n      dup3\n        /* \"#utility.yul\":11248:11287   */\n      tag_180\n      jump\t// in\n    tag_331:\n        /* \"#utility.yul\":11221:11222   */\n      0x01\n        /* \"#utility.yul\":11214:11219   */\n      dup2\n        /* \"#utility.yul\":11210:11223   */\n      add\n        /* \"#utility.yul\":11201:11223   */\n      swap1\n      pop\n        /* \"#utility.yul\":11177:11297   */\n      jump(tag_328)\n    tag_330:\n        /* \"#utility.yul\":11117:11303   */\n      pop\n      pop\n      jump\t// out\n        /* \"#utility.yul\":11309:11852   */\n    tag_182:\n        /* \"#utility.yul\":11410:11412   */\n      0x1f\n        /* \"#utility.yul\":11405:11408   */\n      dup3\n        /* \"#utility.yul\":11402:11413   */\n      gt\n        /* \"#utility.yul\":11399:11845   */\n      iszero\n      tag_333\n      jumpi\n        /* \"#utility.yul\":11444:11482   */\n      tag_334\n        /* \"#utility.yul\":11476:11481   */\n      dup2\n        /* \"#utility.yul\":11444:11482   */\n      tag_171\n      jump\t// in\n    tag_334:\n        /* \"#utility.yul\":11528:11557   */\n      tag_335\n        /* \"#utility.yul\":11546:11556   */\n      dup5\n        /* \"#utility.yul\":11528:11557   */\n      tag_172\n      jump\t// in\n    tag_335:\n        /* \"#utility.yul\":11518:11526   */\n      dup2\n        /* \"#utility.yul\":11514:11558   */\n      add\n        /* \"#utility.yul\":11711:11713   */\n      0x20\n        /* \"#utility.yul\":11699:11709   */\n      dup6\n        /* \"#utility.yul\":11696:11714   */\n      lt\n        /* \"#utility.yul\":11693:11742   */\n      iszero\n      tag_336\n      jumpi\n        /* \"#utility.yul\":11732:11740   */\n      dup2\n        /* \"#utility.yul\":11717:11740   */\n      swap1\n      pop\n        /* \"#utility.yul\":11693:11742   */\n    tag_336:\n        /* \"#utility.yul\":11755:11835   */\n      tag_337\n        /* \"#utility.yul\":11811:11833   */\n      tag_338\n        /* \"#utility.yul\":11829:11832   */\n      dup6\n        /* \"#utility.yul\":11811:11833   */\n      tag_172\n      jump\t// in\n    tag_338:\n        /* \"#utility.yul\":11801:11809   */\n      dup4\n        /* \"#utility.yul\":11797:11834   */\n      add\n        /* \"#utility.yul\":11784:11795   */\n      dup3\n        /* \"#utility.yul\":11755:11835   */\n      tag_181\n      jump\t// in\n    tag_337:\n        /* \"#utility.yul\":11414:11845   */\n      pop\n      pop\n        /* \"#utility.yul\":11399:11845   */\n    tag_333:\n        /* \"#utility.yul\":11309:11852   */\n      pop\n      pop\n      pop\n      jump\t// out\n        /* \"#utility.yul\":11858:11975   */\n    tag_183:\n        /* \"#utility.yul\":11912:11920   */\n      0x00\n        /* \"#utility.yul\":11962:11967   */\n      dup3\n        /* \"#utility.yul\":11956:11960   */\n      dup3\n        /* \"#utility.yul\":11952:11968   */\n      shr\n        /* \"#utility.yul\":11931:11968   */\n      swap1\n      pop\n        /* \"#utility.yul\":11858:11975   */\n      swap3\n      swap2\n      pop\n      pop\n      jump\t// out\n        /* \"#utility.yul\":11981:12150   */\n    tag_184:\n        /* \"#utility.yul\":12025:12031   */\n      0x00\n        /* \"#utility.yul\":12058:12109   */\n      tag_341\n        /* \"#utility.yul\":12106:12107   */\n      0x00\n        /* \"#utility.yul\":12102:12108   */\n      not\n        /* \"#utility.yul\":12094:12099   */\n      dup5\n        /* \"#utility.yul\":12091:12092   */\n      0x08\n        /* \"#utility.yul\":12087:12100   */\n      mul\n        /* \"#utility.yul\":12058:12109   */\n      tag_183\n      jump\t// in\n    tag_341:\n        /* \"#utility.yul\":12054:12110   */\n      not\n        /* \"#utility.yul\":12139:12143   */\n      dup1\n        /* \"#utility.yul\":12133:12137   */\n      dup4\n        /* \"#utility.yul\":12129:12144   */\n      and\n        /* \"#utility.yul\":12119:12144   */\n      swap2\n      pop\n        /* \"#utility.yul\":12032:12150   */\n      pop\n        /* \"#utility.yul\":11981:12150   */\n      swap3\n      swap2\n      pop\n      pop\n      jump\t// out\n        /* \"#utility.yul\":12155:12450   */\n    tag_185:\n        /* \"#utility.yul\":12231:12235   */\n      0x00\n        /* \"#utility.yul\":12377:12406   */\n      tag_343\n        /* \"#utility.yul\":12402:12405   */\n      dup4\n        /* \"#utility.yul\":12396:12400   */\n      dup4\n        /* \"#utility.yul\":12377:12406   */\n      tag_184\n      jump\t// in\n    tag_343:\n        /* \"#utility.yul\":12369:12406   */\n      swap2\n      pop\n        /* \"#utility.yul\":12439:12442   */\n      dup3\n        /* \"#utility.yul\":12436:12437   */\n      0x02\n        /* \"#utility.yul\":12432:12443   */\n      mul\n        /* \"#utility.yul\":12426:12430   */\n      dup3\n        /* \"#utility.yul\":12423:12444   */\n      or\n        /* \"#utility.yul\":12415:12444   */\n      swap1\n      pop\n        /* \"#utility.yul\":12155:12450   */\n      swap3\n      swap2\n      pop\n      pop\n      jump\t// out\n        /* \"#utility.yul\":12455:13850   */\n    tag_60:\n        /* \"#utility.yul\":12572:12609   */\n      tag_345\n        /* \"#utility.yul\":12605:12608   */\n      dup3\n        /* \"#utility.yul\":12572:12609   */\n      tag_150\n      jump\t// in\n    tag_345:\n        /* \"#utility.yul\":12674:12692   */\n      0xffffffffffffffff\n        /* \"#utility.yul\":12666:12672   */\n      dup2\n        /* \"#utility.yul\":12663:12693   */\n      gt\n        /* \"#utility.yul\":12660:12716   */\n      iszero\n      tag_346\n      jumpi\n        /* \"#utility.yul\":12696:12714   */\n      tag_347\n      tag_134\n      jump\t// in\n    tag_347:\n        /* \"#utility.yul\":12660:12716   */\n    tag_346:\n        /* \"#utility.yul\":12740:12778   */\n      tag_348\n        /* \"#utility.yul\":12772:12776   */\n      dup3\n        /* \"#utility.yul\":12766:12777   */\n      sload\n        /* \"#utility.yul\":12740:12778   */\n      tag_53\n      jump\t// in\n    tag_348:\n        /* \"#utility.yul\":12825:12892   */\n      tag_349\n        /* \"#utility.yul\":12885:12891   */\n      dup3\n        /* \"#utility.yul\":12877:12883   */\n      dup3\n        /* \"#utility.yul\":12871:12875   */\n      dup6\n        /* \"#utility.yul\":12825:12892   */\n      tag_182\n      jump\t// in\n    tag_349:\n        /* \"#utility.yul\":12919:12920   */\n      0x00\n        /* \"#utility.yul\":12943:12947   */\n      0x20\n        /* \"#utility.yul\":12930:12947   */\n      swap1\n      pop\n        /* \"#utility.yul\":12975:12977   */\n      0x1f\n        /* \"#utility.yul\":12967:12973   */\n      dup4\n        /* \"#utility.yul\":12964:12978   */\n      gt\n        /* \"#utility.yul\":12992:12993   */\n      0x01\n        /* \"#utility.yul\":12987:13605   */\n      dup2\n      eq\n      tag_351\n      jumpi\n        /* \"#utility.yul\":13649:13650   */\n      0x00\n        /* \"#utility.yul\":13666:13672   */\n      dup5\n        /* \"#utility.yul\":13663:13740   */\n      iszero\n      tag_352\n      jumpi\n        /* \"#utility.yul\":13715:13724   */\n      dup3\n        /* \"#utility.yul\":13710:13713   */\n      dup8\n        /* \"#utility.yul\":13706:13725   */\n      add\n        /* \"#utility.yul\":13700:13726   */\n      mload\n        /* \"#utility.yul\":13691:13726   */\n      swap1\n      pop\n        /* \"#utility.yul\":13663:13740   */\n    tag_352:\n        /* \"#utility.yul\":13766:13833   */\n      tag_353\n        /* \"#utility.yul\":13826:13832   */\n      dup6\n        /* \"#utility.yul\":13819:13824   */\n      dup3\n        /* \"#utility.yul\":13766:13833   */\n      tag_185\n      jump\t// in\n    tag_353:\n        /* \"#utility.yul\":13760:13764   */\n      dup7\n        /* \"#utility.yul\":13753:13834   */\n      sstore\n        /* \"#utility.yul\":13622:13844   */\n      pop\n        /* \"#utility.yul\":12957:13844   */\n      jump(tag_350)\n        /* \"#utility.yul\":12987:13605   */\n    tag_351:\n        /* \"#utility.yul\":13039:13043   */\n      0x1f\n        /* \"#utility.yul\":13035:13044   */\n      not\n        /* \"#utility.yul\":13027:13033   */\n      dup5\n        /* \"#utility.yul\":13023:13045   */\n      and\n        /* \"#utility.yul\":13073:13110   */\n      tag_354\n        /* \"#utility.yul\":13105:13109   */\n      dup7\n        /* \"#utility.yul\":13073:13110   */\n      tag_171\n      jump\t// in\n    tag_354:\n        /* \"#utility.yul\":13132:13133   */\n      0x00\n        /* \"#utility.yul\":13146:13354   */\n    tag_355:\n        /* \"#utility.yul\":13160:13167   */\n      dup3\n        /* \"#utility.yul\":13157:13158   */\n      dup2\n        /* \"#utility.yul\":13154:13168   */\n      lt\n        /* \"#utility.yul\":13146:13354   */\n      iszero\n      tag_357\n      jumpi\n        /* \"#utility.yul\":13239:13248   */\n      dup5\n        /* \"#utility.yul\":13234:13237   */\n      dup10\n        /* \"#utility.yul\":13230:13249   */\n      add\n        /* \"#utility.yul\":13224:13250   */\n      mload\n        /* \"#utility.yul\":13216:13222   */\n      dup3\n        /* \"#utility.yul\":13209:13251   */\n      sstore\n        /* \"#utility.yul\":13290:13291   */\n      0x01\n        /* \"#utility.yul\":13282:13288   */\n      dup3\n        /* \"#utility.yul\":13278:13292   */\n      add\n        /* \"#utility.yul\":13268:13292   */\n      swap2\n      pop\n        /* \"#utility.yul\":13337:13339   */\n      0x20\n        /* \"#utility.yul\":13326:13335   */\n      dup6\n        /* \"#utility.yul\":13322:13340   */\n      add\n        /* \"#utility.yul\":13309:13340   */\n      swap5\n      pop\n        /* \"#utility.yul\":13183:13187   */\n      0x20\n        /* \"#utility.yul\":13180:13181   */\n      dup2\n        /* \"#utility.yul\":13176:13188   */\n      add\n        /* \"#utility.yul\":13171:13188   */\n      swap1\n      pop\n        /* \"#utility.yul\":13146:13354   */\n      jump(tag_355)\n    tag_357:\n        /* \"#utility.yul\":13382:13388   */\n      dup7\n        /* \"#utility.yul\":13373:13380   */\n      dup4\n        /* \"#utility.yul\":13370:13389   */\n      lt\n        /* \"#utility.yul\":13367:13546   */\n      iszero\n      tag_358\n      jumpi\n        /* \"#utility.yul\":13440:13449   */\n      dup5\n        /* \"#utility.yul\":13435:13438   */\n      dup10\n        /* \"#utility.yul\":13431:13450   */\n      add\n        /* \"#utility.yul\":13425:13451   */\n      mload\n        /* \"#utility.yul\":13483:13531   */\n      tag_359\n        /* \"#utility.yul\":13525:13529   */\n      0x1f\n        /* \"#utility.yul\":13517:13523   */\n      dup10\n        /* \"#utility.yul\":13513:13530   */\n      and\n        /* \"#utility.yul\":13502:13511   */\n      dup3\n        /* \"#utility.yul\":13483:13531   */\n      tag_184\n      jump\t// in\n    tag_359:\n        /* \"#utility.yul\":13475:13481   */\n      dup4\n        /* \"#utility.yul\":13468:13532   */\n      sstore\n        /* \"#utility.yul\":13390:13546   */\n      pop\n        /* \"#utility.yul\":13367:13546   */\n    tag_358:\n        /* \"#utility.yul\":13592:13593   */\n      0x01\n        /* \"#utility.yul\":13588:13589   */\n      0x02\n        /* \"#utility.yul\":13580:13586   */\n      dup9\n        /* \"#utility.yul\":13576:13590   */\n      mul\n        /* \"#utility.yul\":13572:13594   */\n      add\n        /* \"#utility.yul\":13566:13570   */\n      dup9\n        /* \"#utility.yul\":13559:13595   */\n      sstore\n        /* \"#utility.yul\":12994:13605   */\n      pop\n      pop\n      pop\n        /* \"#utility.yul\":12957:13844   */\n    tag_350:\n      pop\n        /* \"#utility.yul\":12547:13850   */\n      pop\n      pop\n      pop\n        /* \"#utility.yul\":12455:13850   */\n      pop\n      pop\n      jump\t// out\n        /* \"#utility.yul\":13856:14004   */\n    tag_186:\n        /* \"#utility.yul\":13958:13969   */\n      0x00\n        /* \"#utility.yul\":13995:13998   */\n      dup2\n        /* \"#utility.yul\":13980:13998   */\n      swap1\n      pop\n        /* \"#utility.yul\":13856:14004   */\n      swap3\n      swap2\n      pop\n      pop\n      jump\t// out\n        /* \"#utility.yul\":14010:14400   */\n    tag_187:\n        /* \"#utility.yul\":14116:14119   */\n      0x00\n        /* \"#utility.yul\":14144:14183   */\n      tag_362\n        /* \"#utility.yul\":14177:14182   */\n      dup3\n        /* \"#utility.yul\":14144:14183   */\n      tag_150\n      jump\t// in\n    tag_362:\n        /* \"#utility.yul\":14199:14288   */\n      tag_363\n        /* \"#utility.yul\":14281:14287   */\n      dup2\n        /* \"#utility.yul\":14276:14279   */\n      dup6\n        /* \"#utility.yul\":14199:14288   */\n      tag_186\n      jump\t// in\n    tag_363:\n        /* \"#utility.yul\":14192:14288   */\n      swap4\n      pop\n        /* \"#utility.yul\":14297:14362   */\n      tag_364\n        /* \"#utility.yul\":14355:14361   */\n      dup2\n        /* \"#utility.yul\":14350:14353   */\n      dup6\n        /* \"#utility.yul\":14343:14347   */\n      0x20\n        /* \"#utility.yul\":14336:14341   */\n      dup7\n        /* \"#utility.yul\":14332:14348   */\n      add\n        /* \"#utility.yul\":14297:14362   */\n      tag_152\n      jump\t// in\n    tag_364:\n        /* \"#utility.yul\":14387:14393   */\n      dup1\n        /* \"#utility.yul\":14382:14385   */\n      dup5\n        /* \"#utility.yul\":14378:14394   */\n      add\n        /* \"#utility.yul\":14371:14394   */\n      swap2\n      pop\n        /* \"#utility.yul\":14120:14400   */\n      pop\n        /* \"#utility.yul\":14010:14400   */\n      swap3\n      swap2\n      pop\n      pop\n      jump\t// out\n        /* \"#utility.yul\":14406:14681   */\n    tag_65:\n        /* \"#utility.yul\":14538:14541   */\n      0x00\n        /* \"#utility.yul\":14560:14655   */\n      tag_366\n        /* \"#utility.yul\":14651:14654   */\n      dup3\n        /* \"#utility.yul\":14642:14648   */\n      dup5\n        /* \"#utility.yul\":14560:14655   */\n      tag_187\n      jump\t// in\n    tag_366:\n        /* \"#utility.yul\":14553:14655   */\n      swap2\n      pop\n        /* \"#utility.yul\":14672:14675   */\n      dup2\n        /* \"#utility.yul\":14665:14675   */\n      swap1\n      pop\n        /* \"#utility.yul\":14406:14681   */\n      swap3\n      swap2\n      pop\n      pop\n      jump\t// out\n        /* \"#utility.yul\":14687:14843   */\n    tag_188:\n        /* \"#utility.yul\":14827:14835   */\n      0x4e616d653a200000000000000000000000000000000000000000000000000000\n        /* \"#utility.yul\":14823:14824   */\n      0x00\n        /* \"#utility.yul\":14815:14821   */\n      dup3\n        /* \"#utility.yul\":14811:14825   */\n      add\n        /* \"#utility.yul\":14804:14836   */\n      mstore\n        /* \"#utility.yul\":14687:14843   */\n      pop\n      jump\t// out\n        /* \"#utility.yul\":14849:15249   */\n    tag_189:\n        /* \"#utility.yul\":15009:15012   */\n      0x00\n        /* \"#utility.yul\":15030:15114   */\n      tag_369\n        /* \"#utility.yul\":15112:15113   */\n      0x06\n        /* \"#utility.yul\":15107:15110   */\n      dup4\n        /* \"#utility.yul\":15030:15114   */\n      tag_186\n      jump\t// in\n    tag_369:\n        /* \"#utility.yul\":15023:15114   */\n      swap2\n      pop\n        /* \"#utility.yul\":15123:15216   */\n      tag_370\n        /* \"#utility.yul\":15212:15215   */\n      dup3\n        /* \"#utility.yul\":15123:15216   */\n      tag_188\n      jump\t// in\n    tag_370:\n        /* \"#utility.yul\":15241:15242   */\n      0x06\n        /* \"#utility.yul\":15236:15239   */\n      dup3\n        /* \"#utility.yul\":15232:15243   */\n      add\n        /* \"#utility.yul\":15225:15243   */\n      swap1\n      pop\n        /* \"#utility.yul\":14849:15249   */\n      swap2\n      swap1\n      pop\n      jump\t// out\n        /* \"#utility.yul\":15255:15416   */\n    tag_190:\n        /* \"#utility.yul\":15395:15408   */\n      0x2c2052656764204e6f3a20000000000000000000000000000000000000000000\n        /* \"#utility.yul\":15391:15392   */\n      0x00\n        /* \"#utility.yul\":15383:15389   */\n      dup3\n        /* \"#utility.yul\":15379:15393   */\n      add\n        /* \"#utility.yul\":15372:15409   */\n      mstore\n        /* \"#utility.yul\":15255:15416   */\n      pop\n      jump\t// out\n        /* \"#utility.yul\":15422:15824   */\n    tag_191:\n        /* \"#utility.yul\":15582:15585   */\n      0x00\n        /* \"#utility.yul\":15603:15688   */\n      tag_373\n        /* \"#utility.yul\":15685:15687   */\n      0x0b\n        /* \"#utility.yul\":15680:15683   */\n      dup4\n        /* \"#utility.yul\":15603:15688   */\n      tag_186\n      jump\t// in\n    tag_373:\n        /* \"#utility.yul\":15596:15688   */\n      swap2\n      pop\n        /* \"#utility.yul\":15697:15790   */\n      tag_374\n        /* \"#utility.yul\":15786:15789   */\n      dup3\n        /* \"#utility.yul\":15697:15790   */\n      tag_190\n      jump\t// in\n    tag_374:\n        /* \"#utility.yul\":15815:15817   */\n      0x0b\n        /* \"#utility.yul\":15810:15813   */\n      dup3\n        /* \"#utility.yul\":15806:15818   */\n      add\n        /* \"#utility.yul\":15799:15818   */\n      swap1\n      pop\n        /* \"#utility.yul\":15422:15824   */\n      swap2\n      swap1\n      pop\n      jump\t// out\n        /* \"#utility.yul\":15830:15992   */\n    tag_192:\n        /* \"#utility.yul\":15970:15984   */\n      0x2c20456c6563746976653a200000000000000000000000000000000000000000\n        /* \"#utility.yul\":15966:15967   */\n      0x00\n        /* \"#utility.yul\":15958:15964   */\n      dup3\n        /* \"#utility.yul\":15954:15968   */\n      add\n        /* \"#utility.yul\":15947:15985   */\n      mstore\n        /* \"#utility.yul\":15830:15992   */\n      pop\n      jump\t// out\n        /* \"#utility.yul\":15998:16400   */\n    tag_193:\n        /* \"#utility.yul\":16158:16161   */\n      0x00\n        /* \"#utility.yul\":16179:16264   */\n      tag_377\n        /* \"#utility.yul\":16261:16263   */\n      0x0c\n        /* \"#utility.yul\":16256:16259   */\n      dup4\n        /* \"#utility.yul\":16179:16264   */\n      tag_186\n      jump\t// in\n    tag_377:\n        /* \"#utility.yul\":16172:16264   */\n      swap2\n      pop\n        /* \"#utility.yul\":16273:16366   */\n      tag_378\n        /* \"#utility.yul\":16362:16365   */\n      dup3\n        /* \"#utility.yul\":16273:16366   */\n      tag_192\n      jump\t// in\n    tag_378:\n        /* \"#utility.yul\":16391:16393   */\n      0x0c\n        /* \"#utility.yul\":16386:16389   */\n      dup3\n        /* \"#utility.yul\":16382:16394   */\n      add\n        /* \"#utility.yul\":16375:16394   */\n      swap1\n      pop\n        /* \"#utility.yul\":15998:16400   */\n      swap2\n      swap1\n      pop\n      jump\t// out\n        /* \"#utility.yul\":16406:16569   */\n    tag_194:\n        /* \"#utility.yul\":16546:16561   */\n      0x2c20417667204d61726b733a2000000000000000000000000000000000000000\n        /* \"#utility.yul\":16542:16543   */\n      0x00\n        /* \"#utility.yul\":16534:16540   */\n      dup3\n        /* \"#utility.yul\":16530:16544   */\n      add\n        /* \"#utility.yul\":16523:16562   */\n      mstore\n        /* \"#utility.yul\":16406:16569   */\n      pop\n      jump\t// out\n        /* \"#utility.yul\":16575:16977   */\n    tag_195:\n        /* \"#utility.yul\":16735:16738   */\n      0x00\n        /* \"#utility.yul\":16756:16841   */\n      tag_381\n        /* \"#utility.yul\":16838:16840   */\n      0x0d\n        /* \"#utility.yul\":16833:16836   */\n      dup4\n        /* \"#utility.yul\":16756:16841   */\n      tag_186\n      jump\t// in\n    tag_381:\n        /* \"#utility.yul\":16749:16841   */\n      swap2\n      pop\n        /* \"#utility.yul\":16850:16943   */\n      tag_382\n        /* \"#utility.yul\":16939:16942   */\n      dup3\n        /* \"#utility.yul\":16850:16943   */\n      tag_194\n      jump\t// in\n    tag_382:\n        /* \"#utility.yul\":16968:16970   */\n      0x0d\n        /* \"#utility.yul\":16963:16966   */\n      dup3\n        /* \"#utility.yul\":16959:16971   */\n      add\n        /* \"#utility.yul\":16952:16971   */\n      swap1\n      pop\n        /* \"#utility.yul\":16575:16977   */\n      swap2\n      swap1\n      pop\n      jump\t// out\n        /* \"#utility.yul\":16983:17141   */\n    tag_196:\n        /* \"#utility.yul\":17123:17133   */\n      0x2c20446570743a20000000000000000000000000000000000000000000000000\n        /* \"#utility.yul\":17119:17120   */\n      0x00\n        /* \"#utility.yul\":17111:17117   */\n      dup3\n        /* \"#utility.yul\":17107:17121   */\n      add\n        /* \"#utility.yul\":17100:17134   */\n      mstore\n        /* \"#utility.yul\":16983:17141   */\n      pop\n      jump\t// out\n        /* \"#utility.yul\":17147:17547   */\n    tag_197:\n        /* \"#utility.yul\":17307:17310   */\n      0x00\n        /* \"#utility.yul\":17328:17412   */\n      tag_385\n        /* \"#utility.yul\":17410:17411   */\n      0x08\n        /* \"#utility.yul\":17405:17408   */\n      dup4\n        /* \"#utility.yul\":17328:17412   */\n      tag_186\n      jump\t// in\n    tag_385:\n        /* \"#utility.yul\":17321:17412   */\n      swap2\n      pop\n        /* \"#utility.yul\":17421:17514   */\n      tag_386\n        /* \"#utility.yul\":17510:17513   */\n      dup3\n        /* \"#utility.yul\":17421:17514   */\n      tag_196\n      jump\t// in\n    tag_386:\n        /* \"#utility.yul\":17539:17540   */\n      0x08\n        /* \"#utility.yul\":17534:17537   */\n      dup3\n        /* \"#utility.yul\":17530:17541   */\n      add\n        /* \"#utility.yul\":17523:17541   */\n      swap1\n      pop\n        /* \"#utility.yul\":17147:17547   */\n      swap2\n      swap1\n      pop\n      jump\t// out\n        /* \"#utility.yul\":17553:17716   */\n    tag_198:\n        /* \"#utility.yul\":17693:17708   */\n      0x2c204465707420486561643a2000000000000000000000000000000000000000\n        /* \"#utility.yul\":17689:17690   */\n      0x00\n        /* \"#utility.yul\":17681:17687   */\n      dup3\n        /* \"#utility.yul\":17677:17691   */\n      add\n        /* \"#utility.yul\":17670:17709   */\n      mstore\n        /* \"#utility.yul\":17553:17716   */\n      pop\n      jump\t// out\n        /* \"#utility.yul\":17722:18124   */\n    tag_199:\n        /* \"#utility.yul\":17882:17885   */\n      0x00\n        /* \"#utility.yul\":17903:17988   */\n      tag_389\n        /* \"#utility.yul\":17985:17987   */\n      0x0d\n        /* \"#utility.yul\":17980:17983   */\n      dup4\n        /* \"#utility.yul\":17903:17988   */\n      tag_186\n      jump\t// in\n    tag_389:\n        /* \"#utility.yul\":17896:17988   */\n      swap2\n      pop\n        /* \"#utility.yul\":17997:18090   */\n      tag_390\n        /* \"#utility.yul\":18086:18089   */\n      dup3\n        /* \"#utility.yul\":17997:18090   */\n      tag_198\n      jump\t// in\n    tag_390:\n        /* \"#utility.yul\":18115:18117   */\n      0x0d\n        /* \"#utility.yul\":18110:18113   */\n      dup3\n        /* \"#utility.yul\":18106:18118   */\n      add\n        /* \"#utility.yul\":18099:18118   */\n      swap1\n      pop\n        /* \"#utility.yul\":17722:18124   */\n      swap2\n      swap1\n      pop\n      jump\t// out\n        /* \"#utility.yul\":18130:20801   */\n    tag_95:\n        /* \"#utility.yul\":19108:19111   */\n      0x00\n        /* \"#utility.yul\":19130:19278   */\n      tag_392\n        /* \"#utility.yul\":19274:19277   */\n      dup3\n        /* \"#utility.yul\":19130:19278   */\n      tag_189\n      jump\t// in\n    tag_392:\n        /* \"#utility.yul\":19123:19278   */\n      swap2\n      pop\n        /* \"#utility.yul\":19295:19390   */\n      tag_393\n        /* \"#utility.yul\":19386:19389   */\n      dup3\n        /* \"#utility.yul\":19377:19383   */\n      dup10\n        /* \"#utility.yul\":19295:19390   */\n      tag_187\n      jump\t// in\n    tag_393:\n        /* \"#utility.yul\":19288:19390   */\n      swap2\n      pop\n        /* \"#utility.yul\":19407:19555   */\n      tag_394\n        /* \"#utility.yul\":19551:19554   */\n      dup3\n        /* \"#utility.yul\":19407:19555   */\n      tag_191\n      jump\t// in\n    tag_394:\n        /* \"#utility.yul\":19400:19555   */\n      swap2\n      pop\n        /* \"#utility.yul\":19572:19667   */\n      tag_395\n        /* \"#utility.yul\":19663:19666   */\n      dup3\n        /* \"#utility.yul\":19654:19660   */\n      dup9\n        /* \"#utility.yul\":19572:19667   */\n      tag_187\n      jump\t// in\n    tag_395:\n        /* \"#utility.yul\":19565:19667   */\n      swap2\n      pop\n        /* \"#utility.yul\":19684:19832   */\n      tag_396\n        /* \"#utility.yul\":19828:19831   */\n      dup3\n        /* \"#utility.yul\":19684:19832   */\n      tag_193\n      jump\t// in\n    tag_396:\n        /* \"#utility.yul\":19677:19832   */\n      swap2\n      pop\n        /* \"#utility.yul\":19849:19944   */\n      tag_397\n        /* \"#utility.yul\":19940:19943   */\n      dup3\n        /* \"#utility.yul\":19931:19937   */\n      dup8\n        /* \"#utility.yul\":19849:19944   */\n      tag_187\n      jump\t// in\n    tag_397:\n        /* \"#utility.yul\":19842:19944   */\n      swap2\n      pop\n        /* \"#utility.yul\":19961:20109   */\n      tag_398\n        /* \"#utility.yul\":20105:20108   */\n      dup3\n        /* \"#utility.yul\":19961:20109   */\n      tag_195\n      jump\t// in\n    tag_398:\n        /* \"#utility.yul\":19954:20109   */\n      swap2\n      pop\n        /* \"#utility.yul\":20126:20221   */\n      tag_399\n        /* \"#utility.yul\":20217:20220   */\n      dup3\n        /* \"#utility.yul\":20208:20214   */\n      dup7\n        /* \"#utility.yul\":20126:20221   */\n      tag_187\n      jump\t// in\n    tag_399:\n        /* \"#utility.yul\":20119:20221   */\n      swap2\n      pop\n        /* \"#utility.yul\":20238:20386   */\n      tag_400\n        /* \"#utility.yul\":20382:20385   */\n      dup3\n        /* \"#utility.yul\":20238:20386   */\n      tag_197\n      jump\t// in\n    tag_400:\n        /* \"#utility.yul\":20231:20386   */\n      swap2\n      pop\n        /* \"#utility.yul\":20403:20498   */\n      tag_401\n        /* \"#utility.yul\":20494:20497   */\n      dup3\n        /* \"#utility.yul\":20485:20491   */\n      dup6\n        /* \"#utility.yul\":20403:20498   */\n      tag_187\n      jump\t// in\n    tag_401:\n        /* \"#utility.yul\":20396:20498   */\n      swap2\n      pop\n        /* \"#utility.yul\":20515:20663   */\n      tag_402\n        /* \"#utility.yul\":20659:20662   */\n      dup3\n        /* \"#utility.yul\":20515:20663   */\n      tag_199\n      jump\t// in\n    tag_402:\n        /* \"#utility.yul\":20508:20663   */\n      swap2\n      pop\n        /* \"#utility.yul\":20680:20775   */\n      tag_403\n        /* \"#utility.yul\":20771:20774   */\n      dup3\n        /* \"#utility.yul\":20762:20768   */\n      dup5\n        /* \"#utility.yul\":20680:20775   */\n      tag_187\n      jump\t// in\n    tag_403:\n        /* \"#utility.yul\":20673:20775   */\n      swap2\n      pop\n        /* \"#utility.yul\":20792:20795   */\n      dup2\n        /* \"#utility.yul\":20785:20795   */\n      swap1\n      pop\n        /* \"#utility.yul\":18130:20801   */\n      swap8\n      swap7\n      pop\n      pop\n      pop\n      pop\n      pop\n      pop\n      pop\n      jump\t// out\n        /* \"#utility.yul\":20807:20970   */\n    tag_200:\n        /* \"#utility.yul\":20947:20962   */\n      0x486f7374656c204e616d653a2000000000000000000000000000000000000000\n        /* \"#utility.yul\":20943:20944   */\n      0x00\n        /* \"#utility.yul\":20935:20941   */\n      dup3\n        /* \"#utility.yul\":20931:20945   */\n      add\n        /* \"#utility.yul\":20924:20963   */\n      mstore\n        /* \"#utility.yul\":20807:20970   */\n      pop\n      jump\t// out\n        /* \"#utility.yul\":20976:21378   */\n    tag_201:\n        /* \"#utility.yul\":21136:21139   */\n      0x00\n        /* \"#utility.yul\":21157:21242   */\n      tag_406\n        /* \"#utility.yul\":21239:21241   */\n      0x0d\n        /* \"#utility.yul\":21234:21237   */\n      dup4\n        /* \"#utility.yul\":21157:21242   */\n      tag_186\n      jump\t// in\n    tag_406:\n        /* \"#utility.yul\":21150:21242   */\n      swap2\n      pop\n        /* \"#utility.yul\":21251:21344   */\n      tag_407\n        /* \"#utility.yul\":21340:21343   */\n      dup3\n        /* \"#utility.yul\":21251:21344   */\n      tag_200\n      jump\t// in\n    tag_407:\n        /* \"#utility.yul\":21369:21371   */\n      0x0d\n        /* \"#utility.yul\":21364:21367   */\n      dup3\n        /* \"#utility.yul\":21360:21372   */\n      add\n        /* \"#utility.yul\":21353:21372   */\n      swap1\n      pop\n        /* \"#utility.yul\":20976:21378   */\n      swap2\n      swap1\n      pop\n      jump\t// out\n        /* \"#utility.yul\":21408:22282   */\n    tag_202:\n        /* \"#utility.yul\":21511:21514   */\n      0x00\n        /* \"#utility.yul\":21548:21553   */\n      dup2\n        /* \"#utility.yul\":21542:21554   */\n      sload\n        /* \"#utility.yul\":21577:21613   */\n      tag_409\n        /* \"#utility.yul\":21603:21612   */\n      dup2\n        /* \"#utility.yul\":21577:21613   */\n      tag_53\n      jump\t// in\n    tag_409:\n        /* \"#utility.yul\":21629:21718   */\n      tag_410\n        /* \"#utility.yul\":21711:21717   */\n      dup2\n        /* \"#utility.yul\":21706:21709   */\n      dup7\n        /* \"#utility.yul\":21629:21718   */\n      tag_186\n      jump\t// in\n    tag_410:\n        /* \"#utility.yul\":21622:21718   */\n      swap5\n      pop\n        /* \"#utility.yul\":21749:21750   */\n      0x01\n        /* \"#utility.yul\":21738:21747   */\n      dup3\n        /* \"#utility.yul\":21734:21751   */\n      and\n        /* \"#utility.yul\":21765:21766   */\n      0x00\n        /* \"#utility.yul\":21760:21926   */\n      dup2\n      eq\n      tag_412\n      jumpi\n        /* \"#utility.yul\":21940:21941   */\n      0x01\n        /* \"#utility.yul\":21935:22276   */\n      dup2\n      eq\n      tag_413\n      jumpi\n        /* \"#utility.yul\":21727:22276   */\n      jump(tag_411)\n        /* \"#utility.yul\":21760:21926   */\n    tag_412:\n        /* \"#utility.yul\":21844:21848   */\n      0xff\n        /* \"#utility.yul\":21840:21849   */\n      not\n        /* \"#utility.yul\":21829:21838   */\n      dup4\n        /* \"#utility.yul\":21825:21850   */\n      and\n        /* \"#utility.yul\":21820:21823   */\n      dup7\n        /* \"#utility.yul\":21813:21851   */\n      mstore\n        /* \"#utility.yul\":21906:21912   */\n      dup2\n        /* \"#utility.yul\":21899:21913   */\n      iszero\n        /* \"#utility.yul\":21892:21914   */\n      iszero\n        /* \"#utility.yul\":21884:21890   */\n      dup3\n        /* \"#utility.yul\":21880:21915   */\n      mul\n        /* \"#utility.yul\":21875:21878   */\n      dup7\n        /* \"#utility.yul\":21871:21916   */\n      add\n        /* \"#utility.yul\":21864:21916   */\n      swap4\n      pop\n        /* \"#utility.yul\":21760:21926   */\n      jump(tag_411)\n        /* \"#utility.yul\":21935:22276   */\n    tag_413:\n        /* \"#utility.yul\":22002:22040   */\n      tag_414\n        /* \"#utility.yul\":22034:22039   */\n      dup6\n        /* \"#utility.yul\":22002:22040   */\n      tag_171\n      jump\t// in\n    tag_414:\n        /* \"#utility.yul\":22062:22063   */\n      0x00\n        /* \"#utility.yul\":22076:22230   */\n    tag_415:\n        /* \"#utility.yul\":22090:22096   */\n      dup4\n        /* \"#utility.yul\":22087:22088   */\n      dup2\n        /* \"#utility.yul\":22084:22097   */\n      lt\n        /* \"#utility.yul\":22076:22230   */\n      iszero\n      tag_417\n      jumpi\n        /* \"#utility.yul\":22164:22171   */\n      dup2\n        /* \"#utility.yul\":22158:22172   */\n      sload\n        /* \"#utility.yul\":22154:22155   */\n      dup2\n        /* \"#utility.yul\":22149:22152   */\n      dup10\n        /* \"#utility.yul\":22145:22156   */\n      add\n        /* \"#utility.yul\":22138:22173   */\n      mstore\n        /* \"#utility.yul\":22214:22215   */\n      0x01\n        /* \"#utility.yul\":22205:22212   */\n      dup3\n        /* \"#utility.yul\":22201:22216   */\n      add\n        /* \"#utility.yul\":22190:22216   */\n      swap2\n      pop\n        /* \"#utility.yul\":22112:22116   */\n      0x20\n        /* \"#utility.yul\":22109:22110   */\n      dup2\n        /* \"#utility.yul\":22105:22117   */\n      add\n        /* \"#utility.yul\":22100:22117   */\n      swap1\n      pop\n        /* \"#utility.yul\":22076:22230   */\n      jump(tag_415)\n    tag_417:\n        /* \"#utility.yul\":22259:22265   */\n      dup4\n        /* \"#utility.yul\":22254:22257   */\n      dup9\n        /* \"#utility.yul\":22250:22266   */\n      add\n        /* \"#utility.yul\":22243:22266   */\n      swap6\n      pop\n        /* \"#utility.yul\":21942:22276   */\n      pop\n      pop\n        /* \"#utility.yul\":21727:22276   */\n    tag_411:\n      pop\n        /* \"#utility.yul\":21515:22282   */\n      pop\n      pop\n        /* \"#utility.yul\":21408:22282   */\n      swap3\n      swap2\n      pop\n      pop\n      jump\t// out\n        /* \"#utility.yul\":22288:22450   */\n    tag_203:\n        /* \"#utility.yul\":22428:22442   */\n      0x2c204c6f636174696f6e3a200000000000000000000000000000000000000000\n        /* \"#utility.yul\":22424:22425   */\n      0x00\n        /* \"#utility.yul\":22416:22422   */\n      dup3\n        /* \"#utility.yul\":22412:22426   */\n      add\n        /* \"#utility.yul\":22405:22443   */\n      mstore\n        /* \"#utility.yul\":22288:22450   */\n      pop\n      jump\t// out\n        /* \"#utility.yul\":22456:22858   */\n    tag_204:\n        /* \"#utility.yul\":22616:22619   */\n      0x00\n        /* \"#utility.yul\":22637:22722   */\n      tag_420\n        /* \"#utility.yul\":22719:22721   */\n      0x0c\n        /* \"#utility.yul\":22714:22717   */\n      dup4\n        /* \"#utility.yul\":22637:22722   */\n      tag_186\n      jump\t// in\n    tag_420:\n        /* \"#utility.yul\":22630:22722   */\n      swap2\n      pop\n        /* \"#utility.yul\":22731:22824   */\n      tag_421\n        /* \"#utility.yul\":22820:22823   */\n      dup3\n        /* \"#utility.yul\":22731:22824   */\n      tag_203\n      jump\t// in\n    tag_421:\n        /* \"#utility.yul\":22849:22851   */\n      0x0c\n        /* \"#utility.yul\":22844:22847   */\n      dup3\n        /* \"#utility.yul\":22840:22852   */\n      add\n        /* \"#utility.yul\":22833:22852   */\n      swap1\n      pop\n        /* \"#utility.yul\":22456:22858   */\n      swap2\n      swap1\n      pop\n      jump\t// out\n        /* \"#utility.yul\":22864:23023   */\n    tag_205:\n        /* \"#utility.yul\":23004:23015   */\n      0x2c20526f6f6d733a200000000000000000000000000000000000000000000000\n        /* \"#utility.yul\":23000:23001   */\n      0x00\n        /* \"#utility.yul\":22992:22998   */\n      dup3\n        /* \"#utility.yul\":22988:23002   */\n      add\n        /* \"#utility.yul\":22981:23016   */\n      mstore\n        /* \"#utility.yul\":22864:23023   */\n      pop\n      jump\t// out\n        /* \"#utility.yul\":23029:23429   */\n    tag_206:\n        /* \"#utility.yul\":23189:23192   */\n      0x00\n        /* \"#utility.yul\":23210:23294   */\n      tag_424\n        /* \"#utility.yul\":23292:23293   */\n      0x09\n        /* \"#utility.yul\":23287:23290   */\n      dup4\n        /* \"#utility.yul\":23210:23294   */\n      tag_186\n      jump\t// in\n    tag_424:\n        /* \"#utility.yul\":23203:23294   */\n      swap2\n      pop\n        /* \"#utility.yul\":23303:23396   */\n      tag_425\n        /* \"#utility.yul\":23392:23395   */\n      dup3\n        /* \"#utility.yul\":23303:23396   */\n      tag_205\n      jump\t// in\n    tag_425:\n        /* \"#utility.yul\":23421:23422   */\n      0x09\n        /* \"#utility.yul\":23416:23419   */\n      dup3\n        /* \"#utility.yul\":23412:23423   */\n      add\n        /* \"#utility.yul\":23405:23423   */\n      swap1\n      pop\n        /* \"#utility.yul\":23029:23429   */\n      swap2\n      swap1\n      pop\n      jump\t// out\n        /* \"#utility.yul\":23435:24816   */\n    tag_123:\n        /* \"#utility.yul\":23960:23963   */\n      0x00\n        /* \"#utility.yul\":23982:24130   */\n      tag_427\n        /* \"#utility.yul\":24126:24129   */\n      dup3\n        /* \"#utility.yul\":23982:24130   */\n      tag_201\n      jump\t// in\n    tag_427:\n        /* \"#utility.yul\":23975:24130   */\n      swap2\n      pop\n        /* \"#utility.yul\":24147:24239   */\n      tag_428\n        /* \"#utility.yul\":24235:24238   */\n      dup3\n        /* \"#utility.yul\":24226:24232   */\n      dup7\n        /* \"#utility.yul\":24147:24239   */\n      tag_202\n      jump\t// in\n    tag_428:\n        /* \"#utility.yul\":24140:24239   */\n      swap2\n      pop\n        /* \"#utility.yul\":24256:24404   */\n      tag_429\n        /* \"#utility.yul\":24400:24403   */\n      dup3\n        /* \"#utility.yul\":24256:24404   */\n      tag_204\n      jump\t// in\n    tag_429:\n        /* \"#utility.yul\":24249:24404   */\n      swap2\n      pop\n        /* \"#utility.yul\":24421:24513   */\n      tag_430\n        /* \"#utility.yul\":24509:24512   */\n      dup3\n        /* \"#utility.yul\":24500:24506   */\n      dup6\n        /* \"#utility.yul\":24421:24513   */\n      tag_202\n      jump\t// in\n    tag_430:\n        /* \"#utility.yul\":24414:24513   */\n      swap2\n      pop\n        /* \"#utility.yul\":24530:24678   */\n      tag_431\n        /* \"#utility.yul\":24674:24677   */\n      dup3\n        /* \"#utility.yul\":24530:24678   */\n      tag_206\n      jump\t// in\n    tag_431:\n        /* \"#utility.yul\":24523:24678   */\n      swap2\n      pop\n        /* \"#utility.yul\":24695:24790   */\n      tag_432\n        /* \"#utility.yul\":24786:24789   */\n      dup3\n        /* \"#utility.yul\":24777:24783   */\n      dup5\n        /* \"#utility.yul\":24695:24790   */\n      tag_187\n      jump\t// in\n    tag_432:\n        /* \"#utility.yul\":24688:24790   */\n      swap2\n      pop\n        /* \"#utility.yul\":24807:24810   */\n      dup2\n        /* \"#utility.yul\":24800:24810   */\n      swap1\n      pop\n        /* \"#utility.yul\":23435:24816   */\n      swap5\n      swap4\n      pop\n      pop\n      pop\n      pop\n      jump\t// out\n        /* \"#utility.yul\":24822:25002   */\n    tag_207:\n        /* \"#utility.yul\":24870:24947   */\n      0x4e487b7100000000000000000000000000000000000000000000000000000000\n        /* \"#utility.yul\":24867:24868   */\n      0x00\n        /* \"#utility.yul\":24860:24948   */\n      mstore\n        /* \"#utility.yul\":24967:24971   */\n      0x11\n        /* \"#utility.yul\":24964:24965   */\n      0x04\n        /* \"#utility.yul\":24957:24972   */\n      mstore\n        /* \"#utility.yul\":24991:24995   */\n      0x24\n        /* \"#utility.yul\":24988:24989   */\n      0x00\n        /* \"#utility.yul\":24981:24996   */\n      revert\n        /* \"#utility.yul\":25008:25241   */\n    tag_129:\n        /* \"#utility.yul\":25047:25050   */\n      0x00\n        /* \"#utility.yul\":25070:25094   */\n      tag_435\n        /* \"#utility.yul\":25088:25093   */\n      dup3\n        /* \"#utility.yul\":25070:25094   */\n      tag_166\n      jump\t// in\n    tag_435:\n        /* \"#utility.yul\":25061:25094   */\n      swap2\n      pop\n        /* \"#utility.yul\":25116:25182   */\n      0xffffffffffffffffffffffffffffffffffffffffffffffffffffffffffffffff\n        /* \"#utility.yul\":25109:25114   */\n      dup3\n        /* \"#utility.yul\":25106:25183   */\n      sub\n        /* \"#utility.yul\":25103:25206   */\n      tag_436\n      jumpi\n        /* \"#utility.yul\":25186:25204   */\n      tag_437\n      tag_207\n      jump\t// in\n    tag_437:\n        /* \"#utility.yul\":25103:25206   */\n    tag_436:\n        /* \"#utility.yul\":25233:25234   */\n      0x01\n        /* \"#utility.yul\":25226:25231   */\n      dup3\n        /* \"#utility.yul\":25222:25235   */\n      add\n        /* \"#utility.yul\":25215:25235   */\n      swap1\n      pop\n        /* \"#utility.yul\":25008:25241   */\n      swap2\n      swap1\n      pop\n      jump\t// out\n        /* \"#utility.yul\":25247:25427   */\n    tag_208:\n        /* \"#utility.yul\":25295:25372   */\n      0x4e487b7100000000000000000000000000000000000000000000000000000000\n        /* \"#utility.yul\":25292:25293   */\n      0x00\n        /* \"#utility.yul\":25285:25373   */\n      mstore\n        /* \"#utility.yul\":25392:25396   */\n      0x12\n        /* \"#utility.yul\":25389:25390   */\n      0x04\n        /* \"#utility.yul\":25382:25397   */\n      mstore\n        /* \"#utility.yul\":25416:25420   */\n      0x24\n        /* \"#utility.yul\":25413:25414   */\n      0x00\n        /* \"#utility.yul\":25406:25421   */\n      revert\n        /* \"#utility.yul\":25433:25618   */\n    tag_131:\n        /* \"#utility.yul\":25473:25474   */\n      0x00\n        /* \"#utility.yul\":25490:25510   */\n      tag_440\n        /* \"#utility.yul\":25508:25509   */\n      dup3\n        /* \"#utility.yul\":25490:25510   */\n      tag_166\n      jump\t// in\n    tag_440:\n        /* \"#utility.yul\":25485:25510   */\n      swap2\n      pop\n        /* \"#utility.yul\":25524:25544   */\n      tag_441\n        /* \"#utility.yul\":25542:25543   */\n      dup4\n        /* \"#utility.yul\":25524:25544   */\n      tag_166\n      jump\t// in\n    tag_441:\n        /* \"#utility.yul\":25519:25544   */\n      swap3\n      pop\n        /* \"#utility.yul\":25563:25564   */\n      dup3\n        /* \"#utility.yul\":25553:25588   */\n      tag_442\n      jumpi\n        /* \"#utility.yul\":25568:25586   */\n      tag_443\n      tag_208\n      jump\t// in\n    tag_443:\n        /* \"#utility.yul\":25553:25588   */\n    tag_442:\n        /* \"#utility.yul\":25610:25611   */\n      dup3\n        /* \"#utility.yul\":25607:25608   */\n      dup3\n        /* \"#utility.yul\":25603:25612   */\n      div\n        /* \"#utility.yul\":25598:25612   */\n      swap1\n      pop\n        /* \"#utility.yul\":25433:25618   */\n      swap3\n      swap2\n      pop\n      pop\n      jump\t// out\n        /* \"#utility.yul\":25624:25818   */\n    tag_139:\n        /* \"#utility.yul\":25664:25668   */\n      0x00\n        /* \"#utility.yul\":25684:25704   */\n      tag_445\n        /* \"#utility.yul\":25702:25703   */\n      dup3\n        /* \"#utility.yul\":25684:25704   */\n      tag_166\n      jump\t// in\n    tag_445:\n        /* \"#utility.yul\":25679:25704   */\n      swap2\n      pop\n        /* \"#utility.yul\":25718:25738   */\n      tag_446\n        /* \"#utility.yul\":25736:25737   */\n      dup4\n        /* \"#utility.yul\":25718:25738   */\n      tag_166\n      jump\t// in\n    tag_446:\n        /* \"#utility.yul\":25713:25738   */\n      swap3\n      pop\n        /* \"#utility.yul\":25762:25763   */\n      dup3\n        /* \"#utility.yul\":25759:25760   */\n      dup3\n        /* \"#utility.yul\":25755:25764   */\n      sub\n        /* \"#utility.yul\":25747:25764   */\n      swap1\n      pop\n        /* \"#utility.yul\":25786:25787   */\n      dup2\n        /* \"#utility.yul\":25780:25784   */\n      dup2\n        /* \"#utility.yul\":25777:25788   */\n      gt\n        /* \"#utility.yul\":25774:25811   */\n      iszero\n      tag_447\n      jumpi\n        /* \"#utility.yul\":25791:25809   */\n      tag_448\n      tag_207\n      jump\t// in\n    tag_448:\n        /* \"#utility.yul\":25774:25811   */\n    tag_447:\n        /* \"#utility.yul\":25624:25818   */\n      swap3\n      swap2\n      pop\n      pop\n      jump\t// out\n        /* \"#utility.yul\":25824:26234   */\n    tag_142:\n        /* \"#utility.yul\":25864:25871   */\n      0x00\n        /* \"#utility.yul\":25887:25907   */\n      tag_450\n        /* \"#utility.yul\":25905:25906   */\n      dup3\n        /* \"#utility.yul\":25887:25907   */\n      tag_166\n      jump\t// in\n    tag_450:\n        /* \"#utility.yul\":25882:25907   */\n      swap2\n      pop\n        /* \"#utility.yul\":25921:25941   */\n      tag_451\n        /* \"#utility.yul\":25939:25940   */\n      dup4\n        /* \"#utility.yul\":25921:25941   */\n      tag_166\n      jump\t// in\n    tag_451:\n        /* \"#utility.yul\":25916:25941   */\n      swap3\n      pop\n        /* \"#utility.yul\":25976:25977   */\n      dup3\n        /* \"#utility.yul\":25973:25974   */\n      dup3\n        /* \"#utility.yul\":25969:25978   */\n      mul\n        /* \"#utility.yul\":25998:26028   */\n      tag_452\n        /* \"#utility.yul\":26016:26027   */\n      dup2\n        /* \"#utility.yul\":25998:26028   */\n      tag_166\n      jump\t// in\n    tag_452:\n        /* \"#utility.yul\":25987:26028   */\n      swap2\n      pop\n        /* \"#utility.yul\":26177:26178   */\n      dup3\n        /* \"#utility.yul\":26168:26175   */\n      dup3\n        /* \"#utility.yul\":26164:26179   */\n      div\n        /* \"#utility.yul\":26161:26162   */\n      dup5\n        /* \"#utility.yul\":26158:26180   */\n      eq\n        /* \"#utility.yul\":26138:26139   */\n      dup4\n        /* \"#utility.yul\":26131:26140   */\n      iszero\n        /* \"#utility.yul\":26111:26194   */\n      or\n        /* \"#utility.yul\":26088:26227   */\n      tag_453\n      jumpi\n        /* \"#utility.yul\":26207:26225   */\n      tag_454\n      tag_207\n      jump\t// in\n    tag_454:\n        /* \"#utility.yul\":26088:26227   */\n    tag_453:\n        /* \"#utility.yul\":25872:26234   */\n      pop\n        /* \"#utility.yul\":25824:26234   */\n      swap3\n      swap2\n      pop\n      pop\n      jump\t// out\n        /* \"#utility.yul\":26240:26326   */\n    tag_209:\n        /* \"#utility.yul\":26275:26282   */\n      0x00\n        /* \"#utility.yul\":26315:26319   */\n      0xff\n        /* \"#utility.yul\":26308:26313   */\n      dup3\n        /* \"#utility.yul\":26304:26320   */\n      and\n        /* \"#utility.yul\":26293:26320   */\n      swap1\n      pop\n        /* \"#utility.yul\":26240:26326   */\n      swap2\n      swap1\n      pop\n      jump\t// out\n        /* \"#utility.yul\":26332:26520   */\n    tag_145:\n        /* \"#utility.yul\":26370:26373   */\n      0x00\n        /* \"#utility.yul\":26389:26407   */\n      tag_457\n        /* \"#utility.yul\":26405:26406   */\n      dup3\n        /* \"#utility.yul\":26389:26407   */\n      tag_209\n      jump\t// in\n    tag_457:\n        /* \"#utility.yul\":26384:26407   */\n      swap2\n      pop\n        /* \"#utility.yul\":26421:26439   */\n      tag_458\n        /* \"#utility.yul\":26437:26438   */\n      dup4\n        /* \"#utility.yul\":26421:26439   */\n      tag_209\n      jump\t// in\n    tag_458:\n        /* \"#utility.yul\":26416:26439   */\n      swap3\n      pop\n        /* \"#utility.yul\":26462:26463   */\n      dup3\n        /* \"#utility.yul\":26459:26460   */\n      dup3\n        /* \"#utility.yul\":26455:26464   */\n      add\n        /* \"#utility.yul\":26448:26464   */\n      swap1\n      pop\n        /* \"#utility.yul\":26485:26489   */\n      0xff\n        /* \"#utility.yul\":26480:26483   */\n      dup2\n        /* \"#utility.yul\":26477:26490   */\n      gt\n        /* \"#utility.yul\":26474:26513   */\n      iszero\n      tag_459\n      jumpi\n        /* \"#utility.yul\":26493:26511   */\n      tag_460\n      tag_207\n      jump\t// in\n    tag_460:\n        /* \"#utility.yul\":26474:26513   */\n    tag_459:\n        /* \"#utility.yul\":26332:26520   */\n      swap3\n      swap2\n      pop\n      pop\n      jump\t// out\n        /* \"#utility.yul\":26526:26706   */\n    tag_148:\n        /* \"#utility.yul\":26574:26651   */\n      0x4e487b7100000000000000000000000000000000000000000000000000000000\n        /* \"#utility.yul\":26571:26572   */\n      0x00\n        /* \"#utility.yul\":26564:26652   */\n      mstore\n        /* \"#utility.yul\":26671:26675   */\n      0x32\n        /* \"#utility.yul\":26668:26669   */\n      0x04\n        /* \"#utility.yul\":26661:26676   */\n      mstore\n        /* \"#utility.yul\":26695:26699   */\n      0x24\n        /* \"#utility.yul\":26692:26693   */\n      0x00\n        /* \"#utility.yul\":26685:26700   */\n      revert\n    stop\n    data_ff4cb236e49a03b17175fae44f3b5b0074224bc7aaa6e7259a6c8f86f5cbfe11 496d706c656d656e74656420696e207072696e74446174612829206261736564206f6e2073747564656e74207265636f72642e\n\n    auxdata: 0xa2646970667358221220bdfd435a20a0f14faa7337569ae4d22514b0c0097989a39708612bf18eba986a64736f6c634300081a0033\n}\n",
				"bytecode": {
					"linkReferences": {},
					"object": "6080604052348015600e575f80fd5b506118768061001c5f395ff3fe608060405234801561000f575f80fd5b506004361061009c575f3560e01c80639b5cb960116100645780639b5cb960146101465780639d8c831514610162578063cb9cb0c214610182578063ceb63c76146101a0578063f8fd1948146101bf5761009c565b806311ebae41146100a05780632224b6a9146100be5780634cc4ce5d146100da5780635e1b609c146100f857806399d568b314610128575b5f80fd5b6100a86101dd565b6040516100b59190610b2a565b60405180910390f35b6100d860048036038101906100d39190610cba565b610269565b005b6100e2610294565b6040516100ef9190610b2a565b60405180910390f35b610112600480360381019061010d9190610d42565b6102b4565b60405161011f9190610b2a565b60405180910390f35b610130610657565b60405161013d9190610d98565b60405180910390f35b610160600480360381019061015b9190610db1565b61065d565b005b61016a610729565b60405161017993929190610ec6565b60405180910390f35b61018a610852565b6040516101979190610b2a565b60405180910390f35b6101a86108dd565b6040516101b6929190610f09565b60405180910390f35b6101c7610906565b6040516101d49190610b2a565b60405180910390f35b600180546101ea90610f6b565b80601f016020809104026020016040519081016040528092919081815260200182805461021690610f6b565b80156102615780601f1061023857610100808354040283529160200191610261565b820191905f5260205f20905b81548152906001019060200180831161024457829003601f168201915b505050505081565b825f90816102779190611138565b5081600190816102879190611138565b5080600281905550505050565b606060405180606001604052806033815260200161180e60339139905090565b60605f6003836040516102c79190611241565b90815260200160405180910390206040518060c00160405290815f820180546102ef90610f6b565b80601f016020809104026020016040519081016040528092919081815260200182805461031b90610f6b565b80156103665780601f1061033d57610100808354040283529160200191610366565b820191905f5260205f20905b81548152906001019060200180831161034957829003601f168201915b5050505050815260200160018201805461037f90610f6b565b80601f01602080910402602001604051908101604052809291908181526020018280546103ab90610f6b565b80156103f65780601f106103cd576101008083540402835291602001916103f6565b820191905f5260205f20905b8154815290600101906020018083116103d957829003601f168201915b5050505050815260200160028201805461040f90610f6b565b80601f016020809104026020016040519081016040528092919081815260200182805461043b90610f6b565b80156104865780601f1061045d57610100808354040283529160200191610486565b820191905f5260205f20905b81548152906001019060200180831161046957829003601f168201915b50505050508152602001600382015481526020016004820180546104a990610f6b565b80601f01602080910402602001604051908101604052809291908181526020018280546104d590610f6b565b80156105205780601f106104f757610100808354040283529160200191610520565b820191905f5260205f20905b81548152906001019060200180831161050357829003601f168201915b5050505050815260200160058201805461053990610f6b565b80601f016020809104026020016040519081016040528092919081815260200182805461056590610f6b565b80156105b05780601f10610587576101008083540402835291602001916105b0565b820191905f5260205f20905b81548152906001019060200180831161059357829003601f168201915b50505050508152505090505f81602001515103610605576040518060400160405280601181526020017f53747564656e74206e6f7420666f756e64000000000000000000000000000000815250915050610652565b805f015181602001518260400151610620846060015161093c565b84608001518560a0015160405160200161063f96959493929190611413565b6040516020818303038152906040529150505b919050565b60025481565b6040518060c001604052808781526020018681526020018581526020018481526020018381526020018281525060038660405161069a9190611241565b90815260200160405180910390205f820151815f0190816106bb9190611138565b5060208201518160010190816106d19190611138565b5060408201518160020190816106e79190611138565b506060820151816003015560808201518160040190816107079190611138565b5060a082015181600501908161071d9190611138565b50905050505050505050565b6060805f80600160025482805461073f90610f6b565b80601f016020809104026020016040519081016040528092919081815260200182805461076b90610f6b565b80156107b65780601f1061078d576101008083540402835291602001916107b6565b820191905f5260205f20905b81548152906001019060200180831161079957829003601f168201915b505050505092508180546107c990610f6b565b80601f01602080910402602001604051908101604052809291908181526020018280546107f590610f6b565b80156108405780601f1061081757610100808354040283529160200191610840565b820191905f5260205f20905b81548152906001019060200180831161082357829003601f168201915b50505050509150925092509250909192565b5f805461085e90610f6b565b80601f016020809104026020016040519081016040528092919081815260200182805461088a90610f6b565b80156108d55780601f106108ac576101008083540402835291602001916108d5565b820191905f5260205f20905b8154815290600101906020018083116108b857829003601f168201915b505050505081565b60608060405180602001604052805f81525060405180602001604052805f815250915091509091565b60605f600161091660025461093c565b6040516020016109289392919061160a565b604051602081830303815290604052905090565b60605f8203610982576040518060400160405280600181526020017f30000000000000000000000000000000000000000000000000000000000000008152509050610ab5565b5f8290505f5b5f82146109b157808061099a90611688565b915050600a826109aa91906116fc565b9150610988565b5f8167ffffffffffffffff8111156109cc576109cb610b63565b5b6040519080825280601f01601f1916602001820160405280156109fe5781602001600182028036833780820191505090505b5090505f8290505b5f8614610aad57600181610a1a919061172c565b90505f600a8088610a2b91906116fc565b610a35919061175f565b87610a40919061172c565b6030610a4c91906117ac565b90505f8160f81b905080848481518110610a6957610a686117e0565b5b60200101907effffffffffffffffffffffffffffffffffffffffffffffffffffffffffffff191690815f1a905350600a88610aa491906116fc565b97505050610a06565b819450505050505b919050565b5f81519050919050565b5f82825260208201905092915050565b8281835e5f83830152505050565b5f601f19601f8301169050919050565b5f610afc82610aba565b610b068185610ac4565b9350610b16818560208601610ad4565b610b1f81610ae2565b840191505092915050565b5f6020820190508181035f830152610b428184610af2565b905092915050565b5f604051905090565b5f80fd5b5f80fd5b5f80fd5b5f80fd5b7f4e487b71000000000000000000000000000000000000000000000000000000005f52604160045260245ffd5b610b9982610ae2565b810181811067ffffffffffffffff82111715610bb857610bb7610b63565b5b80604052505050565b5f610bca610b4a565b9050610bd68282610b90565b919050565b5f67ffffffffffffffff821115610bf557610bf4610b63565b5b610bfe82610ae2565b9050602081019050919050565b828183375f83830152505050565b5f610c2b610c2684610bdb565b610bc1565b905082815260208101848484011115610c4757610c46610b5f565b5b610c52848285610c0b565b509392505050565b5f82601f830112610c6e57610c6d610b5b565b5b8135610c7e848260208601610c19565b91505092915050565b5f819050919050565b610c9981610c87565b8114610ca3575f80fd5b50565b5f81359050610cb481610c90565b92915050565b5f805f60608486031215610cd157610cd0610b53565b5b5f84013567ffffffffffffffff811115610cee57610ced610b57565b5b610cfa86828701610c5a565b935050602084013567ffffffffffffffff811115610d1b57610d1a610b57565b5b610d2786828701610c5a565b9250506040610d3886828701610ca6565b9150509250925092565b5f60208284031215610d5757610d56610b53565b5b5f82013567ffffffffffffffff811115610d7457610d73610b57565b5b610d8084828501610c5a565b91505092915050565b610d9281610c87565b82525050565b5f602082019050610dab5f830184610d89565b92915050565b5f805f805f8060c08789031215610dcb57610dca610b53565b5b5f87013567ffffffffffffffff811115610de857610de7610b57565b5b610df489828a01610c5a565b965050602087013567ffffffffffffffff811115610e1557610e14610b57565b5b610e2189828a01610c5a565b955050604087013567ffffffffffffffff811115610e4257610e41610b57565b5b610e4e89828a01610c5a565b9450506060610e5f89828a01610ca6565b935050608087013567ffffffffffffffff811115610e8057610e7f610b57565b5b610e8c89828a01610c5a565b92505060a087013567ffffffffffffffff811115610ead57610eac610b57565b5b610eb989828a01610c5a565b9150509295509295509295565b5f6060820190508181035f830152610ede8186610af2565b90508181036020830152610ef28185610af2565b9050610f016040830184610d89565b949350505050565b5f6040820190508181035f830152610f218185610af2565b90508181036020830152610f358184610af2565b90509392505050565b7f4e487b71000000000000000000000000000000000000000000000000000000005f52602260045260245ffd5b5f6002820490506001821680610f8257607f821691505b602082108103610f9557610f94610f3e565b5b50919050565b5f819050815f5260205f209050919050565b5f6020601f8301049050919050565b5f82821b905092915050565b5f60088302610ff77fffffffffffffffffffffffffffffffffffffffffffffffffffffffffffffffff82610fbc565b6110018683610fbc565b95508019841693508086168417925050509392505050565b5f819050919050565b5f61103c61103761103284610c87565b611019565b610c87565b9050919050565b5f819050919050565b61105583611022565b61106961106182611043565b848454610fc8565b825550505050565b5f90565b61107d611071565b61108881848461104c565b505050565b5b818110156110ab576110a05f82611075565b60018101905061108e565b5050565b601f8211156110f0576110c181610f9b565b6110ca84610fad565b810160208510156110d9578190505b6110ed6110e585610fad565b83018261108d565b50505b505050565b5f82821c905092915050565b5f6111105f19846008026110f5565b1980831691505092915050565b5f6111288383611101565b9150826002028217905092915050565b61114182610aba565b67ffffffffffffffff81111561115a57611159610b63565b5b6111648254610f6b565b61116f8282856110af565b5f60209050601f8311600181146111a0575f841561118e578287015190505b611198858261111d565b8655506111ff565b601f1984166111ae86610f9b565b5f5b828110156111d5578489015182556001820191506020850194506020810190506111b0565b868310156111f257848901516111ee601f891682611101565b8355505b6001600288020188555050505b505050505050565b5f81905092915050565b5f61121b82610aba565b6112258185611207565b9350611235818560208601610ad4565b80840191505092915050565b5f61124c8284611211565b915081905092915050565b7f4e616d653a2000000000000000000000000000000000000000000000000000005f82015250565b5f61128b600683611207565b915061129682611257565b600682019050919050565b7f2c2052656764204e6f3a200000000000000000000000000000000000000000005f82015250565b5f6112d5600b83611207565b91506112e0826112a1565b600b82019050919050565b7f2c20456c6563746976653a2000000000000000000000000000000000000000005f82015250565b5f61131f600c83611207565b915061132a826112eb565b600c82019050919050565b7f2c20417667204d61726b733a20000000000000000000000000000000000000005f82015250565b5f611369600d83611207565b915061137482611335565b600d82019050919050565b7f2c20446570743a200000000000000000000000000000000000000000000000005f82015250565b5f6113b3600883611207565b91506113be8261137f565b600882019050919050565b7f2c204465707420486561643a20000000000000000000000000000000000000005f82015250565b5f6113fd600d83611207565b9150611408826113c9565b600d82019050919050565b5f61141d8261127f565b91506114298289611211565b9150611434826112c9565b91506114408288611211565b915061144b82611313565b91506114578287611211565b91506114628261135d565b915061146e8286611211565b9150611479826113a7565b91506114858285611211565b9150611490826113f1565b915061149c8284611211565b9150819050979650505050505050565b7f486f7374656c204e616d653a20000000000000000000000000000000000000005f82015250565b5f6114e0600d83611207565b91506114eb826114ac565b600d82019050919050565b5f815461150281610f6b565b61150c8186611207565b9450600182165f8114611526576001811461153b5761156d565b60ff198316865281151582028601935061156d565b61154485610f9b565b5f5b8381101561156557815481890152600182019150602081019050611546565b838801955050505b50505092915050565b7f2c204c6f636174696f6e3a2000000000000000000000000000000000000000005f82015250565b5f6115aa600c83611207565b91506115b582611576565b600c82019050919050565b7f2c20526f6f6d733a2000000000000000000000000000000000000000000000005f82015250565b5f6115f4600983611207565b91506115ff826115c0565b600982019050919050565b5f611614826114d4565b915061162082866114f6565b915061162b8261159e565b915061163782856114f6565b9150611642826115e8565b915061164e8284611211565b9150819050949350505050565b7f4e487b71000000000000000000000000000000000000000000000000000000005f52601160045260245ffd5b5f61169282610c87565b91507fffffffffffffffffffffffffffffffffffffffffffffffffffffffffffffffff82036116c4576116c361165b565b5b600182019050919050565b7f4e487b71000000000000000000000000000000000000000000000000000000005f52601260045260245ffd5b5f61170682610c87565b915061171183610c87565b925082611721576117206116cf565b5b828204905092915050565b5f61173682610c87565b915061174183610c87565b92508282039050818111156117595761175861165b565b5b92915050565b5f61176982610c87565b915061177483610c87565b925082820261178281610c87565b915082820484148315176117995761179861165b565b5b5092915050565b5f60ff82169050919050565b5f6117b6826117a0565b91506117c1836117a0565b9250828201905060ff8111156117da576117d961165b565b5b92915050565b7f4e487b71000000000000000000000000000000000000000000000000000000005f52603260045260245ffdfe496d706c656d656e74656420696e207072696e74446174612829206261736564206f6e2073747564656e74207265636f72642ea2646970667358221220bdfd435a20a0f14faa7337569ae4d22514b0c0097989a39708612bf18eba986a64736f6c634300081a0033",
					"opcodes": "PUSH1 0x80 PUSH1 0x40 MSTORE CALLVALUE DUP1 ISZERO PUSH1 0xE JUMPI PUSH0 DUP1 REVERT JUMPDEST POP PUSH2 0x1876 DUP1 PUSH2 0x1C PUSH0 CODECOPY PUSH0 RETURN INVALID PUSH1 0x80 PUSH1 0x40 MSTORE CALLVALUE DUP1 ISZERO PUSH2 0xF JUMPI PUSH0 DUP1 REVERT JUMPDEST POP PUSH1 0x4 CALLDATASIZE LT PUSH2 0x9C JUMPI PUSH0 CALLDATALOAD PUSH1 0xE0 SHR DUP1 PUSH4 0x9B5CB960 GT PUSH2 0x64 JUMPI DUP1 PUSH4 0x9B5CB960 EQ PUSH2 0x146 JUMPI DUP1 PUSH4 0x9D8C8315 EQ PUSH2 0x162 JUMPI DUP1 PUSH4 0xCB9CB0C2 EQ PUSH2 0x182 JUMPI DUP1 PUSH4 0xCEB63C76 EQ PUSH2 0x1A0 JUMPI DUP1 PUSH4 0xF8FD1948 EQ PUSH2 0x1BF JUMPI PUSH2 0x9C JUMP JUMPDEST DUP1 PUSH4 0x11EBAE41 EQ PUSH2 0xA0 JUMPI DUP1 PUSH4 0x2224B6A9 EQ PUSH2 0xBE JUMPI DUP1 PUSH4 0x4CC4CE5D EQ PUSH2 0xDA JUMPI DUP1 PUSH4 0x5E1B609C EQ PUSH2 0xF8 JUMPI DUP1 PUSH4 0x99D568B3 EQ PUSH2 0x128 JUMPI JUMPDEST PUSH0 DUP1 REVERT JUMPDEST PUSH2 0xA8 PUSH2 0x1DD JUMP JUMPDEST PUSH1 0x40 MLOAD PUSH2 0xB5 SWAP2 SWAP1 PUSH2 0xB2A JUMP JUMPDEST PUSH1 0x40 MLOAD DUP1 SWAP2 SUB SWAP1 RETURN JUMPDEST PUSH2 0xD8 PUSH1 0x4 DUP1 CALLDATASIZE SUB DUP2 ADD SWAP1 PUSH2 0xD3 SWAP2 SWAP1 PUSH2 0xCBA JUMP JUMPDEST PUSH2 0x269 JUMP JUMPDEST STOP JUMPDEST PUSH2 0xE2 PUSH2 0x294 JUMP JUMPDEST PUSH1 0x40 MLOAD PUSH2 0xEF SWAP2 SWAP1 PUSH2 0xB2A JUMP JUMPDEST PUSH1 0x40 MLOAD DUP1 SWAP2 SUB SWAP1 RETURN JUMPDEST PUSH2 0x112 PUSH1 0x4 DUP1 CALLDATASIZE SUB DUP2 ADD SWAP1 PUSH2 0x10D SWAP2 SWAP1 PUSH2 0xD42 JUMP JUMPDEST PUSH2 0x2B4 JUMP JUMPDEST PUSH1 0x40 MLOAD PUSH2 0x11F SWAP2 SWAP1 PUSH2 0xB2A JUMP JUMPDEST PUSH1 0x40 MLOAD DUP1 SWAP2 SUB SWAP1 RETURN JUMPDEST PUSH2 0x130 PUSH2 0x657 JUMP JUMPDEST PUSH1 0x40 MLOAD PUSH2 0x13D SWAP2 SWAP1 PUSH2 0xD98 JUMP JUMPDEST PUSH1 0x40 MLOAD DUP1 SWAP2 SUB SWAP1 RETURN JUMPDEST PUSH2 0x160 PUSH1 0x4 DUP1 CALLDATASIZE SUB DUP2 ADD SWAP1 PUSH2 0x15B SWAP2 SWAP1 PUSH2 0xDB1 JUMP JUMPDEST PUSH2 0x65D JUMP JUMPDEST STOP JUMPDEST PUSH2 0x16A PUSH2 0x729 JUMP JUMPDEST PUSH1 0x40 MLOAD PUSH2 0x179 SWAP4 SWAP3 SWAP2 SWAP1 PUSH2 0xEC6 JUMP JUMPDEST PUSH1 0x40 MLOAD DUP1 SWAP2 SUB SWAP1 RETURN JUMPDEST PUSH2 0x18A PUSH2 0x852 JUMP JUMPDEST PUSH1 0x40 MLOAD PUSH2 0x197 SWAP2 SWAP1 PUSH2 0xB2A JUMP JUMPDEST PUSH1 0x40 MLOAD DUP1 SWAP2 SUB SWAP1 RETURN JUMPDEST PUSH2 0x1A8 PUSH2 0x8DD JUMP JUMPDEST PUSH1 0x40 MLOAD PUSH2 0x1B6 SWAP3 SWAP2 SWAP1 PUSH2 0xF09 JUMP JUMPDEST PUSH1 0x40 MLOAD DUP1 SWAP2 SUB SWAP1 RETURN JUMPDEST PUSH2 0x1C7 PUSH2 0x906 JUMP JUMPDEST PUSH1 0x40 MLOAD PUSH2 0x1D4 SWAP2 SWAP1 PUSH2 0xB2A JUMP JUMPDEST PUSH1 0x40 MLOAD DUP1 SWAP2 SUB SWAP1 RETURN JUMPDEST PUSH1 0x1 DUP1 SLOAD PUSH2 0x1EA SWAP1 PUSH2 0xF6B JUMP JUMPDEST DUP1 PUSH1 0x1F ADD PUSH1 0x20 DUP1 SWAP2 DIV MUL PUSH1 0x20 ADD PUSH1 0x40 MLOAD SWAP1 DUP2 ADD PUSH1 0x40 MSTORE DUP1 SWAP3 SWAP2 SWAP1 DUP2 DUP2 MSTORE PUSH1 0x20 ADD DUP3 DUP1 SLOAD PUSH2 0x216 SWAP1 PUSH2 0xF6B JUMP JUMPDEST DUP1 ISZERO PUSH2 0x261 JUMPI DUP1 PUSH1 0x1F LT PUSH2 0x238 JUMPI PUSH2 0x100 DUP1 DUP4 SLOAD DIV MUL DUP4 MSTORE SWAP2 PUSH1 0x20 ADD SWAP2 PUSH2 0x261 JUMP JUMPDEST DUP3 ADD SWAP2 SWAP1 PUSH0 MSTORE PUSH1 0x20 PUSH0 KECCAK256 SWAP1 JUMPDEST DUP2 SLOAD DUP2 MSTORE SWAP1 PUSH1 0x1 ADD SWAP1 PUSH1 0x20 ADD DUP1 DUP4 GT PUSH2 0x244 JUMPI DUP3 SWAP1 SUB PUSH1 0x1F AND DUP3 ADD SWAP2 JUMPDEST POP POP POP POP POP DUP2 JUMP JUMPDEST DUP3 PUSH0 SWAP1 DUP2 PUSH2 0x277 SWAP2 SWAP1 PUSH2 0x1138 JUMP JUMPDEST POP DUP2 PUSH1 0x1 SWAP1 DUP2 PUSH2 0x287 SWAP2 SWAP1 PUSH2 0x1138 JUMP JUMPDEST POP DUP1 PUSH1 0x2 DUP2 SWAP1 SSTORE POP POP POP POP JUMP JUMPDEST PUSH1 0x60 PUSH1 0x40 MLOAD DUP1 PUSH1 0x60 ADD PUSH1 0x40 MSTORE DUP1 PUSH1 0x33 DUP2 MSTORE PUSH1 0x20 ADD PUSH2 0x180E PUSH1 0x33 SWAP2 CODECOPY SWAP1 POP SWAP1 JUMP JUMPDEST PUSH1 0x60 PUSH0 PUSH1 0x3 DUP4 PUSH1 0x40 MLOAD PUSH2 0x2C7 SWAP2 SWAP1 PUSH2 0x1241 JUMP JUMPDEST SWAP1 DUP2 MSTORE PUSH1 0x20 ADD PUSH1 0x40 MLOAD DUP1 SWAP2 SUB SWAP1 KECCAK256 PUSH1 0x40 MLOAD DUP1 PUSH1 0xC0 ADD PUSH1 0x40 MSTORE SWAP1 DUP2 PUSH0 DUP3 ADD DUP1 SLOAD PUSH2 0x2EF SWAP1 PUSH2 0xF6B JUMP JUMPDEST DUP1 PUSH1 0x1F ADD PUSH1 0x20 DUP1 SWAP2 DIV MUL PUSH1 0x20 ADD PUSH1 0x40 MLOAD SWAP1 DUP2 ADD PUSH1 0x40 MSTORE DUP1 SWAP3 SWAP2 SWAP1 DUP2 DUP2 MSTORE PUSH1 0x20 ADD DUP3 DUP1 SLOAD PUSH2 0x31B SWAP1 PUSH2 0xF6B JUMP JUMPDEST DUP1 ISZERO PUSH2 0x366 JUMPI DUP1 PUSH1 0x1F LT PUSH2 0x33D JUMPI PUSH2 0x100 DUP1 DUP4 SLOAD DIV MUL DUP4 MSTORE SWAP2 PUSH1 0x20 ADD SWAP2 PUSH2 0x366 JUMP JUMPDEST DUP3 ADD SWAP2 SWAP1 PUSH0 MSTORE PUSH1 0x20 PUSH0 KECCAK256 SWAP1 JUMPDEST DUP2 SLOAD DUP2 MSTORE SWAP1 PUSH1 0x1 ADD SWAP1 PUSH1 0x20 ADD DUP1 DUP4 GT PUSH2 0x349 JUMPI DUP3 SWAP1 SUB PUSH1 0x1F AND DUP3 ADD SWAP2 JUMPDEST POP POP POP POP POP DUP2 MSTORE PUSH1 0x20 ADD PUSH1 0x1 DUP3 ADD DUP1 SLOAD PUSH2 0x37F SWAP1 PUSH2 0xF6B JUMP JUMPDEST DUP1 PUSH1 0x1F ADD PUSH1 0x20 DUP1 SWAP2 DIV MUL PUSH1 0x20 ADD PUSH1 0x40 MLOAD SWAP1 DUP2 ADD PUSH1 0x40 MSTORE DUP1 SWAP3 SWAP2 SWAP1 DUP2 DUP2 MSTORE PUSH1 0x20 ADD DUP3 DUP1 SLOAD PUSH2 0x3AB SWAP1 PUSH2 0xF6B JUMP JUMPDEST DUP1 ISZERO PUSH2 0x3F6 JUMPI DUP1 PUSH1 0x1F LT PUSH2 0x3CD JUMPI PUSH2 0x100 DUP1 DUP4 SLOAD DIV MUL DUP4 MSTORE SWAP2 PUSH1 0x20 ADD SWAP2 PUSH2 0x3F6 JUMP JUMPDEST DUP3 ADD SWAP2 SWAP1 PUSH0 MSTORE PUSH1 0x20 PUSH0 KECCAK256 SWAP1 JUMPDEST DUP2 SLOAD DUP2 MSTORE SWAP1 PUSH1 0x1 ADD SWAP1 PUSH1 0x20 ADD DUP1 DUP4 GT PUSH2 0x3D9 JUMPI DUP3 SWAP1 SUB PUSH1 0x1F AND DUP3 ADD SWAP2 JUMPDEST POP POP POP POP POP DUP2 MSTORE PUSH1 0x20 ADD PUSH1 0x2 DUP3 ADD DUP1 SLOAD PUSH2 0x40F SWAP1 PUSH2 0xF6B JUMP JUMPDEST DUP1 PUSH1 0x1F ADD PUSH1 0x20 DUP1 SWAP2 DIV MUL PUSH1 0x20 ADD PUSH1 0x40 MLOAD SWAP1 DUP2 ADD PUSH1 0x40 MSTORE DUP1 SWAP3 SWAP2 SWAP1 DUP2 DUP2 MSTORE PUSH1 0x20 ADD DUP3 DUP1 SLOAD PUSH2 0x43B SWAP1 PUSH2 0xF6B JUMP JUMPDEST DUP1 ISZERO PUSH2 0x486 JUMPI DUP1 PUSH1 0x1F LT PUSH2 0x45D JUMPI PUSH2 0x100 DUP1 DUP4 SLOAD DIV MUL DUP4 MSTORE SWAP2 PUSH1 0x20 ADD SWAP2 PUSH2 0x486 JUMP JUMPDEST DUP3 ADD SWAP2 SWAP1 PUSH0 MSTORE PUSH1 0x20 PUSH0 KECCAK256 SWAP1 JUMPDEST DUP2 SLOAD DUP2 MSTORE SWAP1 PUSH1 0x1 ADD SWAP1 PUSH1 0x20 ADD DUP1 DUP4 GT PUSH2 0x469 JUMPI DUP3 SWAP1 SUB PUSH1 0x1F AND DUP3 ADD SWAP2 JUMPDEST POP POP POP POP POP DUP2 MSTORE PUSH1 0x20 ADD PUSH1 0x3 DUP3 ADD SLOAD DUP2 MSTORE PUSH1 0x20 ADD PUSH1 0x4 DUP3 ADD DUP1 SLOAD PUSH2 0x4A9 SWAP1 PUSH2 0xF6B JUMP JUMPDEST DUP1 PUSH1 0x1F ADD PUSH1 0x20 DUP1 SWAP2 DIV MUL PUSH1 0x20 ADD PUSH1 0x40 MLOAD SWAP1 DUP2 ADD PUSH1 0x40 MSTORE DUP1 SWAP3 SWAP2 SWAP1 DUP2 DUP2 MSTORE PUSH1 0x20 ADD DUP3 DUP1 SLOAD PUSH2 0x4D5 SWAP1 PUSH2 0xF6B JUMP JUMPDEST DUP1 ISZERO PUSH2 0x520 JUMPI DUP1 PUSH1 0x1F LT PUSH2 0x4F7 JUMPI PUSH2 0x100 DUP1 DUP4 SLOAD DIV MUL DUP4 MSTORE SWAP2 PUSH1 0x20 ADD SWAP2 PUSH2 0x520 JUMP JUMPDEST DUP3 ADD SWAP2 SWAP1 PUSH0 MSTORE PUSH1 0x20 PUSH0 KECCAK256 SWAP1 JUMPDEST DUP2 SLOAD DUP2 MSTORE SWAP1 PUSH1 0x1 ADD SWAP1 PUSH1 0x20 ADD DUP1 DUP4 GT PUSH2 0x503 JUMPI DUP3 SWAP1 SUB PUSH1 0x1F AND DUP3 ADD SWAP2 JUMPDEST POP POP POP POP POP DUP2 MSTORE PUSH1 0x20 ADD PUSH1 0x5 DUP3 ADD DUP1 SLOAD PUSH2 0x539 SWAP1 PUSH2 0xF6B JUMP JUMPDEST DUP1 PUSH1 0x1F ADD PUSH1 0x20 DUP1 SWAP2 DIV MUL PUSH1 0x20 ADD PUSH1 0x40 MLOAD SWAP1 DUP2 ADD PUSH1 0x40 MSTORE DUP1 SWAP3 SWAP2 SWAP1 DUP2 DUP2 MSTORE PUSH1 0x20 ADD DUP3 DUP1 SLOAD PUSH2 0x565 SWAP1 PUSH2 0xF6B JUMP JUMPDEST DUP1 ISZERO PUSH2 0x5B0 JUMPI DUP1 PUSH1 0x1F LT PUSH2 0x587 JUMPI PUSH2 0x100 DUP1 DUP4 SLOAD DIV MUL DUP4 MSTORE SWAP2 PUSH1 0x20 ADD SWAP2 PUSH2 0x5B0 JUMP JUMPDEST DUP3 ADD SWAP2 SWAP1 PUSH0 MSTORE PUSH1 0x20 PUSH0 KECCAK256 SWAP1 JUMPDEST DUP2 SLOAD DUP2 MSTORE SWAP1 PUSH1 0x1 ADD SWAP1 PUSH1 0x20 ADD DUP1 DUP4 GT PUSH2 0x593 JUMPI DUP3 SWAP1 SUB PUSH1 0x1F AND DUP3 ADD SWAP2 JUMPDEST POP POP POP POP POP DUP2 MSTORE POP POP SWAP1 POP PUSH0 DUP2 PUSH1 0x20 ADD MLOAD MLOAD SUB PUSH2 0x605 JUMPI PUSH1 0x40 MLOAD DUP1 PUSH1 0x40 ADD PUSH1 0x40 MSTORE DUP1 PUSH1 0x11 DUP2 MSTORE PUSH1 0x20 ADD PUSH32 0x53747564656E74206E6F7420666F756E64000000000000000000000000000000 DUP2 MSTORE POP SWAP2 POP POP PUSH2 0x652 JUMP JUMPDEST DUP1 PUSH0 ADD MLOAD DUP2 PUSH1 0x20 ADD MLOAD DUP3 PUSH1 0x40 ADD MLOAD PUSH2 0x620 DUP5 PUSH1 0x60 ADD MLOAD PUSH2 0x93C JUMP JUMPDEST DUP5 PUSH1 0x80 ADD MLOAD DUP6 PUSH1 0xA0 ADD MLOAD PUSH1 0x40 MLOAD PUSH1 0x20 ADD PUSH2 0x63F SWAP7 SWAP6 SWAP5 SWAP4 SWAP3 SWAP2 SWAP1 PUSH2 0x1413 JUMP JUMPDEST PUSH1 0x40 MLOAD PUSH1 0x20 DUP2 DUP4 SUB SUB DUP2 MSTORE SWAP1 PUSH1 0x40 MSTORE SWAP2 POP POP JUMPDEST SWAP2 SWAP1 POP JUMP JUMPDEST PUSH1 0x2 SLOAD DUP2 JUMP JUMPDEST PUSH1 0x40 MLOAD DUP1 PUSH1 0xC0 ADD PUSH1 0x40 MSTORE DUP1 DUP8 DUP2 MSTORE PUSH1 0x20 ADD DUP7 DUP2 MSTORE PUSH1 0x20 ADD DUP6 DUP2 MSTORE PUSH1 0x20 ADD DUP5 DUP2 MSTORE PUSH1 0x20 ADD DUP4 DUP2 MSTORE PUSH1 0x20 ADD DUP3 DUP2 MSTORE POP PUSH1 0x3 DUP7 PUSH1 0x40 MLOAD PUSH2 0x69A SWAP2 SWAP1 PUSH2 0x1241 JUMP JUMPDEST SWAP1 DUP2 MSTORE PUSH1 0x20 ADD PUSH1 0x40 MLOAD DUP1 SWAP2 SUB SWAP1 KECCAK256 PUSH0 DUP3 ADD MLOAD DUP2 PUSH0 ADD SWAP1 DUP2 PUSH2 0x6BB SWAP2 SWAP1 PUSH2 0x1138 JUMP JUMPDEST POP PUSH1 0x20 DUP3 ADD MLOAD DUP2 PUSH1 0x1 ADD SWAP1 DUP2 PUSH2 0x6D1 SWAP2 SWAP1 PUSH2 0x1138 JUMP JUMPDEST POP PUSH1 0x40 DUP3 ADD MLOAD DUP2 PUSH1 0x2 ADD SWAP1 DUP2 PUSH2 0x6E7 SWAP2 SWAP1 PUSH2 0x1138 JUMP JUMPDEST POP PUSH1 0x60 DUP3 ADD MLOAD DUP2 PUSH1 0x3 ADD SSTORE PUSH1 0x80 DUP3 ADD MLOAD DUP2 PUSH1 0x4 ADD SWAP1 DUP2 PUSH2 0x707 SWAP2 SWAP1 PUSH2 0x1138 JUMP JUMPDEST POP PUSH1 0xA0 DUP3 ADD MLOAD DUP2 PUSH1 0x5 ADD SWAP1 DUP2 PUSH2 0x71D SWAP2 SWAP1 PUSH2 0x1138 JUMP JUMPDEST POP SWAP1 POP POP POP POP POP POP POP POP JUMP JUMPDEST PUSH1 0x60 DUP1 PUSH0 DUP1 PUSH1 0x1 PUSH1 0x2 SLOAD DUP3 DUP1 SLOAD PUSH2 0x73F SWAP1 PUSH2 0xF6B JUMP JUMPDEST DUP1 PUSH1 0x1F ADD PUSH1 0x20 DUP1 SWAP2 DIV MUL PUSH1 0x20 ADD PUSH1 0x40 MLOAD SWAP1 DUP2 ADD PUSH1 0x40 MSTORE DUP1 SWAP3 SWAP2 SWAP1 DUP2 DUP2 MSTORE PUSH1 0x20 ADD DUP3 DUP1 SLOAD PUSH2 0x76B SWAP1 PUSH2 0xF6B JUMP JUMPDEST DUP1 ISZERO PUSH2 0x7B6 JUMPI DUP1 PUSH1 0x1F LT PUSH2 0x78D JUMPI PUSH2 0x100 DUP1 DUP4 SLOAD DIV MUL DUP4 MSTORE SWAP2 PUSH1 0x20 ADD SWAP2 PUSH2 0x7B6 JUMP JUMPDEST DUP3 ADD SWAP2 SWAP1 PUSH0 MSTORE PUSH1 0x20 PUSH0 KECCAK256 SWAP1 JUMPDEST DUP2 SLOAD DUP2 MSTORE SWAP1 PUSH1 0x1 ADD SWAP1 PUSH1 0x20 ADD DUP1 DUP4 GT PUSH2 0x799 JUMPI DUP3 SWAP1 SUB PUSH1 0x1F AND DUP3 ADD SWAP2 JUMPDEST POP POP POP POP POP SWAP3 POP DUP2 DUP1 SLOAD PUSH2 0x7C9 SWAP1 PUSH2 0xF6B JUMP JUMPDEST DUP1 PUSH1 0x1F ADD PUSH1 0x20 DUP1 SWAP2 DIV MUL PUSH1 0x20 ADD PUSH1 0x40 MLOAD SWAP1 DUP2 ADD PUSH1 0x40 MSTORE DUP1 SWAP3 SWAP2 SWAP1 DUP2 DUP2 MSTORE PUSH1 0x20 ADD DUP3 DUP1 SLOAD PUSH2 0x7F5 SWAP1 PUSH2 0xF6B JUMP JUMPDEST DUP1 ISZERO PUSH2 0x840 JUMPI DUP1 PUSH1 0x1F LT PUSH2 0x817 JUMPI PUSH2 0x100 DUP1 DUP4 SLOAD DIV MUL DUP4 MSTORE SWAP2 PUSH1 0x20 ADD SWAP2 PUSH2 0x840 JUMP JUMPDEST DUP3 ADD SWAP2 SWAP1 PUSH0 MSTORE PUSH1 0x20 PUSH0 KECCAK256 SWAP1 JUMPDEST DUP2 SLOAD DUP2 MSTORE SWAP1 PUSH1 0x1 ADD SWAP1 PUSH1 0x20 ADD DUP1 DUP4 GT PUSH2 0x823 JUMPI DUP3 SWAP1 SUB PUSH1 0x1F AND DUP3 ADD SWAP2 JUMPDEST POP POP POP POP POP SWAP2 POP SWAP3 POP SWAP3 POP SWAP3 POP SWAP1 SWAP2 SWAP3 JUMP JUMPDEST PUSH0 DUP1 SLOAD PUSH2 0x85E SWAP1 PUSH2 0xF6B JUMP JUMPDEST DUP1 PUSH1 0x1F ADD PUSH1 0x20 DUP1 SWAP2 DIV MUL PUSH1 0x20 ADD PUSH1 0x40 MLOAD SWAP1 DUP2 ADD PUSH1 0x40 MSTORE DUP1 SWAP3 SWAP2 SWAP1 DUP2 DUP2 MSTORE PUSH1 0x20 ADD DUP3 DUP1 SLOAD PUSH2 0x88A SWAP1 PUSH2 0xF6B JUMP JUMPDEST DUP1 ISZERO PUSH2 0x8D5 JUMPI DUP1 PUSH1 0x1F LT PUSH2 0x8AC JUMPI PUSH2 0x100 DUP1 DUP4 SLOAD DIV MUL DUP4 MSTORE SWAP2 PUSH1 0x20 ADD SWAP2 PUSH2 0x8D5 JUMP JUMPDEST DUP3 ADD SWAP2 SWAP1 PUSH0 MSTORE PUSH1 0x20 PUSH0 KECCAK256 SWAP1 JUMPDEST DUP2 SLOAD DUP2 MSTORE SWAP1 PUSH1 0x1 ADD SWAP1 PUSH1 0x20 ADD DUP1 DUP4 GT PUSH2 0x8B8 JUMPI DUP3 SWAP1 SUB PUSH1 0x1F AND DUP3 ADD SWAP2 JUMPDEST POP POP POP POP POP DUP2 JUMP JUMPDEST PUSH1 0x60 DUP1 PUSH1 0x40 MLOAD DUP1 PUSH1 0x20 ADD PUSH1 0x40 MSTORE DUP1 PUSH0 DUP2 MSTORE POP PUSH1 0x40 MLOAD DUP1 PUSH1 0x20 ADD PUSH1 0x40 MSTORE DUP1 PUSH0 DUP2 MSTORE POP SWAP2 POP SWAP2 POP SWAP1 SWAP2 JUMP JUMPDEST PUSH1 0x60 PUSH0 PUSH1 0x1 PUSH2 0x916 PUSH1 0x2 SLOAD PUSH2 0x93C JUMP JUMPDEST PUSH1 0x40 MLOAD PUSH1 0x20 ADD PUSH2 0x928 SWAP4 SWAP3 SWAP2 SWAP1 PUSH2 0x160A JUMP JUMPDEST PUSH1 0x40 MLOAD PUSH1 0x20 DUP2 DUP4 SUB SUB DUP2 MSTORE SWAP1 PUSH1 0x40 MSTORE SWAP1 POP SWAP1 JUMP JUMPDEST PUSH1 0x60 PUSH0 DUP3 SUB PUSH2 0x982 JUMPI PUSH1 0x40 MLOAD DUP1 PUSH1 0x40 ADD PUSH1 0x40 MSTORE DUP1 PUSH1 0x1 DUP2 MSTORE PUSH1 0x20 ADD PUSH32 0x3000000000000000000000000000000000000000000000000000000000000000 DUP2 MSTORE POP SWAP1 POP PUSH2 0xAB5 JUMP JUMPDEST PUSH0 DUP3 SWAP1 POP PUSH0 JUMPDEST PUSH0 DUP3 EQ PUSH2 0x9B1 JUMPI DUP1 DUP1 PUSH2 0x99A SWAP1 PUSH2 0x1688 JUMP JUMPDEST SWAP2 POP POP PUSH1 0xA DUP3 PUSH2 0x9AA SWAP2 SWAP1 PUSH2 0x16FC JUMP JUMPDEST SWAP2 POP PUSH2 0x988 JUMP JUMPDEST PUSH0 DUP2 PUSH8 0xFFFFFFFFFFFFFFFF DUP2 GT ISZERO PUSH2 0x9CC JUMPI PUSH2 0x9CB PUSH2 0xB63 JUMP JUMPDEST JUMPDEST PUSH1 0x40 MLOAD SWAP1 DUP1 DUP3 MSTORE DUP1 PUSH1 0x1F ADD PUSH1 0x1F NOT AND PUSH1 0x20 ADD DUP3 ADD PUSH1 0x40 MSTORE DUP1 ISZERO PUSH2 0x9FE JUMPI DUP2 PUSH1 0x20 ADD PUSH1 0x1 DUP3 MUL DUP1 CALLDATASIZE DUP4 CALLDATACOPY DUP1 DUP3 ADD SWAP2 POP POP SWAP1 POP JUMPDEST POP SWAP1 POP PUSH0 DUP3 SWAP1 POP JUMPDEST PUSH0 DUP7 EQ PUSH2 0xAAD JUMPI PUSH1 0x1 DUP2 PUSH2 0xA1A SWAP2 SWAP1 PUSH2 0x172C JUMP JUMPDEST SWAP1 POP PUSH0 PUSH1 0xA DUP1 DUP9 PUSH2 0xA2B SWAP2 SWAP1 PUSH2 0x16FC JUMP JUMPDEST PUSH2 0xA35 SWAP2 SWAP1 PUSH2 0x175F JUMP JUMPDEST DUP8 PUSH2 0xA40 SWAP2 SWAP1 PUSH2 0x172C JUMP JUMPDEST PUSH1 0x30 PUSH2 0xA4C SWAP2 SWAP1 PUSH2 0x17AC JUMP JUMPDEST SWAP1 POP PUSH0 DUP2 PUSH1 0xF8 SHL SWAP1 POP DUP1 DUP5 DUP5 DUP2 MLOAD DUP2 LT PUSH2 0xA69 JUMPI PUSH2 0xA68 PUSH2 0x17E0 JUMP JUMPDEST JUMPDEST PUSH1 0x20 ADD ADD SWAP1 PUSH31 0xFFFFFFFFFFFFFFFFFFFFFFFFFFFFFFFFFFFFFFFFFFFFFFFFFFFFFFFFFFFFFF NOT AND SWAP1 DUP2 PUSH0 BYTE SWAP1 MSTORE8 POP PUSH1 0xA DUP9 PUSH2 0xAA4 SWAP2 SWAP1 PUSH2 0x16FC JUMP JUMPDEST SWAP8 POP POP POP PUSH2 0xA06 JUMP JUMPDEST DUP2 SWAP5 POP POP POP POP POP JUMPDEST SWAP2 SWAP1 POP JUMP JUMPDEST PUSH0 DUP2 MLOAD SWAP1 POP SWAP2 SWAP1 POP JUMP JUMPDEST PUSH0 DUP3 DUP3 MSTORE PUSH1 0x20 DUP3 ADD SWAP1 POP SWAP3 SWAP2 POP POP JUMP JUMPDEST DUP3 DUP2 DUP4 MCOPY PUSH0 DUP4 DUP4 ADD MSTORE POP POP POP JUMP JUMPDEST PUSH0 PUSH1 0x1F NOT PUSH1 0x1F DUP4 ADD AND SWAP1 POP SWAP2 SWAP1 POP JUMP JUMPDEST PUSH0 PUSH2 0xAFC DUP3 PUSH2 0xABA JUMP JUMPDEST PUSH2 0xB06 DUP2 DUP6 PUSH2 0xAC4 JUMP JUMPDEST SWAP4 POP PUSH2 0xB16 DUP2 DUP6 PUSH1 0x20 DUP7 ADD PUSH2 0xAD4 JUMP JUMPDEST PUSH2 0xB1F DUP2 PUSH2 0xAE2 JUMP JUMPDEST DUP5 ADD SWAP2 POP POP SWAP3 SWAP2 POP POP JUMP JUMPDEST PUSH0 PUSH1 0x20 DUP3 ADD SWAP1 POP DUP2 DUP2 SUB PUSH0 DUP4 ADD MSTORE PUSH2 0xB42 DUP2 DUP5 PUSH2 0xAF2 JUMP JUMPDEST SWAP1 POP SWAP3 SWAP2 POP POP JUMP JUMPDEST PUSH0 PUSH1 0x40 MLOAD SWAP1 POP SWAP1 JUMP JUMPDEST PUSH0 DUP1 REVERT JUMPDEST PUSH0 DUP1 REVERT JUMPDEST PUSH0 DUP1 REVERT JUMPDEST PUSH0 DUP1 REVERT JUMPDEST PUSH32 0x4E487B7100000000000000000000000000000000000000000000000000000000 PUSH0 MSTORE PUSH1 0x41 PUSH1 0x4 MSTORE PUSH1 0x24 PUSH0 REVERT JUMPDEST PUSH2 0xB99 DUP3 PUSH2 0xAE2 JUMP JUMPDEST DUP2 ADD DUP2 DUP2 LT PUSH8 0xFFFFFFFFFFFFFFFF DUP3 GT OR ISZERO PUSH2 0xBB8 JUMPI PUSH2 0xBB7 PUSH2 0xB63 JUMP JUMPDEST JUMPDEST DUP1 PUSH1 0x40 MSTORE POP POP POP JUMP JUMPDEST PUSH0 PUSH2 0xBCA PUSH2 0xB4A JUMP JUMPDEST SWAP1 POP PUSH2 0xBD6 DUP3 DUP3 PUSH2 0xB90 JUMP JUMPDEST SWAP2 SWAP1 POP JUMP JUMPDEST PUSH0 PUSH8 0xFFFFFFFFFFFFFFFF DUP3 GT ISZERO PUSH2 0xBF5 JUMPI PUSH2 0xBF4 PUSH2 0xB63 JUMP JUMPDEST JUMPDEST PUSH2 0xBFE DUP3 PUSH2 0xAE2 JUMP JUMPDEST SWAP1 POP PUSH1 0x20 DUP2 ADD SWAP1 POP SWAP2 SWAP1 POP JUMP JUMPDEST DUP3 DUP2 DUP4 CALLDATACOPY PUSH0 DUP4 DUP4 ADD MSTORE POP POP POP JUMP JUMPDEST PUSH0 PUSH2 0xC2B PUSH2 0xC26 DUP5 PUSH2 0xBDB JUMP JUMPDEST PUSH2 0xBC1 JUMP JUMPDEST SWAP1 POP DUP3 DUP2 MSTORE PUSH1 0x20 DUP2 ADD DUP5 DUP5 DUP5 ADD GT ISZERO PUSH2 0xC47 JUMPI PUSH2 0xC46 PUSH2 0xB5F JUMP JUMPDEST JUMPDEST PUSH2 0xC52 DUP5 DUP3 DUP6 PUSH2 0xC0B JUMP JUMPDEST POP SWAP4 SWAP3 POP POP POP JUMP JUMPDEST PUSH0 DUP3 PUSH1 0x1F DUP4 ADD SLT PUSH2 0xC6E JUMPI PUSH2 0xC6D PUSH2 0xB5B JUMP JUMPDEST JUMPDEST DUP2 CALLDATALOAD PUSH2 0xC7E DUP5 DUP3 PUSH1 0x20 DUP7 ADD PUSH2 0xC19 JUMP JUMPDEST SWAP2 POP POP SWAP3 SWAP2 POP POP JUMP JUMPDEST PUSH0 DUP2 SWAP1 POP SWAP2 SWAP1 POP JUMP JUMPDEST PUSH2 0xC99 DUP2 PUSH2 0xC87 JUMP JUMPDEST DUP2 EQ PUSH2 0xCA3 JUMPI PUSH0 DUP1 REVERT JUMPDEST POP JUMP JUMPDEST PUSH0 DUP2 CALLDATALOAD SWAP1 POP PUSH2 0xCB4 DUP2 PUSH2 0xC90 JUMP JUMPDEST SWAP3 SWAP2 POP POP JUMP JUMPDEST PUSH0 DUP1 PUSH0 PUSH1 0x60 DUP5 DUP7 SUB SLT ISZERO PUSH2 0xCD1 JUMPI PUSH2 0xCD0 PUSH2 0xB53 JUMP JUMPDEST JUMPDEST PUSH0 DUP5 ADD CALLDATALOAD PUSH8 0xFFFFFFFFFFFFFFFF DUP2 GT ISZERO PUSH2 0xCEE JUMPI PUSH2 0xCED PUSH2 0xB57 JUMP JUMPDEST JUMPDEST PUSH2 0xCFA DUP7 DUP3 DUP8 ADD PUSH2 0xC5A JUMP JUMPDEST SWAP4 POP POP PUSH1 0x20 DUP5 ADD CALLDATALOAD PUSH8 0xFFFFFFFFFFFFFFFF DUP2 GT ISZERO PUSH2 0xD1B JUMPI PUSH2 0xD1A PUSH2 0xB57 JUMP JUMPDEST JUMPDEST PUSH2 0xD27 DUP7 DUP3 DUP8 ADD PUSH2 0xC5A JUMP JUMPDEST SWAP3 POP POP PUSH1 0x40 PUSH2 0xD38 DUP7 DUP3 DUP8 ADD PUSH2 0xCA6 JUMP JUMPDEST SWAP2 POP POP SWAP3 POP SWAP3 POP SWAP3 JUMP JUMPDEST PUSH0 PUSH1 0x20 DUP3 DUP5 SUB SLT ISZERO PUSH2 0xD57 JUMPI PUSH2 0xD56 PUSH2 0xB53 JUMP JUMPDEST JUMPDEST PUSH0 DUP3 ADD CALLDATALOAD PUSH8 0xFFFFFFFFFFFFFFFF DUP2 GT ISZERO PUSH2 0xD74 JUMPI PUSH2 0xD73 PUSH2 0xB57 JUMP JUMPDEST JUMPDEST PUSH2 0xD80 DUP5 DUP3 DUP6 ADD PUSH2 0xC5A JUMP JUMPDEST SWAP2 POP POP SWAP3 SWAP2 POP POP JUMP JUMPDEST PUSH2 0xD92 DUP2 PUSH2 0xC87 JUMP JUMPDEST DUP3 MSTORE POP POP JUMP JUMPDEST PUSH0 PUSH1 0x20 DUP3 ADD SWAP1 POP PUSH2 0xDAB PUSH0 DUP4 ADD DUP5 PUSH2 0xD89 JUMP JUMPDEST SWAP3 SWAP2 POP POP JUMP JUMPDEST PUSH0 DUP1 PUSH0 DUP1 PUSH0 DUP1 PUSH1 0xC0 DUP8 DUP10 SUB SLT ISZERO PUSH2 0xDCB JUMPI PUSH2 0xDCA PUSH2 0xB53 JUMP JUMPDEST JUMPDEST PUSH0 DUP8 ADD CALLDATALOAD PUSH8 0xFFFFFFFFFFFFFFFF DUP2 GT ISZERO PUSH2 0xDE8 JUMPI PUSH2 0xDE7 PUSH2 0xB57 JUMP JUMPDEST JUMPDEST PUSH2 0xDF4 DUP10 DUP3 DUP11 ADD PUSH2 0xC5A JUMP JUMPDEST SWAP7 POP POP PUSH1 0x20 DUP8 ADD CALLDATALOAD PUSH8 0xFFFFFFFFFFFFFFFF DUP2 GT ISZERO PUSH2 0xE15 JUMPI PUSH2 0xE14 PUSH2 0xB57 JUMP JUMPDEST JUMPDEST PUSH2 0xE21 DUP10 DUP3 DUP11 ADD PUSH2 0xC5A JUMP JUMPDEST SWAP6 POP POP PUSH1 0x40 DUP8 ADD CALLDATALOAD PUSH8 0xFFFFFFFFFFFFFFFF DUP2 GT ISZERO PUSH2 0xE42 JUMPI PUSH2 0xE41 PUSH2 0xB57 JUMP JUMPDEST JUMPDEST PUSH2 0xE4E DUP10 DUP3 DUP11 ADD PUSH2 0xC5A JUMP JUMPDEST SWAP5 POP POP PUSH1 0x60 PUSH2 0xE5F DUP10 DUP3 DUP11 ADD PUSH2 0xCA6 JUMP JUMPDEST SWAP4 POP POP PUSH1 0x80 DUP8 ADD CALLDATALOAD PUSH8 0xFFFFFFFFFFFFFFFF DUP2 GT ISZERO PUSH2 0xE80 JUMPI PUSH2 0xE7F PUSH2 0xB57 JUMP JUMPDEST JUMPDEST PUSH2 0xE8C DUP10 DUP3 DUP11 ADD PUSH2 0xC5A JUMP JUMPDEST SWAP3 POP POP PUSH1 0xA0 DUP8 ADD CALLDATALOAD PUSH8 0xFFFFFFFFFFFFFFFF DUP2 GT ISZERO PUSH2 0xEAD JUMPI PUSH2 0xEAC PUSH2 0xB57 JUMP JUMPDEST JUMPDEST PUSH2 0xEB9 DUP10 DUP3 DUP11 ADD PUSH2 0xC5A JUMP JUMPDEST SWAP2 POP POP SWAP3 SWAP6 POP SWAP3 SWAP6 POP SWAP3 SWAP6 JUMP JUMPDEST PUSH0 PUSH1 0x60 DUP3 ADD SWAP1 POP DUP2 DUP2 SUB PUSH0 DUP4 ADD MSTORE PUSH2 0xEDE DUP2 DUP7 PUSH2 0xAF2 JUMP JUMPDEST SWAP1 POP DUP2 DUP2 SUB PUSH1 0x20 DUP4 ADD MSTORE PUSH2 0xEF2 DUP2 DUP6 PUSH2 0xAF2 JUMP JUMPDEST SWAP1 POP PUSH2 0xF01 PUSH1 0x40 DUP4 ADD DUP5 PUSH2 0xD89 JUMP JUMPDEST SWAP5 SWAP4 POP POP POP POP JUMP JUMPDEST PUSH0 PUSH1 0x40 DUP3 ADD SWAP1 POP DUP2 DUP2 SUB PUSH0 DUP4 ADD MSTORE PUSH2 0xF21 DUP2 DUP6 PUSH2 0xAF2 JUMP JUMPDEST SWAP1 POP DUP2 DUP2 SUB PUSH1 0x20 DUP4 ADD MSTORE PUSH2 0xF35 DUP2 DUP5 PUSH2 0xAF2 JUMP JUMPDEST SWAP1 POP SWAP4 SWAP3 POP POP POP JUMP JUMPDEST PUSH32 0x4E487B7100000000000000000000000000000000000000000000000000000000 PUSH0 MSTORE PUSH1 0x22 PUSH1 0x4 MSTORE PUSH1 0x24 PUSH0 REVERT JUMPDEST PUSH0 PUSH1 0x2 DUP3 DIV SWAP1 POP PUSH1 0x1 DUP3 AND DUP1 PUSH2 0xF82 JUMPI PUSH1 0x7F DUP3 AND SWAP2 POP JUMPDEST PUSH1 0x20 DUP3 LT DUP2 SUB PUSH2 0xF95 JUMPI PUSH2 0xF94 PUSH2 0xF3E JUMP JUMPDEST JUMPDEST POP SWAP2 SWAP1 POP JUMP JUMPDEST PUSH0 DUP2 SWAP1 POP DUP2 PUSH0 MSTORE PUSH1 0x20 PUSH0 KECCAK256 SWAP1 POP SWAP2 SWAP1 POP JUMP JUMPDEST PUSH0 PUSH1 0x20 PUSH1 0x1F DUP4 ADD DIV SWAP1 POP SWAP2 SWAP1 POP JUMP JUMPDEST PUSH0 DUP3 DUP3 SHL SWAP1 POP SWAP3 SWAP2 POP POP JUMP JUMPDEST PUSH0 PUSH1 0x8 DUP4 MUL PUSH2 0xFF7 PUSH32 0xFFFFFFFFFFFFFFFFFFFFFFFFFFFFFFFFFFFFFFFFFFFFFFFFFFFFFFFFFFFFFFFF DUP3 PUSH2 0xFBC JUMP JUMPDEST PUSH2 0x1001 DUP7 DUP4 PUSH2 0xFBC JUMP JUMPDEST SWAP6 POP DUP1 NOT DUP5 AND SWAP4 POP DUP1 DUP7 AND DUP5 OR SWAP3 POP POP POP SWAP4 SWAP3 POP POP POP JUMP JUMPDEST PUSH0 DUP2 SWAP1 POP SWAP2 SWAP1 POP JUMP JUMPDEST PUSH0 PUSH2 0x103C PUSH2 0x1037 PUSH2 0x1032 DUP5 PUSH2 0xC87 JUMP JUMPDEST PUSH2 0x1019 JUMP JUMPDEST PUSH2 0xC87 JUMP JUMPDEST SWAP1 POP SWAP2 SWAP1 POP JUMP JUMPDEST PUSH0 DUP2 SWAP1 POP SWAP2 SWAP1 POP JUMP JUMPDEST PUSH2 0x1055 DUP4 PUSH2 0x1022 JUMP JUMPDEST PUSH2 0x1069 PUSH2 0x1061 DUP3 PUSH2 0x1043 JUMP JUMPDEST DUP5 DUP5 SLOAD PUSH2 0xFC8 JUMP JUMPDEST DUP3 SSTORE POP POP POP POP JUMP JUMPDEST PUSH0 SWAP1 JUMP JUMPDEST PUSH2 0x107D PUSH2 0x1071 JUMP JUMPDEST PUSH2 0x1088 DUP2 DUP5 DUP5 PUSH2 0x104C JUMP JUMPDEST POP POP POP JUMP JUMPDEST JUMPDEST DUP2 DUP2 LT ISZERO PUSH2 0x10AB JUMPI PUSH2 0x10A0 PUSH0 DUP3 PUSH2 0x1075 JUMP JUMPDEST PUSH1 0x1 DUP2 ADD SWAP1 POP PUSH2 0x108E JUMP JUMPDEST POP POP JUMP JUMPDEST PUSH1 0x1F DUP3 GT ISZERO PUSH2 0x10F0 JUMPI PUSH2 0x10C1 DUP2 PUSH2 0xF9B JUMP JUMPDEST PUSH2 0x10CA DUP5 PUSH2 0xFAD JUMP JUMPDEST DUP2 ADD PUSH1 0x20 DUP6 LT ISZERO PUSH2 0x10D9 JUMPI DUP2 SWAP1 POP JUMPDEST PUSH2 0x10ED PUSH2 0x10E5 DUP6 PUSH2 0xFAD JUMP JUMPDEST DUP4 ADD DUP3 PUSH2 0x108D JUMP JUMPDEST POP POP JUMPDEST POP POP POP JUMP JUMPDEST PUSH0 DUP3 DUP3 SHR SWAP1 POP SWAP3 SWAP2 POP POP JUMP JUMPDEST PUSH0 PUSH2 0x1110 PUSH0 NOT DUP5 PUSH1 0x8 MUL PUSH2 0x10F5 JUMP JUMPDEST NOT DUP1 DUP4 AND SWAP2 POP POP SWAP3 SWAP2 POP POP JUMP JUMPDEST PUSH0 PUSH2 0x1128 DUP4 DUP4 PUSH2 0x1101 JUMP JUMPDEST SWAP2 POP DUP3 PUSH1 0x2 MUL DUP3 OR SWAP1 POP SWAP3 SWAP2 POP POP JUMP JUMPDEST PUSH2 0x1141 DUP3 PUSH2 0xABA JUMP JUMPDEST PUSH8 0xFFFFFFFFFFFFFFFF DUP2 GT ISZERO PUSH2 0x115A JUMPI PUSH2 0x1159 PUSH2 0xB63 JUMP JUMPDEST JUMPDEST PUSH2 0x1164 DUP3 SLOAD PUSH2 0xF6B JUMP JUMPDEST PUSH2 0x116F DUP3 DUP3 DUP6 PUSH2 0x10AF JUMP JUMPDEST PUSH0 PUSH1 0x20 SWAP1 POP PUSH1 0x1F DUP4 GT PUSH1 0x1 DUP2 EQ PUSH2 0x11A0 JUMPI PUSH0 DUP5 ISZERO PUSH2 0x118E JUMPI DUP3 DUP8 ADD MLOAD SWAP1 POP JUMPDEST PUSH2 0x1198 DUP6 DUP3 PUSH2 0x111D JUMP JUMPDEST DUP7 SSTORE POP PUSH2 0x11FF JUMP JUMPDEST PUSH1 0x1F NOT DUP5 AND PUSH2 0x11AE DUP7 PUSH2 0xF9B JUMP JUMPDEST PUSH0 JUMPDEST DUP3 DUP2 LT ISZERO PUSH2 0x11D5 JUMPI DUP5 DUP10 ADD MLOAD DUP3 SSTORE PUSH1 0x1 DUP3 ADD SWAP2 POP PUSH1 0x20 DUP6 ADD SWAP5 POP PUSH1 0x20 DUP2 ADD SWAP1 POP PUSH2 0x11B0 JUMP JUMPDEST DUP7 DUP4 LT ISZERO PUSH2 0x11F2 JUMPI DUP5 DUP10 ADD MLOAD PUSH2 0x11EE PUSH1 0x1F DUP10 AND DUP3 PUSH2 0x1101 JUMP JUMPDEST DUP4 SSTORE POP JUMPDEST PUSH1 0x1 PUSH1 0x2 DUP9 MUL ADD DUP9 SSTORE POP POP POP JUMPDEST POP POP POP POP POP POP JUMP JUMPDEST PUSH0 DUP2 SWAP1 POP SWAP3 SWAP2 POP POP JUMP JUMPDEST PUSH0 PUSH2 0x121B DUP3 PUSH2 0xABA JUMP JUMPDEST PUSH2 0x1225 DUP2 DUP6 PUSH2 0x1207 JUMP JUMPDEST SWAP4 POP PUSH2 0x1235 DUP2 DUP6 PUSH1 0x20 DUP7 ADD PUSH2 0xAD4 JUMP JUMPDEST DUP1 DUP5 ADD SWAP2 POP POP SWAP3 SWAP2 POP POP JUMP JUMPDEST PUSH0 PUSH2 0x124C DUP3 DUP5 PUSH2 0x1211 JUMP JUMPDEST SWAP2 POP DUP2 SWAP1 POP SWAP3 SWAP2 POP POP JUMP JUMPDEST PUSH32 0x4E616D653A200000000000000000000000000000000000000000000000000000 PUSH0 DUP3 ADD MSTORE POP JUMP JUMPDEST PUSH0 PUSH2 0x128B PUSH1 0x6 DUP4 PUSH2 0x1207 JUMP JUMPDEST SWAP2 POP PUSH2 0x1296 DUP3 PUSH2 0x1257 JUMP JUMPDEST PUSH1 0x6 DUP3 ADD SWAP1 POP SWAP2 SWAP1 POP JUMP JUMPDEST PUSH32 0x2C2052656764204E6F3A20000000000000000000000000000000000000000000 PUSH0 DUP3 ADD MSTORE POP JUMP JUMPDEST PUSH0 PUSH2 0x12D5 PUSH1 0xB DUP4 PUSH2 0x1207 JUMP JUMPDEST SWAP2 POP PUSH2 0x12E0 DUP3 PUSH2 0x12A1 JUMP JUMPDEST PUSH1 0xB DUP3 ADD SWAP1 POP SWAP2 SWAP1 POP JUMP JUMPDEST PUSH32 0x2C20456C6563746976653A200000000000000000000000000000000000000000 PUSH0 DUP3 ADD MSTORE POP JUMP JUMPDEST PUSH0 PUSH2 0x131F PUSH1 0xC DUP4 PUSH2 0x1207 JUMP JUMPDEST SWAP2 POP PUSH2 0x132A DUP3 PUSH2 0x12EB JUMP JUMPDEST PUSH1 0xC DUP3 ADD SWAP1 POP SWAP2 SWAP1 POP JUMP JUMPDEST PUSH32 0x2C20417667204D61726B733A2000000000000000000000000000000000000000 PUSH0 DUP3 ADD MSTORE POP JUMP JUMPDEST PUSH0 PUSH2 0x1369 PUSH1 0xD DUP4 PUSH2 0x1207 JUMP JUMPDEST SWAP2 POP PUSH2 0x1374 DUP3 PUSH2 0x1335 JUMP JUMPDEST PUSH1 0xD DUP3 ADD SWAP1 POP SWAP2 SWAP1 POP JUMP JUMPDEST PUSH32 0x2C20446570743A20000000000000000000000000000000000000000000000000 PUSH0 DUP3 ADD MSTORE POP JUMP JUMPDEST PUSH0 PUSH2 0x13B3 PUSH1 0x8 DUP4 PUSH2 0x1207 JUMP JUMPDEST SWAP2 POP PUSH2 0x13BE DUP3 PUSH2 0x137F JUMP JUMPDEST PUSH1 0x8 DUP3 ADD SWAP1 POP SWAP2 SWAP1 POP JUMP JUMPDEST PUSH32 0x2C204465707420486561643A2000000000000000000000000000000000000000 PUSH0 DUP3 ADD MSTORE POP JUMP JUMPDEST PUSH0 PUSH2 0x13FD PUSH1 0xD DUP4 PUSH2 0x1207 JUMP JUMPDEST SWAP2 POP PUSH2 0x1408 DUP3 PUSH2 0x13C9 JUMP JUMPDEST PUSH1 0xD DUP3 ADD SWAP1 POP SWAP2 SWAP1 POP JUMP JUMPDEST PUSH0 PUSH2 0x141D DUP3 PUSH2 0x127F JUMP JUMPDEST SWAP2 POP PUSH2 0x1429 DUP3 DUP10 PUSH2 0x1211 JUMP JUMPDEST SWAP2 POP PUSH2 0x1434 DUP3 PUSH2 0x12C9 JUMP JUMPDEST SWAP2 POP PUSH2 0x1440 DUP3 DUP9 PUSH2 0x1211 JUMP JUMPDEST SWAP2 POP PUSH2 0x144B DUP3 PUSH2 0x1313 JUMP JUMPDEST SWAP2 POP PUSH2 0x1457 DUP3 DUP8 PUSH2 0x1211 JUMP JUMPDEST SWAP2 POP PUSH2 0x1462 DUP3 PUSH2 0x135D JUMP JUMPDEST SWAP2 POP PUSH2 0x146E DUP3 DUP7 PUSH2 0x1211 JUMP JUMPDEST SWAP2 POP PUSH2 0x1479 DUP3 PUSH2 0x13A7 JUMP JUMPDEST SWAP2 POP PUSH2 0x1485 DUP3 DUP6 PUSH2 0x1211 JUMP JUMPDEST SWAP2 POP PUSH2 0x1490 DUP3 PUSH2 0x13F1 JUMP JUMPDEST SWAP2 POP PUSH2 0x149C DUP3 DUP5 PUSH2 0x1211 JUMP JUMPDEST SWAP2 POP DUP2 SWAP1 POP SWAP8 SWAP7 POP POP POP POP POP POP POP JUMP JUMPDEST PUSH32 0x486F7374656C204E616D653A2000000000000000000000000000000000000000 PUSH0 DUP3 ADD MSTORE POP JUMP JUMPDEST PUSH0 PUSH2 0x14E0 PUSH1 0xD DUP4 PUSH2 0x1207 JUMP JUMPDEST SWAP2 POP PUSH2 0x14EB DUP3 PUSH2 0x14AC JUMP JUMPDEST PUSH1 0xD DUP3 ADD SWAP1 POP SWAP2 SWAP1 POP JUMP JUMPDEST PUSH0 DUP2 SLOAD PUSH2 0x1502 DUP2 PUSH2 0xF6B JUMP JUMPDEST PUSH2 0x150C DUP2 DUP7 PUSH2 0x1207 JUMP JUMPDEST SWAP5 POP PUSH1 0x1 DUP3 AND PUSH0 DUP2 EQ PUSH2 0x1526 JUMPI PUSH1 0x1 DUP2 EQ PUSH2 0x153B JUMPI PUSH2 0x156D JUMP JUMPDEST PUSH1 0xFF NOT DUP4 AND DUP7 MSTORE DUP2 ISZERO ISZERO DUP3 MUL DUP7 ADD SWAP4 POP PUSH2 0x156D JUMP JUMPDEST PUSH2 0x1544 DUP6 PUSH2 0xF9B JUMP JUMPDEST PUSH0 JUMPDEST DUP4 DUP2 LT ISZERO PUSH2 0x1565 JUMPI DUP2 SLOAD DUP2 DUP10 ADD MSTORE PUSH1 0x1 DUP3 ADD SWAP2 POP PUSH1 0x20 DUP2 ADD SWAP1 POP PUSH2 0x1546 JUMP JUMPDEST DUP4 DUP9 ADD SWAP6 POP POP POP JUMPDEST POP POP POP SWAP3 SWAP2 POP POP JUMP JUMPDEST PUSH32 0x2C204C6F636174696F6E3A200000000000000000000000000000000000000000 PUSH0 DUP3 ADD MSTORE POP JUMP JUMPDEST PUSH0 PUSH2 0x15AA PUSH1 0xC DUP4 PUSH2 0x1207 JUMP JUMPDEST SWAP2 POP PUSH2 0x15B5 DUP3 PUSH2 0x1576 JUMP JUMPDEST PUSH1 0xC DUP3 ADD SWAP1 POP SWAP2 SWAP1 POP JUMP JUMPDEST PUSH32 0x2C20526F6F6D733A200000000000000000000000000000000000000000000000 PUSH0 DUP3 ADD MSTORE POP JUMP JUMPDEST PUSH0 PUSH2 0x15F4 PUSH1 0x9 DUP4 PUSH2 0x1207 JUMP JUMPDEST SWAP2 POP PUSH2 0x15FF DUP3 PUSH2 0x15C0 JUMP JUMPDEST PUSH1 0x9 DUP3 ADD SWAP1 POP SWAP2 SWAP1 POP JUMP JUMPDEST PUSH0 PUSH2 0x1614 DUP3 PUSH2 0x14D4 JUMP JUMPDEST SWAP2 POP PUSH2 0x1620 DUP3 DUP7 PUSH2 0x14F6 JUMP JUMPDEST SWAP2 POP PUSH2 0x162B DUP3 PUSH2 0x159E JUMP JUMPDEST SWAP2 POP PUSH2 0x1637 DUP3 DUP6 PUSH2 0x14F6 JUMP JUMPDEST SWAP2 POP PUSH2 0x1642 DUP3 PUSH2 0x15E8 JUMP JUMPDEST SWAP2 POP PUSH2 0x164E DUP3 DUP5 PUSH2 0x1211 JUMP JUMPDEST SWAP2 POP DUP2 SWAP1 POP SWAP5 SWAP4 POP POP POP POP JUMP JUMPDEST PUSH32 0x4E487B7100000000000000000000000000000000000000000000000000000000 PUSH0 MSTORE PUSH1 0x11 PUSH1 0x4 MSTORE PUSH1 0x24 PUSH0 REVERT JUMPDEST PUSH0 PUSH2 0x1692 DUP3 PUSH2 0xC87 JUMP JUMPDEST SWAP2 POP PUSH32 0xFFFFFFFFFFFFFFFFFFFFFFFFFFFFFFFFFFFFFFFFFFFFFFFFFFFFFFFFFFFFFFFF DUP3 SUB PUSH2 0x16C4 JUMPI PUSH2 0x16C3 PUSH2 0x165B JUMP JUMPDEST JUMPDEST PUSH1 0x1 DUP3 ADD SWAP1 POP SWAP2 SWAP1 POP JUMP JUMPDEST PUSH32 0x4E487B7100000000000000000000000000000000000000000000000000000000 PUSH0 MSTORE PUSH1 0x12 PUSH1 0x4 MSTORE PUSH1 0x24 PUSH0 REVERT JUMPDEST PUSH0 PUSH2 0x1706 DUP3 PUSH2 0xC87 JUMP JUMPDEST SWAP2 POP PUSH2 0x1711 DUP4 PUSH2 0xC87 JUMP JUMPDEST SWAP3 POP DUP3 PUSH2 0x1721 JUMPI PUSH2 0x1720 PUSH2 0x16CF JUMP JUMPDEST JUMPDEST DUP3 DUP3 DIV SWAP1 POP SWAP3 SWAP2 POP POP JUMP JUMPDEST PUSH0 PUSH2 0x1736 DUP3 PUSH2 0xC87 JUMP JUMPDEST SWAP2 POP PUSH2 0x1741 DUP4 PUSH2 0xC87 JUMP JUMPDEST SWAP3 POP DUP3 DUP3 SUB SWAP1 POP DUP2 DUP2 GT ISZERO PUSH2 0x1759 JUMPI PUSH2 0x1758 PUSH2 0x165B JUMP JUMPDEST JUMPDEST SWAP3 SWAP2 POP POP JUMP JUMPDEST PUSH0 PUSH2 0x1769 DUP3 PUSH2 0xC87 JUMP JUMPDEST SWAP2 POP PUSH2 0x1774 DUP4 PUSH2 0xC87 JUMP JUMPDEST SWAP3 POP DUP3 DUP3 MUL PUSH2 0x1782 DUP2 PUSH2 0xC87 JUMP JUMPDEST SWAP2 POP DUP3 DUP3 DIV DUP5 EQ DUP4 ISZERO OR PUSH2 0x1799 JUMPI PUSH2 0x1798 PUSH2 0x165B JUMP JUMPDEST JUMPDEST POP SWAP3 SWAP2 POP POP JUMP JUMPDEST PUSH0 PUSH1 0xFF DUP3 AND SWAP1 POP SWAP2 SWAP1 POP JUMP JUMPDEST PUSH0 PUSH2 0x17B6 DUP3 PUSH2 0x17A0 JUMP JUMPDEST SWAP2 POP PUSH2 0x17C1 DUP4 PUSH2 0x17A0 JUMP JUMPDEST SWAP3 POP DUP3 DUP3 ADD SWAP1 POP PUSH1 0xFF DUP2 GT ISZERO PUSH2 0x17DA JUMPI PUSH2 0x17D9 PUSH2 0x165B JUMP JUMPDEST JUMPDEST SWAP3 SWAP2 POP POP JUMP JUMPDEST PUSH32 0x4E487B7100000000000000000000000000000000000000000000000000000000 PUSH0 MSTORE PUSH1 0x32 PUSH1 0x4 MSTORE PUSH1 0x24 PUSH0 REVERT INVALID BLOBHASH PUSH14 0x706C656D656E74656420696E2070 PUSH19 0x696E74446174612829206261736564206F6E20 PUSH20 0x747564656E74207265636F72642EA26469706673 PC 0x22 SLT KECCAK256 0xBD REVERT NUMBER GAS KECCAK256 LOG0 CALL 0x4F 0xAA PUSH20 0x37569AE4D22514B0C0097989A39708612BF18EBA SWAP9 PUSH11 0x64736F6C634300081A0033 "
				},
				"gasEstimates": {
					"creation": {
						"codeDepositCost": "1252400",
						"executionCost": "1300",
						"totalCost": "1253700"
					},
					"external": {
						"getData(string,string,string,uint256,string,string)": "infinite",
						"getDepartmentDetails()": "infinite",
						"getHostelDetails()": "infinite",
						"hostelLocation()": "infinite",
						"hostelName()": "infinite",
						"numberOfRooms()": "2514",
						"printData(string)": "infinite",
						"printDepartmentDetails()": "infinite",
						"printHostelDetails()": "infinite",
						"setHostelDetails(string,string,uint256)": "infinite"
					}
				},
				"methodIdentifiers": {
					"getData(string,string,string,uint256,string,string)": "9b5cb960",
					"getDepartmentDetails()": "ceb63c76",
					"getHostelDetails()": "9d8c8315",
					"hostelLocation()": "11ebae41",
					"hostelName()": "cb9cb0c2",
					"numberOfRooms()": "99d568b3",
					"printData(string)": "5e1b609c",
					"printDepartmentDetails()": "4cc4ce5d",
					"printHostelDetails()": "f8fd1948",
					"setHostelDetails(string,string,uint256)": "2224b6a9"
				}
			},
			"storageLayout": {
				"storage": [
					{
						"astId": 16,
						"contract": "Q1.sol:Student",
						"label": "hostelName",
						"offset": 0,
						"slot": "0",
						"type": "t_string_storage"
					},
					{
						"astId": 18,
						"contract": "Q1.sol:Student",
						"label": "hostelLocation",
						"offset": 0,
						"slot": "1",
						"type": "t_string_storage"
					},
					{
						"astId": 20,
						"contract": "Q1.sol:Student",
						"label": "numberOfRooms",
						"offset": 0,
						"slot": "2",
						"type": "t_uint256"
					},
					{
						"astId": 194,
						"contract": "Q1.sol:Student",
						"label": "students",
						"offset": 0,
						"slot": "3",
						"type": "t_mapping(t_string_memory_ptr,t_struct(StudentData)189_storage)"
					}
				],
				"types": {
					"t_mapping(t_string_memory_ptr,t_struct(StudentData)189_storage)": {
						"encoding": "mapping",
						"key": "t_string_memory_ptr",
						"label": "mapping(string => struct Student.StudentData)",
						"numberOfBytes": "32",
						"value": "t_struct(StudentData)189_storage"
					},
					"t_string_memory_ptr": {
						"encoding": "bytes",
						"label": "string",
						"numberOfBytes": "32"
					},
					"t_string_storage": {
						"encoding": "bytes",
						"label": "string",
						"numberOfBytes": "32"
					},
					"t_struct(StudentData)189_storage": {
						"encoding": "inplace",
						"label": "struct Student.StudentData",
						"members": [
							{
								"astId": 178,
								"contract": "Q1.sol:Student",
								"label": "studentName",
								"offset": 0,
								"slot": "0",
								"type": "t_string_storage"
							},
							{
								"astId": 180,
								"contract": "Q1.sol:Student",
								"label": "regdNo",
								"offset": 0,
								"slot": "1",
								"type": "t_string_storage"
							},
							{
								"astId": 182,
								"contract": "Q1.sol:Student",
								"label": "electiveSubject",
								"offset": 0,
								"slot": "2",
								"type": "t_string_storage"
							},
							{
								"astId": 184,
								"contract": "Q1.sol:Student",
								"label": "avgMarks",
								"offset": 0,
								"slot": "3",
								"type": "t_uint256"
							},
							{
								"astId": 186,
								"contract": "Q1.sol:Student",
								"label": "deptName",
								"offset": 0,
								"slot": "4",
								"type": "t_string_storage"
							},
							{
								"astId": 188,
								"contract": "Q1.sol:Student",
								"label": "deptHead",
								"offset": 0,
								"slot": "5",
								"type": "t_string_storage"
							}
						],
						"numberOfBytes": "192"
					},
					"t_uint256": {
						"encoding": "inplace",
						"label": "uint256",
						"numberOfBytes": "32"
					}
				}
			},
			"userdoc": {
				"kind": "user",
				"methods": {},
				"version": 1
			}
		}
	}
}