{
	"Q2.sol": {
		"LibrarySystem": {
			"abi": [
				{
					"inputs": [
						{
							"internalType": "string",
							"name": "_name",
							"type": "string"
						},
						{
							"internalType": "string",
							"name": "_author",
							"type": "string"
						},
						{
							"internalType": "string",
							"name": "_publisher",
							"type": "string"
						},
						{
							"internalType": "uint256",
							"name": "_price",
							"type": "uint256"
						},
						{
							"internalType": "string",
							"name": "_branch",
							"type": "string"
						}
					],
					"name": "addBook",
					"outputs": [],
					"stateMutability": "nonpayable",
					"type": "function"
				},
				{
					"inputs": [
						{
							"internalType": "uint256",
							"name": "",
							"type": "uint256"
						}
					],
					"name": "books",
					"outputs": [
						{
							"internalType": "string",
							"name": "name",
							"type": "string"
						},
						{
							"internalType": "string",
							"name": "author",
							"type": "string"
						},
						{
							"internalType": "string",
							"name": "publisher",
							"type": "string"
						},
						{
							"internalType": "uint256",
							"name": "price",
							"type": "uint256"
						},
						{
							"internalType": "string",
							"name": "branch",
							"type": "string"
						}
					],
					"stateMutability": "view",
					"type": "function"
				},
				{
					"inputs": [
						{
							"internalType": "string",
							"name": "_branch",
							"type": "string"
						}
					],
					"name": "getBooksByBranch",
					"outputs": [
						{
							"components": [
								{
									"internalType": "string",
									"name": "name",
									"type": "string"
								},
								{
									"internalType": "string",
									"name": "author",
									"type": "string"
								},
								{
									"internalType": "string",
									"name": "publisher",
									"type": "string"
								},
								{
									"internalType": "uint256",
									"name": "price",
									"type": "uint256"
								},
								{
									"internalType": "string",
									"name": "branch",
									"type": "string"
								}
							],
							"internalType": "struct LibrarySystem.Book[]",
							"name": "",
							"type": "tuple[]"
						}
					],
					"stateMutability": "view",
					"type": "function"
				},
				{
					"inputs": [
						{
							"internalType": "string",
							"name": "_publisher",
							"type": "string"
						}
					],
					"name": "getBooksByPublisher",
					"outputs": [
						{
							"components": [
								{
									"internalType": "string",
									"name": "name",
									"type": "string"
								},
								{
									"internalType": "string",
									"name": "author",
									"type": "string"
								},
								{
									"internalType": "string",
									"name": "publisher",
									"type": "string"
								},
								{
									"internalType": "uint256",
									"name": "price",
									"type": "uint256"
								},
								{
									"internalType": "string",
									"name": "branch",
									"type": "string"
								}
							],
							"internalType": "struct LibrarySystem.Book[]",
							"name": "",
							"type": "tuple[]"
						}
					],
					"stateMutability": "view",
					"type": "function"
				}
			],
			"devdoc": {
				"kind": "dev",
				"methods": {},
				"version": 1
			},
			"evm": {
				"assembly": "    /* \"Q2.sol\":60:2272  contract LibrarySystem {... */\n  mstore(0x40, 0x80)\n  callvalue\n  dup1\n  iszero\n  tag_1\n  jumpi\n  0x00\n  dup1\n  revert\ntag_1:\n  pop\n  dataSize(sub_0)\n  dup1\n  dataOffset(sub_0)\n  0x00\n  codecopy\n  0x00\n  return\nstop\n\nsub_0: assembly {\n        /* \"Q2.sol\":60:2272  contract LibrarySystem {... */\n      mstore(0x40, 0x80)\n      callvalue\n      dup1\n      iszero\n      tag_1\n      jumpi\n      0x00\n      dup1\n      revert\n    tag_1:\n      pop\n      jumpi(tag_2, lt(calldatasize, 0x04))\n      shr(0xe0, calldataload(0x00))\n      dup1\n      0x62af221f\n      eq\n      tag_3\n      jumpi\n      dup1\n      0x68744046\n      eq\n      tag_4\n      jumpi\n      dup1\n      0xbdd5b3e3\n      eq\n      tag_5\n      jumpi\n      dup1\n      0xf68baded\n      eq\n      tag_6\n      jumpi\n    tag_2:\n      0x00\n      dup1\n      revert\n        /* \"Q2.sol\":1387:2063  function getBooksByBranch(string memory _branch) public view returns (Book[] memory) {... */\n    tag_3:\n      tag_7\n      0x04\n      dup1\n      calldatasize\n      sub\n      dup2\n      add\n      swap1\n      tag_8\n      swap2\n      swap1\n      tag_9\n      jump\t// in\n    tag_8:\n      tag_10\n      jump\t// in\n    tag_7:\n      mload(0x40)\n      tag_11\n      swap2\n      swap1\n      tag_12\n      jump\t// in\n    tag_11:\n      mload(0x40)\n      dup1\n      swap2\n      sub\n      swap1\n      return\n        /* \"Q2.sol\":275:294  Book[] public books */\n    tag_4:\n      tag_13\n      0x04\n      dup1\n      calldatasize\n      sub\n      dup2\n      add\n      swap1\n      tag_14\n      swap2\n      swap1\n      tag_15\n      jump\t// in\n    tag_14:\n      tag_16\n      jump\t// in\n    tag_13:\n      mload(0x40)\n      tag_17\n      swap6\n      swap5\n      swap4\n      swap3\n      swap2\n      swap1\n      tag_18\n      jump\t// in\n    tag_17:\n      mload(0x40)\n      dup1\n      swap2\n      sub\n      swap1\n      return\n        /* \"Q2.sol\":642:1336  function getBooksByPublisher(string memory _publisher) public view returns (Book[] memory) {... */\n    tag_5:\n      tag_19\n      0x04\n      dup1\n      calldatasize\n      sub\n      dup2\n      add\n      swap1\n      tag_20\n      swap2\n      swap1\n      tag_9\n      jump\t// in\n    tag_20:\n      tag_21\n      jump\t// in\n    tag_19:\n      mload(0x40)\n      tag_22\n      swap2\n      swap1\n      tag_12\n      jump\t// in\n    tag_22:\n      mload(0x40)\n      dup1\n      swap2\n      sub\n      swap1\n      return\n        /* \"Q2.sol\":326:588  function addBook(... */\n    tag_6:\n      tag_23\n      0x04\n      dup1\n      calldatasize\n      sub\n      dup2\n      add\n      swap1\n      tag_24\n      swap2\n      swap1\n      tag_25\n      jump\t// in\n    tag_24:\n      tag_26\n      jump\t// in\n    tag_23:\n      stop\n        /* \"Q2.sol\":1387:2063  function getBooksByBranch(string memory _branch) public view returns (Book[] memory) {... */\n    tag_10:\n        /* \"Q2.sol\":1457:1470  Book[] memory */\n      0x60\n        /* \"Q2.sol\":1483:1493  uint count */\n      0x00\n        /* \"Q2.sol\":1560:1566  uint i */\n      dup1\n        /* \"Q2.sol\":1555:1709  for (uint i = 0; i < books.length; i++) {... */\n    tag_28:\n        /* \"Q2.sol\":1576:1581  books */\n      0x00\n        /* \"Q2.sol\":1576:1588  books.length */\n      dup1\n      sload\n      swap1\n      pop\n        /* \"Q2.sol\":1572:1573  i */\n      dup2\n        /* \"Q2.sol\":1572:1588  i < books.length */\n      lt\n        /* \"Q2.sol\":1555:1709  for (uint i = 0; i < books.length; i++) {... */\n      iszero\n      tag_29\n      jumpi\n        /* \"Q2.sol\":1614:1654  compareStrings(books[i].branch, _branch) */\n      tag_31\n        /* \"Q2.sol\":1629:1634  books */\n      0x00\n        /* \"Q2.sol\":1635:1636  i */\n      dup3\n        /* \"Q2.sol\":1629:1637  books[i] */\n      dup2\n      sload\n      dup2\n      lt\n      tag_32\n      jumpi\n      tag_33\n      tag_34\n      jump\t// in\n    tag_33:\n    tag_32:\n      swap1\n      0x00\n      mstore\n      keccak256(0x00, 0x20)\n      swap1\n      0x05\n      mul\n      add\n        /* \"Q2.sol\":1629:1644  books[i].branch */\n      0x04\n      add\n        /* \"Q2.sol\":1614:1654  compareStrings(books[i].branch, _branch) */\n      dup1\n      sload\n      tag_36\n      swap1\n      tag_37\n      jump\t// in\n    tag_36:\n      dup1\n      0x1f\n      add\n      0x20\n      dup1\n      swap2\n      div\n      mul\n      0x20\n      add\n      mload(0x40)\n      swap1\n      dup2\n      add\n      0x40\n      mstore\n      dup1\n      swap3\n      swap2\n      swap1\n      dup2\n      dup2\n      mstore\n      0x20\n      add\n      dup3\n      dup1\n      sload\n      tag_38\n      swap1\n      tag_37\n      jump\t// in\n    tag_38:\n      dup1\n      iszero\n      tag_39\n      jumpi\n      dup1\n      0x1f\n      lt\n      tag_40\n      jumpi\n      0x0100\n      dup1\n      dup4\n      sload\n      div\n      mul\n      dup4\n      mstore\n      swap2\n      0x20\n      add\n      swap2\n      jump(tag_39)\n    tag_40:\n      dup3\n      add\n      swap2\n      swap1\n      0x00\n      mstore\n      keccak256(0x00, 0x20)\n      swap1\n    tag_41:\n      dup2\n      sload\n      dup2\n      mstore\n      swap1\n      0x01\n      add\n      swap1\n      0x20\n      add\n      dup1\n      dup4\n      gt\n      tag_41\n      jumpi\n      dup3\n      swap1\n      sub\n      0x1f\n      and\n      dup3\n      add\n      swap2\n    tag_39:\n      pop\n      pop\n      pop\n      pop\n      pop\n        /* \"Q2.sol\":1646:1653  _branch */\n      dup6\n        /* \"Q2.sol\":1614:1628  compareStrings */\n      tag_42\n        /* \"Q2.sol\":1614:1654  compareStrings(books[i].branch, _branch) */\n      jump\t// in\n    tag_31:\n        /* \"Q2.sol\":1610:1698  if (compareStrings(books[i].branch, _branch)) {... */\n      iszero\n      tag_43\n      jumpi\n        /* \"Q2.sol\":1675:1682  count++ */\n      dup2\n      dup1\n      tag_44\n      swap1\n      tag_45\n      jump\t// in\n    tag_44:\n      swap3\n      pop\n      pop\n        /* \"Q2.sol\":1610:1698  if (compareStrings(books[i].branch, _branch)) {... */\n    tag_43:\n        /* \"Q2.sol\":1590:1593  i++ */\n      dup1\n      dup1\n      0x01\n      add\n      swap2\n      pop\n      pop\n        /* \"Q2.sol\":1555:1709  for (uint i = 0; i < books.length; i++) {... */\n      jump(tag_28)\n    tag_29:\n      pop\n        /* \"Q2.sol\":1769:1789  Book[] memory result */\n      0x00\n        /* \"Q2.sol\":1803:1808  count */\n      dup2\n        /* \"Q2.sol\":1792:1809  new Book[](count) */\n      0xffffffffffffffff\n      dup2\n      gt\n      iszero\n      tag_46\n      jumpi\n      tag_47\n      tag_48\n      jump\t// in\n    tag_47:\n    tag_46:\n      mload(0x40)\n      swap1\n      dup1\n      dup3\n      mstore\n      dup1\n      0x20\n      mul\n      0x20\n      add\n      dup3\n      add\n      0x40\n      mstore\n      dup1\n      iszero\n      tag_49\n      jumpi\n      dup2\n      0x20\n      add\n    tag_50:\n      tag_51\n      tag_52\n      jump\t// in\n    tag_51:\n      dup2\n      mstore\n      0x20\n      add\n      swap1\n      0x01\n      swap1\n      sub\n      swap1\n      dup2\n      tag_50\n      jumpi\n      swap1\n      pop\n    tag_49:\n      pop\n        /* \"Q2.sol\":1769:1809  Book[] memory result = new Book[](count) */\n      swap1\n      pop\n        /* \"Q2.sol\":1820:1826  uint j */\n      0x00\n        /* \"Q2.sol\":1846:1852  uint i */\n      dup1\n        /* \"Q2.sol\":1841:2030  for (uint i = 0; i < books.length; i++) {... */\n    tag_53:\n        /* \"Q2.sol\":1862:1867  books */\n      0x00\n        /* \"Q2.sol\":1862:1874  books.length */\n      dup1\n      sload\n      swap1\n      pop\n        /* \"Q2.sol\":1858:1859  i */\n      dup2\n        /* \"Q2.sol\":1858:1874  i < books.length */\n      lt\n        /* \"Q2.sol\":1841:2030  for (uint i = 0; i < books.length; i++) {... */\n      iszero\n      tag_54\n      jumpi\n        /* \"Q2.sol\":1900:1940  compareStrings(books[i].branch, _branch) */\n      tag_56\n        /* \"Q2.sol\":1915:1920  books */\n      0x00\n        /* \"Q2.sol\":1921:1922  i */\n      dup3\n        /* \"Q2.sol\":1915:1923  books[i] */\n      dup2\n      sload\n      dup2\n      lt\n      tag_57\n      jumpi\n      tag_58\n      tag_34\n      jump\t// in\n    tag_58:\n    tag_57:\n      swap1\n      0x00\n      mstore\n      keccak256(0x00, 0x20)\n      swap1\n      0x05\n      mul\n      add\n        /* \"Q2.sol\":1915:1930  books[i].branch */\n      0x04\n      add\n        /* \"Q2.sol\":1900:1940  compareStrings(books[i].branch, _branch) */\n      dup1\n      sload\n      tag_60\n      swap1\n      tag_37\n      jump\t// in\n    tag_60:\n      dup1\n      0x1f\n      add\n      0x20\n      dup1\n      swap2\n      div\n      mul\n      0x20\n      add\n      mload(0x40)\n      swap1\n      dup2\n      add\n      0x40\n      mstore\n      dup1\n      swap3\n      swap2\n      swap1\n      dup2\n      dup2\n      mstore\n      0x20\n      add\n      dup3\n      dup1\n      sload\n      tag_61\n      swap1\n      tag_37\n      jump\t// in\n    tag_61:\n      dup1\n      iszero\n      tag_62\n      jumpi\n      dup1\n      0x1f\n      lt\n      tag_63\n      jumpi\n      0x0100\n      dup1\n      dup4\n      sload\n      div\n      mul\n      dup4\n      mstore\n      swap2\n      0x20\n      add\n      swap2\n      jump(tag_62)\n    tag_63:\n      dup3\n      add\n      swap2\n      swap1\n      0x00\n      mstore\n      keccak256(0x00, 0x20)\n      swap1\n    tag_64:\n      dup2\n      sload\n      dup2\n      mstore\n      swap1\n      0x01\n      add\n      swap1\n      0x20\n      add\n      dup1\n      dup4\n      gt\n      tag_64\n      jumpi\n      dup3\n      swap1\n      sub\n      0x1f\n      and\n      dup3\n      add\n      swap2\n    tag_62:\n      pop\n      pop\n      pop\n      pop\n      pop\n        /* \"Q2.sol\":1932:1939  _branch */\n      dup8\n        /* \"Q2.sol\":1900:1914  compareStrings */\n      tag_42\n        /* \"Q2.sol\":1900:1940  compareStrings(books[i].branch, _branch) */\n      jump\t// in\n    tag_56:\n        /* \"Q2.sol\":1896:2019  if (compareStrings(books[i].branch, _branch)) {... */\n      iszero\n      tag_65\n      jumpi\n        /* \"Q2.sol\":1973:1978  books */\n      0x00\n        /* \"Q2.sol\":1979:1980  i */\n      dup2\n        /* \"Q2.sol\":1973:1981  books[i] */\n      dup2\n      sload\n      dup2\n      lt\n      tag_66\n      jumpi\n      tag_67\n      tag_34\n      jump\t// in\n    tag_67:\n    tag_66:\n      swap1\n      0x00\n      mstore\n      keccak256(0x00, 0x20)\n      swap1\n      0x05\n      mul\n      add\n        /* \"Q2.sol\":1961:1981  result[j] = books[i] */\n      mload(0x40)\n      dup1\n      0xa0\n      add\n      0x40\n      mstore\n      swap1\n      dup2\n      0x00\n      dup3\n      add\n      dup1\n      sload\n      tag_69\n      swap1\n      tag_37\n      jump\t// in\n    tag_69:\n      dup1\n      0x1f\n      add\n      0x20\n      dup1\n      swap2\n      div\n      mul\n      0x20\n      add\n      mload(0x40)\n      swap1\n      dup2\n      add\n      0x40\n      mstore\n      dup1\n      swap3\n      swap2\n      swap1\n      dup2\n      dup2\n      mstore\n      0x20\n      add\n      dup3\n      dup1\n      sload\n      tag_70\n      swap1\n      tag_37\n      jump\t// in\n    tag_70:\n      dup1\n      iszero\n      tag_71\n      jumpi\n      dup1\n      0x1f\n      lt\n      tag_72\n      jumpi\n      0x0100\n      dup1\n      dup4\n      sload\n      div\n      mul\n      dup4\n      mstore\n      swap2\n      0x20\n      add\n      swap2\n      jump(tag_71)\n    tag_72:\n      dup3\n      add\n      swap2\n      swap1\n      0x00\n      mstore\n      keccak256(0x00, 0x20)\n      swap1\n    tag_73:\n      dup2\n      sload\n      dup2\n      mstore\n      swap1\n      0x01\n      add\n      swap1\n      0x20\n      add\n      dup1\n      dup4\n      gt\n      tag_73\n      jumpi\n      dup3\n      swap1\n      sub\n      0x1f\n      and\n      dup3\n      add\n      swap2\n    tag_71:\n      pop\n      pop\n      pop\n      pop\n      pop\n      dup2\n      mstore\n      0x20\n      add\n      0x01\n      dup3\n      add\n      dup1\n      sload\n      tag_74\n      swap1\n      tag_37\n      jump\t// in\n    tag_74:\n      dup1\n      0x1f\n      add\n      0x20\n      dup1\n      swap2\n      div\n      mul\n      0x20\n      add\n      mload(0x40)\n      swap1\n      dup2\n      add\n      0x40\n      mstore\n      dup1\n      swap3\n      swap2\n      swap1\n      dup2\n      dup2\n      mstore\n      0x20\n      add\n      dup3\n      dup1\n      sload\n      tag_75\n      swap1\n      tag_37\n      jump\t// in\n    tag_75:\n      dup1\n      iszero\n      tag_76\n      jumpi\n      dup1\n      0x1f\n      lt\n      tag_77\n      jumpi\n      0x0100\n      dup1\n      dup4\n      sload\n      div\n      mul\n      dup4\n      mstore\n      swap2\n      0x20\n      add\n      swap2\n      jump(tag_76)\n    tag_77:\n      dup3\n      add\n      swap2\n      swap1\n      0x00\n      mstore\n      keccak256(0x00, 0x20)\n      swap1\n    tag_78:\n      dup2\n      sload\n      dup2\n      mstore\n      swap1\n      0x01\n      add\n      swap1\n      0x20\n      add\n      dup1\n      dup4\n      gt\n      tag_78\n      jumpi\n      dup3\n      swap1\n      sub\n      0x1f\n      and\n      dup3\n      add\n      swap2\n    tag_76:\n      pop\n      pop\n      pop\n      pop\n      pop\n      dup2\n      mstore\n      0x20\n      add\n      0x02\n      dup3\n      add\n      dup1\n      sload\n      tag_79\n      swap1\n      tag_37\n      jump\t// in\n    tag_79:\n      dup1\n      0x1f\n      add\n      0x20\n      dup1\n      swap2\n      div\n      mul\n      0x20\n      add\n      mload(0x40)\n      swap1\n      dup2\n      add\n      0x40\n      mstore\n      dup1\n      swap3\n      swap2\n      swap1\n      dup2\n      dup2\n      mstore\n      0x20\n      add\n      dup3\n      dup1\n      sload\n      tag_80\n      swap1\n      tag_37\n      jump\t// in\n    tag_80:\n      dup1\n      iszero\n      tag_81\n      jumpi\n      dup1\n      0x1f\n      lt\n      tag_82\n      jumpi\n      0x0100\n      dup1\n      dup4\n      sload\n      div\n      mul\n      dup4\n      mstore\n      swap2\n      0x20\n      add\n      swap2\n      jump(tag_81)\n    tag_82:\n      dup3\n      add\n      swap2\n      swap1\n      0x00\n      mstore\n      keccak256(0x00, 0x20)\n      swap1\n    tag_83:\n      dup2\n      sload\n      dup2\n      mstore\n      swap1\n      0x01\n      add\n      swap1\n      0x20\n      add\n      dup1\n      dup4\n      gt\n      tag_83\n      jumpi\n      dup3\n      swap1\n      sub\n      0x1f\n      and\n      dup3\n      add\n      swap2\n    tag_81:\n      pop\n      pop\n      pop\n      pop\n      pop\n      dup2\n      mstore\n      0x20\n      add\n      0x03\n      dup3\n      add\n      sload\n      dup2\n      mstore\n      0x20\n      add\n      0x04\n      dup3\n      add\n      dup1\n      sload\n      tag_84\n      swap1\n      tag_37\n      jump\t// in\n    tag_84:\n      dup1\n      0x1f\n      add\n      0x20\n      dup1\n      swap2\n      div\n      mul\n      0x20\n      add\n      mload(0x40)\n      swap1\n      dup2\n      add\n      0x40\n      mstore\n      dup1\n      swap3\n      swap2\n      swap1\n      dup2\n      dup2\n      mstore\n      0x20\n      add\n      dup3\n      dup1\n      sload\n      tag_85\n      swap1\n      tag_37\n      jump\t// in\n    tag_85:\n      dup1\n      iszero\n      tag_86\n      jumpi\n      dup1\n      0x1f\n      lt\n      tag_87\n      jumpi\n      0x0100\n      dup1\n      dup4\n      sload\n      div\n      mul\n      dup4\n      mstore\n      swap2\n      0x20\n      add\n      swap2\n      jump(tag_86)\n    tag_87:\n      dup3\n      add\n      swap2\n      swap1\n      0x00\n      mstore\n      keccak256(0x00, 0x20)\n      swap1\n    tag_88:\n      dup2\n      sload\n      dup2\n      mstore\n      swap1\n      0x01\n      add\n      swap1\n      0x20\n      add\n      dup1\n      dup4\n      gt\n      tag_88\n      jumpi\n      dup3\n      swap1\n      sub\n      0x1f\n      and\n      dup3\n      add\n      swap2\n    tag_86:\n      pop\n      pop\n      pop\n      pop\n      pop\n      dup2\n      mstore\n      pop\n      pop\n        /* \"Q2.sol\":1961:1967  result */\n      dup4\n        /* \"Q2.sol\":1968:1969  j */\n      dup4\n        /* \"Q2.sol\":1961:1970  result[j] */\n      dup2\n      mload\n      dup2\n      lt\n      tag_89\n      jumpi\n      tag_90\n      tag_34\n      jump\t// in\n    tag_90:\n    tag_89:\n      0x20\n      mul\n      0x20\n      add\n      add\n        /* \"Q2.sol\":1961:1981  result[j] = books[i] */\n      dup2\n      swap1\n      mstore\n      pop\n        /* \"Q2.sol\":2000:2003  j++ */\n      dup2\n      dup1\n      tag_91\n      swap1\n      tag_45\n      jump\t// in\n    tag_91:\n      swap3\n      pop\n      pop\n        /* \"Q2.sol\":1896:2019  if (compareStrings(books[i].branch, _branch)) {... */\n    tag_65:\n        /* \"Q2.sol\":1876:1879  i++ */\n      dup1\n      dup1\n      0x01\n      add\n      swap2\n      pop\n      pop\n        /* \"Q2.sol\":1841:2030  for (uint i = 0; i < books.length; i++) {... */\n      jump(tag_53)\n    tag_54:\n      pop\n        /* \"Q2.sol\":2049:2055  result */\n      dup2\n        /* \"Q2.sol\":2042:2055  return result */\n      swap4\n      pop\n      pop\n      pop\n      pop\n        /* \"Q2.sol\":1387:2063  function getBooksByBranch(string memory _branch) public view returns (Book[] memory) {... */\n      swap2\n      swap1\n      pop\n      jump\t// out\n        /* \"Q2.sol\":275:294  Book[] public books */\n    tag_16:\n      0x00\n      dup2\n      dup2\n      sload\n      dup2\n      lt\n      tag_92\n      jumpi\n      0x00\n      dup1\n      revert\n    tag_92:\n      swap1\n      0x00\n      mstore\n      keccak256(0x00, 0x20)\n      swap1\n      0x05\n      mul\n      add\n      0x00\n      swap2\n      pop\n      swap1\n      pop\n      dup1\n      0x00\n      add\n      dup1\n      sload\n      tag_94\n      swap1\n      tag_37\n      jump\t// in\n    tag_94:\n      dup1\n      0x1f\n      add\n      0x20\n      dup1\n      swap2\n      div\n      mul\n      0x20\n      add\n      mload(0x40)\n      swap1\n      dup2\n      add\n      0x40\n      mstore\n      dup1\n      swap3\n      swap2\n      swap1\n      dup2\n      dup2\n      mstore\n      0x20\n      add\n      dup3\n      dup1\n      sload\n      tag_95\n      swap1\n      tag_37\n      jump\t// in\n    tag_95:\n      dup1\n      iszero\n      tag_96\n      jumpi\n      dup1\n      0x1f\n      lt\n      tag_97\n      jumpi\n      0x0100\n      dup1\n      dup4\n      sload\n      div\n      mul\n      dup4\n      mstore\n      swap2\n      0x20\n      add\n      swap2\n      jump(tag_96)\n    tag_97:\n      dup3\n      add\n      swap2\n      swap1\n      0x00\n      mstore\n      keccak256(0x00, 0x20)\n      swap1\n    tag_98:\n      dup2\n      sload\n      dup2\n      mstore\n      swap1\n      0x01\n      add\n      swap1\n      0x20\n      add\n      dup1\n      dup4\n      gt\n      tag_98\n      jumpi\n      dup3\n      swap1\n      sub\n      0x1f\n      and\n      dup3\n      add\n      swap2\n    tag_96:\n      pop\n      pop\n      pop\n      pop\n      pop\n      swap1\n      dup1\n      0x01\n      add\n      dup1\n      sload\n      tag_99\n      swap1\n      tag_37\n      jump\t// in\n    tag_99:\n      dup1\n      0x1f\n      add\n      0x20\n      dup1\n      swap2\n      div\n      mul\n      0x20\n      add\n      mload(0x40)\n      swap1\n      dup2\n      add\n      0x40\n      mstore\n      dup1\n      swap3\n      swap2\n      swap1\n      dup2\n      dup2\n      mstore\n      0x20\n      add\n      dup3\n      dup1\n      sload\n      tag_100\n      swap1\n      tag_37\n      jump\t// in\n    tag_100:\n      dup1\n      iszero\n      tag_101\n      jumpi\n      dup1\n      0x1f\n      lt\n      tag_102\n      jumpi\n      0x0100\n      dup1\n      dup4\n      sload\n      div\n      mul\n      dup4\n      mstore\n      swap2\n      0x20\n      add\n      swap2\n      jump(tag_101)\n    tag_102:\n      dup3\n      add\n      swap2\n      swap1\n      0x00\n      mstore\n      keccak256(0x00, 0x20)\n      swap1\n    tag_103:\n      dup2\n      sload\n      dup2\n      mstore\n      swap1\n      0x01\n      add\n      swap1\n      0x20\n      add\n      dup1\n      dup4\n      gt\n      tag_103\n      jumpi\n      dup3\n      swap1\n      sub\n      0x1f\n      and\n      dup3\n      add\n      swap2\n    tag_101:\n      pop\n      pop\n      pop\n      pop\n      pop\n      swap1\n      dup1\n      0x02\n      add\n      dup1\n      sload\n      tag_104\n      swap1\n      tag_37\n      jump\t// in\n    tag_104:\n      dup1\n      0x1f\n      add\n      0x20\n      dup1\n      swap2\n      div\n      mul\n      0x20\n      add\n      mload(0x40)\n      swap1\n      dup2\n      add\n      0x40\n      mstore\n      dup1\n      swap3\n      swap2\n      swap1\n      dup2\n      dup2\n      mstore\n      0x20\n      add\n      dup3\n      dup1\n      sload\n      tag_105\n      swap1\n      tag_37\n      jump\t// in\n    tag_105:\n      dup1\n      iszero\n      tag_106\n      jumpi\n      dup1\n      0x1f\n      lt\n      tag_107\n      jumpi\n      0x0100\n      dup1\n      dup4\n      sload\n      div\n      mul\n      dup4\n      mstore\n      swap2\n      0x20\n      add\n      swap2\n      jump(tag_106)\n    tag_107:\n      dup3\n      add\n      swap2\n      swap1\n      0x00\n      mstore\n      keccak256(0x00, 0x20)\n      swap1\n    tag_108:\n      dup2\n      sload\n      dup2\n      mstore\n      swap1\n      0x01\n      add\n      swap1\n      0x20\n      add\n      dup1\n      dup4\n      gt\n      tag_108\n      jumpi\n      dup3\n      swap1\n      sub\n      0x1f\n      and\n      dup3\n      add\n      swap2\n    tag_106:\n      pop\n      pop\n      pop\n      pop\n      pop\n      swap1\n      dup1\n      0x03\n      add\n      sload\n      swap1\n      dup1\n      0x04\n      add\n      dup1\n      sload\n      tag_109\n      swap1\n      tag_37\n      jump\t// in\n    tag_109:\n      dup1\n      0x1f\n      add\n      0x20\n      dup1\n      swap2\n      div\n      mul\n      0x20\n      add\n      mload(0x40)\n      swap1\n      dup2\n      add\n      0x40\n      mstore\n      dup1\n      swap3\n      swap2\n      swap1\n      dup2\n      dup2\n      mstore\n      0x20\n      add\n      dup3\n      dup1\n      sload\n      tag_110\n      swap1\n      tag_37\n      jump\t// in\n    tag_110:\n      dup1\n      iszero\n      tag_111\n      jumpi\n      dup1\n      0x1f\n      lt\n      tag_112\n      jumpi\n      0x0100\n      dup1\n      dup4\n      sload\n      div\n      mul\n      dup4\n      mstore\n      swap2\n      0x20\n      add\n      swap2\n      jump(tag_111)\n    tag_112:\n      dup3\n      add\n      swap2\n      swap1\n      0x00\n      mstore\n      keccak256(0x00, 0x20)\n      swap1\n    tag_113:\n      dup2\n      sload\n      dup2\n      mstore\n      swap1\n      0x01\n      add\n      swap1\n      0x20\n      add\n      dup1\n      dup4\n      gt\n      tag_113\n      jumpi\n      dup3\n      swap1\n      sub\n      0x1f\n      and\n      dup3\n      add\n      swap2\n    tag_111:\n      pop\n      pop\n      pop\n      pop\n      pop\n      swap1\n      pop\n      dup6\n      jump\t// out\n        /* \"Q2.sol\":642:1336  function getBooksByPublisher(string memory _publisher) public view returns (Book[] memory) {... */\n    tag_21:\n        /* \"Q2.sol\":718:731  Book[] memory */\n      0x60\n        /* \"Q2.sol\":744:754  uint count */\n      0x00\n        /* \"Q2.sol\":821:827  uint i */\n      dup1\n        /* \"Q2.sol\":816:976  for (uint i = 0; i < books.length; i++) {... */\n    tag_115:\n        /* \"Q2.sol\":837:842  books */\n      0x00\n        /* \"Q2.sol\":837:849  books.length */\n      dup1\n      sload\n      swap1\n      pop\n        /* \"Q2.sol\":833:834  i */\n      dup2\n        /* \"Q2.sol\":833:849  i < books.length */\n      lt\n        /* \"Q2.sol\":816:976  for (uint i = 0; i < books.length; i++) {... */\n      iszero\n      tag_116\n      jumpi\n        /* \"Q2.sol\":875:921  compareStrings(books[i].publisher, _publisher) */\n      tag_118\n        /* \"Q2.sol\":890:895  books */\n      0x00\n        /* \"Q2.sol\":896:897  i */\n      dup3\n        /* \"Q2.sol\":890:898  books[i] */\n      dup2\n      sload\n      dup2\n      lt\n      tag_119\n      jumpi\n      tag_120\n      tag_34\n      jump\t// in\n    tag_120:\n    tag_119:\n      swap1\n      0x00\n      mstore\n      keccak256(0x00, 0x20)\n      swap1\n      0x05\n      mul\n      add\n        /* \"Q2.sol\":890:908  books[i].publisher */\n      0x02\n      add\n        /* \"Q2.sol\":875:921  compareStrings(books[i].publisher, _publisher) */\n      dup1\n      sload\n      tag_122\n      swap1\n      tag_37\n      jump\t// in\n    tag_122:\n      dup1\n      0x1f\n      add\n      0x20\n      dup1\n      swap2\n      div\n      mul\n      0x20\n      add\n      mload(0x40)\n      swap1\n      dup2\n      add\n      0x40\n      mstore\n      dup1\n      swap3\n      swap2\n      swap1\n      dup2\n      dup2\n      mstore\n      0x20\n      add\n      dup3\n      dup1\n      sload\n      tag_123\n      swap1\n      tag_37\n      jump\t// in\n    tag_123:\n      dup1\n      iszero\n      tag_124\n      jumpi\n      dup1\n      0x1f\n      lt\n      tag_125\n      jumpi\n      0x0100\n      dup1\n      dup4\n      sload\n      div\n      mul\n      dup4\n      mstore\n      swap2\n      0x20\n      add\n      swap2\n      jump(tag_124)\n    tag_125:\n      dup3\n      add\n      swap2\n      swap1\n      0x00\n      mstore\n      keccak256(0x00, 0x20)\n      swap1\n    tag_126:\n      dup2\n      sload\n      dup2\n      mstore\n      swap1\n      0x01\n      add\n      swap1\n      0x20\n      add\n      dup1\n      dup4\n      gt\n      tag_126\n      jumpi\n      dup3\n      swap1\n      sub\n      0x1f\n      and\n      dup3\n      add\n      swap2\n    tag_124:\n      pop\n      pop\n      pop\n      pop\n      pop\n        /* \"Q2.sol\":910:920  _publisher */\n      dup6\n        /* \"Q2.sol\":875:889  compareStrings */\n      tag_42\n        /* \"Q2.sol\":875:921  compareStrings(books[i].publisher, _publisher) */\n      jump\t// in\n    tag_118:\n        /* \"Q2.sol\":871:965  if (compareStrings(books[i].publisher, _publisher)) {... */\n      iszero\n      tag_127\n      jumpi\n        /* \"Q2.sol\":942:949  count++ */\n      dup2\n      dup1\n      tag_128\n      swap1\n      tag_45\n      jump\t// in\n    tag_128:\n      swap3\n      pop\n      pop\n        /* \"Q2.sol\":871:965  if (compareStrings(books[i].publisher, _publisher)) {... */\n    tag_127:\n        /* \"Q2.sol\":851:854  i++ */\n      dup1\n      dup1\n      0x01\n      add\n      swap2\n      pop\n      pop\n        /* \"Q2.sol\":816:976  for (uint i = 0; i < books.length; i++) {... */\n      jump(tag_115)\n    tag_116:\n      pop\n        /* \"Q2.sol\":1036:1056  Book[] memory result */\n      0x00\n        /* \"Q2.sol\":1070:1075  count */\n      dup2\n        /* \"Q2.sol\":1059:1076  new Book[](count) */\n      0xffffffffffffffff\n      dup2\n      gt\n      iszero\n      tag_129\n      jumpi\n      tag_130\n      tag_48\n      jump\t// in\n    tag_130:\n    tag_129:\n      mload(0x40)\n      swap1\n      dup1\n      dup3\n      mstore\n      dup1\n      0x20\n      mul\n      0x20\n      add\n      dup3\n      add\n      0x40\n      mstore\n      dup1\n      iszero\n      tag_131\n      jumpi\n      dup2\n      0x20\n      add\n    tag_132:\n      tag_133\n      tag_52\n      jump\t// in\n    tag_133:\n      dup2\n      mstore\n      0x20\n      add\n      swap1\n      0x01\n      swap1\n      sub\n      swap1\n      dup2\n      tag_132\n      jumpi\n      swap1\n      pop\n    tag_131:\n      pop\n        /* \"Q2.sol\":1036:1076  Book[] memory result = new Book[](count) */\n      swap1\n      pop\n        /* \"Q2.sol\":1087:1093  uint j */\n      0x00\n        /* \"Q2.sol\":1113:1119  uint i */\n      dup1\n        /* \"Q2.sol\":1108:1303  for (uint i = 0; i < books.length; i++) {... */\n    tag_134:\n        /* \"Q2.sol\":1129:1134  books */\n      0x00\n        /* \"Q2.sol\":1129:1141  books.length */\n      dup1\n      sload\n      swap1\n      pop\n        /* \"Q2.sol\":1125:1126  i */\n      dup2\n        /* \"Q2.sol\":1125:1141  i < books.length */\n      lt\n        /* \"Q2.sol\":1108:1303  for (uint i = 0; i < books.length; i++) {... */\n      iszero\n      tag_135\n      jumpi\n        /* \"Q2.sol\":1167:1213  compareStrings(books[i].publisher, _publisher) */\n      tag_137\n        /* \"Q2.sol\":1182:1187  books */\n      0x00\n        /* \"Q2.sol\":1188:1189  i */\n      dup3\n        /* \"Q2.sol\":1182:1190  books[i] */\n      dup2\n      sload\n      dup2\n      lt\n      tag_138\n      jumpi\n      tag_139\n      tag_34\n      jump\t// in\n    tag_139:\n    tag_138:\n      swap1\n      0x00\n      mstore\n      keccak256(0x00, 0x20)\n      swap1\n      0x05\n      mul\n      add\n        /* \"Q2.sol\":1182:1200  books[i].publisher */\n      0x02\n      add\n        /* \"Q2.sol\":1167:1213  compareStrings(books[i].publisher, _publisher) */\n      dup1\n      sload\n      tag_141\n      swap1\n      tag_37\n      jump\t// in\n    tag_141:\n      dup1\n      0x1f\n      add\n      0x20\n      dup1\n      swap2\n      div\n      mul\n      0x20\n      add\n      mload(0x40)\n      swap1\n      dup2\n      add\n      0x40\n      mstore\n      dup1\n      swap3\n      swap2\n      swap1\n      dup2\n      dup2\n      mstore\n      0x20\n      add\n      dup3\n      dup1\n      sload\n      tag_142\n      swap1\n      tag_37\n      jump\t// in\n    tag_142:\n      dup1\n      iszero\n      tag_143\n      jumpi\n      dup1\n      0x1f\n      lt\n      tag_144\n      jumpi\n      0x0100\n      dup1\n      dup4\n      sload\n      div\n      mul\n      dup4\n      mstore\n      swap2\n      0x20\n      add\n      swap2\n      jump(tag_143)\n    tag_144:\n      dup3\n      add\n      swap2\n      swap1\n      0x00\n      mstore\n      keccak256(0x00, 0x20)\n      swap1\n    tag_145:\n      dup2\n      sload\n      dup2\n      mstore\n      swap1\n      0x01\n      add\n      swap1\n      0x20\n      add\n      dup1\n      dup4\n      gt\n      tag_145\n      jumpi\n      dup3\n      swap1\n      sub\n      0x1f\n      and\n      dup3\n      add\n      swap2\n    tag_143:\n      pop\n      pop\n      pop\n      pop\n      pop\n        /* \"Q2.sol\":1202:1212  _publisher */\n      dup8\n        /* \"Q2.sol\":1167:1181  compareStrings */\n      tag_42\n        /* \"Q2.sol\":1167:1213  compareStrings(books[i].publisher, _publisher) */\n      jump\t// in\n    tag_137:\n        /* \"Q2.sol\":1163:1292  if (compareStrings(books[i].publisher, _publisher)) {... */\n      iszero\n      tag_146\n      jumpi\n        /* \"Q2.sol\":1246:1251  books */\n      0x00\n        /* \"Q2.sol\":1252:1253  i */\n      dup2\n        /* \"Q2.sol\":1246:1254  books[i] */\n      dup2\n      sload\n      dup2\n      lt\n      tag_147\n      jumpi\n      tag_148\n      tag_34\n      jump\t// in\n    tag_148:\n    tag_147:\n      swap1\n      0x00\n      mstore\n      keccak256(0x00, 0x20)\n      swap1\n      0x05\n      mul\n      add\n        /* \"Q2.sol\":1234:1254  result[j] = books[i] */\n      mload(0x40)\n      dup1\n      0xa0\n      add\n      0x40\n      mstore\n      swap1\n      dup2\n      0x00\n      dup3\n      add\n      dup1\n      sload\n      tag_150\n      swap1\n      tag_37\n      jump\t// in\n    tag_150:\n      dup1\n      0x1f\n      add\n      0x20\n      dup1\n      swap2\n      div\n      mul\n      0x20\n      add\n      mload(0x40)\n      swap1\n      dup2\n      add\n      0x40\n      mstore\n      dup1\n      swap3\n      swap2\n      swap1\n      dup2\n      dup2\n      mstore\n      0x20\n      add\n      dup3\n      dup1\n      sload\n      tag_151\n      swap1\n      tag_37\n      jump\t// in\n    tag_151:\n      dup1\n      iszero\n      tag_152\n      jumpi\n      dup1\n      0x1f\n      lt\n      tag_153\n      jumpi\n      0x0100\n      dup1\n      dup4\n      sload\n      div\n      mul\n      dup4\n      mstore\n      swap2\n      0x20\n      add\n      swap2\n      jump(tag_152)\n    tag_153:\n      dup3\n      add\n      swap2\n      swap1\n      0x00\n      mstore\n      keccak256(0x00, 0x20)\n      swap1\n    tag_154:\n      dup2\n      sload\n      dup2\n      mstore\n      swap1\n      0x01\n      add\n      swap1\n      0x20\n      add\n      dup1\n      dup4\n      gt\n      tag_154\n      jumpi\n      dup3\n      swap1\n      sub\n      0x1f\n      and\n      dup3\n      add\n      swap2\n    tag_152:\n      pop\n      pop\n      pop\n      pop\n      pop\n      dup2\n      mstore\n      0x20\n      add\n      0x01\n      dup3\n      add\n      dup1\n      sload\n      tag_155\n      swap1\n      tag_37\n      jump\t// in\n    tag_155:\n      dup1\n      0x1f\n      add\n      0x20\n      dup1\n      swap2\n      div\n      mul\n      0x20\n      add\n      mload(0x40)\n      swap1\n      dup2\n      add\n      0x40\n      mstore\n      dup1\n      swap3\n      swap2\n      swap1\n      dup2\n      dup2\n      mstore\n      0x20\n      add\n      dup3\n      dup1\n      sload\n      tag_156\n      swap1\n      tag_37\n      jump\t// in\n    tag_156:\n      dup1\n      iszero\n      tag_157\n      jumpi\n      dup1\n      0x1f\n      lt\n      tag_158\n      jumpi\n      0x0100\n      dup1\n      dup4\n      sload\n      div\n      mul\n      dup4\n      mstore\n      swap2\n      0x20\n      add\n      swap2\n      jump(tag_157)\n    tag_158:\n      dup3\n      add\n      swap2\n      swap1\n      0x00\n      mstore\n      keccak256(0x00, 0x20)\n      swap1\n    tag_159:\n      dup2\n      sload\n      dup2\n      mstore\n      swap1\n      0x01\n      add\n      swap1\n      0x20\n      add\n      dup1\n      dup4\n      gt\n      tag_159\n      jumpi\n      dup3\n      swap1\n      sub\n      0x1f\n      and\n      dup3\n      add\n      swap2\n    tag_157:\n      pop\n      pop\n      pop\n      pop\n      pop\n      dup2\n      mstore\n      0x20\n      add\n      0x02\n      dup3\n      add\n      dup1\n      sload\n      tag_160\n      swap1\n      tag_37\n      jump\t// in\n    tag_160:\n      dup1\n      0x1f\n      add\n      0x20\n      dup1\n      swap2\n      div\n      mul\n      0x20\n      add\n      mload(0x40)\n      swap1\n      dup2\n      add\n      0x40\n      mstore\n      dup1\n      swap3\n      swap2\n      swap1\n      dup2\n      dup2\n      mstore\n      0x20\n      add\n      dup3\n      dup1\n      sload\n      tag_161\n      swap1\n      tag_37\n      jump\t// in\n    tag_161:\n      dup1\n      iszero\n      tag_162\n      jumpi\n      dup1\n      0x1f\n      lt\n      tag_163\n      jumpi\n      0x0100\n      dup1\n      dup4\n      sload\n      div\n      mul\n      dup4\n      mstore\n      swap2\n      0x20\n      add\n      swap2\n      jump(tag_162)\n    tag_163:\n      dup3\n      add\n      swap2\n      swap1\n      0x00\n      mstore\n      keccak256(0x00, 0x20)\n      swap1\n    tag_164:\n      dup2\n      sload\n      dup2\n      mstore\n      swap1\n      0x01\n      add\n      swap1\n      0x20\n      add\n      dup1\n      dup4\n      gt\n      tag_164\n      jumpi\n      dup3\n      swap1\n      sub\n      0x1f\n      and\n      dup3\n      add\n      swap2\n    tag_162:\n      pop\n      pop\n      pop\n      pop\n      pop\n      dup2\n      mstore\n      0x20\n      add\n      0x03\n      dup3\n      add\n      sload\n      dup2\n      mstore\n      0x20\n      add\n      0x04\n      dup3\n      add\n      dup1\n      sload\n      tag_165\n      swap1\n      tag_37\n      jump\t// in\n    tag_165:\n      dup1\n      0x1f\n      add\n      0x20\n      dup1\n      swap2\n      div\n      mul\n      0x20\n      add\n      mload(0x40)\n      swap1\n      dup2\n      add\n      0x40\n      mstore\n      dup1\n      swap3\n      swap2\n      swap1\n      dup2\n      dup2\n      mstore\n      0x20\n      add\n      dup3\n      dup1\n      sload\n      tag_166\n      swap1\n      tag_37\n      jump\t// in\n    tag_166:\n      dup1\n      iszero\n      tag_167\n      jumpi\n      dup1\n      0x1f\n      lt\n      tag_168\n      jumpi\n      0x0100\n      dup1\n      dup4\n      sload\n      div\n      mul\n      dup4\n      mstore\n      swap2\n      0x20\n      add\n      swap2\n      jump(tag_167)\n    tag_168:\n      dup3\n      add\n      swap2\n      swap1\n      0x00\n      mstore\n      keccak256(0x00, 0x20)\n      swap1\n    tag_169:\n      dup2\n      sload\n      dup2\n      mstore\n      swap1\n      0x01\n      add\n      swap1\n      0x20\n      add\n      dup1\n      dup4\n      gt\n      tag_169\n      jumpi\n      dup3\n      swap1\n      sub\n      0x1f\n      and\n      dup3\n      add\n      swap2\n    tag_167:\n      pop\n      pop\n      pop\n      pop\n      pop\n      dup2\n      mstore\n      pop\n      pop\n        /* \"Q2.sol\":1234:1240  result */\n      dup4\n        /* \"Q2.sol\":1241:1242  j */\n      dup4\n        /* \"Q2.sol\":1234:1243  result[j] */\n      dup2\n      mload\n      dup2\n      lt\n      tag_170\n      jumpi\n      tag_171\n      tag_34\n      jump\t// in\n    tag_171:\n    tag_170:\n      0x20\n      mul\n      0x20\n      add\n      add\n        /* \"Q2.sol\":1234:1254  result[j] = books[i] */\n      dup2\n      swap1\n      mstore\n      pop\n        /* \"Q2.sol\":1273:1276  j++ */\n      dup2\n      dup1\n      tag_172\n      swap1\n      tag_45\n      jump\t// in\n    tag_172:\n      swap3\n      pop\n      pop\n        /* \"Q2.sol\":1163:1292  if (compareStrings(books[i].publisher, _publisher)) {... */\n    tag_146:\n        /* \"Q2.sol\":1143:1146  i++ */\n      dup1\n      dup1\n      0x01\n      add\n      swap2\n      pop\n      pop\n        /* \"Q2.sol\":1108:1303  for (uint i = 0; i < books.length; i++) {... */\n      jump(tag_134)\n    tag_135:\n      pop\n        /* \"Q2.sol\":1322:1328  result */\n      dup2\n        /* \"Q2.sol\":1315:1328  return result */\n      swap4\n      pop\n      pop\n      pop\n      pop\n        /* \"Q2.sol\":642:1336  function getBooksByPublisher(string memory _publisher) public view returns (Book[] memory) {... */\n      swap2\n      swap1\n      pop\n      jump\t// out\n        /* \"Q2.sol\":326:588  function addBook(... */\n    tag_26:\n        /* \"Q2.sol\":519:524  books */\n      0x00\n        /* \"Q2.sol\":530:579  Book(_name, _author, _publisher, _price, _branch) */\n      mload(0x40)\n      dup1\n      0xa0\n      add\n      0x40\n      mstore\n      dup1\n        /* \"Q2.sol\":535:540  _name */\n      dup8\n        /* \"Q2.sol\":530:579  Book(_name, _author, _publisher, _price, _branch) */\n      dup2\n      mstore\n      0x20\n      add\n        /* \"Q2.sol\":542:549  _author */\n      dup7\n        /* \"Q2.sol\":530:579  Book(_name, _author, _publisher, _price, _branch) */\n      dup2\n      mstore\n      0x20\n      add\n        /* \"Q2.sol\":551:561  _publisher */\n      dup6\n        /* \"Q2.sol\":530:579  Book(_name, _author, _publisher, _price, _branch) */\n      dup2\n      mstore\n      0x20\n      add\n        /* \"Q2.sol\":563:569  _price */\n      dup5\n        /* \"Q2.sol\":530:579  Book(_name, _author, _publisher, _price, _branch) */\n      dup2\n      mstore\n      0x20\n      add\n        /* \"Q2.sol\":571:578  _branch */\n      dup4\n        /* \"Q2.sol\":530:579  Book(_name, _author, _publisher, _price, _branch) */\n      dup2\n      mstore\n      pop\n        /* \"Q2.sol\":519:580  books.push(Book(_name, _author, _publisher, _price, _branch)) */\n      swap1\n      dup1\n      0x01\n      dup2\n      sload\n      add\n      dup1\n      dup3\n      sstore\n      dup1\n      swap2\n      pop\n      pop\n      0x01\n      swap1\n      sub\n      swap1\n      0x00\n      mstore\n      keccak256(0x00, 0x20)\n      swap1\n      0x05\n      mul\n      add\n      0x00\n      swap1\n      swap2\n      swap1\n      swap2\n      swap1\n      swap2\n      pop\n      0x00\n      dup3\n      add\n      mload\n      dup2\n      0x00\n      add\n      swap1\n      dup2\n      tag_175\n      swap2\n      swap1\n      tag_176\n      jump\t// in\n    tag_175:\n      pop\n      0x20\n      dup3\n      add\n      mload\n      dup2\n      0x01\n      add\n      swap1\n      dup2\n      tag_177\n      swap2\n      swap1\n      tag_176\n      jump\t// in\n    tag_177:\n      pop\n      0x40\n      dup3\n      add\n      mload\n      dup2\n      0x02\n      add\n      swap1\n      dup2\n      tag_178\n      swap2\n      swap1\n      tag_176\n      jump\t// in\n    tag_178:\n      pop\n      0x60\n      dup3\n      add\n      mload\n      dup2\n      0x03\n      add\n      sstore\n      0x80\n      dup3\n      add\n      mload\n      dup2\n      0x04\n      add\n      swap1\n      dup2\n      tag_179\n      swap2\n      swap1\n      tag_176\n      jump\t// in\n    tag_179:\n      pop\n      pop\n      pop\n        /* \"Q2.sol\":326:588  function addBook(... */\n      pop\n      pop\n      pop\n      pop\n      pop\n      jump\t// out\n        /* \"Q2.sol\":2114:2269  function compareStrings(string memory a, string memory b) internal pure returns (bool) {... */\n    tag_42:\n        /* \"Q2.sol\":2195:2199  bool */\n      0x00\n        /* \"Q2.sol\":2258:2259  b */\n      dup2\n        /* \"Q2.sol\":2242:2261  keccak256(bytes(b)) */\n      dup1\n      mload\n      swap1\n      0x20\n      add\n      keccak256\n        /* \"Q2.sol\":2235:2236  a */\n      dup4\n        /* \"Q2.sol\":2219:2238  keccak256(bytes(a)) */\n      dup1\n      mload\n      swap1\n      0x20\n      add\n      keccak256\n        /* \"Q2.sol\":2219:2261  keccak256(bytes(a)) == keccak256(bytes(b)) */\n      eq\n        /* \"Q2.sol\":2212:2261  return keccak256(bytes(a)) == keccak256(bytes(b)) */\n      swap1\n      pop\n        /* \"Q2.sol\":2114:2269  function compareStrings(string memory a, string memory b) internal pure returns (bool) {... */\n      swap3\n      swap2\n      pop\n      pop\n      jump\t// out\n    tag_52:\n      mload(0x40)\n      dup1\n      0xa0\n      add\n      0x40\n      mstore\n      dup1\n      0x60\n      dup2\n      mstore\n      0x20\n      add\n      0x60\n      dup2\n      mstore\n      0x20\n      add\n      0x60\n      dup2\n      mstore\n      0x20\n      add\n      0x00\n      dup2\n      mstore\n      0x20\n      add\n      0x60\n      dup2\n      mstore\n      pop\n      swap1\n      jump\t// out\n        /* \"#utility.yul\":7:82   */\n    tag_181:\n        /* \"#utility.yul\":40:46   */\n      0x00\n        /* \"#utility.yul\":73:75   */\n      0x40\n        /* \"#utility.yul\":67:76   */\n      mload\n        /* \"#utility.yul\":57:76   */\n      swap1\n      pop\n        /* \"#utility.yul\":7:82   */\n      swap1\n      jump\t// out\n        /* \"#utility.yul\":88:205   */\n    tag_182:\n        /* \"#utility.yul\":197:198   */\n      0x00\n        /* \"#utility.yul\":194:195   */\n      dup1\n        /* \"#utility.yul\":187:199   */\n      revert\n        /* \"#utility.yul\":211:328   */\n    tag_183:\n        /* \"#utility.yul\":320:321   */\n      0x00\n        /* \"#utility.yul\":317:318   */\n      dup1\n        /* \"#utility.yul\":310:322   */\n      revert\n        /* \"#utility.yul\":334:451   */\n    tag_184:\n        /* \"#utility.yul\":443:444   */\n      0x00\n        /* \"#utility.yul\":440:441   */\n      dup1\n        /* \"#utility.yul\":433:445   */\n      revert\n        /* \"#utility.yul\":457:574   */\n    tag_185:\n        /* \"#utility.yul\":566:567   */\n      0x00\n        /* \"#utility.yul\":563:564   */\n      dup1\n        /* \"#utility.yul\":556:568   */\n      revert\n        /* \"#utility.yul\":580:682   */\n    tag_186:\n        /* \"#utility.yul\":621:627   */\n      0x00\n        /* \"#utility.yul\":672:674   */\n      0x1f\n        /* \"#utility.yul\":668:675   */\n      not\n        /* \"#utility.yul\":663:665   */\n      0x1f\n        /* \"#utility.yul\":656:661   */\n      dup4\n        /* \"#utility.yul\":652:666   */\n      add\n        /* \"#utility.yul\":648:676   */\n      and\n        /* \"#utility.yul\":638:676   */\n      swap1\n      pop\n        /* \"#utility.yul\":580:682   */\n      swap2\n      swap1\n      pop\n      jump\t// out\n        /* \"#utility.yul\":688:868   */\n    tag_48:\n        /* \"#utility.yul\":736:813   */\n      0x4e487b7100000000000000000000000000000000000000000000000000000000\n        /* \"#utility.yul\":733:734   */\n      0x00\n        /* \"#utility.yul\":726:814   */\n      mstore\n        /* \"#utility.yul\":833:837   */\n      0x41\n        /* \"#utility.yul\":830:831   */\n      0x04\n        /* \"#utility.yul\":823:838   */\n      mstore\n        /* \"#utility.yul\":857:861   */\n      0x24\n        /* \"#utility.yul\":854:855   */\n      0x00\n        /* \"#utility.yul\":847:862   */\n      revert\n        /* \"#utility.yul\":874:1155   */\n    tag_187:\n        /* \"#utility.yul\":957:984   */\n      tag_237\n        /* \"#utility.yul\":979:983   */\n      dup3\n        /* \"#utility.yul\":957:984   */\n      tag_186\n      jump\t// in\n    tag_237:\n        /* \"#utility.yul\":949:955   */\n      dup2\n        /* \"#utility.yul\":945:985   */\n      add\n        /* \"#utility.yul\":1087:1093   */\n      dup2\n        /* \"#utility.yul\":1075:1085   */\n      dup2\n        /* \"#utility.yul\":1072:1094   */\n      lt\n        /* \"#utility.yul\":1051:1069   */\n      0xffffffffffffffff\n        /* \"#utility.yul\":1039:1049   */\n      dup3\n        /* \"#utility.yul\":1036:1070   */\n      gt\n        /* \"#utility.yul\":1033:1095   */\n      or\n        /* \"#utility.yul\":1030:1118   */\n      iszero\n      tag_238\n      jumpi\n        /* \"#utility.yul\":1098:1116   */\n      tag_239\n      tag_48\n      jump\t// in\n    tag_239:\n        /* \"#utility.yul\":1030:1118   */\n    tag_238:\n        /* \"#utility.yul\":1138:1148   */\n      dup1\n        /* \"#utility.yul\":1134:1136   */\n      0x40\n        /* \"#utility.yul\":1127:1149   */\n      mstore\n        /* \"#utility.yul\":917:1155   */\n      pop\n        /* \"#utility.yul\":874:1155   */\n      pop\n      pop\n      jump\t// out\n        /* \"#utility.yul\":1161:1290   */\n    tag_188:\n        /* \"#utility.yul\":1195:1201   */\n      0x00\n        /* \"#utility.yul\":1222:1242   */\n      tag_241\n      tag_181\n      jump\t// in\n    tag_241:\n        /* \"#utility.yul\":1212:1242   */\n      swap1\n      pop\n        /* \"#utility.yul\":1251:1284   */\n      tag_242\n        /* \"#utility.yul\":1279:1283   */\n      dup3\n        /* \"#utility.yul\":1271:1277   */\n      dup3\n        /* \"#utility.yul\":1251:1284   */\n      tag_187\n      jump\t// in\n    tag_242:\n        /* \"#utility.yul\":1161:1290   */\n      swap2\n      swap1\n      pop\n      jump\t// out\n        /* \"#utility.yul\":1296:1604   */\n    tag_189:\n        /* \"#utility.yul\":1358:1362   */\n      0x00\n        /* \"#utility.yul\":1448:1466   */\n      0xffffffffffffffff\n        /* \"#utility.yul\":1440:1446   */\n      dup3\n        /* \"#utility.yul\":1437:1467   */\n      gt\n        /* \"#utility.yul\":1434:1490   */\n      iszero\n      tag_244\n      jumpi\n        /* \"#utility.yul\":1470:1488   */\n      tag_245\n      tag_48\n      jump\t// in\n    tag_245:\n        /* \"#utility.yul\":1434:1490   */\n    tag_244:\n        /* \"#utility.yul\":1508:1537   */\n      tag_246\n        /* \"#utility.yul\":1530:1536   */\n      dup3\n        /* \"#utility.yul\":1508:1537   */\n      tag_186\n      jump\t// in\n    tag_246:\n        /* \"#utility.yul\":1500:1537   */\n      swap1\n      pop\n        /* \"#utility.yul\":1592:1596   */\n      0x20\n        /* \"#utility.yul\":1586:1590   */\n      dup2\n        /* \"#utility.yul\":1582:1597   */\n      add\n        /* \"#utility.yul\":1574:1597   */\n      swap1\n      pop\n        /* \"#utility.yul\":1296:1604   */\n      swap2\n      swap1\n      pop\n      jump\t// out\n        /* \"#utility.yul\":1610:1758   */\n    tag_190:\n        /* \"#utility.yul\":1708:1714   */\n      dup3\n        /* \"#utility.yul\":1703:1706   */\n      dup2\n        /* \"#utility.yul\":1698:1701   */\n      dup4\n        /* \"#utility.yul\":1685:1715   */\n      calldatacopy\n        /* \"#utility.yul\":1749:1750   */\n      0x00\n        /* \"#utility.yul\":1740:1746   */\n      dup4\n        /* \"#utility.yul\":1735:1738   */\n      dup4\n        /* \"#utility.yul\":1731:1747   */\n      add\n        /* \"#utility.yul\":1724:1751   */\n      mstore\n        /* \"#utility.yul\":1610:1758   */\n      pop\n      pop\n      pop\n      jump\t// out\n        /* \"#utility.yul\":1764:2189   */\n    tag_191:\n        /* \"#utility.yul\":1842:1847   */\n      0x00\n        /* \"#utility.yul\":1867:1933   */\n      tag_249\n        /* \"#utility.yul\":1883:1932   */\n      tag_250\n        /* \"#utility.yul\":1925:1931   */\n      dup5\n        /* \"#utility.yul\":1883:1932   */\n      tag_189\n      jump\t// in\n    tag_250:\n        /* \"#utility.yul\":1867:1933   */\n      tag_188\n      jump\t// in\n    tag_249:\n        /* \"#utility.yul\":1858:1933   */\n      swap1\n      pop\n        /* \"#utility.yul\":1956:1962   */\n      dup3\n        /* \"#utility.yul\":1949:1954   */\n      dup2\n        /* \"#utility.yul\":1942:1963   */\n      mstore\n        /* \"#utility.yul\":1994:1998   */\n      0x20\n        /* \"#utility.yul\":1987:1992   */\n      dup2\n        /* \"#utility.yul\":1983:1999   */\n      add\n        /* \"#utility.yul\":2032:2035   */\n      dup5\n        /* \"#utility.yul\":2023:2029   */\n      dup5\n        /* \"#utility.yul\":2018:2021   */\n      dup5\n        /* \"#utility.yul\":2014:2030   */\n      add\n        /* \"#utility.yul\":2011:2036   */\n      gt\n        /* \"#utility.yul\":2008:2120   */\n      iszero\n      tag_251\n      jumpi\n        /* \"#utility.yul\":2039:2118   */\n      tag_252\n      tag_185\n      jump\t// in\n    tag_252:\n        /* \"#utility.yul\":2008:2120   */\n    tag_251:\n        /* \"#utility.yul\":2129:2183   */\n      tag_253\n        /* \"#utility.yul\":2176:2182   */\n      dup5\n        /* \"#utility.yul\":2171:2174   */\n      dup3\n        /* \"#utility.yul\":2166:2169   */\n      dup6\n        /* \"#utility.yul\":2129:2183   */\n      tag_190\n      jump\t// in\n    tag_253:\n        /* \"#utility.yul\":1848:2189   */\n      pop\n        /* \"#utility.yul\":1764:2189   */\n      swap4\n      swap3\n      pop\n      pop\n      pop\n      jump\t// out\n        /* \"#utility.yul\":2209:2549   */\n    tag_192:\n        /* \"#utility.yul\":2265:2270   */\n      0x00\n        /* \"#utility.yul\":2314:2317   */\n      dup3\n        /* \"#utility.yul\":2307:2311   */\n      0x1f\n        /* \"#utility.yul\":2299:2305   */\n      dup4\n        /* \"#utility.yul\":2295:2312   */\n      add\n        /* \"#utility.yul\":2291:2318   */\n      slt\n        /* \"#utility.yul\":2281:2403   */\n      tag_255\n      jumpi\n        /* \"#utility.yul\":2322:2401   */\n      tag_256\n      tag_184\n      jump\t// in\n    tag_256:\n        /* \"#utility.yul\":2281:2403   */\n    tag_255:\n        /* \"#utility.yul\":2439:2445   */\n      dup2\n        /* \"#utility.yul\":2426:2446   */\n      calldataload\n        /* \"#utility.yul\":2464:2543   */\n      tag_257\n        /* \"#utility.yul\":2539:2542   */\n      dup5\n        /* \"#utility.yul\":2531:2537   */\n      dup3\n        /* \"#utility.yul\":2524:2528   */\n      0x20\n        /* \"#utility.yul\":2516:2522   */\n      dup7\n        /* \"#utility.yul\":2512:2529   */\n      add\n        /* \"#utility.yul\":2464:2543   */\n      tag_191\n      jump\t// in\n    tag_257:\n        /* \"#utility.yul\":2455:2543   */\n      swap2\n      pop\n        /* \"#utility.yul\":2271:2549   */\n      pop\n        /* \"#utility.yul\":2209:2549   */\n      swap3\n      swap2\n      pop\n      pop\n      jump\t// out\n        /* \"#utility.yul\":2555:3064   */\n    tag_9:\n        /* \"#utility.yul\":2624:2630   */\n      0x00\n        /* \"#utility.yul\":2673:2675   */\n      0x20\n        /* \"#utility.yul\":2661:2670   */\n      dup3\n        /* \"#utility.yul\":2652:2659   */\n      dup5\n        /* \"#utility.yul\":2648:2671   */\n      sub\n        /* \"#utility.yul\":2644:2676   */\n      slt\n        /* \"#utility.yul\":2641:2760   */\n      iszero\n      tag_259\n      jumpi\n        /* \"#utility.yul\":2679:2758   */\n      tag_260\n      tag_182\n      jump\t// in\n    tag_260:\n        /* \"#utility.yul\":2641:2760   */\n    tag_259:\n        /* \"#utility.yul\":2827:2828   */\n      0x00\n        /* \"#utility.yul\":2816:2825   */\n      dup3\n        /* \"#utility.yul\":2812:2829   */\n      add\n        /* \"#utility.yul\":2799:2830   */\n      calldataload\n        /* \"#utility.yul\":2857:2875   */\n      0xffffffffffffffff\n        /* \"#utility.yul\":2849:2855   */\n      dup2\n        /* \"#utility.yul\":2846:2876   */\n      gt\n        /* \"#utility.yul\":2843:2960   */\n      iszero\n      tag_261\n      jumpi\n        /* \"#utility.yul\":2879:2958   */\n      tag_262\n      tag_183\n      jump\t// in\n    tag_262:\n        /* \"#utility.yul\":2843:2960   */\n    tag_261:\n        /* \"#utility.yul\":2984:3047   */\n      tag_263\n        /* \"#utility.yul\":3039:3046   */\n      dup5\n        /* \"#utility.yul\":3030:3036   */\n      dup3\n        /* \"#utility.yul\":3019:3028   */\n      dup6\n        /* \"#utility.yul\":3015:3037   */\n      add\n        /* \"#utility.yul\":2984:3047   */\n      tag_192\n      jump\t// in\n    tag_263:\n        /* \"#utility.yul\":2974:3047   */\n      swap2\n      pop\n        /* \"#utility.yul\":2770:3057   */\n      pop\n        /* \"#utility.yul\":2555:3064   */\n      swap3\n      swap2\n      pop\n      pop\n      jump\t// out\n        /* \"#utility.yul\":3070:3204   */\n    tag_193:\n        /* \"#utility.yul\":3157:3163   */\n      0x00\n        /* \"#utility.yul\":3191:3196   */\n      dup2\n        /* \"#utility.yul\":3185:3197   */\n      mload\n        /* \"#utility.yul\":3175:3197   */\n      swap1\n      pop\n        /* \"#utility.yul\":3070:3204   */\n      swap2\n      swap1\n      pop\n      jump\t// out\n        /* \"#utility.yul\":3210:3414   */\n    tag_194:\n        /* \"#utility.yul\":3329:3340   */\n      0x00\n        /* \"#utility.yul\":3363:3369   */\n      dup3\n        /* \"#utility.yul\":3358:3361   */\n      dup3\n        /* \"#utility.yul\":3351:3370   */\n      mstore\n        /* \"#utility.yul\":3403:3407   */\n      0x20\n        /* \"#utility.yul\":3398:3401   */\n      dup3\n        /* \"#utility.yul\":3394:3408   */\n      add\n        /* \"#utility.yul\":3379:3408   */\n      swap1\n      pop\n        /* \"#utility.yul\":3210:3414   */\n      swap3\n      swap2\n      pop\n      pop\n      jump\t// out\n        /* \"#utility.yul\":3420:3572   */\n    tag_195:\n        /* \"#utility.yul\":3507:3511   */\n      0x00\n        /* \"#utility.yul\":3530:3533   */\n      dup2\n        /* \"#utility.yul\":3522:3533   */\n      swap1\n      pop\n        /* \"#utility.yul\":3560:3564   */\n      0x20\n        /* \"#utility.yul\":3555:3558   */\n      dup3\n        /* \"#utility.yul\":3551:3565   */\n      add\n        /* \"#utility.yul\":3543:3565   */\n      swap1\n      pop\n        /* \"#utility.yul\":3420:3572   */\n      swap2\n      swap1\n      pop\n      jump\t// out\n        /* \"#utility.yul\":3578:3677   */\n    tag_196:\n        /* \"#utility.yul\":3630:3636   */\n      0x00\n        /* \"#utility.yul\":3664:3669   */\n      dup2\n        /* \"#utility.yul\":3658:3670   */\n      mload\n        /* \"#utility.yul\":3648:3670   */\n      swap1\n      pop\n        /* \"#utility.yul\":3578:3677   */\n      swap2\n      swap1\n      pop\n      jump\t// out\n        /* \"#utility.yul\":3683:3842   */\n    tag_197:\n        /* \"#utility.yul\":3757:3768   */\n      0x00\n        /* \"#utility.yul\":3791:3797   */\n      dup3\n        /* \"#utility.yul\":3786:3789   */\n      dup3\n        /* \"#utility.yul\":3779:3798   */\n      mstore\n        /* \"#utility.yul\":3831:3835   */\n      0x20\n        /* \"#utility.yul\":3826:3829   */\n      dup3\n        /* \"#utility.yul\":3822:3836   */\n      add\n        /* \"#utility.yul\":3807:3836   */\n      swap1\n      pop\n        /* \"#utility.yul\":3683:3842   */\n      swap3\n      swap2\n      pop\n      pop\n      jump\t// out\n        /* \"#utility.yul\":3848:3987   */\n    tag_198:\n        /* \"#utility.yul\":3937:3943   */\n      dup3\n        /* \"#utility.yul\":3932:3935   */\n      dup2\n        /* \"#utility.yul\":3927:3930   */\n      dup4\n        /* \"#utility.yul\":3921:3944   */\n      mcopy\n        /* \"#utility.yul\":3978:3979   */\n      0x00\n        /* \"#utility.yul\":3969:3975   */\n      dup4\n        /* \"#utility.yul\":3964:3967   */\n      dup4\n        /* \"#utility.yul\":3960:3976   */\n      add\n        /* \"#utility.yul\":3953:3980   */\n      mstore\n        /* \"#utility.yul\":3848:3987   */\n      pop\n      pop\n      pop\n      jump\t// out\n        /* \"#utility.yul\":3993:4350   */\n    tag_199:\n        /* \"#utility.yul\":4071:4074   */\n      0x00\n        /* \"#utility.yul\":4099:4138   */\n      tag_271\n        /* \"#utility.yul\":4132:4137   */\n      dup3\n        /* \"#utility.yul\":4099:4138   */\n      tag_196\n      jump\t// in\n    tag_271:\n        /* \"#utility.yul\":4154:4215   */\n      tag_272\n        /* \"#utility.yul\":4208:4214   */\n      dup2\n        /* \"#utility.yul\":4203:4206   */\n      dup6\n        /* \"#utility.yul\":4154:4215   */\n      tag_197\n      jump\t// in\n    tag_272:\n        /* \"#utility.yul\":4147:4215   */\n      swap4\n      pop\n        /* \"#utility.yul\":4224:4289   */\n      tag_273\n        /* \"#utility.yul\":4282:4288   */\n      dup2\n        /* \"#utility.yul\":4277:4280   */\n      dup6\n        /* \"#utility.yul\":4270:4274   */\n      0x20\n        /* \"#utility.yul\":4263:4268   */\n      dup7\n        /* \"#utility.yul\":4259:4275   */\n      add\n        /* \"#utility.yul\":4224:4289   */\n      tag_198\n      jump\t// in\n    tag_273:\n        /* \"#utility.yul\":4314:4343   */\n      tag_274\n        /* \"#utility.yul\":4336:4342   */\n      dup2\n        /* \"#utility.yul\":4314:4343   */\n      tag_186\n      jump\t// in\n    tag_274:\n        /* \"#utility.yul\":4309:4312   */\n      dup5\n        /* \"#utility.yul\":4305:4344   */\n      add\n        /* \"#utility.yul\":4298:4344   */\n      swap2\n      pop\n        /* \"#utility.yul\":4075:4350   */\n      pop\n        /* \"#utility.yul\":3993:4350   */\n      swap3\n      swap2\n      pop\n      pop\n      jump\t// out\n        /* \"#utility.yul\":4356:4433   */\n    tag_200:\n        /* \"#utility.yul\":4393:4400   */\n      0x00\n        /* \"#utility.yul\":4422:4427   */\n      dup2\n        /* \"#utility.yul\":4411:4427   */\n      swap1\n      pop\n        /* \"#utility.yul\":4356:4433   */\n      swap2\n      swap1\n      pop\n      jump\t// out\n        /* \"#utility.yul\":4439:4547   */\n    tag_201:\n        /* \"#utility.yul\":4516:4540   */\n      tag_277\n        /* \"#utility.yul\":4534:4539   */\n      dup2\n        /* \"#utility.yul\":4516:4540   */\n      tag_200\n      jump\t// in\n    tag_277:\n        /* \"#utility.yul\":4511:4514   */\n      dup3\n        /* \"#utility.yul\":4504:4541   */\n      mstore\n        /* \"#utility.yul\":4439:4547   */\n      pop\n      pop\n      jump\t// out\n        /* \"#utility.yul\":4615:5946   */\n    tag_202:\n        /* \"#utility.yul\":4714:4717   */\n      0x00\n        /* \"#utility.yul\":4750:4754   */\n      0xa0\n        /* \"#utility.yul\":4745:4748   */\n      dup4\n        /* \"#utility.yul\":4741:4755   */\n      add\n        /* \"#utility.yul\":4837:4841   */\n      0x00\n        /* \"#utility.yul\":4830:4835   */\n      dup4\n        /* \"#utility.yul\":4826:4842   */\n      add\n        /* \"#utility.yul\":4820:4843   */\n      mload\n        /* \"#utility.yul\":4890:4893   */\n      dup5\n        /* \"#utility.yul\":4884:4888   */\n      dup3\n        /* \"#utility.yul\":4880:4894   */\n      sub\n        /* \"#utility.yul\":4873:4877   */\n      0x00\n        /* \"#utility.yul\":4868:4871   */\n      dup7\n        /* \"#utility.yul\":4864:4878   */\n      add\n        /* \"#utility.yul\":4857:4895   */\n      mstore\n        /* \"#utility.yul\":4916:4989   */\n      tag_279\n        /* \"#utility.yul\":4984:4988   */\n      dup3\n        /* \"#utility.yul\":4970:4982   */\n      dup3\n        /* \"#utility.yul\":4916:4989   */\n      tag_199\n      jump\t// in\n    tag_279:\n        /* \"#utility.yul\":4908:4989   */\n      swap2\n      pop\n        /* \"#utility.yul\":4765:5000   */\n      pop\n        /* \"#utility.yul\":5084:5088   */\n      0x20\n        /* \"#utility.yul\":5077:5082   */\n      dup4\n        /* \"#utility.yul\":5073:5089   */\n      add\n        /* \"#utility.yul\":5067:5090   */\n      mload\n        /* \"#utility.yul\":5137:5140   */\n      dup5\n        /* \"#utility.yul\":5131:5135   */\n      dup3\n        /* \"#utility.yul\":5127:5141   */\n      sub\n        /* \"#utility.yul\":5120:5124   */\n      0x20\n        /* \"#utility.yul\":5115:5118   */\n      dup7\n        /* \"#utility.yul\":5111:5125   */\n      add\n        /* \"#utility.yul\":5104:5142   */\n      mstore\n        /* \"#utility.yul\":5163:5236   */\n      tag_280\n        /* \"#utility.yul\":5231:5235   */\n      dup3\n        /* \"#utility.yul\":5217:5229   */\n      dup3\n        /* \"#utility.yul\":5163:5236   */\n      tag_199\n      jump\t// in\n    tag_280:\n        /* \"#utility.yul\":5155:5236   */\n      swap2\n      pop\n        /* \"#utility.yul\":5010:5247   */\n      pop\n        /* \"#utility.yul\":5334:5338   */\n      0x40\n        /* \"#utility.yul\":5327:5332   */\n      dup4\n        /* \"#utility.yul\":5323:5339   */\n      add\n        /* \"#utility.yul\":5317:5340   */\n      mload\n        /* \"#utility.yul\":5387:5390   */\n      dup5\n        /* \"#utility.yul\":5381:5385   */\n      dup3\n        /* \"#utility.yul\":5377:5391   */\n      sub\n        /* \"#utility.yul\":5370:5374   */\n      0x40\n        /* \"#utility.yul\":5365:5368   */\n      dup7\n        /* \"#utility.yul\":5361:5375   */\n      add\n        /* \"#utility.yul\":5354:5392   */\n      mstore\n        /* \"#utility.yul\":5413:5486   */\n      tag_281\n        /* \"#utility.yul\":5481:5485   */\n      dup3\n        /* \"#utility.yul\":5467:5479   */\n      dup3\n        /* \"#utility.yul\":5413:5486   */\n      tag_199\n      jump\t// in\n    tag_281:\n        /* \"#utility.yul\":5405:5486   */\n      swap2\n      pop\n        /* \"#utility.yul\":5257:5497   */\n      pop\n        /* \"#utility.yul\":5580:5584   */\n      0x60\n        /* \"#utility.yul\":5573:5578   */\n      dup4\n        /* \"#utility.yul\":5569:5585   */\n      add\n        /* \"#utility.yul\":5563:5586   */\n      mload\n        /* \"#utility.yul\":5599:5662   */\n      tag_282\n        /* \"#utility.yul\":5656:5660   */\n      0x60\n        /* \"#utility.yul\":5651:5654   */\n      dup7\n        /* \"#utility.yul\":5647:5661   */\n      add\n        /* \"#utility.yul\":5633:5645   */\n      dup3\n        /* \"#utility.yul\":5599:5662   */\n      tag_201\n      jump\t// in\n    tag_282:\n        /* \"#utility.yul\":5507:5672   */\n      pop\n        /* \"#utility.yul\":5756:5760   */\n      0x80\n        /* \"#utility.yul\":5749:5754   */\n      dup4\n        /* \"#utility.yul\":5745:5761   */\n      add\n        /* \"#utility.yul\":5739:5762   */\n      mload\n        /* \"#utility.yul\":5809:5812   */\n      dup5\n        /* \"#utility.yul\":5803:5807   */\n      dup3\n        /* \"#utility.yul\":5799:5813   */\n      sub\n        /* \"#utility.yul\":5792:5796   */\n      0x80\n        /* \"#utility.yul\":5787:5790   */\n      dup7\n        /* \"#utility.yul\":5783:5797   */\n      add\n        /* \"#utility.yul\":5776:5814   */\n      mstore\n        /* \"#utility.yul\":5835:5908   */\n      tag_283\n        /* \"#utility.yul\":5903:5907   */\n      dup3\n        /* \"#utility.yul\":5889:5901   */\n      dup3\n        /* \"#utility.yul\":5835:5908   */\n      tag_199\n      jump\t// in\n    tag_283:\n        /* \"#utility.yul\":5827:5908   */\n      swap2\n      pop\n        /* \"#utility.yul\":5682:5919   */\n      pop\n        /* \"#utility.yul\":5936:5940   */\n      dup1\n        /* \"#utility.yul\":5929:5940   */\n      swap2\n      pop\n        /* \"#utility.yul\":4719:5946   */\n      pop\n        /* \"#utility.yul\":4615:5946   */\n      swap3\n      swap2\n      pop\n      pop\n      jump\t// out\n        /* \"#utility.yul\":5952:6188   */\n    tag_203:\n        /* \"#utility.yul\":6061:6071   */\n      0x00\n        /* \"#utility.yul\":6096:6182   */\n      tag_285\n        /* \"#utility.yul\":6178:6181   */\n      dup4\n        /* \"#utility.yul\":6170:6176   */\n      dup4\n        /* \"#utility.yul\":6096:6182   */\n      tag_202\n      jump\t// in\n    tag_285:\n        /* \"#utility.yul\":6082:6182   */\n      swap1\n      pop\n        /* \"#utility.yul\":5952:6188   */\n      swap3\n      swap2\n      pop\n      pop\n      jump\t// out\n        /* \"#utility.yul\":6194:6327   */\n    tag_204:\n        /* \"#utility.yul\":6284:6288   */\n      0x00\n        /* \"#utility.yul\":6316:6320   */\n      0x20\n        /* \"#utility.yul\":6311:6314   */\n      dup3\n        /* \"#utility.yul\":6307:6321   */\n      add\n        /* \"#utility.yul\":6299:6321   */\n      swap1\n      pop\n        /* \"#utility.yul\":6194:6327   */\n      swap2\n      swap1\n      pop\n      jump\t// out\n        /* \"#utility.yul\":6399:7470   */\n    tag_205:\n        /* \"#utility.yul\":6558:6561   */\n      0x00\n        /* \"#utility.yul\":6587:6661   */\n      tag_288\n        /* \"#utility.yul\":6655:6660   */\n      dup3\n        /* \"#utility.yul\":6587:6661   */\n      tag_193\n      jump\t// in\n    tag_288:\n        /* \"#utility.yul\":6677:6783   */\n      tag_289\n        /* \"#utility.yul\":6776:6782   */\n      dup2\n        /* \"#utility.yul\":6771:6774   */\n      dup6\n        /* \"#utility.yul\":6677:6783   */\n      tag_194\n      jump\t// in\n    tag_289:\n        /* \"#utility.yul\":6670:6783   */\n      swap4\n      pop\n        /* \"#utility.yul\":6809:6812   */\n      dup4\n        /* \"#utility.yul\":6854:6858   */\n      0x20\n        /* \"#utility.yul\":6846:6852   */\n      dup3\n        /* \"#utility.yul\":6842:6859   */\n      mul\n        /* \"#utility.yul\":6837:6840   */\n      dup6\n        /* \"#utility.yul\":6833:6860   */\n      add\n        /* \"#utility.yul\":6884:6960   */\n      tag_290\n        /* \"#utility.yul\":6954:6959   */\n      dup6\n        /* \"#utility.yul\":6884:6960   */\n      tag_195\n      jump\t// in\n    tag_290:\n        /* \"#utility.yul\":6983:6990   */\n      dup1\n        /* \"#utility.yul\":7014:7015   */\n      0x00\n        /* \"#utility.yul\":6999:7425   */\n    tag_291:\n        /* \"#utility.yul\":7024:7030   */\n      dup6\n        /* \"#utility.yul\":7021:7022   */\n      dup2\n        /* \"#utility.yul\":7018:7031   */\n      lt\n        /* \"#utility.yul\":6999:7425   */\n      iszero\n      tag_293\n      jumpi\n        /* \"#utility.yul\":7095:7104   */\n      dup5\n        /* \"#utility.yul\":7089:7093   */\n      dup5\n        /* \"#utility.yul\":7085:7105   */\n      sub\n        /* \"#utility.yul\":7080:7083   */\n      dup10\n        /* \"#utility.yul\":7073:7106   */\n      mstore\n        /* \"#utility.yul\":7146:7152   */\n      dup2\n        /* \"#utility.yul\":7140:7153   */\n      mload\n        /* \"#utility.yul\":7174:7278   */\n      tag_294\n        /* \"#utility.yul\":7273:7277   */\n      dup6\n        /* \"#utility.yul\":7258:7271   */\n      dup3\n        /* \"#utility.yul\":7174:7278   */\n      tag_203\n      jump\t// in\n    tag_294:\n        /* \"#utility.yul\":7166:7278   */\n      swap5\n      pop\n        /* \"#utility.yul\":7301:7381   */\n      tag_295\n        /* \"#utility.yul\":7374:7380   */\n      dup4\n        /* \"#utility.yul\":7301:7381   */\n      tag_204\n      jump\t// in\n    tag_295:\n        /* \"#utility.yul\":7291:7381   */\n      swap3\n      pop\n        /* \"#utility.yul\":7410:7414   */\n      0x20\n        /* \"#utility.yul\":7405:7408   */\n      dup11\n        /* \"#utility.yul\":7401:7415   */\n      add\n        /* \"#utility.yul\":7394:7415   */\n      swap10\n      pop\n        /* \"#utility.yul\":7059:7425   */\n      pop\n        /* \"#utility.yul\":7046:7047   */\n      0x01\n        /* \"#utility.yul\":7043:7044   */\n      dup2\n        /* \"#utility.yul\":7039:7048   */\n      add\n        /* \"#utility.yul\":7034:7048   */\n      swap1\n      pop\n        /* \"#utility.yul\":6999:7425   */\n      jump(tag_291)\n    tag_293:\n        /* \"#utility.yul\":7003:7017   */\n      pop\n        /* \"#utility.yul\":7441:7445   */\n      dup3\n        /* \"#utility.yul\":7434:7445   */\n      swap8\n      pop\n        /* \"#utility.yul\":7461:7464   */\n      dup8\n        /* \"#utility.yul\":7454:7464   */\n      swap6\n      pop\n        /* \"#utility.yul\":6563:7470   */\n      pop\n      pop\n      pop\n      pop\n      pop\n        /* \"#utility.yul\":6399:7470   */\n      swap3\n      swap2\n      pop\n      pop\n      jump\t// out\n        /* \"#utility.yul\":7476:7929   */\n    tag_12:\n        /* \"#utility.yul\":7659:7663   */\n      0x00\n        /* \"#utility.yul\":7697:7699   */\n      0x20\n        /* \"#utility.yul\":7686:7695   */\n      dup3\n        /* \"#utility.yul\":7682:7700   */\n      add\n        /* \"#utility.yul\":7674:7700   */\n      swap1\n      pop\n        /* \"#utility.yul\":7746:7755   */\n      dup2\n        /* \"#utility.yul\":7740:7744   */\n      dup2\n        /* \"#utility.yul\":7736:7756   */\n      sub\n        /* \"#utility.yul\":7732:7733   */\n      0x00\n        /* \"#utility.yul\":7721:7730   */\n      dup4\n        /* \"#utility.yul\":7717:7734   */\n      add\n        /* \"#utility.yul\":7710:7757   */\n      mstore\n        /* \"#utility.yul\":7774:7922   */\n      tag_297\n        /* \"#utility.yul\":7917:7921   */\n      dup2\n        /* \"#utility.yul\":7908:7914   */\n      dup5\n        /* \"#utility.yul\":7774:7922   */\n      tag_205\n      jump\t// in\n    tag_297:\n        /* \"#utility.yul\":7766:7922   */\n      swap1\n      pop\n        /* \"#utility.yul\":7476:7929   */\n      swap3\n      swap2\n      pop\n      pop\n      jump\t// out\n        /* \"#utility.yul\":7935:8057   */\n    tag_206:\n        /* \"#utility.yul\":8008:8032   */\n      tag_299\n        /* \"#utility.yul\":8026:8031   */\n      dup2\n        /* \"#utility.yul\":8008:8032   */\n      tag_200\n      jump\t// in\n    tag_299:\n        /* \"#utility.yul\":8001:8006   */\n      dup2\n        /* \"#utility.yul\":7998:8033   */\n      eq\n        /* \"#utility.yul\":7988:8051   */\n      tag_300\n      jumpi\n        /* \"#utility.yul\":8047:8048   */\n      0x00\n        /* \"#utility.yul\":8044:8045   */\n      dup1\n        /* \"#utility.yul\":8037:8049   */\n      revert\n        /* \"#utility.yul\":7988:8051   */\n    tag_300:\n        /* \"#utility.yul\":7935:8057   */\n      pop\n      jump\t// out\n        /* \"#utility.yul\":8063:8202   */\n    tag_207:\n        /* \"#utility.yul\":8109:8114   */\n      0x00\n        /* \"#utility.yul\":8147:8153   */\n      dup2\n        /* \"#utility.yul\":8134:8154   */\n      calldataload\n        /* \"#utility.yul\":8125:8154   */\n      swap1\n      pop\n        /* \"#utility.yul\":8163:8196   */\n      tag_302\n        /* \"#utility.yul\":8190:8195   */\n      dup2\n        /* \"#utility.yul\":8163:8196   */\n      tag_206\n      jump\t// in\n    tag_302:\n        /* \"#utility.yul\":8063:8202   */\n      swap3\n      swap2\n      pop\n      pop\n      jump\t// out\n        /* \"#utility.yul\":8208:8537   */\n    tag_15:\n        /* \"#utility.yul\":8267:8273   */\n      0x00\n        /* \"#utility.yul\":8316:8318   */\n      0x20\n        /* \"#utility.yul\":8304:8313   */\n      dup3\n        /* \"#utility.yul\":8295:8302   */\n      dup5\n        /* \"#utility.yul\":8291:8314   */\n      sub\n        /* \"#utility.yul\":8287:8319   */\n      slt\n        /* \"#utility.yul\":8284:8403   */\n      iszero\n      tag_304\n      jumpi\n        /* \"#utility.yul\":8322:8401   */\n      tag_305\n      tag_182\n      jump\t// in\n    tag_305:\n        /* \"#utility.yul\":8284:8403   */\n    tag_304:\n        /* \"#utility.yul\":8442:8443   */\n      0x00\n        /* \"#utility.yul\":8467:8520   */\n      tag_306\n        /* \"#utility.yul\":8512:8519   */\n      dup5\n        /* \"#utility.yul\":8503:8509   */\n      dup3\n        /* \"#utility.yul\":8492:8501   */\n      dup6\n        /* \"#utility.yul\":8488:8510   */\n      add\n        /* \"#utility.yul\":8467:8520   */\n      tag_207\n      jump\t// in\n    tag_306:\n        /* \"#utility.yul\":8457:8520   */\n      swap2\n      pop\n        /* \"#utility.yul\":8413:8530   */\n      pop\n        /* \"#utility.yul\":8208:8537   */\n      swap3\n      swap2\n      pop\n      pop\n      jump\t// out\n        /* \"#utility.yul\":8543:8712   */\n    tag_208:\n        /* \"#utility.yul\":8627:8638   */\n      0x00\n        /* \"#utility.yul\":8661:8667   */\n      dup3\n        /* \"#utility.yul\":8656:8659   */\n      dup3\n        /* \"#utility.yul\":8649:8668   */\n      mstore\n        /* \"#utility.yul\":8701:8705   */\n      0x20\n        /* \"#utility.yul\":8696:8699   */\n      dup3\n        /* \"#utility.yul\":8692:8706   */\n      add\n        /* \"#utility.yul\":8677:8706   */\n      swap1\n      pop\n        /* \"#utility.yul\":8543:8712   */\n      swap3\n      swap2\n      pop\n      pop\n      jump\t// out\n        /* \"#utility.yul\":8718:9095   */\n    tag_209:\n        /* \"#utility.yul\":8806:8809   */\n      0x00\n        /* \"#utility.yul\":8834:8873   */\n      tag_309\n        /* \"#utility.yul\":8867:8872   */\n      dup3\n        /* \"#utility.yul\":8834:8873   */\n      tag_196\n      jump\t// in\n    tag_309:\n        /* \"#utility.yul\":8889:8960   */\n      tag_310\n        /* \"#utility.yul\":8953:8959   */\n      dup2\n        /* \"#utility.yul\":8948:8951   */\n      dup6\n        /* \"#utility.yul\":8889:8960   */\n      tag_208\n      jump\t// in\n    tag_310:\n        /* \"#utility.yul\":8882:8960   */\n      swap4\n      pop\n        /* \"#utility.yul\":8969:9034   */\n      tag_311\n        /* \"#utility.yul\":9027:9033   */\n      dup2\n        /* \"#utility.yul\":9022:9025   */\n      dup6\n        /* \"#utility.yul\":9015:9019   */\n      0x20\n        /* \"#utility.yul\":9008:9013   */\n      dup7\n        /* \"#utility.yul\":9004:9020   */\n      add\n        /* \"#utility.yul\":8969:9034   */\n      tag_198\n      jump\t// in\n    tag_311:\n        /* \"#utility.yul\":9059:9088   */\n      tag_312\n        /* \"#utility.yul\":9081:9087   */\n      dup2\n        /* \"#utility.yul\":9059:9088   */\n      tag_186\n      jump\t// in\n    tag_312:\n        /* \"#utility.yul\":9054:9057   */\n      dup5\n        /* \"#utility.yul\":9050:9089   */\n      add\n        /* \"#utility.yul\":9043:9089   */\n      swap2\n      pop\n        /* \"#utility.yul\":8810:9095   */\n      pop\n        /* \"#utility.yul\":8718:9095   */\n      swap3\n      swap2\n      pop\n      pop\n      jump\t// out\n        /* \"#utility.yul\":9101:9219   */\n    tag_210:\n        /* \"#utility.yul\":9188:9212   */\n      tag_314\n        /* \"#utility.yul\":9206:9211   */\n      dup2\n        /* \"#utility.yul\":9188:9212   */\n      tag_200\n      jump\t// in\n    tag_314:\n        /* \"#utility.yul\":9183:9186   */\n      dup3\n        /* \"#utility.yul\":9176:9213   */\n      mstore\n        /* \"#utility.yul\":9101:9219   */\n      pop\n      pop\n      jump\t// out\n        /* \"#utility.yul\":9225:10253   */\n    tag_18:\n        /* \"#utility.yul\":9510:9514   */\n      0x00\n        /* \"#utility.yul\":9548:9551   */\n      0xa0\n        /* \"#utility.yul\":9537:9546   */\n      dup3\n        /* \"#utility.yul\":9533:9552   */\n      add\n        /* \"#utility.yul\":9525:9552   */\n      swap1\n      pop\n        /* \"#utility.yul\":9598:9607   */\n      dup2\n        /* \"#utility.yul\":9592:9596   */\n      dup2\n        /* \"#utility.yul\":9588:9608   */\n      sub\n        /* \"#utility.yul\":9584:9585   */\n      0x00\n        /* \"#utility.yul\":9573:9582   */\n      dup4\n        /* \"#utility.yul\":9569:9586   */\n      add\n        /* \"#utility.yul\":9562:9609   */\n      mstore\n        /* \"#utility.yul\":9626:9704   */\n      tag_316\n        /* \"#utility.yul\":9699:9703   */\n      dup2\n        /* \"#utility.yul\":9690:9696   */\n      dup9\n        /* \"#utility.yul\":9626:9704   */\n      tag_209\n      jump\t// in\n    tag_316:\n        /* \"#utility.yul\":9618:9704   */\n      swap1\n      pop\n        /* \"#utility.yul\":9751:9760   */\n      dup2\n        /* \"#utility.yul\":9745:9749   */\n      dup2\n        /* \"#utility.yul\":9741:9761   */\n      sub\n        /* \"#utility.yul\":9736:9738   */\n      0x20\n        /* \"#utility.yul\":9725:9734   */\n      dup4\n        /* \"#utility.yul\":9721:9739   */\n      add\n        /* \"#utility.yul\":9714:9762   */\n      mstore\n        /* \"#utility.yul\":9779:9857   */\n      tag_317\n        /* \"#utility.yul\":9852:9856   */\n      dup2\n        /* \"#utility.yul\":9843:9849   */\n      dup8\n        /* \"#utility.yul\":9779:9857   */\n      tag_209\n      jump\t// in\n    tag_317:\n        /* \"#utility.yul\":9771:9857   */\n      swap1\n      pop\n        /* \"#utility.yul\":9904:9913   */\n      dup2\n        /* \"#utility.yul\":9898:9902   */\n      dup2\n        /* \"#utility.yul\":9894:9914   */\n      sub\n        /* \"#utility.yul\":9889:9891   */\n      0x40\n        /* \"#utility.yul\":9878:9887   */\n      dup4\n        /* \"#utility.yul\":9874:9892   */\n      add\n        /* \"#utility.yul\":9867:9915   */\n      mstore\n        /* \"#utility.yul\":9932:10010   */\n      tag_318\n        /* \"#utility.yul\":10005:10009   */\n      dup2\n        /* \"#utility.yul\":9996:10002   */\n      dup7\n        /* \"#utility.yul\":9932:10010   */\n      tag_209\n      jump\t// in\n    tag_318:\n        /* \"#utility.yul\":9924:10010   */\n      swap1\n      pop\n        /* \"#utility.yul\":10020:10092   */\n      tag_319\n        /* \"#utility.yul\":10088:10090   */\n      0x60\n        /* \"#utility.yul\":10077:10086   */\n      dup4\n        /* \"#utility.yul\":10073:10091   */\n      add\n        /* \"#utility.yul\":10064:10070   */\n      dup6\n        /* \"#utility.yul\":10020:10092   */\n      tag_210\n      jump\t// in\n    tag_319:\n        /* \"#utility.yul\":10140:10149   */\n      dup2\n        /* \"#utility.yul\":10134:10138   */\n      dup2\n        /* \"#utility.yul\":10130:10150   */\n      sub\n        /* \"#utility.yul\":10124:10127   */\n      0x80\n        /* \"#utility.yul\":10113:10122   */\n      dup4\n        /* \"#utility.yul\":10109:10128   */\n      add\n        /* \"#utility.yul\":10102:10151   */\n      mstore\n        /* \"#utility.yul\":10168:10246   */\n      tag_320\n        /* \"#utility.yul\":10241:10245   */\n      dup2\n        /* \"#utility.yul\":10232:10238   */\n      dup5\n        /* \"#utility.yul\":10168:10246   */\n      tag_209\n      jump\t// in\n    tag_320:\n        /* \"#utility.yul\":10160:10246   */\n      swap1\n      pop\n        /* \"#utility.yul\":9225:10253   */\n      swap7\n      swap6\n      pop\n      pop\n      pop\n      pop\n      pop\n      pop\n      jump\t// out\n        /* \"#utility.yul\":10259:11890   */\n    tag_25:\n        /* \"#utility.yul\":10394:10400   */\n      0x00\n        /* \"#utility.yul\":10402:10408   */\n      dup1\n        /* \"#utility.yul\":10410:10416   */\n      0x00\n        /* \"#utility.yul\":10418:10424   */\n      dup1\n        /* \"#utility.yul\":10426:10432   */\n      0x00\n        /* \"#utility.yul\":10475:10478   */\n      0xa0\n        /* \"#utility.yul\":10463:10472   */\n      dup7\n        /* \"#utility.yul\":10454:10461   */\n      dup9\n        /* \"#utility.yul\":10450:10473   */\n      sub\n        /* \"#utility.yul\":10446:10479   */\n      slt\n        /* \"#utility.yul\":10443:10563   */\n      iszero\n      tag_322\n      jumpi\n        /* \"#utility.yul\":10482:10561   */\n      tag_323\n      tag_182\n      jump\t// in\n    tag_323:\n        /* \"#utility.yul\":10443:10563   */\n    tag_322:\n        /* \"#utility.yul\":10630:10631   */\n      0x00\n        /* \"#utility.yul\":10619:10628   */\n      dup7\n        /* \"#utility.yul\":10615:10632   */\n      add\n        /* \"#utility.yul\":10602:10633   */\n      calldataload\n        /* \"#utility.yul\":10660:10678   */\n      0xffffffffffffffff\n        /* \"#utility.yul\":10652:10658   */\n      dup2\n        /* \"#utility.yul\":10649:10679   */\n      gt\n        /* \"#utility.yul\":10646:10763   */\n      iszero\n      tag_324\n      jumpi\n        /* \"#utility.yul\":10682:10761   */\n      tag_325\n      tag_183\n      jump\t// in\n    tag_325:\n        /* \"#utility.yul\":10646:10763   */\n    tag_324:\n        /* \"#utility.yul\":10787:10850   */\n      tag_326\n        /* \"#utility.yul\":10842:10849   */\n      dup9\n        /* \"#utility.yul\":10833:10839   */\n      dup3\n        /* \"#utility.yul\":10822:10831   */\n      dup10\n        /* \"#utility.yul\":10818:10840   */\n      add\n        /* \"#utility.yul\":10787:10850   */\n      tag_192\n      jump\t// in\n    tag_326:\n        /* \"#utility.yul\":10777:10850   */\n      swap6\n      pop\n        /* \"#utility.yul\":10573:10860   */\n      pop\n        /* \"#utility.yul\":10927:10929   */\n      0x20\n        /* \"#utility.yul\":10916:10925   */\n      dup7\n        /* \"#utility.yul\":10912:10930   */\n      add\n        /* \"#utility.yul\":10899:10931   */\n      calldataload\n        /* \"#utility.yul\":10958:10976   */\n      0xffffffffffffffff\n        /* \"#utility.yul\":10950:10956   */\n      dup2\n        /* \"#utility.yul\":10947:10977   */\n      gt\n        /* \"#utility.yul\":10944:11061   */\n      iszero\n      tag_327\n      jumpi\n        /* \"#utility.yul\":10980:11059   */\n      tag_328\n      tag_183\n      jump\t// in\n    tag_328:\n        /* \"#utility.yul\":10944:11061   */\n    tag_327:\n        /* \"#utility.yul\":11085:11148   */\n      tag_329\n        /* \"#utility.yul\":11140:11147   */\n      dup9\n        /* \"#utility.yul\":11131:11137   */\n      dup3\n        /* \"#utility.yul\":11120:11129   */\n      dup10\n        /* \"#utility.yul\":11116:11138   */\n      add\n        /* \"#utility.yul\":11085:11148   */\n      tag_192\n      jump\t// in\n    tag_329:\n        /* \"#utility.yul\":11075:11148   */\n      swap5\n      pop\n        /* \"#utility.yul\":10870:11158   */\n      pop\n        /* \"#utility.yul\":11225:11227   */\n      0x40\n        /* \"#utility.yul\":11214:11223   */\n      dup7\n        /* \"#utility.yul\":11210:11228   */\n      add\n        /* \"#utility.yul\":11197:11229   */\n      calldataload\n        /* \"#utility.yul\":11256:11274   */\n      0xffffffffffffffff\n        /* \"#utility.yul\":11248:11254   */\n      dup2\n        /* \"#utility.yul\":11245:11275   */\n      gt\n        /* \"#utility.yul\":11242:11359   */\n      iszero\n      tag_330\n      jumpi\n        /* \"#utility.yul\":11278:11357   */\n      tag_331\n      tag_183\n      jump\t// in\n    tag_331:\n        /* \"#utility.yul\":11242:11359   */\n    tag_330:\n        /* \"#utility.yul\":11383:11446   */\n      tag_332\n        /* \"#utility.yul\":11438:11445   */\n      dup9\n        /* \"#utility.yul\":11429:11435   */\n      dup3\n        /* \"#utility.yul\":11418:11427   */\n      dup10\n        /* \"#utility.yul\":11414:11436   */\n      add\n        /* \"#utility.yul\":11383:11446   */\n      tag_192\n      jump\t// in\n    tag_332:\n        /* \"#utility.yul\":11373:11446   */\n      swap4\n      pop\n        /* \"#utility.yul\":11168:11456   */\n      pop\n        /* \"#utility.yul\":11495:11497   */\n      0x60\n        /* \"#utility.yul\":11521:11574   */\n      tag_333\n        /* \"#utility.yul\":11566:11573   */\n      dup9\n        /* \"#utility.yul\":11557:11563   */\n      dup3\n        /* \"#utility.yul\":11546:11555   */\n      dup10\n        /* \"#utility.yul\":11542:11564   */\n      add\n        /* \"#utility.yul\":11521:11574   */\n      tag_207\n      jump\t// in\n    tag_333:\n        /* \"#utility.yul\":11511:11574   */\n      swap3\n      pop\n        /* \"#utility.yul\":11466:11584   */\n      pop\n        /* \"#utility.yul\":11651:11654   */\n      0x80\n        /* \"#utility.yul\":11640:11649   */\n      dup7\n        /* \"#utility.yul\":11636:11655   */\n      add\n        /* \"#utility.yul\":11623:11656   */\n      calldataload\n        /* \"#utility.yul\":11683:11701   */\n      0xffffffffffffffff\n        /* \"#utility.yul\":11675:11681   */\n      dup2\n        /* \"#utility.yul\":11672:11702   */\n      gt\n        /* \"#utility.yul\":11669:11786   */\n      iszero\n      tag_334\n      jumpi\n        /* \"#utility.yul\":11705:11784   */\n      tag_335\n      tag_183\n      jump\t// in\n    tag_335:\n        /* \"#utility.yul\":11669:11786   */\n    tag_334:\n        /* \"#utility.yul\":11810:11873   */\n      tag_336\n        /* \"#utility.yul\":11865:11872   */\n      dup9\n        /* \"#utility.yul\":11856:11862   */\n      dup3\n        /* \"#utility.yul\":11845:11854   */\n      dup10\n        /* \"#utility.yul\":11841:11863   */\n      add\n        /* \"#utility.yul\":11810:11873   */\n      tag_192\n      jump\t// in\n    tag_336:\n        /* \"#utility.yul\":11800:11873   */\n      swap2\n      pop\n        /* \"#utility.yul\":11594:11883   */\n      pop\n        /* \"#utility.yul\":10259:11890   */\n      swap3\n      swap6\n      pop\n      swap3\n      swap6\n      swap1\n      swap4\n      pop\n      jump\t// out\n        /* \"#utility.yul\":11896:12076   */\n    tag_34:\n        /* \"#utility.yul\":11944:12021   */\n      0x4e487b7100000000000000000000000000000000000000000000000000000000\n        /* \"#utility.yul\":11941:11942   */\n      0x00\n        /* \"#utility.yul\":11934:12022   */\n      mstore\n        /* \"#utility.yul\":12041:12045   */\n      0x32\n        /* \"#utility.yul\":12038:12039   */\n      0x04\n        /* \"#utility.yul\":12031:12046   */\n      mstore\n        /* \"#utility.yul\":12065:12069   */\n      0x24\n        /* \"#utility.yul\":12062:12063   */\n      0x00\n        /* \"#utility.yul\":12055:12070   */\n      revert\n        /* \"#utility.yul\":12082:12262   */\n    tag_211:\n        /* \"#utility.yul\":12130:12207   */\n      0x4e487b7100000000000000000000000000000000000000000000000000000000\n        /* \"#utility.yul\":12127:12128   */\n      0x00\n        /* \"#utility.yul\":12120:12208   */\n      mstore\n        /* \"#utility.yul\":12227:12231   */\n      0x22\n        /* \"#utility.yul\":12224:12225   */\n      0x04\n        /* \"#utility.yul\":12217:12232   */\n      mstore\n        /* \"#utility.yul\":12251:12255   */\n      0x24\n        /* \"#utility.yul\":12248:12249   */\n      0x00\n        /* \"#utility.yul\":12241:12256   */\n      revert\n        /* \"#utility.yul\":12268:12588   */\n    tag_37:\n        /* \"#utility.yul\":12312:12318   */\n      0x00\n        /* \"#utility.yul\":12349:12350   */\n      0x02\n        /* \"#utility.yul\":12343:12347   */\n      dup3\n        /* \"#utility.yul\":12339:12351   */\n      div\n        /* \"#utility.yul\":12329:12351   */\n      swap1\n      pop\n        /* \"#utility.yul\":12396:12397   */\n      0x01\n        /* \"#utility.yul\":12390:12394   */\n      dup3\n        /* \"#utility.yul\":12386:12398   */\n      and\n        /* \"#utility.yul\":12417:12435   */\n      dup1\n        /* \"#utility.yul\":12407:12488   */\n      tag_340\n      jumpi\n        /* \"#utility.yul\":12473:12477   */\n      0x7f\n        /* \"#utility.yul\":12465:12471   */\n      dup3\n        /* \"#utility.yul\":12461:12478   */\n      and\n        /* \"#utility.yul\":12451:12478   */\n      swap2\n      pop\n        /* \"#utility.yul\":12407:12488   */\n    tag_340:\n        /* \"#utility.yul\":12535:12537   */\n      0x20\n        /* \"#utility.yul\":12527:12533   */\n      dup3\n        /* \"#utility.yul\":12524:12538   */\n      lt\n        /* \"#utility.yul\":12504:12522   */\n      dup2\n        /* \"#utility.yul\":12501:12539   */\n      sub\n        /* \"#utility.yul\":12498:12582   */\n      tag_341\n      jumpi\n        /* \"#utility.yul\":12554:12572   */\n      tag_342\n      tag_211\n      jump\t// in\n    tag_342:\n        /* \"#utility.yul\":12498:12582   */\n    tag_341:\n        /* \"#utility.yul\":12319:12588   */\n      pop\n        /* \"#utility.yul\":12268:12588   */\n      swap2\n      swap1\n      pop\n      jump\t// out\n        /* \"#utility.yul\":12594:12774   */\n    tag_212:\n        /* \"#utility.yul\":12642:12719   */\n      0x4e487b7100000000000000000000000000000000000000000000000000000000\n        /* \"#utility.yul\":12639:12640   */\n      0x00\n        /* \"#utility.yul\":12632:12720   */\n      mstore\n        /* \"#utility.yul\":12739:12743   */\n      0x11\n        /* \"#utility.yul\":12736:12737   */\n      0x04\n        /* \"#utility.yul\":12729:12744   */\n      mstore\n        /* \"#utility.yul\":12763:12767   */\n      0x24\n        /* \"#utility.yul\":12760:12761   */\n      0x00\n        /* \"#utility.yul\":12753:12768   */\n      revert\n        /* \"#utility.yul\":12780:13013   */\n    tag_45:\n        /* \"#utility.yul\":12819:12822   */\n      0x00\n        /* \"#utility.yul\":12842:12866   */\n      tag_345\n        /* \"#utility.yul\":12860:12865   */\n      dup3\n        /* \"#utility.yul\":12842:12866   */\n      tag_200\n      jump\t// in\n    tag_345:\n        /* \"#utility.yul\":12833:12866   */\n      swap2\n      pop\n        /* \"#utility.yul\":12888:12954   */\n      0xffffffffffffffffffffffffffffffffffffffffffffffffffffffffffffffff\n        /* \"#utility.yul\":12881:12886   */\n      dup3\n        /* \"#utility.yul\":12878:12955   */\n      sub\n        /* \"#utility.yul\":12875:12978   */\n      tag_346\n      jumpi\n        /* \"#utility.yul\":12958:12976   */\n      tag_347\n      tag_212\n      jump\t// in\n    tag_347:\n        /* \"#utility.yul\":12875:12978   */\n    tag_346:\n        /* \"#utility.yul\":13005:13006   */\n      0x01\n        /* \"#utility.yul\":12998:13003   */\n      dup3\n        /* \"#utility.yul\":12994:13007   */\n      add\n        /* \"#utility.yul\":12987:13007   */\n      swap1\n      pop\n        /* \"#utility.yul\":12780:13013   */\n      swap2\n      swap1\n      pop\n      jump\t// out\n        /* \"#utility.yul\":13019:13160   */\n    tag_213:\n        /* \"#utility.yul\":13068:13072   */\n      0x00\n        /* \"#utility.yul\":13091:13094   */\n      dup2\n        /* \"#utility.yul\":13083:13094   */\n      swap1\n      pop\n        /* \"#utility.yul\":13114:13117   */\n      dup2\n        /* \"#utility.yul\":13111:13112   */\n      0x00\n        /* \"#utility.yul\":13104:13118   */\n      mstore\n        /* \"#utility.yul\":13148:13152   */\n      0x20\n        /* \"#utility.yul\":13145:13146   */\n      0x00\n        /* \"#utility.yul\":13135:13153   */\n      keccak256\n        /* \"#utility.yul\":13127:13153   */\n      swap1\n      pop\n        /* \"#utility.yul\":13019:13160   */\n      swap2\n      swap1\n      pop\n      jump\t// out\n        /* \"#utility.yul\":13166:13259   */\n    tag_214:\n        /* \"#utility.yul\":13203:13209   */\n      0x00\n        /* \"#utility.yul\":13250:13252   */\n      0x20\n        /* \"#utility.yul\":13245:13247   */\n      0x1f\n        /* \"#utility.yul\":13238:13243   */\n      dup4\n        /* \"#utility.yul\":13234:13248   */\n      add\n        /* \"#utility.yul\":13230:13253   */\n      div\n        /* \"#utility.yul\":13220:13253   */\n      swap1\n      pop\n        /* \"#utility.yul\":13166:13259   */\n      swap2\n      swap1\n      pop\n      jump\t// out\n        /* \"#utility.yul\":13265:13372   */\n    tag_215:\n        /* \"#utility.yul\":13309:13317   */\n      0x00\n        /* \"#utility.yul\":13359:13364   */\n      dup3\n        /* \"#utility.yul\":13353:13357   */\n      dup3\n        /* \"#utility.yul\":13349:13365   */\n      shl\n        /* \"#utility.yul\":13328:13365   */\n      swap1\n      pop\n        /* \"#utility.yul\":13265:13372   */\n      swap3\n      swap2\n      pop\n      pop\n      jump\t// out\n        /* \"#utility.yul\":13378:13771   */\n    tag_216:\n        /* \"#utility.yul\":13447:13453   */\n      0x00\n        /* \"#utility.yul\":13497:13498   */\n      0x08\n        /* \"#utility.yul\":13485:13495   */\n      dup4\n        /* \"#utility.yul\":13481:13499   */\n      mul\n        /* \"#utility.yul\":13520:13617   */\n      tag_352\n        /* \"#utility.yul\":13550:13616   */\n      0xffffffffffffffffffffffffffffffffffffffffffffffffffffffffffffffff\n        /* \"#utility.yul\":13539:13548   */\n      dup3\n        /* \"#utility.yul\":13520:13617   */\n      tag_215\n      jump\t// in\n    tag_352:\n        /* \"#utility.yul\":13638:13677   */\n      tag_353\n        /* \"#utility.yul\":13668:13676   */\n      dup7\n        /* \"#utility.yul\":13657:13666   */\n      dup4\n        /* \"#utility.yul\":13638:13677   */\n      tag_215\n      jump\t// in\n    tag_353:\n        /* \"#utility.yul\":13626:13677   */\n      swap6\n      pop\n        /* \"#utility.yul\":13710:13714   */\n      dup1\n        /* \"#utility.yul\":13706:13715   */\n      not\n        /* \"#utility.yul\":13699:13704   */\n      dup5\n        /* \"#utility.yul\":13695:13716   */\n      and\n        /* \"#utility.yul\":13686:13716   */\n      swap4\n      pop\n        /* \"#utility.yul\":13759:13763   */\n      dup1\n        /* \"#utility.yul\":13749:13757   */\n      dup7\n        /* \"#utility.yul\":13745:13764   */\n      and\n        /* \"#utility.yul\":13738:13743   */\n      dup5\n        /* \"#utility.yul\":13735:13765   */\n      or\n        /* \"#utility.yul\":13725:13765   */\n      swap3\n      pop\n        /* \"#utility.yul\":13454:13771   */\n      pop\n      pop\n        /* \"#utility.yul\":13378:13771   */\n      swap4\n      swap3\n      pop\n      pop\n      pop\n      jump\t// out\n        /* \"#utility.yul\":13777:13837   */\n    tag_217:\n        /* \"#utility.yul\":13805:13808   */\n      0x00\n        /* \"#utility.yul\":13826:13831   */\n      dup2\n        /* \"#utility.yul\":13819:13831   */\n      swap1\n      pop\n        /* \"#utility.yul\":13777:13837   */\n      swap2\n      swap1\n      pop\n      jump\t// out\n        /* \"#utility.yul\":13843:13985   */\n    tag_218:\n        /* \"#utility.yul\":13893:13902   */\n      0x00\n        /* \"#utility.yul\":13926:13979   */\n      tag_356\n        /* \"#utility.yul\":13944:13978   */\n      tag_357\n        /* \"#utility.yul\":13953:13977   */\n      tag_358\n        /* \"#utility.yul\":13971:13976   */\n      dup5\n        /* \"#utility.yul\":13953:13977   */\n      tag_200\n      jump\t// in\n    tag_358:\n        /* \"#utility.yul\":13944:13978   */\n      tag_217\n      jump\t// in\n    tag_357:\n        /* \"#utility.yul\":13926:13979   */\n      tag_200\n      jump\t// in\n    tag_356:\n        /* \"#utility.yul\":13913:13979   */\n      swap1\n      pop\n        /* \"#utility.yul\":13843:13985   */\n      swap2\n      swap1\n      pop\n      jump\t// out\n        /* \"#utility.yul\":13991:14066   */\n    tag_219:\n        /* \"#utility.yul\":14034:14037   */\n      0x00\n        /* \"#utility.yul\":14055:14060   */\n      dup2\n        /* \"#utility.yul\":14048:14060   */\n      swap1\n      pop\n        /* \"#utility.yul\":13991:14066   */\n      swap2\n      swap1\n      pop\n      jump\t// out\n        /* \"#utility.yul\":14072:14341   */\n    tag_220:\n        /* \"#utility.yul\":14182:14221   */\n      tag_361\n        /* \"#utility.yul\":14213:14220   */\n      dup4\n        /* \"#utility.yul\":14182:14221   */\n      tag_218\n      jump\t// in\n    tag_361:\n        /* \"#utility.yul\":14243:14334   */\n      tag_362\n        /* \"#utility.yul\":14292:14333   */\n      tag_363\n        /* \"#utility.yul\":14316:14332   */\n      dup3\n        /* \"#utility.yul\":14292:14333   */\n      tag_219\n      jump\t// in\n    tag_363:\n        /* \"#utility.yul\":14284:14290   */\n      dup5\n        /* \"#utility.yul\":14277:14281   */\n      dup5\n        /* \"#utility.yul\":14271:14282   */\n      sload\n        /* \"#utility.yul\":14243:14334   */\n      tag_216\n      jump\t// in\n    tag_362:\n        /* \"#utility.yul\":14237:14241   */\n      dup3\n        /* \"#utility.yul\":14230:14335   */\n      sstore\n        /* \"#utility.yul\":14148:14341   */\n      pop\n        /* \"#utility.yul\":14072:14341   */\n      pop\n      pop\n      pop\n      jump\t// out\n        /* \"#utility.yul\":14347:14420   */\n    tag_221:\n        /* \"#utility.yul\":14392:14395   */\n      0x00\n        /* \"#utility.yul\":14347:14420   */\n      swap1\n      jump\t// out\n        /* \"#utility.yul\":14426:14615   */\n    tag_222:\n        /* \"#utility.yul\":14503:14535   */\n      tag_366\n      tag_221\n      jump\t// in\n    tag_366:\n        /* \"#utility.yul\":14544:14609   */\n      tag_367\n        /* \"#utility.yul\":14602:14608   */\n      dup2\n        /* \"#utility.yul\":14594:14600   */\n      dup5\n        /* \"#utility.yul\":14588:14592   */\n      dup5\n        /* \"#utility.yul\":14544:14609   */\n      tag_220\n      jump\t// in\n    tag_367:\n        /* \"#utility.yul\":14479:14615   */\n      pop\n        /* \"#utility.yul\":14426:14615   */\n      pop\n      pop\n      jump\t// out\n        /* \"#utility.yul\":14621:14807   */\n    tag_223:\n        /* \"#utility.yul\":14681:14801   */\n    tag_369:\n        /* \"#utility.yul\":14698:14701   */\n      dup2\n        /* \"#utility.yul\":14691:14696   */\n      dup2\n        /* \"#utility.yul\":14688:14702   */\n      lt\n        /* \"#utility.yul\":14681:14801   */\n      iszero\n      tag_371\n      jumpi\n        /* \"#utility.yul\":14752:14791   */\n      tag_372\n        /* \"#utility.yul\":14789:14790   */\n      0x00\n        /* \"#utility.yul\":14782:14787   */\n      dup3\n        /* \"#utility.yul\":14752:14791   */\n      tag_222\n      jump\t// in\n    tag_372:\n        /* \"#utility.yul\":14725:14726   */\n      0x01\n        /* \"#utility.yul\":14718:14723   */\n      dup2\n        /* \"#utility.yul\":14714:14727   */\n      add\n        /* \"#utility.yul\":14705:14727   */\n      swap1\n      pop\n        /* \"#utility.yul\":14681:14801   */\n      jump(tag_369)\n    tag_371:\n        /* \"#utility.yul\":14621:14807   */\n      pop\n      pop\n      jump\t// out\n        /* \"#utility.yul\":14813:15356   */\n    tag_224:\n        /* \"#utility.yul\":14914:14916   */\n      0x1f\n        /* \"#utility.yul\":14909:14912   */\n      dup3\n        /* \"#utility.yul\":14906:14917   */\n      gt\n        /* \"#utility.yul\":14903:15349   */\n      iszero\n      tag_374\n      jumpi\n        /* \"#utility.yul\":14948:14986   */\n      tag_375\n        /* \"#utility.yul\":14980:14985   */\n      dup2\n        /* \"#utility.yul\":14948:14986   */\n      tag_213\n      jump\t// in\n    tag_375:\n        /* \"#utility.yul\":15032:15061   */\n      tag_376\n        /* \"#utility.yul\":15050:15060   */\n      dup5\n        /* \"#utility.yul\":15032:15061   */\n      tag_214\n      jump\t// in\n    tag_376:\n        /* \"#utility.yul\":15022:15030   */\n      dup2\n        /* \"#utility.yul\":15018:15062   */\n      add\n        /* \"#utility.yul\":15215:15217   */\n      0x20\n        /* \"#utility.yul\":15203:15213   */\n      dup6\n        /* \"#utility.yul\":15200:15218   */\n      lt\n        /* \"#utility.yul\":15197:15246   */\n      iszero\n      tag_377\n      jumpi\n        /* \"#utility.yul\":15236:15244   */\n      dup2\n        /* \"#utility.yul\":15221:15244   */\n      swap1\n      pop\n        /* \"#utility.yul\":15197:15246   */\n    tag_377:\n        /* \"#utility.yul\":15259:15339   */\n      tag_378\n        /* \"#utility.yul\":15315:15337   */\n      tag_379\n        /* \"#utility.yul\":15333:15336   */\n      dup6\n        /* \"#utility.yul\":15315:15337   */\n      tag_214\n      jump\t// in\n    tag_379:\n        /* \"#utility.yul\":15305:15313   */\n      dup4\n        /* \"#utility.yul\":15301:15338   */\n      add\n        /* \"#utility.yul\":15288:15299   */\n      dup3\n        /* \"#utility.yul\":15259:15339   */\n      tag_223\n      jump\t// in\n    tag_378:\n        /* \"#utility.yul\":14918:15349   */\n      pop\n      pop\n        /* \"#utility.yul\":14903:15349   */\n    tag_374:\n        /* \"#utility.yul\":14813:15356   */\n      pop\n      pop\n      pop\n      jump\t// out\n        /* \"#utility.yul\":15362:15479   */\n    tag_225:\n        /* \"#utility.yul\":15416:15424   */\n      0x00\n        /* \"#utility.yul\":15466:15471   */\n      dup3\n        /* \"#utility.yul\":15460:15464   */\n      dup3\n        /* \"#utility.yul\":15456:15472   */\n      shr\n        /* \"#utility.yul\":15435:15472   */\n      swap1\n      pop\n        /* \"#utility.yul\":15362:15479   */\n      swap3\n      swap2\n      pop\n      pop\n      jump\t// out\n        /* \"#utility.yul\":15485:15654   */\n    tag_226:\n        /* \"#utility.yul\":15529:15535   */\n      0x00\n        /* \"#utility.yul\":15562:15613   */\n      tag_382\n        /* \"#utility.yul\":15610:15611   */\n      0x00\n        /* \"#utility.yul\":15606:15612   */\n      not\n        /* \"#utility.yul\":15598:15603   */\n      dup5\n        /* \"#utility.yul\":15595:15596   */\n      0x08\n        /* \"#utility.yul\":15591:15604   */\n      mul\n        /* \"#utility.yul\":15562:15613   */\n      tag_225\n      jump\t// in\n    tag_382:\n        /* \"#utility.yul\":15558:15614   */\n      not\n        /* \"#utility.yul\":15643:15647   */\n      dup1\n        /* \"#utility.yul\":15637:15641   */\n      dup4\n        /* \"#utility.yul\":15633:15648   */\n      and\n        /* \"#utility.yul\":15623:15648   */\n      swap2\n      pop\n        /* \"#utility.yul\":15536:15654   */\n      pop\n        /* \"#utility.yul\":15485:15654   */\n      swap3\n      swap2\n      pop\n      pop\n      jump\t// out\n        /* \"#utility.yul\":15659:15954   */\n    tag_227:\n        /* \"#utility.yul\":15735:15739   */\n      0x00\n        /* \"#utility.yul\":15881:15910   */\n      tag_384\n        /* \"#utility.yul\":15906:15909   */\n      dup4\n        /* \"#utility.yul\":15900:15904   */\n      dup4\n        /* \"#utility.yul\":15881:15910   */\n      tag_226\n      jump\t// in\n    tag_384:\n        /* \"#utility.yul\":15873:15910   */\n      swap2\n      pop\n        /* \"#utility.yul\":15943:15946   */\n      dup3\n        /* \"#utility.yul\":15940:15941   */\n      0x02\n        /* \"#utility.yul\":15936:15947   */\n      mul\n        /* \"#utility.yul\":15930:15934   */\n      dup3\n        /* \"#utility.yul\":15927:15948   */\n      or\n        /* \"#utility.yul\":15919:15948   */\n      swap1\n      pop\n        /* \"#utility.yul\":15659:15954   */\n      swap3\n      swap2\n      pop\n      pop\n      jump\t// out\n        /* \"#utility.yul\":15959:17354   */\n    tag_176:\n        /* \"#utility.yul\":16076:16113   */\n      tag_386\n        /* \"#utility.yul\":16109:16112   */\n      dup3\n        /* \"#utility.yul\":16076:16113   */\n      tag_196\n      jump\t// in\n    tag_386:\n        /* \"#utility.yul\":16178:16196   */\n      0xffffffffffffffff\n        /* \"#utility.yul\":16170:16176   */\n      dup2\n        /* \"#utility.yul\":16167:16197   */\n      gt\n        /* \"#utility.yul\":16164:16220   */\n      iszero\n      tag_387\n      jumpi\n        /* \"#utility.yul\":16200:16218   */\n      tag_388\n      tag_48\n      jump\t// in\n    tag_388:\n        /* \"#utility.yul\":16164:16220   */\n    tag_387:\n        /* \"#utility.yul\":16244:16282   */\n      tag_389\n        /* \"#utility.yul\":16276:16280   */\n      dup3\n        /* \"#utility.yul\":16270:16281   */\n      sload\n        /* \"#utility.yul\":16244:16282   */\n      tag_37\n      jump\t// in\n    tag_389:\n        /* \"#utility.yul\":16329:16396   */\n      tag_390\n        /* \"#utility.yul\":16389:16395   */\n      dup3\n        /* \"#utility.yul\":16381:16387   */\n      dup3\n        /* \"#utility.yul\":16375:16379   */\n      dup6\n        /* \"#utility.yul\":16329:16396   */\n      tag_224\n      jump\t// in\n    tag_390:\n        /* \"#utility.yul\":16423:16424   */\n      0x00\n        /* \"#utility.yul\":16447:16451   */\n      0x20\n        /* \"#utility.yul\":16434:16451   */\n      swap1\n      pop\n        /* \"#utility.yul\":16479:16481   */\n      0x1f\n        /* \"#utility.yul\":16471:16477   */\n      dup4\n        /* \"#utility.yul\":16468:16482   */\n      gt\n        /* \"#utility.yul\":16496:16497   */\n      0x01\n        /* \"#utility.yul\":16491:17109   */\n      dup2\n      eq\n      tag_392\n      jumpi\n        /* \"#utility.yul\":17153:17154   */\n      0x00\n        /* \"#utility.yul\":17170:17176   */\n      dup5\n        /* \"#utility.yul\":17167:17244   */\n      iszero\n      tag_393\n      jumpi\n        /* \"#utility.yul\":17219:17228   */\n      dup3\n        /* \"#utility.yul\":17214:17217   */\n      dup8\n        /* \"#utility.yul\":17210:17229   */\n      add\n        /* \"#utility.yul\":17204:17230   */\n      mload\n        /* \"#utility.yul\":17195:17230   */\n      swap1\n      pop\n        /* \"#utility.yul\":17167:17244   */\n    tag_393:\n        /* \"#utility.yul\":17270:17337   */\n      tag_394\n        /* \"#utility.yul\":17330:17336   */\n      dup6\n        /* \"#utility.yul\":17323:17328   */\n      dup3\n        /* \"#utility.yul\":17270:17337   */\n      tag_227\n      jump\t// in\n    tag_394:\n        /* \"#utility.yul\":17264:17268   */\n      dup7\n        /* \"#utility.yul\":17257:17338   */\n      sstore\n        /* \"#utility.yul\":17126:17348   */\n      pop\n        /* \"#utility.yul\":16461:17348   */\n      jump(tag_391)\n        /* \"#utility.yul\":16491:17109   */\n    tag_392:\n        /* \"#utility.yul\":16543:16547   */\n      0x1f\n        /* \"#utility.yul\":16539:16548   */\n      not\n        /* \"#utility.yul\":16531:16537   */\n      dup5\n        /* \"#utility.yul\":16527:16549   */\n      and\n        /* \"#utility.yul\":16577:16614   */\n      tag_395\n        /* \"#utility.yul\":16609:16613   */\n      dup7\n        /* \"#utility.yul\":16577:16614   */\n      tag_213\n      jump\t// in\n    tag_395:\n        /* \"#utility.yul\":16636:16637   */\n      0x00\n        /* \"#utility.yul\":16650:16858   */\n    tag_396:\n        /* \"#utility.yul\":16664:16671   */\n      dup3\n        /* \"#utility.yul\":16661:16662   */\n      dup2\n        /* \"#utility.yul\":16658:16672   */\n      lt\n        /* \"#utility.yul\":16650:16858   */\n      iszero\n      tag_398\n      jumpi\n        /* \"#utility.yul\":16743:16752   */\n      dup5\n        /* \"#utility.yul\":16738:16741   */\n      dup10\n        /* \"#utility.yul\":16734:16753   */\n      add\n        /* \"#utility.yul\":16728:16754   */\n      mload\n        /* \"#utility.yul\":16720:16726   */\n      dup3\n        /* \"#utility.yul\":16713:16755   */\n      sstore\n        /* \"#utility.yul\":16794:16795   */\n      0x01\n        /* \"#utility.yul\":16786:16792   */\n      dup3\n        /* \"#utility.yul\":16782:16796   */\n      add\n        /* \"#utility.yul\":16772:16796   */\n      swap2\n      pop\n        /* \"#utility.yul\":16841:16843   */\n      0x20\n        /* \"#utility.yul\":16830:16839   */\n      dup6\n        /* \"#utility.yul\":16826:16844   */\n      add\n        /* \"#utility.yul\":16813:16844   */\n      swap5\n      pop\n        /* \"#utility.yul\":16687:16691   */\n      0x20\n        /* \"#utility.yul\":16684:16685   */\n      dup2\n        /* \"#utility.yul\":16680:16692   */\n      add\n        /* \"#utility.yul\":16675:16692   */\n      swap1\n      pop\n        /* \"#utility.yul\":16650:16858   */\n      jump(tag_396)\n    tag_398:\n        /* \"#utility.yul\":16886:16892   */\n      dup7\n        /* \"#utility.yul\":16877:16884   */\n      dup4\n        /* \"#utility.yul\":16874:16893   */\n      lt\n        /* \"#utility.yul\":16871:17050   */\n      iszero\n      tag_399\n      jumpi\n        /* \"#utility.yul\":16944:16953   */\n      dup5\n        /* \"#utility.yul\":16939:16942   */\n      dup10\n        /* \"#utility.yul\":16935:16954   */\n      add\n        /* \"#utility.yul\":16929:16955   */\n      mload\n        /* \"#utility.yul\":16987:17035   */\n      tag_400\n        /* \"#utility.yul\":17029:17033   */\n      0x1f\n        /* \"#utility.yul\":17021:17027   */\n      dup10\n        /* \"#utility.yul\":17017:17034   */\n      and\n        /* \"#utility.yul\":17006:17015   */\n      dup3\n        /* \"#utility.yul\":16987:17035   */\n      tag_226\n      jump\t// in\n    tag_400:\n        /* \"#utility.yul\":16979:16985   */\n      dup4\n        /* \"#utility.yul\":16972:17036   */\n      sstore\n        /* \"#utility.yul\":16894:17050   */\n      pop\n        /* \"#utility.yul\":16871:17050   */\n    tag_399:\n        /* \"#utility.yul\":17096:17097   */\n      0x01\n        /* \"#utility.yul\":17092:17093   */\n      0x02\n        /* \"#utility.yul\":17084:17090   */\n      dup9\n        /* \"#utility.yul\":17080:17094   */\n      mul\n        /* \"#utility.yul\":17076:17098   */\n      add\n        /* \"#utility.yul\":17070:17074   */\n      dup9\n        /* \"#utility.yul\":17063:17099   */\n      sstore\n        /* \"#utility.yul\":16498:17109   */\n      pop\n      pop\n      pop\n        /* \"#utility.yul\":16461:17348   */\n    tag_391:\n      pop\n        /* \"#utility.yul\":16051:17354   */\n      pop\n      pop\n      pop\n        /* \"#utility.yul\":15959:17354   */\n      pop\n      pop\n      jump\t// out\n\n    auxdata: 0xa26469706673582212204dc951dd07c040b95ac9fbc6282e503f6dbd0ff5e6098df90ba089dcf8a0a91b64736f6c634300081a0033\n}\n",
				"bytecode": {
					"linkReferences": {},
					"object": "6080604052348015600e575f80fd5b506116da8061001c5f395ff3fe608060405234801561000f575f80fd5b506004361061004a575f3560e01c806362af221f1461004e578063687440461461007e578063bdd5b3e3146100b2578063f68baded146100e2575b5f80fd5b61006860048036038101906100639190610f18565b6100fe565b604051610075919061111a565b60405180910390f35b61009860048036038101906100939190611164565b6105b9565b6040516100a99594939291906111e6565b60405180910390f35b6100cc60048036038101906100c79190610f18565b610811565b6040516100d9919061111a565b60405180910390f35b6100fc60048036038101906100f79190611253565b610ccc565b005b60605f805b5f805490508110156101e2576101c15f82815481106101255761012461133a565b5b905f5260205f209060050201600401805461013f90611394565b80601f016020809104026020016040519081016040528092919081815260200182805461016b90611394565b80156101b65780601f1061018d576101008083540402835291602001916101b6565b820191905f5260205f20905b81548152906001019060200180831161019957829003601f168201915b505050505085610d83565b156101d55781806101d1906113f1565b9250505b8080600101915050610103565b505f8167ffffffffffffffff8111156101fe576101fd610df4565b5b60405190808252806020026020018201604052801561023757816020015b610224610d9d565b81526020019060019003908161021c5790505b5090505f805b5f805490508110156105ad576102fb5f828154811061025f5761025e61133a565b5b905f5260205f209060050201600401805461027990611394565b80601f01602080910402602001604051908101604052809291908181526020018280546102a590611394565b80156102f05780601f106102c7576101008083540402835291602001916102f0565b820191905f5260205f20905b8154815290600101906020018083116102d357829003601f168201915b505050505087610d83565b156105a0575f81815481106103135761031261133a565b5b905f5260205f2090600502016040518060a00160405290815f8201805461033990611394565b80601f016020809104026020016040519081016040528092919081815260200182805461036590611394565b80156103b05780601f10610387576101008083540402835291602001916103b0565b820191905f5260205f20905b81548152906001019060200180831161039357829003601f168201915b505050505081526020016001820180546103c990611394565b80601f01602080910402602001604051908101604052809291908181526020018280546103f590611394565b80156104405780601f1061041757610100808354040283529160200191610440565b820191905f5260205f20905b81548152906001019060200180831161042357829003601f168201915b5050505050815260200160028201805461045990611394565b80601f016020809104026020016040519081016040528092919081815260200182805461048590611394565b80156104d05780601f106104a7576101008083540402835291602001916104d0565b820191905f5260205f20905b8154815290600101906020018083116104b357829003601f168201915b50505050508152602001600382015481526020016004820180546104f390611394565b80601f016020809104026020016040519081016040528092919081815260200182805461051f90611394565b801561056a5780601f106105415761010080835404028352916020019161056a565b820191905f5260205f20905b81548152906001019060200180831161054d57829003601f168201915b5050505050815250508383815181106105865761058561133a565b5b6020026020010181905250818061059c906113f1565b9250505b808060010191505061023d565b50819350505050919050565b5f81815481106105c7575f80fd5b905f5260205f2090600502015f91509050805f0180546105e690611394565b80601f016020809104026020016040519081016040528092919081815260200182805461061290611394565b801561065d5780601f106106345761010080835404028352916020019161065d565b820191905f5260205f20905b81548152906001019060200180831161064057829003601f168201915b50505050509080600101805461067290611394565b80601f016020809104026020016040519081016040528092919081815260200182805461069e90611394565b80156106e95780601f106106c0576101008083540402835291602001916106e9565b820191905f5260205f20905b8154815290600101906020018083116106cc57829003601f168201915b5050505050908060020180546106fe90611394565b80601f016020809104026020016040519081016040528092919081815260200182805461072a90611394565b80156107755780601f1061074c57610100808354040283529160200191610775565b820191905f5260205f20905b81548152906001019060200180831161075857829003601f168201915b50505050509080600301549080600401805461079090611394565b80601f01602080910402602001604051908101604052809291908181526020018280546107bc90611394565b80156108075780601f106107de57610100808354040283529160200191610807565b820191905f5260205f20905b8154815290600101906020018083116107ea57829003601f168201915b5050505050905085565b60605f805b5f805490508110156108f5576108d45f82815481106108385761083761133a565b5b905f5260205f209060050201600201805461085290611394565b80601f016020809104026020016040519081016040528092919081815260200182805461087e90611394565b80156108c95780601f106108a0576101008083540402835291602001916108c9565b820191905f5260205f20905b8154815290600101906020018083116108ac57829003601f168201915b505050505085610d83565b156108e85781806108e4906113f1565b9250505b8080600101915050610816565b505f8167ffffffffffffffff81111561091157610910610df4565b5b60405190808252806020026020018201604052801561094a57816020015b610937610d9d565b81526020019060019003908161092f5790505b5090505f805b5f80549050811015610cc057610a0e5f82815481106109725761097161133a565b5b905f5260205f209060050201600201805461098c90611394565b80601f01602080910402602001604051908101604052809291908181526020018280546109b890611394565b8015610a035780601f106109da57610100808354040283529160200191610a03565b820191905f5260205f20905b8154815290600101906020018083116109e657829003601f168201915b505050505087610d83565b15610cb3575f8181548110610a2657610a2561133a565b5b905f5260205f2090600502016040518060a00160405290815f82018054610a4c90611394565b80601f0160208091040260200160405190810160405280929190818152602001828054610a7890611394565b8015610ac35780601f10610a9a57610100808354040283529160200191610ac3565b820191905f5260205f20905b815481529060010190602001808311610aa657829003601f168201915b50505050508152602001600182018054610adc90611394565b80601f0160208091040260200160405190810160405280929190818152602001828054610b0890611394565b8015610b535780601f10610b2a57610100808354040283529160200191610b53565b820191905f5260205f20905b815481529060010190602001808311610b3657829003601f168201915b50505050508152602001600282018054610b6c90611394565b80601f0160208091040260200160405190810160405280929190818152602001828054610b9890611394565b8015610be35780601f10610bba57610100808354040283529160200191610be3565b820191905f5260205f20905b815481529060010190602001808311610bc657829003601f168201915b5050505050815260200160038201548152602001600482018054610c0690611394565b80601f0160208091040260200160405190810160405280929190818152602001828054610c3290611394565b8015610c7d5780601f10610c5457610100808354040283529160200191610c7d565b820191905f5260205f20905b815481529060010190602001808311610c6057829003601f168201915b505050505081525050838381518110610c9957610c9861133a565b5b60200260200101819052508180610caf906113f1565b9250505b8080600101915050610950565b50819350505050919050565b5f6040518060a0016040528087815260200186815260200185815260200184815260200183815250908060018154018082558091505060019003905f5260205f2090600502015f909190919091505f820151815f019081610d2d91906115d5565b506020820151816001019081610d4391906115d5565b506040820151816002019081610d5991906115d5565b50606082015181600301556080820151816004019081610d7991906115d5565b5050505050505050565b5f8180519060200120838051906020012014905092915050565b6040518060a001604052806060815260200160608152602001606081526020015f8152602001606081525090565b5f604051905090565b5f80fd5b5f80fd5b5f80fd5b5f80fd5b5f601f19601f8301169050919050565b7f4e487b71000000000000000000000000000000000000000000000000000000005f52604160045260245ffd5b610e2a82610de4565b810181811067ffffffffffffffff82111715610e4957610e48610df4565b5b80604052505050565b5f610e5b610dcb565b9050610e678282610e21565b919050565b5f67ffffffffffffffff821115610e8657610e85610df4565b5b610e8f82610de4565b9050602081019050919050565b828183375f83830152505050565b5f610ebc610eb784610e6c565b610e52565b905082815260208101848484011115610ed857610ed7610de0565b5b610ee3848285610e9c565b509392505050565b5f82601f830112610eff57610efe610ddc565b5b8135610f0f848260208601610eaa565b91505092915050565b5f60208284031215610f2d57610f2c610dd4565b5b5f82013567ffffffffffffffff811115610f4a57610f49610dd8565b5b610f5684828501610eeb565b91505092915050565b5f81519050919050565b5f82825260208201905092915050565b5f819050602082019050919050565b5f81519050919050565b5f82825260208201905092915050565b8281835e5f83830152505050565b5f610fba82610f88565b610fc48185610f92565b9350610fd4818560208601610fa2565b610fdd81610de4565b840191505092915050565b5f819050919050565b610ffa81610fe8565b82525050565b5f60a083015f8301518482035f86015261101a8282610fb0565b915050602083015184820360208601526110348282610fb0565b9150506040830151848203604086015261104e8282610fb0565b91505060608301516110636060860182610ff1565b506080830151848203608086015261107b8282610fb0565b9150508091505092915050565b5f6110938383611000565b905092915050565b5f602082019050919050565b5f6110b182610f5f565b6110bb8185610f69565b9350836020820285016110cd85610f79565b805f5b8581101561110857848403895281516110e98582611088565b94506110f48361109b565b925060208a019950506001810190506110d0565b50829750879550505050505092915050565b5f6020820190508181035f83015261113281846110a7565b905092915050565b61114381610fe8565b811461114d575f80fd5b50565b5f8135905061115e8161113a565b92915050565b5f6020828403121561117957611178610dd4565b5b5f61118684828501611150565b91505092915050565b5f82825260208201905092915050565b5f6111a982610f88565b6111b3818561118f565b93506111c3818560208601610fa2565b6111cc81610de4565b840191505092915050565b6111e081610fe8565b82525050565b5f60a0820190508181035f8301526111fe818861119f565b90508181036020830152611212818761119f565b90508181036040830152611226818661119f565b905061123560608301856111d7565b8181036080830152611247818461119f565b90509695505050505050565b5f805f805f60a0868803121561126c5761126b610dd4565b5b5f86013567ffffffffffffffff81111561128957611288610dd8565b5b61129588828901610eeb565b955050602086013567ffffffffffffffff8111156112b6576112b5610dd8565b5b6112c288828901610eeb565b945050604086013567ffffffffffffffff8111156112e3576112e2610dd8565b5b6112ef88828901610eeb565b935050606061130088828901611150565b925050608086013567ffffffffffffffff81111561132157611320610dd8565b5b61132d88828901610eeb565b9150509295509295909350565b7f4e487b71000000000000000000000000000000000000000000000000000000005f52603260045260245ffd5b7f4e487b71000000000000000000000000000000000000000000000000000000005f52602260045260245ffd5b5f60028204905060018216806113ab57607f821691505b6020821081036113be576113bd611367565b5b50919050565b7f4e487b71000000000000000000000000000000000000000000000000000000005f52601160045260245ffd5b5f6113fb82610fe8565b91507fffffffffffffffffffffffffffffffffffffffffffffffffffffffffffffffff820361142d5761142c6113c4565b5b600182019050919050565b5f819050815f5260205f209050919050565b5f6020601f8301049050919050565b5f82821b905092915050565b5f600883026114947fffffffffffffffffffffffffffffffffffffffffffffffffffffffffffffffff82611459565b61149e8683611459565b95508019841693508086168417925050509392505050565b5f819050919050565b5f6114d96114d46114cf84610fe8565b6114b6565b610fe8565b9050919050565b5f819050919050565b6114f2836114bf565b6115066114fe826114e0565b848454611465565b825550505050565b5f90565b61151a61150e565b6115258184846114e9565b505050565b5b818110156115485761153d5f82611512565b60018101905061152b565b5050565b601f82111561158d5761155e81611438565b6115678461144a565b81016020851015611576578190505b61158a6115828561144a565b83018261152a565b50505b505050565b5f82821c905092915050565b5f6115ad5f1984600802611592565b1980831691505092915050565b5f6115c5838361159e565b9150826002028217905092915050565b6115de82610f88565b67ffffffffffffffff8111156115f7576115f6610df4565b5b6116018254611394565b61160c82828561154c565b5f60209050601f83116001811461163d575f841561162b578287015190505b61163585826115ba565b86555061169c565b601f19841661164b86611438565b5f5b828110156116725784890151825560018201915060208501945060208101905061164d565b8683101561168f578489015161168b601f89168261159e565b8355505b6001600288020188555050505b50505050505056fea26469706673582212204dc951dd07c040b95ac9fbc6282e503f6dbd0ff5e6098df90ba089dcf8a0a91b64736f6c634300081a0033",
					"opcodes": "PUSH1 0x80 PUSH1 0x40 MSTORE CALLVALUE DUP1 ISZERO PUSH1 0xE JUMPI PUSH0 DUP1 REVERT JUMPDEST POP PUSH2 0x16DA DUP1 PUSH2 0x1C PUSH0 CODECOPY PUSH0 RETURN INVALID PUSH1 0x80 PUSH1 0x40 MSTORE CALLVALUE DUP1 ISZERO PUSH2 0xF JUMPI PUSH0 DUP1 REVERT JUMPDEST POP PUSH1 0x4 CALLDATASIZE LT PUSH2 0x4A JUMPI PUSH0 CALLDATALOAD PUSH1 0xE0 SHR DUP1 PUSH4 0x62AF221F EQ PUSH2 0x4E JUMPI DUP1 PUSH4 0x68744046 EQ PUSH2 0x7E JUMPI DUP1 PUSH4 0xBDD5B3E3 EQ PUSH2 0xB2 JUMPI DUP1 PUSH4 0xF68BADED EQ PUSH2 0xE2 JUMPI JUMPDEST PUSH0 DUP1 REVERT JUMPDEST PUSH2 0x68 PUSH1 0x4 DUP1 CALLDATASIZE SUB DUP2 ADD SWAP1 PUSH2 0x63 SWAP2 SWAP1 PUSH2 0xF18 JUMP JUMPDEST PUSH2 0xFE JUMP JUMPDEST PUSH1 0x40 MLOAD PUSH2 0x75 SWAP2 SWAP1 PUSH2 0x111A JUMP JUMPDEST PUSH1 0x40 MLOAD DUP1 SWAP2 SUB SWAP1 RETURN JUMPDEST PUSH2 0x98 PUSH1 0x4 DUP1 CALLDATASIZE SUB DUP2 ADD SWAP1 PUSH2 0x93 SWAP2 SWAP1 PUSH2 0x1164 JUMP JUMPDEST PUSH2 0x5B9 JUMP JUMPDEST PUSH1 0x40 MLOAD PUSH2 0xA9 SWAP6 SWAP5 SWAP4 SWAP3 SWAP2 SWAP1 PUSH2 0x11E6 JUMP JUMPDEST PUSH1 0x40 MLOAD DUP1 SWAP2 SUB SWAP1 RETURN JUMPDEST PUSH2 0xCC PUSH1 0x4 DUP1 CALLDATASIZE SUB DUP2 ADD SWAP1 PUSH2 0xC7 SWAP2 SWAP1 PUSH2 0xF18 JUMP JUMPDEST PUSH2 0x811 JUMP JUMPDEST PUSH1 0x40 MLOAD PUSH2 0xD9 SWAP2 SWAP1 PUSH2 0x111A JUMP JUMPDEST PUSH1 0x40 MLOAD DUP1 SWAP2 SUB SWAP1 RETURN JUMPDEST PUSH2 0xFC PUSH1 0x4 DUP1 CALLDATASIZE SUB DUP2 ADD SWAP1 PUSH2 0xF7 SWAP2 SWAP1 PUSH2 0x1253 JUMP JUMPDEST PUSH2 0xCCC JUMP JUMPDEST STOP JUMPDEST PUSH1 0x60 PUSH0 DUP1 JUMPDEST PUSH0 DUP1 SLOAD SWAP1 POP DUP2 LT ISZERO PUSH2 0x1E2 JUMPI PUSH2 0x1C1 PUSH0 DUP3 DUP2 SLOAD DUP2 LT PUSH2 0x125 JUMPI PUSH2 0x124 PUSH2 0x133A JUMP JUMPDEST JUMPDEST SWAP1 PUSH0 MSTORE PUSH1 0x20 PUSH0 KECCAK256 SWAP1 PUSH1 0x5 MUL ADD PUSH1 0x4 ADD DUP1 SLOAD PUSH2 0x13F SWAP1 PUSH2 0x1394 JUMP JUMPDEST DUP1 PUSH1 0x1F ADD PUSH1 0x20 DUP1 SWAP2 DIV MUL PUSH1 0x20 ADD PUSH1 0x40 MLOAD SWAP1 DUP2 ADD PUSH1 0x40 MSTORE DUP1 SWAP3 SWAP2 SWAP1 DUP2 DUP2 MSTORE PUSH1 0x20 ADD DUP3 DUP1 SLOAD PUSH2 0x16B SWAP1 PUSH2 0x1394 JUMP JUMPDEST DUP1 ISZERO PUSH2 0x1B6 JUMPI DUP1 PUSH1 0x1F LT PUSH2 0x18D JUMPI PUSH2 0x100 DUP1 DUP4 SLOAD DIV MUL DUP4 MSTORE SWAP2 PUSH1 0x20 ADD SWAP2 PUSH2 0x1B6 JUMP JUMPDEST DUP3 ADD SWAP2 SWAP1 PUSH0 MSTORE PUSH1 0x20 PUSH0 KECCAK256 SWAP1 JUMPDEST DUP2 SLOAD DUP2 MSTORE SWAP1 PUSH1 0x1 ADD SWAP1 PUSH1 0x20 ADD DUP1 DUP4 GT PUSH2 0x199 JUMPI DUP3 SWAP1 SUB PUSH1 0x1F AND DUP3 ADD SWAP2 JUMPDEST POP POP POP POP POP DUP6 PUSH2 0xD83 JUMP JUMPDEST ISZERO PUSH2 0x1D5 JUMPI DUP2 DUP1 PUSH2 0x1D1 SWAP1 PUSH2 0x13F1 JUMP JUMPDEST SWAP3 POP POP JUMPDEST DUP1 DUP1 PUSH1 0x1 ADD SWAP2 POP POP PUSH2 0x103 JUMP JUMPDEST POP PUSH0 DUP2 PUSH8 0xFFFFFFFFFFFFFFFF DUP2 GT ISZERO PUSH2 0x1FE JUMPI PUSH2 0x1FD PUSH2 0xDF4 JUMP JUMPDEST JUMPDEST PUSH1 0x40 MLOAD SWAP1 DUP1 DUP3 MSTORE DUP1 PUSH1 0x20 MUL PUSH1 0x20 ADD DUP3 ADD PUSH1 0x40 MSTORE DUP1 ISZERO PUSH2 0x237 JUMPI DUP2 PUSH1 0x20 ADD JUMPDEST PUSH2 0x224 PUSH2 0xD9D JUMP JUMPDEST DUP2 MSTORE PUSH1 0x20 ADD SWAP1 PUSH1 0x1 SWAP1 SUB SWAP1 DUP2 PUSH2 0x21C JUMPI SWAP1 POP JUMPDEST POP SWAP1 POP PUSH0 DUP1 JUMPDEST PUSH0 DUP1 SLOAD SWAP1 POP DUP2 LT ISZERO PUSH2 0x5AD JUMPI PUSH2 0x2FB PUSH0 DUP3 DUP2 SLOAD DUP2 LT PUSH2 0x25F JUMPI PUSH2 0x25E PUSH2 0x133A JUMP JUMPDEST JUMPDEST SWAP1 PUSH0 MSTORE PUSH1 0x20 PUSH0 KECCAK256 SWAP1 PUSH1 0x5 MUL ADD PUSH1 0x4 ADD DUP1 SLOAD PUSH2 0x279 SWAP1 PUSH2 0x1394 JUMP JUMPDEST DUP1 PUSH1 0x1F ADD PUSH1 0x20 DUP1 SWAP2 DIV MUL PUSH1 0x20 ADD PUSH1 0x40 MLOAD SWAP1 DUP2 ADD PUSH1 0x40 MSTORE DUP1 SWAP3 SWAP2 SWAP1 DUP2 DUP2 MSTORE PUSH1 0x20 ADD DUP3 DUP1 SLOAD PUSH2 0x2A5 SWAP1 PUSH2 0x1394 JUMP JUMPDEST DUP1 ISZERO PUSH2 0x2F0 JUMPI DUP1 PUSH1 0x1F LT PUSH2 0x2C7 JUMPI PUSH2 0x100 DUP1 DUP4 SLOAD DIV MUL DUP4 MSTORE SWAP2 PUSH1 0x20 ADD SWAP2 PUSH2 0x2F0 JUMP JUMPDEST DUP3 ADD SWAP2 SWAP1 PUSH0 MSTORE PUSH1 0x20 PUSH0 KECCAK256 SWAP1 JUMPDEST DUP2 SLOAD DUP2 MSTORE SWAP1 PUSH1 0x1 ADD SWAP1 PUSH1 0x20 ADD DUP1 DUP4 GT PUSH2 0x2D3 JUMPI DUP3 SWAP1 SUB PUSH1 0x1F AND DUP3 ADD SWAP2 JUMPDEST POP POP POP POP POP DUP8 PUSH2 0xD83 JUMP JUMPDEST ISZERO PUSH2 0x5A0 JUMPI PUSH0 DUP2 DUP2 SLOAD DUP2 LT PUSH2 0x313 JUMPI PUSH2 0x312 PUSH2 0x133A JUMP JUMPDEST JUMPDEST SWAP1 PUSH0 MSTORE PUSH1 0x20 PUSH0 KECCAK256 SWAP1 PUSH1 0x5 MUL ADD PUSH1 0x40 MLOAD DUP1 PUSH1 0xA0 ADD PUSH1 0x40 MSTORE SWAP1 DUP2 PUSH0 DUP3 ADD DUP1 SLOAD PUSH2 0x339 SWAP1 PUSH2 0x1394 JUMP JUMPDEST DUP1 PUSH1 0x1F ADD PUSH1 0x20 DUP1 SWAP2 DIV MUL PUSH1 0x20 ADD PUSH1 0x40 MLOAD SWAP1 DUP2 ADD PUSH1 0x40 MSTORE DUP1 SWAP3 SWAP2 SWAP1 DUP2 DUP2 MSTORE PUSH1 0x20 ADD DUP3 DUP1 SLOAD PUSH2 0x365 SWAP1 PUSH2 0x1394 JUMP JUMPDEST DUP1 ISZERO PUSH2 0x3B0 JUMPI DUP1 PUSH1 0x1F LT PUSH2 0x387 JUMPI PUSH2 0x100 DUP1 DUP4 SLOAD DIV MUL DUP4 MSTORE SWAP2 PUSH1 0x20 ADD SWAP2 PUSH2 0x3B0 JUMP JUMPDEST DUP3 ADD SWAP2 SWAP1 PUSH0 MSTORE PUSH1 0x20 PUSH0 KECCAK256 SWAP1 JUMPDEST DUP2 SLOAD DUP2 MSTORE SWAP1 PUSH1 0x1 ADD SWAP1 PUSH1 0x20 ADD DUP1 DUP4 GT PUSH2 0x393 JUMPI DUP3 SWAP1 SUB PUSH1 0x1F AND DUP3 ADD SWAP2 JUMPDEST POP POP POP POP POP DUP2 MSTORE PUSH1 0x20 ADD PUSH1 0x1 DUP3 ADD DUP1 SLOAD PUSH2 0x3C9 SWAP1 PUSH2 0x1394 JUMP JUMPDEST DUP1 PUSH1 0x1F ADD PUSH1 0x20 DUP1 SWAP2 DIV MUL PUSH1 0x20 ADD PUSH1 0x40 MLOAD SWAP1 DUP2 ADD PUSH1 0x40 MSTORE DUP1 SWAP3 SWAP2 SWAP1 DUP2 DUP2 MSTORE PUSH1 0x20 ADD DUP3 DUP1 SLOAD PUSH2 0x3F5 SWAP1 PUSH2 0x1394 JUMP JUMPDEST DUP1 ISZERO PUSH2 0x440 JUMPI DUP1 PUSH1 0x1F LT PUSH2 0x417 JUMPI PUSH2 0x100 DUP1 DUP4 SLOAD DIV MUL DUP4 MSTORE SWAP2 PUSH1 0x20 ADD SWAP2 PUSH2 0x440 JUMP JUMPDEST DUP3 ADD SWAP2 SWAP1 PUSH0 MSTORE PUSH1 0x20 PUSH0 KECCAK256 SWAP1 JUMPDEST DUP2 SLOAD DUP2 MSTORE SWAP1 PUSH1 0x1 ADD SWAP1 PUSH1 0x20 ADD DUP1 DUP4 GT PUSH2 0x423 JUMPI DUP3 SWAP1 SUB PUSH1 0x1F AND DUP3 ADD SWAP2 JUMPDEST POP POP POP POP POP DUP2 MSTORE PUSH1 0x20 ADD PUSH1 0x2 DUP3 ADD DUP1 SLOAD PUSH2 0x459 SWAP1 PUSH2 0x1394 JUMP JUMPDEST DUP1 PUSH1 0x1F ADD PUSH1 0x20 DUP1 SWAP2 DIV MUL PUSH1 0x20 ADD PUSH1 0x40 MLOAD SWAP1 DUP2 ADD PUSH1 0x40 MSTORE DUP1 SWAP3 SWAP2 SWAP1 DUP2 DUP2 MSTORE PUSH1 0x20 ADD DUP3 DUP1 SLOAD PUSH2 0x485 SWAP1 PUSH2 0x1394 JUMP JUMPDEST DUP1 ISZERO PUSH2 0x4D0 JUMPI DUP1 PUSH1 0x1F LT PUSH2 0x4A7 JUMPI PUSH2 0x100 DUP1 DUP4 SLOAD DIV MUL DUP4 MSTORE SWAP2 PUSH1 0x20 ADD SWAP2 PUSH2 0x4D0 JUMP JUMPDEST DUP3 ADD SWAP2 SWAP1 PUSH0 MSTORE PUSH1 0x20 PUSH0 KECCAK256 SWAP1 JUMPDEST DUP2 SLOAD DUP2 MSTORE SWAP1 PUSH1 0x1 ADD SWAP1 PUSH1 0x20 ADD DUP1 DUP4 GT PUSH2 0x4B3 JUMPI DUP3 SWAP1 SUB PUSH1 0x1F AND DUP3 ADD SWAP2 JUMPDEST POP POP POP POP POP DUP2 MSTORE PUSH1 0x20 ADD PUSH1 0x3 DUP3 ADD SLOAD DUP2 MSTORE PUSH1 0x20 ADD PUSH1 0x4 DUP3 ADD DUP1 SLOAD PUSH2 0x4F3 SWAP1 PUSH2 0x1394 JUMP JUMPDEST DUP1 PUSH1 0x1F ADD PUSH1 0x20 DUP1 SWAP2 DIV MUL PUSH1 0x20 ADD PUSH1 0x40 MLOAD SWAP1 DUP2 ADD PUSH1 0x40 MSTORE DUP1 SWAP3 SWAP2 SWAP1 DUP2 DUP2 MSTORE PUSH1 0x20 ADD DUP3 DUP1 SLOAD PUSH2 0x51F SWAP1 PUSH2 0x1394 JUMP JUMPDEST DUP1 ISZERO PUSH2 0x56A JUMPI DUP1 PUSH1 0x1F LT PUSH2 0x541 JUMPI PUSH2 0x100 DUP1 DUP4 SLOAD DIV MUL DUP4 MSTORE SWAP2 PUSH1 0x20 ADD SWAP2 PUSH2 0x56A JUMP JUMPDEST DUP3 ADD SWAP2 SWAP1 PUSH0 MSTORE PUSH1 0x20 PUSH0 KECCAK256 SWAP1 JUMPDEST DUP2 SLOAD DUP2 MSTORE SWAP1 PUSH1 0x1 ADD SWAP1 PUSH1 0x20 ADD DUP1 DUP4 GT PUSH2 0x54D JUMPI DUP3 SWAP1 SUB PUSH1 0x1F AND DUP3 ADD SWAP2 JUMPDEST POP POP POP POP POP DUP2 MSTORE POP POP DUP4 DUP4 DUP2 MLOAD DUP2 LT PUSH2 0x586 JUMPI PUSH2 0x585 PUSH2 0x133A JUMP JUMPDEST JUMPDEST PUSH1 0x20 MUL PUSH1 0x20 ADD ADD DUP2 SWAP1 MSTORE POP DUP2 DUP1 PUSH2 0x59C SWAP1 PUSH2 0x13F1 JUMP JUMPDEST SWAP3 POP POP JUMPDEST DUP1 DUP1 PUSH1 0x1 ADD SWAP2 POP POP PUSH2 0x23D JUMP JUMPDEST POP DUP2 SWAP4 POP POP POP POP SWAP2 SWAP1 POP JUMP JUMPDEST PUSH0 DUP2 DUP2 SLOAD DUP2 LT PUSH2 0x5C7 JUMPI PUSH0 DUP1 REVERT JUMPDEST SWAP1 PUSH0 MSTORE PUSH1 0x20 PUSH0 KECCAK256 SWAP1 PUSH1 0x5 MUL ADD PUSH0 SWAP2 POP SWAP1 POP DUP1 PUSH0 ADD DUP1 SLOAD PUSH2 0x5E6 SWAP1 PUSH2 0x1394 JUMP JUMPDEST DUP1 PUSH1 0x1F ADD PUSH1 0x20 DUP1 SWAP2 DIV MUL PUSH1 0x20 ADD PUSH1 0x40 MLOAD SWAP1 DUP2 ADD PUSH1 0x40 MSTORE DUP1 SWAP3 SWAP2 SWAP1 DUP2 DUP2 MSTORE PUSH1 0x20 ADD DUP3 DUP1 SLOAD PUSH2 0x612 SWAP1 PUSH2 0x1394 JUMP JUMPDEST DUP1 ISZERO PUSH2 0x65D JUMPI DUP1 PUSH1 0x1F LT PUSH2 0x634 JUMPI PUSH2 0x100 DUP1 DUP4 SLOAD DIV MUL DUP4 MSTORE SWAP2 PUSH1 0x20 ADD SWAP2 PUSH2 0x65D JUMP JUMPDEST DUP3 ADD SWAP2 SWAP1 PUSH0 MSTORE PUSH1 0x20 PUSH0 KECCAK256 SWAP1 JUMPDEST DUP2 SLOAD DUP2 MSTORE SWAP1 PUSH1 0x1 ADD SWAP1 PUSH1 0x20 ADD DUP1 DUP4 GT PUSH2 0x640 JUMPI DUP3 SWAP1 SUB PUSH1 0x1F AND DUP3 ADD SWAP2 JUMPDEST POP POP POP POP POP SWAP1 DUP1 PUSH1 0x1 ADD DUP1 SLOAD PUSH2 0x672 SWAP1 PUSH2 0x1394 JUMP JUMPDEST DUP1 PUSH1 0x1F ADD PUSH1 0x20 DUP1 SWAP2 DIV MUL PUSH1 0x20 ADD PUSH1 0x40 MLOAD SWAP1 DUP2 ADD PUSH1 0x40 MSTORE DUP1 SWAP3 SWAP2 SWAP1 DUP2 DUP2 MSTORE PUSH1 0x20 ADD DUP3 DUP1 SLOAD PUSH2 0x69E SWAP1 PUSH2 0x1394 JUMP JUMPDEST DUP1 ISZERO PUSH2 0x6E9 JUMPI DUP1 PUSH1 0x1F LT PUSH2 0x6C0 JUMPI PUSH2 0x100 DUP1 DUP4 SLOAD DIV MUL DUP4 MSTORE SWAP2 PUSH1 0x20 ADD SWAP2 PUSH2 0x6E9 JUMP JUMPDEST DUP3 ADD SWAP2 SWAP1 PUSH0 MSTORE PUSH1 0x20 PUSH0 KECCAK256 SWAP1 JUMPDEST DUP2 SLOAD DUP2 MSTORE SWAP1 PUSH1 0x1 ADD SWAP1 PUSH1 0x20 ADD DUP1 DUP4 GT PUSH2 0x6CC JUMPI DUP3 SWAP1 SUB PUSH1 0x1F AND DUP3 ADD SWAP2 JUMPDEST POP POP POP POP POP SWAP1 DUP1 PUSH1 0x2 ADD DUP1 SLOAD PUSH2 0x6FE SWAP1 PUSH2 0x1394 JUMP JUMPDEST DUP1 PUSH1 0x1F ADD PUSH1 0x20 DUP1 SWAP2 DIV MUL PUSH1 0x20 ADD PUSH1 0x40 MLOAD SWAP1 DUP2 ADD PUSH1 0x40 MSTORE DUP1 SWAP3 SWAP2 SWAP1 DUP2 DUP2 MSTORE PUSH1 0x20 ADD DUP3 DUP1 SLOAD PUSH2 0x72A SWAP1 PUSH2 0x1394 JUMP JUMPDEST DUP1 ISZERO PUSH2 0x775 JUMPI DUP1 PUSH1 0x1F LT PUSH2 0x74C JUMPI PUSH2 0x100 DUP1 DUP4 SLOAD DIV MUL DUP4 MSTORE SWAP2 PUSH1 0x20 ADD SWAP2 PUSH2 0x775 JUMP JUMPDEST DUP3 ADD SWAP2 SWAP1 PUSH0 MSTORE PUSH1 0x20 PUSH0 KECCAK256 SWAP1 JUMPDEST DUP2 SLOAD DUP2 MSTORE SWAP1 PUSH1 0x1 ADD SWAP1 PUSH1 0x20 ADD DUP1 DUP4 GT PUSH2 0x758 JUMPI DUP3 SWAP1 SUB PUSH1 0x1F AND DUP3 ADD SWAP2 JUMPDEST POP POP POP POP POP SWAP1 DUP1 PUSH1 0x3 ADD SLOAD SWAP1 DUP1 PUSH1 0x4 ADD DUP1 SLOAD PUSH2 0x790 SWAP1 PUSH2 0x1394 JUMP JUMPDEST DUP1 PUSH1 0x1F ADD PUSH1 0x20 DUP1 SWAP2 DIV MUL PUSH1 0x20 ADD PUSH1 0x40 MLOAD SWAP1 DUP2 ADD PUSH1 0x40 MSTORE DUP1 SWAP3 SWAP2 SWAP1 DUP2 DUP2 MSTORE PUSH1 0x20 ADD DUP3 DUP1 SLOAD PUSH2 0x7BC SWAP1 PUSH2 0x1394 JUMP JUMPDEST DUP1 ISZERO PUSH2 0x807 JUMPI DUP1 PUSH1 0x1F LT PUSH2 0x7DE JUMPI PUSH2 0x100 DUP1 DUP4 SLOAD DIV MUL DUP4 MSTORE SWAP2 PUSH1 0x20 ADD SWAP2 PUSH2 0x807 JUMP JUMPDEST DUP3 ADD SWAP2 SWAP1 PUSH0 MSTORE PUSH1 0x20 PUSH0 KECCAK256 SWAP1 JUMPDEST DUP2 SLOAD DUP2 MSTORE SWAP1 PUSH1 0x1 ADD SWAP1 PUSH1 0x20 ADD DUP1 DUP4 GT PUSH2 0x7EA JUMPI DUP3 SWAP1 SUB PUSH1 0x1F AND DUP3 ADD SWAP2 JUMPDEST POP POP POP POP POP SWAP1 POP DUP6 JUMP JUMPDEST PUSH1 0x60 PUSH0 DUP1 JUMPDEST PUSH0 DUP1 SLOAD SWAP1 POP DUP2 LT ISZERO PUSH2 0x8F5 JUMPI PUSH2 0x8D4 PUSH0 DUP3 DUP2 SLOAD DUP2 LT PUSH2 0x838 JUMPI PUSH2 0x837 PUSH2 0x133A JUMP JUMPDEST JUMPDEST SWAP1 PUSH0 MSTORE PUSH1 0x20 PUSH0 KECCAK256 SWAP1 PUSH1 0x5 MUL ADD PUSH1 0x2 ADD DUP1 SLOAD PUSH2 0x852 SWAP1 PUSH2 0x1394 JUMP JUMPDEST DUP1 PUSH1 0x1F ADD PUSH1 0x20 DUP1 SWAP2 DIV MUL PUSH1 0x20 ADD PUSH1 0x40 MLOAD SWAP1 DUP2 ADD PUSH1 0x40 MSTORE DUP1 SWAP3 SWAP2 SWAP1 DUP2 DUP2 MSTORE PUSH1 0x20 ADD DUP3 DUP1 SLOAD PUSH2 0x87E SWAP1 PUSH2 0x1394 JUMP JUMPDEST DUP1 ISZERO PUSH2 0x8C9 JUMPI DUP1 PUSH1 0x1F LT PUSH2 0x8A0 JUMPI PUSH2 0x100 DUP1 DUP4 SLOAD DIV MUL DUP4 MSTORE SWAP2 PUSH1 0x20 ADD SWAP2 PUSH2 0x8C9 JUMP JUMPDEST DUP3 ADD SWAP2 SWAP1 PUSH0 MSTORE PUSH1 0x20 PUSH0 KECCAK256 SWAP1 JUMPDEST DUP2 SLOAD DUP2 MSTORE SWAP1 PUSH1 0x1 ADD SWAP1 PUSH1 0x20 ADD DUP1 DUP4 GT PUSH2 0x8AC JUMPI DUP3 SWAP1 SUB PUSH1 0x1F AND DUP3 ADD SWAP2 JUMPDEST POP POP POP POP POP DUP6 PUSH2 0xD83 JUMP JUMPDEST ISZERO PUSH2 0x8E8 JUMPI DUP2 DUP1 PUSH2 0x8E4 SWAP1 PUSH2 0x13F1 JUMP JUMPDEST SWAP3 POP POP JUMPDEST DUP1 DUP1 PUSH1 0x1 ADD SWAP2 POP POP PUSH2 0x816 JUMP JUMPDEST POP PUSH0 DUP2 PUSH8 0xFFFFFFFFFFFFFFFF DUP2 GT ISZERO PUSH2 0x911 JUMPI PUSH2 0x910 PUSH2 0xDF4 JUMP JUMPDEST JUMPDEST PUSH1 0x40 MLOAD SWAP1 DUP1 DUP3 MSTORE DUP1 PUSH1 0x20 MUL PUSH1 0x20 ADD DUP3 ADD PUSH1 0x40 MSTORE DUP1 ISZERO PUSH2 0x94A JUMPI DUP2 PUSH1 0x20 ADD JUMPDEST PUSH2 0x937 PUSH2 0xD9D JUMP JUMPDEST DUP2 MSTORE PUSH1 0x20 ADD SWAP1 PUSH1 0x1 SWAP1 SUB SWAP1 DUP2 PUSH2 0x92F JUMPI SWAP1 POP JUMPDEST POP SWAP1 POP PUSH0 DUP1 JUMPDEST PUSH0 DUP1 SLOAD SWAP1 POP DUP2 LT ISZERO PUSH2 0xCC0 JUMPI PUSH2 0xA0E PUSH0 DUP3 DUP2 SLOAD DUP2 LT PUSH2 0x972 JUMPI PUSH2 0x971 PUSH2 0x133A JUMP JUMPDEST JUMPDEST SWAP1 PUSH0 MSTORE PUSH1 0x20 PUSH0 KECCAK256 SWAP1 PUSH1 0x5 MUL ADD PUSH1 0x2 ADD DUP1 SLOAD PUSH2 0x98C SWAP1 PUSH2 0x1394 JUMP JUMPDEST DUP1 PUSH1 0x1F ADD PUSH1 0x20 DUP1 SWAP2 DIV MUL PUSH1 0x20 ADD PUSH1 0x40 MLOAD SWAP1 DUP2 ADD PUSH1 0x40 MSTORE DUP1 SWAP3 SWAP2 SWAP1 DUP2 DUP2 MSTORE PUSH1 0x20 ADD DUP3 DUP1 SLOAD PUSH2 0x9B8 SWAP1 PUSH2 0x1394 JUMP JUMPDEST DUP1 ISZERO PUSH2 0xA03 JUMPI DUP1 PUSH1 0x1F LT PUSH2 0x9DA JUMPI PUSH2 0x100 DUP1 DUP4 SLOAD DIV MUL DUP4 MSTORE SWAP2 PUSH1 0x20 ADD SWAP2 PUSH2 0xA03 JUMP JUMPDEST DUP3 ADD SWAP2 SWAP1 PUSH0 MSTORE PUSH1 0x20 PUSH0 KECCAK256 SWAP1 JUMPDEST DUP2 SLOAD DUP2 MSTORE SWAP1 PUSH1 0x1 ADD SWAP1 PUSH1 0x20 ADD DUP1 DUP4 GT PUSH2 0x9E6 JUMPI DUP3 SWAP1 SUB PUSH1 0x1F AND DUP3 ADD SWAP2 JUMPDEST POP POP POP POP POP DUP8 PUSH2 0xD83 JUMP JUMPDEST ISZERO PUSH2 0xCB3 JUMPI PUSH0 DUP2 DUP2 SLOAD DUP2 LT PUSH2 0xA26 JUMPI PUSH2 0xA25 PUSH2 0x133A JUMP JUMPDEST JUMPDEST SWAP1 PUSH0 MSTORE PUSH1 0x20 PUSH0 KECCAK256 SWAP1 PUSH1 0x5 MUL ADD PUSH1 0x40 MLOAD DUP1 PUSH1 0xA0 ADD PUSH1 0x40 MSTORE SWAP1 DUP2 PUSH0 DUP3 ADD DUP1 SLOAD PUSH2 0xA4C SWAP1 PUSH2 0x1394 JUMP JUMPDEST DUP1 PUSH1 0x1F ADD PUSH1 0x20 DUP1 SWAP2 DIV MUL PUSH1 0x20 ADD PUSH1 0x40 MLOAD SWAP1 DUP2 ADD PUSH1 0x40 MSTORE DUP1 SWAP3 SWAP2 SWAP1 DUP2 DUP2 MSTORE PUSH1 0x20 ADD DUP3 DUP1 SLOAD PUSH2 0xA78 SWAP1 PUSH2 0x1394 JUMP JUMPDEST DUP1 ISZERO PUSH2 0xAC3 JUMPI DUP1 PUSH1 0x1F LT PUSH2 0xA9A JUMPI PUSH2 0x100 DUP1 DUP4 SLOAD DIV MUL DUP4 MSTORE SWAP2 PUSH1 0x20 ADD SWAP2 PUSH2 0xAC3 JUMP JUMPDEST DUP3 ADD SWAP2 SWAP1 PUSH0 MSTORE PUSH1 0x20 PUSH0 KECCAK256 SWAP1 JUMPDEST DUP2 SLOAD DUP2 MSTORE SWAP1 PUSH1 0x1 ADD SWAP1 PUSH1 0x20 ADD DUP1 DUP4 GT PUSH2 0xAA6 JUMPI DUP3 SWAP1 SUB PUSH1 0x1F AND DUP3 ADD SWAP2 JUMPDEST POP POP POP POP POP DUP2 MSTORE PUSH1 0x20 ADD PUSH1 0x1 DUP3 ADD DUP1 SLOAD PUSH2 0xADC SWAP1 PUSH2 0x1394 JUMP JUMPDEST DUP1 PUSH1 0x1F ADD PUSH1 0x20 DUP1 SWAP2 DIV MUL PUSH1 0x20 ADD PUSH1 0x40 MLOAD SWAP1 DUP2 ADD PUSH1 0x40 MSTORE DUP1 SWAP3 SWAP2 SWAP1 DUP2 DUP2 MSTORE PUSH1 0x20 ADD DUP3 DUP1 SLOAD PUSH2 0xB08 SWAP1 PUSH2 0x1394 JUMP JUMPDEST DUP1 ISZERO PUSH2 0xB53 JUMPI DUP1 PUSH1 0x1F LT PUSH2 0xB2A JUMPI PUSH2 0x100 DUP1 DUP4 SLOAD DIV MUL DUP4 MSTORE SWAP2 PUSH1 0x20 ADD SWAP2 PUSH2 0xB53 JUMP JUMPDEST DUP3 ADD SWAP2 SWAP1 PUSH0 MSTORE PUSH1 0x20 PUSH0 KECCAK256 SWAP1 JUMPDEST DUP2 SLOAD DUP2 MSTORE SWAP1 PUSH1 0x1 ADD SWAP1 PUSH1 0x20 ADD DUP1 DUP4 GT PUSH2 0xB36 JUMPI DUP3 SWAP1 SUB PUSH1 0x1F AND DUP3 ADD SWAP2 JUMPDEST POP POP POP POP POP DUP2 MSTORE PUSH1 0x20 ADD PUSH1 0x2 DUP3 ADD DUP1 SLOAD PUSH2 0xB6C SWAP1 PUSH2 0x1394 JUMP JUMPDEST DUP1 PUSH1 0x1F ADD PUSH1 0x20 DUP1 SWAP2 DIV MUL PUSH1 0x20 ADD PUSH1 0x40 MLOAD SWAP1 DUP2 ADD PUSH1 0x40 MSTORE DUP1 SWAP3 SWAP2 SWAP1 DUP2 DUP2 MSTORE PUSH1 0x20 ADD DUP3 DUP1 SLOAD PUSH2 0xB98 SWAP1 PUSH2 0x1394 JUMP JUMPDEST DUP1 ISZERO PUSH2 0xBE3 JUMPI DUP1 PUSH1 0x1F LT PUSH2 0xBBA JUMPI PUSH2 0x100 DUP1 DUP4 SLOAD DIV MUL DUP4 MSTORE SWAP2 PUSH1 0x20 ADD SWAP2 PUSH2 0xBE3 JUMP JUMPDEST DUP3 ADD SWAP2 SWAP1 PUSH0 MSTORE PUSH1 0x20 PUSH0 KECCAK256 SWAP1 JUMPDEST DUP2 SLOAD DUP2 MSTORE SWAP1 PUSH1 0x1 ADD SWAP1 PUSH1 0x20 ADD DUP1 DUP4 GT PUSH2 0xBC6 JUMPI DUP3 SWAP1 SUB PUSH1 0x1F AND DUP3 ADD SWAP2 JUMPDEST POP POP POP POP POP DUP2 MSTORE PUSH1 0x20 ADD PUSH1 0x3 DUP3 ADD SLOAD DUP2 MSTORE PUSH1 0x20 ADD PUSH1 0x4 DUP3 ADD DUP1 SLOAD PUSH2 0xC06 SWAP1 PUSH2 0x1394 JUMP JUMPDEST DUP1 PUSH1 0x1F ADD PUSH1 0x20 DUP1 SWAP2 DIV MUL PUSH1 0x20 ADD PUSH1 0x40 MLOAD SWAP1 DUP2 ADD PUSH1 0x40 MSTORE DUP1 SWAP3 SWAP2 SWAP1 DUP2 DUP2 MSTORE PUSH1 0x20 ADD DUP3 DUP1 SLOAD PUSH2 0xC32 SWAP1 PUSH2 0x1394 JUMP JUMPDEST DUP1 ISZERO PUSH2 0xC7D JUMPI DUP1 PUSH1 0x1F LT PUSH2 0xC54 JUMPI PUSH2 0x100 DUP1 DUP4 SLOAD DIV MUL DUP4 MSTORE SWAP2 PUSH1 0x20 ADD SWAP2 PUSH2 0xC7D JUMP JUMPDEST DUP3 ADD SWAP2 SWAP1 PUSH0 MSTORE PUSH1 0x20 PUSH0 KECCAK256 SWAP1 JUMPDEST DUP2 SLOAD DUP2 MSTORE SWAP1 PUSH1 0x1 ADD SWAP1 PUSH1 0x20 ADD DUP1 DUP4 GT PUSH2 0xC60 JUMPI DUP3 SWAP1 SUB PUSH1 0x1F AND DUP3 ADD SWAP2 JUMPDEST POP POP POP POP POP DUP2 MSTORE POP POP DUP4 DUP4 DUP2 MLOAD DUP2 LT PUSH2 0xC99 JUMPI PUSH2 0xC98 PUSH2 0x133A JUMP JUMPDEST JUMPDEST PUSH1 0x20 MUL PUSH1 0x20 ADD ADD DUP2 SWAP1 MSTORE POP DUP2 DUP1 PUSH2 0xCAF SWAP1 PUSH2 0x13F1 JUMP JUMPDEST SWAP3 POP POP JUMPDEST DUP1 DUP1 PUSH1 0x1 ADD SWAP2 POP POP PUSH2 0x950 JUMP JUMPDEST POP DUP2 SWAP4 POP POP POP POP SWAP2 SWAP1 POP JUMP JUMPDEST PUSH0 PUSH1 0x40 MLOAD DUP1 PUSH1 0xA0 ADD PUSH1 0x40 MSTORE DUP1 DUP8 DUP2 MSTORE PUSH1 0x20 ADD DUP7 DUP2 MSTORE PUSH1 0x20 ADD DUP6 DUP2 MSTORE PUSH1 0x20 ADD DUP5 DUP2 MSTORE PUSH1 0x20 ADD DUP4 DUP2 MSTORE POP SWAP1 DUP1 PUSH1 0x1 DUP2 SLOAD ADD DUP1 DUP3 SSTORE DUP1 SWAP2 POP POP PUSH1 0x1 SWAP1 SUB SWAP1 PUSH0 MSTORE PUSH1 0x20 PUSH0 KECCAK256 SWAP1 PUSH1 0x5 MUL ADD PUSH0 SWAP1 SWAP2 SWAP1 SWAP2 SWAP1 SWAP2 POP PUSH0 DUP3 ADD MLOAD DUP2 PUSH0 ADD SWAP1 DUP2 PUSH2 0xD2D SWAP2 SWAP1 PUSH2 0x15D5 JUMP JUMPDEST POP PUSH1 0x20 DUP3 ADD MLOAD DUP2 PUSH1 0x1 ADD SWAP1 DUP2 PUSH2 0xD43 SWAP2 SWAP1 PUSH2 0x15D5 JUMP JUMPDEST POP PUSH1 0x40 DUP3 ADD MLOAD DUP2 PUSH1 0x2 ADD SWAP1 DUP2 PUSH2 0xD59 SWAP2 SWAP1 PUSH2 0x15D5 JUMP JUMPDEST POP PUSH1 0x60 DUP3 ADD MLOAD DUP2 PUSH1 0x3 ADD SSTORE PUSH1 0x80 DUP3 ADD MLOAD DUP2 PUSH1 0x4 ADD SWAP1 DUP2 PUSH2 0xD79 SWAP2 SWAP1 PUSH2 0x15D5 JUMP JUMPDEST POP POP POP POP POP POP POP POP JUMP JUMPDEST PUSH0 DUP2 DUP1 MLOAD SWAP1 PUSH1 0x20 ADD KECCAK256 DUP4 DUP1 MLOAD SWAP1 PUSH1 0x20 ADD KECCAK256 EQ SWAP1 POP SWAP3 SWAP2 POP POP JUMP JUMPDEST PUSH1 0x40 MLOAD DUP1 PUSH1 0xA0 ADD PUSH1 0x40 MSTORE DUP1 PUSH1 0x60 DUP2 MSTORE PUSH1 0x20 ADD PUSH1 0x60 DUP2 MSTORE PUSH1 0x20 ADD PUSH1 0x60 DUP2 MSTORE PUSH1 0x20 ADD PUSH0 DUP2 MSTORE PUSH1 0x20 ADD PUSH1 0x60 DUP2 MSTORE POP SWAP1 JUMP JUMPDEST PUSH0 PUSH1 0x40 MLOAD SWAP1 POP SWAP1 JUMP JUMPDEST PUSH0 DUP1 REVERT JUMPDEST PUSH0 DUP1 REVERT JUMPDEST PUSH0 DUP1 REVERT JUMPDEST PUSH0 DUP1 REVERT JUMPDEST PUSH0 PUSH1 0x1F NOT PUSH1 0x1F DUP4 ADD AND SWAP1 POP SWAP2 SWAP1 POP JUMP JUMPDEST PUSH32 0x4E487B7100000000000000000000000000000000000000000000000000000000 PUSH0 MSTORE PUSH1 0x41 PUSH1 0x4 MSTORE PUSH1 0x24 PUSH0 REVERT JUMPDEST PUSH2 0xE2A DUP3 PUSH2 0xDE4 JUMP JUMPDEST DUP2 ADD DUP2 DUP2 LT PUSH8 0xFFFFFFFFFFFFFFFF DUP3 GT OR ISZERO PUSH2 0xE49 JUMPI PUSH2 0xE48 PUSH2 0xDF4 JUMP JUMPDEST JUMPDEST DUP1 PUSH1 0x40 MSTORE POP POP POP JUMP JUMPDEST PUSH0 PUSH2 0xE5B PUSH2 0xDCB JUMP JUMPDEST SWAP1 POP PUSH2 0xE67 DUP3 DUP3 PUSH2 0xE21 JUMP JUMPDEST SWAP2 SWAP1 POP JUMP JUMPDEST PUSH0 PUSH8 0xFFFFFFFFFFFFFFFF DUP3 GT ISZERO PUSH2 0xE86 JUMPI PUSH2 0xE85 PUSH2 0xDF4 JUMP JUMPDEST JUMPDEST PUSH2 0xE8F DUP3 PUSH2 0xDE4 JUMP JUMPDEST SWAP1 POP PUSH1 0x20 DUP2 ADD SWAP1 POP SWAP2 SWAP1 POP JUMP JUMPDEST DUP3 DUP2 DUP4 CALLDATACOPY PUSH0 DUP4 DUP4 ADD MSTORE POP POP POP JUMP JUMPDEST PUSH0 PUSH2 0xEBC PUSH2 0xEB7 DUP5 PUSH2 0xE6C JUMP JUMPDEST PUSH2 0xE52 JUMP JUMPDEST SWAP1 POP DUP3 DUP2 MSTORE PUSH1 0x20 DUP2 ADD DUP5 DUP5 DUP5 ADD GT ISZERO PUSH2 0xED8 JUMPI PUSH2 0xED7 PUSH2 0xDE0 JUMP JUMPDEST JUMPDEST PUSH2 0xEE3 DUP5 DUP3 DUP6 PUSH2 0xE9C JUMP JUMPDEST POP SWAP4 SWAP3 POP POP POP JUMP JUMPDEST PUSH0 DUP3 PUSH1 0x1F DUP4 ADD SLT PUSH2 0xEFF JUMPI PUSH2 0xEFE PUSH2 0xDDC JUMP JUMPDEST JUMPDEST DUP2 CALLDATALOAD PUSH2 0xF0F DUP5 DUP3 PUSH1 0x20 DUP7 ADD PUSH2 0xEAA JUMP JUMPDEST SWAP2 POP POP SWAP3 SWAP2 POP POP JUMP JUMPDEST PUSH0 PUSH1 0x20 DUP3 DUP5 SUB SLT ISZERO PUSH2 0xF2D JUMPI PUSH2 0xF2C PUSH2 0xDD4 JUMP JUMPDEST JUMPDEST PUSH0 DUP3 ADD CALLDATALOAD PUSH8 0xFFFFFFFFFFFFFFFF DUP2 GT ISZERO PUSH2 0xF4A JUMPI PUSH2 0xF49 PUSH2 0xDD8 JUMP JUMPDEST JUMPDEST PUSH2 0xF56 DUP5 DUP3 DUP6 ADD PUSH2 0xEEB JUMP JUMPDEST SWAP2 POP POP SWAP3 SWAP2 POP POP JUMP JUMPDEST PUSH0 DUP2 MLOAD SWAP1 POP SWAP2 SWAP1 POP JUMP JUMPDEST PUSH0 DUP3 DUP3 MSTORE PUSH1 0x20 DUP3 ADD SWAP1 POP SWAP3 SWAP2 POP POP JUMP JUMPDEST PUSH0 DUP2 SWAP1 POP PUSH1 0x20 DUP3 ADD SWAP1 POP SWAP2 SWAP1 POP JUMP JUMPDEST PUSH0 DUP2 MLOAD SWAP1 POP SWAP2 SWAP1 POP JUMP JUMPDEST PUSH0 DUP3 DUP3 MSTORE PUSH1 0x20 DUP3 ADD SWAP1 POP SWAP3 SWAP2 POP POP JUMP JUMPDEST DUP3 DUP2 DUP4 MCOPY PUSH0 DUP4 DUP4 ADD MSTORE POP POP POP JUMP JUMPDEST PUSH0 PUSH2 0xFBA DUP3 PUSH2 0xF88 JUMP JUMPDEST PUSH2 0xFC4 DUP2 DUP6 PUSH2 0xF92 JUMP JUMPDEST SWAP4 POP PUSH2 0xFD4 DUP2 DUP6 PUSH1 0x20 DUP7 ADD PUSH2 0xFA2 JUMP JUMPDEST PUSH2 0xFDD DUP2 PUSH2 0xDE4 JUMP JUMPDEST DUP5 ADD SWAP2 POP POP SWAP3 SWAP2 POP POP JUMP JUMPDEST PUSH0 DUP2 SWAP1 POP SWAP2 SWAP1 POP JUMP JUMPDEST PUSH2 0xFFA DUP2 PUSH2 0xFE8 JUMP JUMPDEST DUP3 MSTORE POP POP JUMP JUMPDEST PUSH0 PUSH1 0xA0 DUP4 ADD PUSH0 DUP4 ADD MLOAD DUP5 DUP3 SUB PUSH0 DUP7 ADD MSTORE PUSH2 0x101A DUP3 DUP3 PUSH2 0xFB0 JUMP JUMPDEST SWAP2 POP POP PUSH1 0x20 DUP4 ADD MLOAD DUP5 DUP3 SUB PUSH1 0x20 DUP7 ADD MSTORE PUSH2 0x1034 DUP3 DUP3 PUSH2 0xFB0 JUMP JUMPDEST SWAP2 POP POP PUSH1 0x40 DUP4 ADD MLOAD DUP5 DUP3 SUB PUSH1 0x40 DUP7 ADD MSTORE PUSH2 0x104E DUP3 DUP3 PUSH2 0xFB0 JUMP JUMPDEST SWAP2 POP POP PUSH1 0x60 DUP4 ADD MLOAD PUSH2 0x1063 PUSH1 0x60 DUP7 ADD DUP3 PUSH2 0xFF1 JUMP JUMPDEST POP PUSH1 0x80 DUP4 ADD MLOAD DUP5 DUP3 SUB PUSH1 0x80 DUP7 ADD MSTORE PUSH2 0x107B DUP3 DUP3 PUSH2 0xFB0 JUMP JUMPDEST SWAP2 POP POP DUP1 SWAP2 POP POP SWAP3 SWAP2 POP POP JUMP JUMPDEST PUSH0 PUSH2 0x1093 DUP4 DUP4 PUSH2 0x1000 JUMP JUMPDEST SWAP1 POP SWAP3 SWAP2 POP POP JUMP JUMPDEST PUSH0 PUSH1 0x20 DUP3 ADD SWAP1 POP SWAP2 SWAP1 POP JUMP JUMPDEST PUSH0 PUSH2 0x10B1 DUP3 PUSH2 0xF5F JUMP JUMPDEST PUSH2 0x10BB DUP2 DUP6 PUSH2 0xF69 JUMP JUMPDEST SWAP4 POP DUP4 PUSH1 0x20 DUP3 MUL DUP6 ADD PUSH2 0x10CD DUP6 PUSH2 0xF79 JUMP JUMPDEST DUP1 PUSH0 JUMPDEST DUP6 DUP2 LT ISZERO PUSH2 0x1108 JUMPI DUP5 DUP5 SUB DUP10 MSTORE DUP2 MLOAD PUSH2 0x10E9 DUP6 DUP3 PUSH2 0x1088 JUMP JUMPDEST SWAP5 POP PUSH2 0x10F4 DUP4 PUSH2 0x109B JUMP JUMPDEST SWAP3 POP PUSH1 0x20 DUP11 ADD SWAP10 POP POP PUSH1 0x1 DUP2 ADD SWAP1 POP PUSH2 0x10D0 JUMP JUMPDEST POP DUP3 SWAP8 POP DUP8 SWAP6 POP POP POP POP POP POP SWAP3 SWAP2 POP POP JUMP JUMPDEST PUSH0 PUSH1 0x20 DUP3 ADD SWAP1 POP DUP2 DUP2 SUB PUSH0 DUP4 ADD MSTORE PUSH2 0x1132 DUP2 DUP5 PUSH2 0x10A7 JUMP JUMPDEST SWAP1 POP SWAP3 SWAP2 POP POP JUMP JUMPDEST PUSH2 0x1143 DUP2 PUSH2 0xFE8 JUMP JUMPDEST DUP2 EQ PUSH2 0x114D JUMPI PUSH0 DUP1 REVERT JUMPDEST POP JUMP JUMPDEST PUSH0 DUP2 CALLDATALOAD SWAP1 POP PUSH2 0x115E DUP2 PUSH2 0x113A JUMP JUMPDEST SWAP3 SWAP2 POP POP JUMP JUMPDEST PUSH0 PUSH1 0x20 DUP3 DUP5 SUB SLT ISZERO PUSH2 0x1179 JUMPI PUSH2 0x1178 PUSH2 0xDD4 JUMP JUMPDEST JUMPDEST PUSH0 PUSH2 0x1186 DUP5 DUP3 DUP6 ADD PUSH2 0x1150 JUMP JUMPDEST SWAP2 POP POP SWAP3 SWAP2 POP POP JUMP JUMPDEST PUSH0 DUP3 DUP3 MSTORE PUSH1 0x20 DUP3 ADD SWAP1 POP SWAP3 SWAP2 POP POP JUMP JUMPDEST PUSH0 PUSH2 0x11A9 DUP3 PUSH2 0xF88 JUMP JUMPDEST PUSH2 0x11B3 DUP2 DUP6 PUSH2 0x118F JUMP JUMPDEST SWAP4 POP PUSH2 0x11C3 DUP2 DUP6 PUSH1 0x20 DUP7 ADD PUSH2 0xFA2 JUMP JUMPDEST PUSH2 0x11CC DUP2 PUSH2 0xDE4 JUMP JUMPDEST DUP5 ADD SWAP2 POP POP SWAP3 SWAP2 POP POP JUMP JUMPDEST PUSH2 0x11E0 DUP2 PUSH2 0xFE8 JUMP JUMPDEST DUP3 MSTORE POP POP JUMP JUMPDEST PUSH0 PUSH1 0xA0 DUP3 ADD SWAP1 POP DUP2 DUP2 SUB PUSH0 DUP4 ADD MSTORE PUSH2 0x11FE DUP2 DUP9 PUSH2 0x119F JUMP JUMPDEST SWAP1 POP DUP2 DUP2 SUB PUSH1 0x20 DUP4 ADD MSTORE PUSH2 0x1212 DUP2 DUP8 PUSH2 0x119F JUMP JUMPDEST SWAP1 POP DUP2 DUP2 SUB PUSH1 0x40 DUP4 ADD MSTORE PUSH2 0x1226 DUP2 DUP7 PUSH2 0x119F JUMP JUMPDEST SWAP1 POP PUSH2 0x1235 PUSH1 0x60 DUP4 ADD DUP6 PUSH2 0x11D7 JUMP JUMPDEST DUP2 DUP2 SUB PUSH1 0x80 DUP4 ADD MSTORE PUSH2 0x1247 DUP2 DUP5 PUSH2 0x119F JUMP JUMPDEST SWAP1 POP SWAP7 SWAP6 POP POP POP POP POP POP JUMP JUMPDEST PUSH0 DUP1 PUSH0 DUP1 PUSH0 PUSH1 0xA0 DUP7 DUP9 SUB SLT ISZERO PUSH2 0x126C JUMPI PUSH2 0x126B PUSH2 0xDD4 JUMP JUMPDEST JUMPDEST PUSH0 DUP7 ADD CALLDATALOAD PUSH8 0xFFFFFFFFFFFFFFFF DUP2 GT ISZERO PUSH2 0x1289 JUMPI PUSH2 0x1288 PUSH2 0xDD8 JUMP JUMPDEST JUMPDEST PUSH2 0x1295 DUP9 DUP3 DUP10 ADD PUSH2 0xEEB JUMP JUMPDEST SWAP6 POP POP PUSH1 0x20 DUP7 ADD CALLDATALOAD PUSH8 0xFFFFFFFFFFFFFFFF DUP2 GT ISZERO PUSH2 0x12B6 JUMPI PUSH2 0x12B5 PUSH2 0xDD8 JUMP JUMPDEST JUMPDEST PUSH2 0x12C2 DUP9 DUP3 DUP10 ADD PUSH2 0xEEB JUMP JUMPDEST SWAP5 POP POP PUSH1 0x40 DUP7 ADD CALLDATALOAD PUSH8 0xFFFFFFFFFFFFFFFF DUP2 GT ISZERO PUSH2 0x12E3 JUMPI PUSH2 0x12E2 PUSH2 0xDD8 JUMP JUMPDEST JUMPDEST PUSH2 0x12EF DUP9 DUP3 DUP10 ADD PUSH2 0xEEB JUMP JUMPDEST SWAP4 POP POP PUSH1 0x60 PUSH2 0x1300 DUP9 DUP3 DUP10 ADD PUSH2 0x1150 JUMP JUMPDEST SWAP3 POP POP PUSH1 0x80 DUP7 ADD CALLDATALOAD PUSH8 0xFFFFFFFFFFFFFFFF DUP2 GT ISZERO PUSH2 0x1321 JUMPI PUSH2 0x1320 PUSH2 0xDD8 JUMP JUMPDEST JUMPDEST PUSH2 0x132D DUP9 DUP3 DUP10 ADD PUSH2 0xEEB JUMP JUMPDEST SWAP2 POP POP SWAP3 SWAP6 POP SWAP3 SWAP6 SWAP1 SWAP4 POP JUMP JUMPDEST PUSH32 0x4E487B7100000000000000000000000000000000000000000000000000000000 PUSH0 MSTORE PUSH1 0x32 PUSH1 0x4 MSTORE PUSH1 0x24 PUSH0 REVERT JUMPDEST PUSH32 0x4E487B7100000000000000000000000000000000000000000000000000000000 PUSH0 MSTORE PUSH1 0x22 PUSH1 0x4 MSTORE PUSH1 0x24 PUSH0 REVERT JUMPDEST PUSH0 PUSH1 0x2 DUP3 DIV SWAP1 POP PUSH1 0x1 DUP3 AND DUP1 PUSH2 0x13AB JUMPI PUSH1 0x7F DUP3 AND SWAP2 POP JUMPDEST PUSH1 0x20 DUP3 LT DUP2 SUB PUSH2 0x13BE JUMPI PUSH2 0x13BD PUSH2 0x1367 JUMP JUMPDEST JUMPDEST POP SWAP2 SWAP1 POP JUMP JUMPDEST PUSH32 0x4E487B7100000000000000000000000000000000000000000000000000000000 PUSH0 MSTORE PUSH1 0x11 PUSH1 0x4 MSTORE PUSH1 0x24 PUSH0 REVERT JUMPDEST PUSH0 PUSH2 0x13FB DUP3 PUSH2 0xFE8 JUMP JUMPDEST SWAP2 POP PUSH32 0xFFFFFFFFFFFFFFFFFFFFFFFFFFFFFFFFFFFFFFFFFFFFFFFFFFFFFFFFFFFFFFFF DUP3 SUB PUSH2 0x142D JUMPI PUSH2 0x142C PUSH2 0x13C4 JUMP JUMPDEST JUMPDEST PUSH1 0x1 DUP3 ADD SWAP1 POP SWAP2 SWAP1 POP JUMP JUMPDEST PUSH0 DUP2 SWAP1 POP DUP2 PUSH0 MSTORE PUSH1 0x20 PUSH0 KECCAK256 SWAP1 POP SWAP2 SWAP1 POP JUMP JUMPDEST PUSH0 PUSH1 0x20 PUSH1 0x1F DUP4 ADD DIV SWAP1 POP SWAP2 SWAP1 POP JUMP JUMPDEST PUSH0 DUP3 DUP3 SHL SWAP1 POP SWAP3 SWAP2 POP POP JUMP JUMPDEST PUSH0 PUSH1 0x8 DUP4 MUL PUSH2 0x1494 PUSH32 0xFFFFFFFFFFFFFFFFFFFFFFFFFFFFFFFFFFFFFFFFFFFFFFFFFFFFFFFFFFFFFFFF DUP3 PUSH2 0x1459 JUMP JUMPDEST PUSH2 0x149E DUP7 DUP4 PUSH2 0x1459 JUMP JUMPDEST SWAP6 POP DUP1 NOT DUP5 AND SWAP4 POP DUP1 DUP7 AND DUP5 OR SWAP3 POP POP POP SWAP4 SWAP3 POP POP POP JUMP JUMPDEST PUSH0 DUP2 SWAP1 POP SWAP2 SWAP1 POP JUMP JUMPDEST PUSH0 PUSH2 0x14D9 PUSH2 0x14D4 PUSH2 0x14CF DUP5 PUSH2 0xFE8 JUMP JUMPDEST PUSH2 0x14B6 JUMP JUMPDEST PUSH2 0xFE8 JUMP JUMPDEST SWAP1 POP SWAP2 SWAP1 POP JUMP JUMPDEST PUSH0 DUP2 SWAP1 POP SWAP2 SWAP1 POP JUMP JUMPDEST PUSH2 0x14F2 DUP4 PUSH2 0x14BF JUMP JUMPDEST PUSH2 0x1506 PUSH2 0x14FE DUP3 PUSH2 0x14E0 JUMP JUMPDEST DUP5 DUP5 SLOAD PUSH2 0x1465 JUMP JUMPDEST DUP3 SSTORE POP POP POP POP JUMP JUMPDEST PUSH0 SWAP1 JUMP JUMPDEST PUSH2 0x151A PUSH2 0x150E JUMP JUMPDEST PUSH2 0x1525 DUP2 DUP5 DUP5 PUSH2 0x14E9 JUMP JUMPDEST POP POP POP JUMP JUMPDEST JUMPDEST DUP2 DUP2 LT ISZERO PUSH2 0x1548 JUMPI PUSH2 0x153D PUSH0 DUP3 PUSH2 0x1512 JUMP JUMPDEST PUSH1 0x1 DUP2 ADD SWAP1 POP PUSH2 0x152B JUMP JUMPDEST POP POP JUMP JUMPDEST PUSH1 0x1F DUP3 GT ISZERO PUSH2 0x158D JUMPI PUSH2 0x155E DUP2 PUSH2 0x1438 JUMP JUMPDEST PUSH2 0x1567 DUP5 PUSH2 0x144A JUMP JUMPDEST DUP2 ADD PUSH1 0x20 DUP6 LT ISZERO PUSH2 0x1576 JUMPI DUP2 SWAP1 POP JUMPDEST PUSH2 0x158A PUSH2 0x1582 DUP6 PUSH2 0x144A JUMP JUMPDEST DUP4 ADD DUP3 PUSH2 0x152A JUMP JUMPDEST POP POP JUMPDEST POP POP POP JUMP JUMPDEST PUSH0 DUP3 DUP3 SHR SWAP1 POP SWAP3 SWAP2 POP POP JUMP JUMPDEST PUSH0 PUSH2 0x15AD PUSH0 NOT DUP5 PUSH1 0x8 MUL PUSH2 0x1592 JUMP JUMPDEST NOT DUP1 DUP4 AND SWAP2 POP POP SWAP3 SWAP2 POP POP JUMP JUMPDEST PUSH0 PUSH2 0x15C5 DUP4 DUP4 PUSH2 0x159E JUMP JUMPDEST SWAP2 POP DUP3 PUSH1 0x2 MUL DUP3 OR SWAP1 POP SWAP3 SWAP2 POP POP JUMP JUMPDEST PUSH2 0x15DE DUP3 PUSH2 0xF88 JUMP JUMPDEST PUSH8 0xFFFFFFFFFFFFFFFF DUP2 GT ISZERO PUSH2 0x15F7 JUMPI PUSH2 0x15F6 PUSH2 0xDF4 JUMP JUMPDEST JUMPDEST PUSH2 0x1601 DUP3 SLOAD PUSH2 0x1394 JUMP JUMPDEST PUSH2 0x160C DUP3 DUP3 DUP6 PUSH2 0x154C JUMP JUMPDEST PUSH0 PUSH1 0x20 SWAP1 POP PUSH1 0x1F DUP4 GT PUSH1 0x1 DUP2 EQ PUSH2 0x163D JUMPI PUSH0 DUP5 ISZERO PUSH2 0x162B JUMPI DUP3 DUP8 ADD MLOAD SWAP1 POP JUMPDEST PUSH2 0x1635 DUP6 DUP3 PUSH2 0x15BA JUMP JUMPDEST DUP7 SSTORE POP PUSH2 0x169C JUMP JUMPDEST PUSH1 0x1F NOT DUP5 AND PUSH2 0x164B DUP7 PUSH2 0x1438 JUMP JUMPDEST PUSH0 JUMPDEST DUP3 DUP2 LT ISZERO PUSH2 0x1672 JUMPI DUP5 DUP10 ADD MLOAD DUP3 SSTORE PUSH1 0x1 DUP3 ADD SWAP2 POP PUSH1 0x20 DUP6 ADD SWAP5 POP PUSH1 0x20 DUP2 ADD SWAP1 POP PUSH2 0x164D JUMP JUMPDEST DUP7 DUP4 LT ISZERO PUSH2 0x168F JUMPI DUP5 DUP10 ADD MLOAD PUSH2 0x168B PUSH1 0x1F DUP10 AND DUP3 PUSH2 0x159E JUMP JUMPDEST DUP4 SSTORE POP JUMPDEST PUSH1 0x1 PUSH1 0x2 DUP9 MUL ADD DUP9 SSTORE POP POP POP JUMPDEST POP POP POP POP POP POP JUMP INVALID LOG2 PUSH5 0x6970667358 0x22 SLT KECCAK256 0x4D 0xC9 MLOAD 0xDD SMOD 0xC0 BLOCKHASH 0xB9 GAS 0xC9 0xFB 0xC6 0x28 0x2E POP EXTCODEHASH PUSH14 0xBD0FF5E6098DF90BA089DCF8A0A9 SHL PUSH5 0x736F6C6343 STOP ADDMOD BYTE STOP CALLER "
				},
				"gasEstimates": {
					"creation": {
						"codeDepositCost": "1170000",
						"executionCost": "1212",
						"totalCost": "1171212"
					},
					"external": {
						"addBook(string,string,string,uint256,string)": "infinite",
						"books(uint256)": "infinite",
						"getBooksByBranch(string)": "infinite",
						"getBooksByPublisher(string)": "infinite"
					},
					"internal": {
						"compareStrings(string memory,string memory)": "infinite"
					}
				},
				"methodIdentifiers": {
					"addBook(string,string,string,uint256,string)": "f68baded",
					"books(uint256)": "68744046",
					"getBooksByBranch(string)": "62af221f",
					"getBooksByPublisher(string)": "bdd5b3e3"
				}
			},
			"storageLayout": {
				"storage": [
					{
						"astId": 16,
						"contract": "Q2.sol:LibrarySystem",
						"label": "books",
						"offset": 0,
						"slot": "0",
						"type": "t_array(t_struct(Book)12_storage)dyn_storage"
					}
				],
				"types": {
					"t_array(t_struct(Book)12_storage)dyn_storage": {
						"base": "t_struct(Book)12_storage",
						"encoding": "dynamic_array",
						"label": "struct LibrarySystem.Book[]",
						"numberOfBytes": "32"
					},
					"t_string_storage": {
						"encoding": "bytes",
						"label": "string",
						"numberOfBytes": "32"
					},
					"t_struct(Book)12_storage": {
						"encoding": "inplace",
						"label": "struct LibrarySystem.Book",
						"members": [
							{
								"astId": 3,
								"contract": "Q2.sol:LibrarySystem",
								"label": "name",
								"offset": 0,
								"slot": "0",
								"type": "t_string_storage"
							},
							{
								"astId": 5,
								"contract": "Q2.sol:LibrarySystem",
								"label": "author",
								"offset": 0,
								"slot": "1",
								"type": "t_string_storage"
							},
							{
								"astId": 7,
								"contract": "Q2.sol:LibrarySystem",
								"label": "publisher",
								"offset": 0,
								"slot": "2",
								"type": "t_string_storage"
							},
							{
								"astId": 9,
								"contract": "Q2.sol:LibrarySystem",
								"label": "price",
								"offset": 0,
								"slot": "3",
								"type": "t_uint256"
							},
							{
								"astId": 11,
								"contract": "Q2.sol:LibrarySystem",
								"label": "branch",
								"offset": 0,
								"slot": "4",
								"type": "t_string_storage"
							}
						],
						"numberOfBytes": "160"
					},
					"t_uint256": {
						"encoding": "inplace",
						"label": "uint256",
						"numberOfBytes": "32"
					}
				}
			},
			"userdoc": {
				"kind": "user",
				"methods": {},
				"version": 1
			}
		}
	}
}